{
	"AdvancedBlockchainFirewall.sol": {
		"AdvancedAutoBlockchainFirewall": {
			"abi": [
				{
					"inputs": [],
					"stateMutability": "nonpayable",
					"type": "constructor"
				},
				{
					"anonymous": false,
					"inputs": [
						{
							"indexed": true,
							"internalType": "address",
							"name": "admin",
							"type": "address"
						}
					],
					"name": "AdminAdded",
					"type": "event"
				},
				{
					"anonymous": false,
					"inputs": [
						{
							"indexed": true,
							"internalType": "address",
							"name": "admin",
							"type": "address"
						}
					],
					"name": "AdminRemoved",
					"type": "event"
				},
				{
					"anonymous": false,
					"inputs": [
						{
							"indexed": false,
							"internalType": "string",
							"name": "ip",
							"type": "string"
						},
						{
							"indexed": false,
							"internalType": "uint256",
							"name": "suspicionScore",
							"type": "uint256"
						},
						{
							"indexed": false,
							"internalType": "uint256",
							"name": "timestamp",
							"type": "uint256"
						}
					],
					"name": "AutoBlocked",
					"type": "event"
				},
				{
					"anonymous": false,
					"inputs": [
						{
							"indexed": false,
							"internalType": "bool",
							"name": "status",
							"type": "bool"
						}
					],
					"name": "AutoDetectionEnabled",
					"type": "event"
				},
				{
					"anonymous": false,
					"inputs": [
						{
							"indexed": false,
							"internalType": "string",
							"name": "ip",
							"type": "string"
						},
						{
							"indexed": false,
							"internalType": "address",
							"name": "admin",
							"type": "address"
						}
					],
					"name": "IPBlacklisted",
					"type": "event"
				},
				{
					"anonymous": false,
					"inputs": [
						{
							"indexed": false,
							"internalType": "string",
							"name": "ip",
							"type": "string"
						},
						{
							"indexed": false,
							"internalType": "address",
							"name": "admin",
							"type": "address"
						}
					],
					"name": "IPWhitelisted",
					"type": "event"
				},
				{
					"anonymous": false,
					"inputs": [
						{
							"indexed": false,
							"internalType": "string",
							"name": "sourceIP",
							"type": "string"
						},
						{
							"indexed": false,
							"internalType": "uint256",
							"name": "connectionCount",
							"type": "uint256"
						},
						{
							"indexed": false,
							"internalType": "uint256",
							"name": "suspicionScore",
							"type": "uint256"
						}
					],
					"name": "PacketScanned",
					"type": "event"
				},
				{
					"anonymous": false,
					"inputs": [
						{
							"indexed": true,
							"internalType": "uint256",
							"name": "ruleId",
							"type": "uint256"
						},
						{
							"indexed": false,
							"internalType": "string",
							"name": "name",
							"type": "string"
						},
						{
							"indexed": false,
							"internalType": "enum AdvancedAutoBlockchainFirewall.RuleAction",
							"name": "action",
							"type": "uint8"
						}
					],
					"name": "RuleCreated",
					"type": "event"
				},
				{
					"anonymous": false,
					"inputs": [
						{
							"indexed": true,
							"internalType": "uint256",
							"name": "ruleId",
							"type": "uint256"
						}
					],
					"name": "RuleDeleted",
					"type": "event"
				},
				{
					"anonymous": false,
					"inputs": [
						{
							"indexed": true,
							"internalType": "uint256",
							"name": "ruleId",
							"type": "uint256"
						},
						{
							"indexed": false,
							"internalType": "bool",
							"name": "isActive",
							"type": "bool"
						}
					],
					"name": "RuleUpdated",
					"type": "event"
				},
				{
					"anonymous": false,
					"inputs": [
						{
							"indexed": true,
							"internalType": "address",
							"name": "admin",
							"type": "address"
						},
						{
							"indexed": false,
							"internalType": "uint256",
							"name": "timestamp",
							"type": "uint256"
						}
					],
					"name": "SystemStarted",
					"type": "event"
				},
				{
					"anonymous": false,
					"inputs": [
						{
							"indexed": true,
							"internalType": "address",
							"name": "admin",
							"type": "address"
						},
						{
							"indexed": false,
							"internalType": "uint256",
							"name": "timestamp",
							"type": "uint256"
						}
					],
					"name": "SystemStopped",
					"type": "event"
				},
				{
					"anonymous": false,
					"inputs": [
						{
							"indexed": true,
							"internalType": "uint256",
							"name": "threatId",
							"type": "uint256"
						},
						{
							"indexed": false,
							"internalType": "string",
							"name": "sourceIP",
							"type": "string"
						},
						{
							"indexed": false,
							"internalType": "enum AdvancedAutoBlockchainFirewall.ThreatLevel",
							"name": "level",
							"type": "uint8"
						},
						{
							"indexed": false,
							"internalType": "uint256",
							"name": "timestamp",
							"type": "uint256"
						}
					],
					"name": "ThreatDetected",
					"type": "event"
				},
				{
					"anonymous": false,
					"inputs": [
						{
							"indexed": false,
							"internalType": "string",
							"name": "thresholdType",
							"type": "string"
						},
						{
							"indexed": false,
							"internalType": "uint256",
							"name": "newValue",
							"type": "uint256"
						}
					],
					"name": "ThresholdUpdated",
					"type": "event"
				},
				{
					"inputs": [
						{
							"internalType": "address",
							"name": "_admin",
							"type": "address"
						}
					],
					"name": "addAdmin",
					"outputs": [],
					"stateMutability": "nonpayable",
					"type": "function"
				},
				{
					"inputs": [
						{
							"internalType": "address",
							"name": "",
							"type": "address"
						}
					],
					"name": "authorizedAdmins",
					"outputs": [
						{
							"internalType": "bool",
							"name": "",
							"type": "bool"
						}
					],
					"stateMutability": "view",
					"type": "function"
				},
				{
					"inputs": [],
					"name": "autoBlockThreshold",
					"outputs": [
						{
							"internalType": "uint256",
							"name": "",
							"type": "uint256"
						}
					],
					"stateMutability": "view",
					"type": "function"
				},
				{
					"inputs": [],
					"name": "autoDetectionEnabled",
					"outputs": [
						{
							"internalType": "bool",
							"name": "",
							"type": "bool"
						}
					],
					"stateMutability": "view",
					"type": "function"
				},
				{
					"inputs": [
						{
							"internalType": "string",
							"name": "",
							"type": "string"
						}
					],
					"name": "blacklistedIPs",
					"outputs": [
						{
							"internalType": "bool",
							"name": "",
							"type": "bool"
						}
					],
					"stateMutability": "view",
					"type": "function"
				},
				{
					"inputs": [
						{
							"internalType": "string",
							"name": "_name",
							"type": "string"
						},
						{
							"internalType": "string",
							"name": "_sourceIP",
							"type": "string"
						},
						{
							"internalType": "string",
							"name": "_destinationIP",
							"type": "string"
						},
						{
							"internalType": "uint256",
							"name": "_sourcePort",
							"type": "uint256"
						},
						{
							"internalType": "uint256",
							"name": "_destinationPort",
							"type": "uint256"
						},
						{
							"internalType": "enum AdvancedAutoBlockchainFirewall.Protocol",
							"name": "_protocol",
							"type": "uint8"
						},
						{
							"internalType": "enum AdvancedAutoBlockchainFirewall.RuleAction",
							"name": "_action",
							"type": "uint8"
						},
						{
							"internalType": "uint256",
							"name": "_priority",
							"type": "uint256"
						}
					],
					"name": "createRule",
					"outputs": [
						{
							"internalType": "uint256",
							"name": "",
							"type": "uint256"
						}
					],
					"stateMutability": "nonpayable",
					"type": "function"
				},
				{
					"inputs": [
						{
							"internalType": "uint256",
							"name": "_ruleId",
							"type": "uint256"
						}
					],
					"name": "deleteRule",
					"outputs": [],
					"stateMutability": "nonpayable",
					"type": "function"
				},
				{
					"inputs": [],
					"name": "disableAutoDetection",
					"outputs": [],
					"stateMutability": "nonpayable",
					"type": "function"
				},
				{
					"inputs": [],
					"name": "enableAutoDetection",
					"outputs": [],
					"stateMutability": "nonpayable",
					"type": "function"
				},
				{
					"inputs": [
						{
							"internalType": "uint256",
							"name": "",
							"type": "uint256"
						}
					],
					"name": "firewallRules",
					"outputs": [
						{
							"internalType": "uint256",
							"name": "id",
							"type": "uint256"
						},
						{
							"internalType": "string",
							"name": "name",
							"type": "string"
						},
						{
							"internalType": "string",
							"name": "sourceIP",
							"type": "string"
						},
						{
							"internalType": "string",
							"name": "destinationIP",
							"type": "string"
						},
						{
							"internalType": "uint256",
							"name": "sourcePort",
							"type": "uint256"
						},
						{
							"internalType": "uint256",
							"name": "destinationPort",
							"type": "uint256"
						},
						{
							"internalType": "enum AdvancedAutoBlockchainFirewall.Protocol",
							"name": "protocol",
							"type": "uint8"
						},
						{
							"internalType": "enum AdvancedAutoBlockchainFirewall.RuleAction",
							"name": "action",
							"type": "uint8"
						},
						{
							"internalType": "bool",
							"name": "isActive",
							"type": "bool"
						},
						{
							"internalType": "uint256",
							"name": "priority",
							"type": "uint256"
						},
						{
							"internalType": "uint256",
							"name": "createdAt",
							"type": "uint256"
						},
						{
							"internalType": "address",
							"name": "createdBy",
							"type": "address"
						}
					],
					"stateMutability": "view",
					"type": "function"
				},
				{
					"inputs": [
						{
							"internalType": "string",
							"name": "_ip",
							"type": "string"
						}
					],
					"name": "getIPTraffic",
					"outputs": [
						{
							"components": [
								{
									"internalType": "uint256",
									"name": "connectionCount",
									"type": "uint256"
								},
								{
									"internalType": "uint256",
									"name": "lastAccessTime",
									"type": "uint256"
								},
								{
									"internalType": "uint256",
									"name": "suspicionScore",
									"type": "uint256"
								},
								{
									"internalType": "bool",
									"name": "isMonitored",
									"type": "bool"
								}
							],
							"internalType": "struct AdvancedAutoBlockchainFirewall.IPTraffic",
							"name": "",
							"type": "tuple"
						}
					],
					"stateMutability": "view",
					"type": "function"
				},
				{
					"inputs": [],
					"name": "getNetworkStats",
					"outputs": [
						{
							"components": [
								{
									"internalType": "uint256",
									"name": "totalPacketsScanned",
									"type": "uint256"
								},
								{
									"internalType": "uint256",
									"name": "threatsBlocked",
									"type": "uint256"
								},
								{
									"internalType": "uint256",
									"name": "alertsTriggered",
									"type": "uint256"
								},
								{
									"internalType": "uint256",
									"name": "autoBlockedIPs",
									"type": "uint256"
								},
								{
									"internalType": "uint256",
									"name": "lastUpdateTime",
									"type": "uint256"
								}
							],
							"internalType": "struct AdvancedAutoBlockchainFirewall.NetworkStats",
							"name": "",
							"type": "tuple"
						}
					],
					"stateMutability": "view",
					"type": "function"
				},
				{
					"inputs": [
						{
							"internalType": "uint256",
							"name": "_ruleId",
							"type": "uint256"
						}
					],
					"name": "getRule",
					"outputs": [
						{
							"components": [
								{
									"internalType": "uint256",
									"name": "id",
									"type": "uint256"
								},
								{
									"internalType": "string",
									"name": "name",
									"type": "string"
								},
								{
									"internalType": "string",
									"name": "sourceIP",
									"type": "string"
								},
								{
									"internalType": "string",
									"name": "destinationIP",
									"type": "string"
								},
								{
									"internalType": "uint256",
									"name": "sourcePort",
									"type": "uint256"
								},
								{
									"internalType": "uint256",
									"name": "destinationPort",
									"type": "uint256"
								},
								{
									"internalType": "enum AdvancedAutoBlockchainFirewall.Protocol",
									"name": "protocol",
									"type": "uint8"
								},
								{
									"internalType": "enum AdvancedAutoBlockchainFirewall.RuleAction",
									"name": "action",
									"type": "uint8"
								},
								{
									"internalType": "bool",
									"name": "isActive",
									"type": "bool"
								},
								{
									"internalType": "uint256",
									"name": "priority",
									"type": "uint256"
								},
								{
									"internalType": "uint256",
									"name": "createdAt",
									"type": "uint256"
								},
								{
									"internalType": "address",
									"name": "createdBy",
									"type": "address"
								}
							],
							"internalType": "struct AdvancedAutoBlockchainFirewall.FirewallRule",
							"name": "",
							"type": "tuple"
						}
					],
					"stateMutability": "view",
					"type": "function"
				},
				{
					"inputs": [],
					"name": "getRuleCount",
					"outputs": [
						{
							"internalType": "uint256",
							"name": "",
							"type": "uint256"
						}
					],
					"stateMutability": "view",
					"type": "function"
				},
				{
					"inputs": [],
					"name": "getSystemStatus",
					"outputs": [
						{
							"internalType": "bool",
							"name": "active",
							"type": "bool"
						},
						{
							"internalType": "bool",
							"name": "autoDetection",
							"type": "bool"
						},
						{
							"internalType": "uint256",
							"name": "threats",
							"type": "uint256"
						},
						{
							"internalType": "uint256",
							"name": "blocked",
							"type": "uint256"
						},
						{
							"internalType": "uint256",
							"name": "rules",
							"type": "uint256"
						}
					],
					"stateMutability": "view",
					"type": "function"
				},
				{
					"inputs": [],
					"name": "getThreatCount",
					"outputs": [
						{
							"internalType": "uint256",
							"name": "",
							"type": "uint256"
						}
					],
					"stateMutability": "view",
					"type": "function"
				},
				{
					"inputs": [
						{
							"internalType": "uint256",
							"name": "_threatId",
							"type": "uint256"
						}
					],
					"name": "getThreatLog",
					"outputs": [
						{
							"components": [
								{
									"internalType": "uint256",
									"name": "id",
									"type": "uint256"
								},
								{
									"internalType": "string",
									"name": "sourceIP",
									"type": "string"
								},
								{
									"internalType": "string",
									"name": "attackType",
									"type": "string"
								},
								{
									"internalType": "enum AdvancedAutoBlockchainFirewall.ThreatLevel",
									"name": "level",
									"type": "uint8"
								},
								{
									"internalType": "uint256",
									"name": "timestamp",
									"type": "uint256"
								},
								{
									"internalType": "string",
									"name": "description",
									"type": "string"
								},
								{
									"internalType": "bool",
									"name": "isBlocked",
									"type": "bool"
								},
								{
									"internalType": "uint256",
									"name": "connectionAttempts",
									"type": "uint256"
								}
							],
							"internalType": "struct AdvancedAutoBlockchainFirewall.ThreatLog",
							"name": "",
							"type": "tuple"
						}
					],
					"stateMutability": "view",
					"type": "function"
				},
				{
					"inputs": [
						{
							"internalType": "string",
							"name": "",
							"type": "string"
						}
					],
					"name": "ipTrafficData",
					"outputs": [
						{
							"internalType": "uint256",
							"name": "connectionCount",
							"type": "uint256"
						},
						{
							"internalType": "uint256",
							"name": "lastAccessTime",
							"type": "uint256"
						},
						{
							"internalType": "uint256",
							"name": "suspicionScore",
							"type": "uint256"
						},
						{
							"internalType": "bool",
							"name": "isMonitored",
							"type": "bool"
						}
					],
					"stateMutability": "view",
					"type": "function"
				},
				{
					"inputs": [
						{
							"internalType": "address",
							"name": "_address",
							"type": "address"
						}
					],
					"name": "isAdmin",
					"outputs": [
						{
							"internalType": "bool",
							"name": "",
							"type": "bool"
						}
					],
					"stateMutability": "view",
					"type": "function"
				},
				{
					"inputs": [
						{
							"internalType": "string",
							"name": "_ip",
							"type": "string"
						}
					],
					"name": "isIPBlacklisted",
					"outputs": [
						{
							"internalType": "bool",
							"name": "",
							"type": "bool"
						}
					],
					"stateMutability": "view",
					"type": "function"
				},
				{
					"inputs": [
						{
							"internalType": "string",
							"name": "_ip",
							"type": "string"
						}
					],
					"name": "isIPWhitelisted",
					"outputs": [
						{
							"internalType": "bool",
							"name": "",
							"type": "bool"
						}
					],
					"stateMutability": "view",
					"type": "function"
				},
				{
					"inputs": [],
					"name": "isSystemActive",
					"outputs": [
						{
							"internalType": "bool",
							"name": "",
							"type": "bool"
						}
					],
					"stateMutability": "view",
					"type": "function"
				},
				{
					"inputs": [
						{
							"internalType": "string",
							"name": "_sourceIP",
							"type": "string"
						},
						{
							"internalType": "string",
							"name": "_attackType",
							"type": "string"
						},
						{
							"internalType": "enum AdvancedAutoBlockchainFirewall.ThreatLevel",
							"name": "_level",
							"type": "uint8"
						},
						{
							"internalType": "string",
							"name": "_description",
							"type": "string"
						},
						{
							"internalType": "bool",
							"name": "_shouldBlock",
							"type": "bool"
						}
					],
					"name": "logManualThreat",
					"outputs": [
						{
							"internalType": "uint256",
							"name": "",
							"type": "uint256"
						}
					],
					"stateMutability": "nonpayable",
					"type": "function"
				},
				{
					"inputs": [
						{
							"internalType": "string",
							"name": "_ip",
							"type": "string"
						}
					],
					"name": "manualBlacklist",
					"outputs": [],
					"stateMutability": "nonpayable",
					"type": "function"
				},
				{
					"inputs": [
						{
							"internalType": "string",
							"name": "_ip",
							"type": "string"
						}
					],
					"name": "manualWhitelist",
					"outputs": [],
					"stateMutability": "nonpayable",
					"type": "function"
				},
				{
					"inputs": [],
					"name": "maxConnectionsPerMinute",
					"outputs": [
						{
							"internalType": "uint256",
							"name": "",
							"type": "uint256"
						}
					],
					"stateMutability": "view",
					"type": "function"
				},
				{
					"inputs": [],
					"name": "networkStats",
					"outputs": [
						{
							"internalType": "uint256",
							"name": "totalPacketsScanned",
							"type": "uint256"
						},
						{
							"internalType": "uint256",
							"name": "threatsBlocked",
							"type": "uint256"
						},
						{
							"internalType": "uint256",
							"name": "alertsTriggered",
							"type": "uint256"
						},
						{
							"internalType": "uint256",
							"name": "autoBlockedIPs",
							"type": "uint256"
						},
						{
							"internalType": "uint256",
							"name": "lastUpdateTime",
							"type": "uint256"
						}
					],
					"stateMutability": "view",
					"type": "function"
				},
				{
					"inputs": [],
					"name": "owner",
					"outputs": [
						{
							"internalType": "address",
							"name": "",
							"type": "address"
						}
					],
					"stateMutability": "view",
					"type": "function"
				},
				{
					"inputs": [
						{
							"internalType": "address",
							"name": "_admin",
							"type": "address"
						}
					],
					"name": "removeAdmin",
					"outputs": [],
					"stateMutability": "nonpayable",
					"type": "function"
				},
				{
					"inputs": [
						{
							"internalType": "string",
							"name": "_ip",
							"type": "string"
						}
					],
					"name": "removeFromBlacklist",
					"outputs": [],
					"stateMutability": "nonpayable",
					"type": "function"
				},
				{
					"inputs": [
						{
							"internalType": "string",
							"name": "_ip",
							"type": "string"
						}
					],
					"name": "removeFromWhitelist",
					"outputs": [],
					"stateMutability": "nonpayable",
					"type": "function"
				},
				{
					"inputs": [],
					"name": "ruleCounter",
					"outputs": [
						{
							"internalType": "uint256",
							"name": "",
							"type": "uint256"
						}
					],
					"stateMutability": "view",
					"type": "function"
				},
				{
					"inputs": [
						{
							"internalType": "string",
							"name": "_sourceIP",
							"type": "string"
						},
						{
							"internalType": "string",
							"name": "_destinationIP",
							"type": "string"
						},
						{
							"internalType": "uint256",
							"name": "_port",
							"type": "uint256"
						},
						{
							"internalType": "enum AdvancedAutoBlockchainFirewall.Protocol",
							"name": "_protocol",
							"type": "uint8"
						}
					],
					"name": "scanPacket",
					"outputs": [
						{
							"internalType": "bool",
							"name": "allowed",
							"type": "bool"
						}
					],
					"stateMutability": "nonpayable",
					"type": "function"
				},
				{
					"inputs": [],
					"name": "startSystem",
					"outputs": [],
					"stateMutability": "nonpayable",
					"type": "function"
				},
				{
					"inputs": [],
					"name": "stopSystem",
					"outputs": [],
					"stateMutability": "nonpayable",
					"type": "function"
				},
				{
					"inputs": [],
					"name": "suspicionThreshold",
					"outputs": [
						{
							"internalType": "uint256",
							"name": "",
							"type": "uint256"
						}
					],
					"stateMutability": "view",
					"type": "function"
				},
				{
					"inputs": [],
					"name": "threatCounter",
					"outputs": [
						{
							"internalType": "uint256",
							"name": "",
							"type": "uint256"
						}
					],
					"stateMutability": "view",
					"type": "function"
				},
				{
					"inputs": [
						{
							"internalType": "uint256",
							"name": "",
							"type": "uint256"
						}
					],
					"name": "threatLogs",
					"outputs": [
						{
							"internalType": "uint256",
							"name": "id",
							"type": "uint256"
						},
						{
							"internalType": "string",
							"name": "sourceIP",
							"type": "string"
						},
						{
							"internalType": "string",
							"name": "attackType",
							"type": "string"
						},
						{
							"internalType": "enum AdvancedAutoBlockchainFirewall.ThreatLevel",
							"name": "level",
							"type": "uint8"
						},
						{
							"internalType": "uint256",
							"name": "timestamp",
							"type": "uint256"
						},
						{
							"internalType": "string",
							"name": "description",
							"type": "string"
						},
						{
							"internalType": "bool",
							"name": "isBlocked",
							"type": "bool"
						},
						{
							"internalType": "uint256",
							"name": "connectionAttempts",
							"type": "uint256"
						}
					],
					"stateMutability": "view",
					"type": "function"
				},
				{
					"inputs": [
						{
							"internalType": "uint256",
							"name": "_newThreshold",
							"type": "uint256"
						}
					],
					"name": "updateAutoBlockThreshold",
					"outputs": [],
					"stateMutability": "nonpayable",
					"type": "function"
				},
				{
					"inputs": [
						{
							"internalType": "uint256",
							"name": "_newMax",
							"type": "uint256"
						}
					],
					"name": "updateMaxConnections",
					"outputs": [],
					"stateMutability": "nonpayable",
					"type": "function"
				},
				{
					"inputs": [
						{
							"internalType": "uint256",
							"name": "_ruleId",
							"type": "uint256"
						},
						{
							"internalType": "bool",
							"name": "_isActive",
							"type": "bool"
						}
					],
					"name": "updateRuleStatus",
					"outputs": [],
					"stateMutability": "nonpayable",
					"type": "function"
				},
				{
					"inputs": [
						{
							"internalType": "uint256",
							"name": "_newThreshold",
							"type": "uint256"
						}
					],
					"name": "updateSuspicionThreshold",
					"outputs": [],
					"stateMutability": "nonpayable",
					"type": "function"
				},
				{
					"inputs": [
						{
							"internalType": "string",
							"name": "",
							"type": "string"
						}
					],
					"name": "whitelistedIPs",
					"outputs": [
						{
							"internalType": "bool",
							"name": "",
							"type": "bool"
						}
					],
					"stateMutability": "view",
					"type": "function"
				}
			],
			"devdoc": {
				"details": "Auto-Detection Blockchain Firewall with Continuous Monitoring File Name: AdvancedAutoBlockchainFirewall.sol",
				"kind": "dev",
				"methods": {},
				"title": "AdvancedAutoBlockchainFirewall",
				"version": 1
			},
			"evm": {
				"assembly": "    /* \"AdvancedBlockchainFirewall.sol\":225:14003  contract AdvancedAutoBlockchainFirewall {... */\n  mstore(0x40, 0x80)\n    /* \"AdvancedBlockchainFirewall.sol\":2048:2051  100 */\n  0x64\n    /* \"AdvancedBlockchainFirewall.sol\":2007:2051  uint256 public maxConnectionsPerMinute = 100 */\n  0x0f\n  sstore\n    /* \"AdvancedBlockchainFirewall.sol\":2093:2096  500 */\n  0x01f4\n    /* \"AdvancedBlockchainFirewall.sol\":2057:2096  uint256 public suspicionThreshold = 500 */\n  0x10\n  sstore\n    /* \"AdvancedBlockchainFirewall.sol\":2138:2142  1000 */\n  0x03e8\n    /* \"AdvancedBlockchainFirewall.sol\":2102:2142  uint256 public autoBlockThreshold = 1000 */\n  0x11\n  sstore\n    /* \"AdvancedBlockchainFirewall.sol\":3483:3764  constructor() {... */\n  callvalue\n  dup1\n  iszero\n  tag_1\n  jumpi\n  revert(0x00, 0x00)\ntag_1:\n  pop\n    /* \"AdvancedBlockchainFirewall.sol\":3515:3525  msg.sender */\n  caller\n    /* \"AdvancedBlockchainFirewall.sol\":3507:3512  owner */\n  0x00\n  0x00\n    /* \"AdvancedBlockchainFirewall.sol\":3507:3525  owner = msg.sender */\n  0x0100\n  exp\n  dup2\n  sload\n  dup2\n  0xffffffffffffffffffffffffffffffffffffffff\n  mul\n  not\n  and\n  swap1\n  dup4\n  0xffffffffffffffffffffffffffffffffffffffff\n  and\n  mul\n  or\n  swap1\n  sstore\n  pop\n    /* \"AdvancedBlockchainFirewall.sol\":3566:3570  true */\n  0x01\n    /* \"AdvancedBlockchainFirewall.sol\":3535:3551  authorizedAdmins */\n  0x06\n    /* \"AdvancedBlockchainFirewall.sol\":3535:3563  authorizedAdmins[msg.sender] */\n  0x00\n    /* \"AdvancedBlockchainFirewall.sol\":3552:3562  msg.sender */\n  caller\n    /* \"AdvancedBlockchainFirewall.sol\":3535:3563  authorizedAdmins[msg.sender] */\n  0xffffffffffffffffffffffffffffffffffffffff\n  and\n  0xffffffffffffffffffffffffffffffffffffffff\n  and\n  dup2\n  mstore\n  0x20\n  add\n  swap1\n  dup2\n  mstore\n  0x20\n  add\n  0x00\n  keccak256\n  0x00\n    /* \"AdvancedBlockchainFirewall.sol\":3535:3570  authorizedAdmins[msg.sender] = true */\n  0x0100\n  exp\n  dup2\n  sload\n  dup2\n  0xff\n  mul\n  not\n  and\n  swap1\n  dup4\n  iszero\n  iszero\n  mul\n  or\n  swap1\n  sstore\n  pop\n    /* \"AdvancedBlockchainFirewall.sol\":3594:3595  0 */\n  0x00\n    /* \"AdvancedBlockchainFirewall.sol\":3580:3591  ruleCounter */\n  0x01\n    /* \"AdvancedBlockchainFirewall.sol\":3580:3595  ruleCounter = 0 */\n  dup2\n  swap1\n  sstore\n  pop\n    /* \"AdvancedBlockchainFirewall.sol\":3621:3622  0 */\n  0x00\n    /* \"AdvancedBlockchainFirewall.sol\":3605:3618  threatCounter */\n  0x02\n    /* \"AdvancedBlockchainFirewall.sol\":3605:3622  threatCounter = 0 */\n  dup2\n  swap1\n  sstore\n  pop\n    /* \"AdvancedBlockchainFirewall.sol\":3649:3654  false */\n  0x00\n    /* \"AdvancedBlockchainFirewall.sol\":3632:3646  isSystemActive */\n  0x03\n  0x00\n    /* \"AdvancedBlockchainFirewall.sol\":3632:3654  isSystemActive = false */\n  0x0100\n  exp\n  dup2\n  sload\n  dup2\n  0xff\n  mul\n  not\n  and\n  swap1\n  dup4\n  iszero\n  iszero\n  mul\n  or\n  swap1\n  sstore\n  pop\n    /* \"AdvancedBlockchainFirewall.sol\":3687:3691  true */\n  0x01\n    /* \"AdvancedBlockchainFirewall.sol\":3664:3684  autoDetectionEnabled */\n  0x03\n  0x01\n    /* \"AdvancedBlockchainFirewall.sol\":3664:3691  autoDetectionEnabled = true */\n  0x0100\n  exp\n  dup2\n  sload\n  dup2\n  0xff\n  mul\n  not\n  and\n  swap1\n  dup4\n  iszero\n  iszero\n  mul\n  or\n  swap1\n  sstore\n  pop\n    /* \"AdvancedBlockchainFirewall.sol\":3716:3757  NetworkStats(0, 0, 0, 0, block.timestamp) */\n  mload(0x40)\n  dup1\n  0xa0\n  add\n  0x40\n  mstore\n  dup1\n    /* \"AdvancedBlockchainFirewall.sol\":3729:3730  0 */\n  0x00\n    /* \"AdvancedBlockchainFirewall.sol\":3716:3757  NetworkStats(0, 0, 0, 0, block.timestamp) */\n  dup2\n  mstore\n  0x20\n  add\n    /* \"AdvancedBlockchainFirewall.sol\":3732:3733  0 */\n  0x00\n    /* \"AdvancedBlockchainFirewall.sol\":3716:3757  NetworkStats(0, 0, 0, 0, block.timestamp) */\n  dup2\n  mstore\n  0x20\n  add\n    /* \"AdvancedBlockchainFirewall.sol\":3735:3736  0 */\n  0x00\n    /* \"AdvancedBlockchainFirewall.sol\":3716:3757  NetworkStats(0, 0, 0, 0, block.timestamp) */\n  dup2\n  mstore\n  0x20\n  add\n    /* \"AdvancedBlockchainFirewall.sol\":3738:3739  0 */\n  0x00\n    /* \"AdvancedBlockchainFirewall.sol\":3716:3757  NetworkStats(0, 0, 0, 0, block.timestamp) */\n  dup2\n  mstore\n  0x20\n  add\n    /* \"AdvancedBlockchainFirewall.sol\":3741:3756  block.timestamp */\n  timestamp\n    /* \"AdvancedBlockchainFirewall.sol\":3716:3757  NetworkStats(0, 0, 0, 0, block.timestamp) */\n  dup2\n  mstore\n  pop\n    /* \"AdvancedBlockchainFirewall.sol\":3701:3713  networkStats */\n  0x0a\n    /* \"AdvancedBlockchainFirewall.sol\":3701:3757  networkStats = NetworkStats(0, 0, 0, 0, block.timestamp) */\n  0x00\n  dup3\n  add\n  mload\n  dup2\n  0x00\n  add\n  sstore\n  0x20\n  dup3\n  add\n  mload\n  dup2\n  0x01\n  add\n  sstore\n  0x40\n  dup3\n  add\n  mload\n  dup2\n  0x02\n  add\n  sstore\n  0x60\n  dup3\n  add\n  mload\n  dup2\n  0x03\n  add\n  sstore\n  0x80\n  dup3\n  add\n  mload\n  dup2\n  0x04\n  add\n  sstore\n  swap1\n  pop\n  pop\n    /* \"AdvancedBlockchainFirewall.sol\":225:14003  contract AdvancedAutoBlockchainFirewall {... */\n  dataSize(sub_0)\n  dup1\n  dataOffset(sub_0)\n  0x00\n  codecopy\n  0x00\n  return\nstop\n\nsub_0: assembly {\n        /* \"AdvancedBlockchainFirewall.sol\":225:14003  contract AdvancedAutoBlockchainFirewall {... */\n      mstore(0x40, 0x80)\n      callvalue\n      dup1\n      iszero\n      tag_1\n      jumpi\n      revert(0x00, 0x00)\n    tag_1:\n      pop\n      jumpi(tag_2, lt(calldatasize, 0x04))\n      shr(0xe0, calldataload(0x00))\n      dup1\n      0x6dd3e61a\n      gt\n      tag_46\n      jumpi\n      dup1\n      0xa0e362f9\n      gt\n      tag_47\n      jumpi\n      dup1\n      0xb3d9bffc\n      gt\n      tag_48\n      jumpi\n      dup1\n      0xb3d9bffc\n      eq\n      tag_40\n      jumpi\n      dup1\n      0xbe7c4091\n      eq\n      tag_41\n      jumpi\n      dup1\n      0xc021e0f6\n      eq\n      tag_42\n      jumpi\n      dup1\n      0xc10460d8\n      eq\n      tag_43\n      jumpi\n      dup1\n      0xd54e398b\n      eq\n      tag_44\n      jumpi\n      dup1\n      0xed6229b2\n      eq\n      tag_45\n      jumpi\n      jump(tag_2)\n    tag_48:\n      dup1\n      0xa0e362f9\n      eq\n      tag_35\n      jumpi\n      dup1\n      0xac584166\n      eq\n      tag_36\n      jumpi\n      dup1\n      0xad91cb94\n      eq\n      tag_37\n      jumpi\n      dup1\n      0xb11b267b\n      eq\n      tag_38\n      jumpi\n      dup1\n      0xb2df4696\n      eq\n      tag_39\n      jumpi\n      jump(tag_2)\n    tag_47:\n      dup1\n      0x7b064412\n      gt\n      tag_49\n      jumpi\n      dup1\n      0x7b064412\n      eq\n      tag_29\n      jumpi\n      dup1\n      0x81544029\n      eq\n      tag_30\n      jumpi\n      dup1\n      0x8cbab21f\n      eq\n      tag_31\n      jumpi\n      dup1\n      0x8da5cb5b\n      eq\n      tag_32\n      jumpi\n      dup1\n      0x9a4d6f73\n      eq\n      tag_33\n      jumpi\n      dup1\n      0x9fdb4729\n      eq\n      tag_34\n      jumpi\n      jump(tag_2)\n    tag_49:\n      dup1\n      0x6dd3e61a\n      eq\n      tag_24\n      jumpi\n      dup1\n      0x6eb143ba\n      eq\n      tag_25\n      jumpi\n      dup1\n      0x6eed7e43\n      eq\n      tag_26\n      jumpi\n      dup1\n      0x70480275\n      eq\n      tag_27\n      jumpi\n      dup1\n      0x7a26b08f\n      eq\n      tag_28\n      jumpi\n      jump(tag_2)\n    tag_46:\n      dup1\n      0x2fe37089\n      gt\n      tag_50\n      jumpi\n      dup1\n      0x48462037\n      gt\n      tag_51\n      jumpi\n      dup1\n      0x48462037\n      eq\n      tag_18\n      jumpi\n      dup1\n      0x4a662f48\n      eq\n      tag_19\n      jumpi\n      dup1\n      0x50c1d19d\n      eq\n      tag_20\n      jumpi\n      dup1\n      0x5c3ca910\n      eq\n      tag_21\n      jumpi\n      dup1\n      0x5db2e212\n      eq\n      tag_22\n      jumpi\n      dup1\n      0x6096954f\n      eq\n      tag_23\n      jumpi\n      jump(tag_2)\n    tag_51:\n      dup1\n      0x2fe37089\n      eq\n      tag_13\n      jumpi\n      dup1\n      0x30626b5c\n      eq\n      tag_14\n      jumpi\n      dup1\n      0x35166226\n      eq\n      tag_15\n      jumpi\n      dup1\n      0x3df907c3\n      eq\n      tag_16\n      jumpi\n      dup1\n      0x444927ac\n      eq\n      tag_17\n      jumpi\n      jump(tag_2)\n    tag_50:\n      dup1\n      0x22347c31\n      gt\n      tag_52\n      jumpi\n      dup1\n      0x22347c31\n      eq\n      tag_8\n      jumpi\n      dup1\n      0x225b623a\n      eq\n      tag_9\n      jumpi\n      dup1\n      0x24d7806c\n      eq\n      tag_10\n      jumpi\n      dup1\n      0x2e7389f4\n      eq\n      tag_11\n      jumpi\n      dup1\n      0x2f0ee67f\n      eq\n      tag_12\n      jumpi\n      jump(tag_2)\n    tag_52:\n      dup1\n      0x0e7310f8\n      eq\n      tag_3\n      jumpi\n      dup1\n      0x0ecc9b24\n      eq\n      tag_4\n      jumpi\n      dup1\n      0x11454c16\n      eq\n      tag_5\n      jumpi\n      dup1\n      0x175a292d\n      eq\n      tag_6\n      jumpi\n      dup1\n      0x1785f53c\n      eq\n      tag_7\n      jumpi\n    tag_2:\n      revert(0x00, 0x00)\n        /* \"AdvancedBlockchainFirewall.sol\":5044:5195  function manualWhitelist(string memory _ip) external onlyAdmin {... */\n    tag_3:\n      tag_53\n      0x04\n      dup1\n      calldatasize\n      sub\n      dup2\n      add\n      swap1\n      tag_54\n      swap2\n      swap1\n      tag_55\n      jump\t// in\n    tag_54:\n      tag_56\n      jump\t// in\n    tag_53:\n      stop\n        /* \"AdvancedBlockchainFirewall.sol\":2007:2051  uint256 public maxConnectionsPerMinute = 100 */\n    tag_4:\n      tag_57\n      tag_58\n      jump\t// in\n    tag_57:\n      mload(0x40)\n      tag_59\n      swap2\n      swap1\n      tag_60\n      jump\t// in\n    tag_59:\n      mload(0x40)\n      dup1\n      swap2\n      sub\n      swap1\n      return\n        /* \"AdvancedBlockchainFirewall.sol\":1662:1709  mapping(uint256 => ThreatLog) public threatLogs */\n    tag_5:\n      tag_61\n      0x04\n      dup1\n      calldatasize\n      sub\n      dup2\n      add\n      swap1\n      tag_62\n      swap2\n      swap1\n      tag_63\n      jump\t// in\n    tag_62:\n      tag_64\n      jump\t// in\n    tag_61:\n      mload(0x40)\n      tag_65\n      swap9\n      swap8\n      swap7\n      swap6\n      swap5\n      swap4\n      swap3\n      swap2\n      swap1\n      tag_66\n      jump\t// in\n    tag_65:\n      mload(0x40)\n      dup1\n      swap2\n      sub\n      swap1\n      return\n        /* \"AdvancedBlockchainFirewall.sol\":5326:5440  function isIPBlacklisted(string memory _ip) public view returns (bool) {... */\n    tag_6:\n      tag_67\n      0x04\n      dup1\n      calldatasize\n      sub\n      dup2\n      add\n      swap1\n      tag_68\n      swap2\n      swap1\n      tag_55\n      jump\t// in\n    tag_68:\n      tag_69\n      jump\t// in\n    tag_67:\n      mload(0x40)\n      tag_70\n      swap2\n      swap1\n      tag_71\n      jump\t// in\n    tag_70:\n      mload(0x40)\n      dup1\n      swap2\n      sub\n      swap1\n      return\n        /* \"AdvancedBlockchainFirewall.sol\":12557:12754  function removeAdmin(address _admin) external onlyOwner {... */\n    tag_7:\n      tag_72\n      0x04\n      dup1\n      calldatasize\n      sub\n      dup2\n      add\n      swap1\n      tag_73\n      swap2\n      swap1\n      tag_74\n      jump\t// in\n    tag_73:\n      tag_75\n      jump\t// in\n    tag_72:\n      stop\n        /* \"AdvancedBlockchainFirewall.sol\":8947:9902  function logManualThreat(... */\n    tag_8:\n      tag_76\n      0x04\n      dup1\n      calldatasize\n      sub\n      dup2\n      add\n      swap1\n      tag_77\n      swap2\n      swap1\n      tag_78\n      jump\t// in\n    tag_77:\n      tag_79\n      jump\t// in\n    tag_76:\n      mload(0x40)\n      tag_80\n      swap2\n      swap1\n      tag_60\n      jump\t// in\n    tag_80:\n      mload(0x40)\n      dup1\n      swap2\n      sub\n      swap1\n      return\n        /* \"AdvancedBlockchainFirewall.sol\":4762:4913  function manualBlacklist(string memory _ip) external onlyAdmin {... */\n    tag_9:\n      tag_81\n      0x04\n      dup1\n      calldatasize\n      sub\n      dup2\n      add\n      swap1\n      tag_82\n      swap2\n      swap1\n      tag_55\n      jump\t// in\n    tag_82:\n      tag_83\n      jump\t// in\n    tag_81:\n      stop\n        /* \"AdvancedBlockchainFirewall.sol\":13510:13624  function isAdmin(address _address) external view returns (bool) {... */\n    tag_10:\n      tag_84\n      0x04\n      dup1\n      calldatasize\n      sub\n      dup2\n      add\n      swap1\n      tag_85\n      swap2\n      swap1\n      tag_74\n      jump\t// in\n    tag_85:\n      tag_86\n      jump\t// in\n    tag_84:\n      mload(0x40)\n      tag_87\n      swap2\n      swap1\n      tag_71\n      jump\t// in\n    tag_87:\n      mload(0x40)\n      dup1\n      swap2\n      sub\n      swap1\n      return\n        /* \"AdvancedBlockchainFirewall.sol\":10906:11165  function updateRuleStatus(uint256 _ruleId, bool _isActive) external onlyAdmin {... */\n    tag_11:\n      tag_88\n      0x04\n      dup1\n      calldatasize\n      sub\n      dup2\n      add\n      swap1\n      tag_89\n      swap2\n      swap1\n      tag_90\n      jump\t// in\n    tag_89:\n      tag_91\n      jump\t// in\n    tag_88:\n      stop\n        /* \"AdvancedBlockchainFirewall.sol\":1871:1920  mapping(string => IPTraffic) public ipTrafficData */\n    tag_12:\n      tag_92\n      0x04\n      dup1\n      calldatasize\n      sub\n      dup2\n      add\n      swap1\n      tag_93\n      swap2\n      swap1\n      tag_55\n      jump\t// in\n    tag_93:\n      tag_94\n      jump\t// in\n    tag_92:\n      mload(0x40)\n      tag_95\n      swap5\n      swap4\n      swap3\n      swap2\n      swap1\n      tag_96\n      jump\t// in\n    tag_95:\n      mload(0x40)\n      dup1\n      swap2\n      sub\n      swap1\n      return\n        /* \"AdvancedBlockchainFirewall.sol\":2057:2096  uint256 public suspicionThreshold = 500 */\n    tag_13:\n      tag_97\n      tag_98\n      jump\t// in\n    tag_97:\n      mload(0x40)\n      tag_99\n      swap2\n      swap1\n      tag_60\n      jump\t// in\n    tag_99:\n      mload(0x40)\n      dup1\n      swap2\n      sub\n      swap1\n      return\n        /* \"AdvancedBlockchainFirewall.sol\":11175:11387  function deleteRule(uint256 _ruleId) external onlyAdmin {... */\n    tag_14:\n      tag_100\n      0x04\n      dup1\n      calldatasize\n      sub\n      dup2\n      add\n      swap1\n      tag_101\n      swap2\n      swap1\n      tag_63\n      jump\t// in\n    tag_101:\n      tag_102\n      jump\t// in\n    tag_100:\n      stop\n        /* \"AdvancedBlockchainFirewall.sol\":368:394  bool public isSystemActive */\n    tag_15:\n      tag_103\n      tag_104\n      jump\t// in\n    tag_103:\n      mload(0x40)\n      tag_105\n      swap2\n      swap1\n      tag_71\n      jump\t// in\n    tag_105:\n      mload(0x40)\n      dup1\n      swap2\n      sub\n      swap1\n      return\n        /* \"AdvancedBlockchainFirewall.sol\":1769:1814  mapping(string => bool) public blacklistedIPs */\n    tag_16:\n      tag_106\n      0x04\n      dup1\n      calldatasize\n      sub\n      dup2\n      add\n      swap1\n      tag_107\n      swap2\n      swap1\n      tag_55\n      jump\t// in\n    tag_107:\n      tag_108\n      jump\t// in\n    tag_106:\n      mload(0x40)\n      tag_109\n      swap2\n      swap1\n      tag_71\n      jump\t// in\n    tag_109:\n      mload(0x40)\n      dup1\n      swap2\n      sub\n      swap1\n      return\n        /* \"AdvancedBlockchainFirewall.sol\":12833:13043  function getThreatLog(uint256 _threatId) external view returns (ThreatLog memory) {... */\n    tag_17:\n      tag_110\n      0x04\n      dup1\n      calldatasize\n      sub\n      dup2\n      add\n      swap1\n      tag_111\n      swap2\n      swap1\n      tag_63\n      jump\t// in\n    tag_111:\n      tag_112\n      jump\t// in\n    tag_110:\n      mload(0x40)\n      tag_113\n      swap2\n      swap1\n      tag_114\n      jump\t// in\n    tag_113:\n      mload(0x40)\n      dup1\n      swap2\n      sub\n      swap1\n      return\n        /* \"AdvancedBlockchainFirewall.sol\":11397:11596  function getRule(uint256 _ruleId) external view returns (FirewallRule memory) {... */\n    tag_18:\n      tag_115\n      0x04\n      dup1\n      calldatasize\n      sub\n      dup2\n      add\n      swap1\n      tag_116\n      swap2\n      swap1\n      tag_63\n      jump\t// in\n    tag_116:\n      tag_117\n      jump\t// in\n    tag_115:\n      mload(0x40)\n      tag_118\n      swap2\n      swap1\n      tag_119\n      jump\t// in\n    tag_118:\n      mload(0x40)\n      dup1\n      swap2\n      sub\n      swap1\n      return\n        /* \"AdvancedBlockchainFirewall.sol\":13187:13294  function getNetworkStats() external view returns (NetworkStats memory) {... */\n    tag_19:\n      tag_120\n      tag_121\n      jump\t// in\n    tag_120:\n      mload(0x40)\n      tag_122\n      swap2\n      swap1\n      tag_123\n      jump\t// in\n    tag_122:\n      mload(0x40)\n      dup1\n      swap2\n      sub\n      swap1\n      return\n        /* \"AdvancedBlockchainFirewall.sol\":13634:14001  function getSystemStatus() external view returns (... */\n    tag_20:\n      tag_124\n      tag_125\n      jump\t// in\n    tag_124:\n      mload(0x40)\n      tag_126\n      swap6\n      swap5\n      swap4\n      swap3\n      swap2\n      swap1\n      tag_127\n      jump\t// in\n    tag_126:\n      mload(0x40)\n      dup1\n      swap2\n      sub\n      swap1\n      return\n        /* \"AdvancedBlockchainFirewall.sol\":13304:13395  function getRuleCount() external view returns (uint256) {... */\n    tag_21:\n      tag_128\n      tag_129\n      jump\t// in\n    tag_128:\n      mload(0x40)\n      tag_130\n      swap2\n      swap1\n      tag_60\n      jump\t// in\n    tag_130:\n      mload(0x40)\n      dup1\n      swap2\n      sub\n      swap1\n      return\n        /* \"AdvancedBlockchainFirewall.sol\":13053:13177  function getIPTraffic(string memory _ip) external view returns (IPTraffic memory) {... */\n    tag_22:\n      tag_131\n      0x04\n      dup1\n      calldatasize\n      sub\n      dup2\n      add\n      swap1\n      tag_132\n      swap2\n      swap1\n      tag_55\n      jump\t// in\n    tag_132:\n      tag_133\n      jump\t// in\n    tag_131:\n      mload(0x40)\n      tag_134\n      swap2\n      swap1\n      tag_135\n      jump\t// in\n    tag_134:\n      mload(0x40)\n      dup1\n      swap2\n      sub\n      swap1\n      return\n        /* \"AdvancedBlockchainFirewall.sol\":13405:13500  function getThreatCount() external view returns (uint256) {... */\n    tag_23:\n      tag_136\n      tag_137\n      jump\t// in\n    tag_136:\n      mload(0x40)\n      tag_138\n      swap2\n      swap1\n      tag_60\n      jump\t// in\n    tag_138:\n      mload(0x40)\n      dup1\n      swap2\n      sub\n      swap1\n      return\n        /* \"AdvancedBlockchainFirewall.sol\":9981:10896  function createRule(... */\n    tag_24:\n      tag_139\n      0x04\n      dup1\n      calldatasize\n      sub\n      dup2\n      add\n      swap1\n      tag_140\n      swap2\n      swap1\n      tag_141\n      jump\t// in\n    tag_140:\n      tag_142\n      jump\t// in\n    tag_139:\n      mload(0x40)\n      tag_143\n      swap2\n      swap1\n      tag_60\n      jump\t// in\n    tag_143:\n      mload(0x40)\n      dup1\n      swap2\n      sub\n      swap1\n      return\n        /* \"AdvancedBlockchainFirewall.sol\":334:362  uint256 public threatCounter */\n    tag_25:\n      tag_144\n      tag_145\n      jump\t// in\n    tag_144:\n      mload(0x40)\n      tag_146\n      swap2\n      swap1\n      tag_60\n      jump\t// in\n    tag_146:\n      mload(0x40)\n      dup1\n      swap2\n      sub\n      swap1\n      return\n        /* \"AdvancedBlockchainFirewall.sol\":4401:4539  function disableAutoDetection() external onlyAdmin {... */\n    tag_26:\n      tag_147\n      tag_148\n      jump\t// in\n    tag_147:\n      stop\n        /* \"AdvancedBlockchainFirewall.sol\":12355:12547  function addAdmin(address _admin) external onlyOwner {... */\n    tag_27:\n      tag_149\n      0x04\n      dup1\n      calldatasize\n      sub\n      dup2\n      add\n      swap1\n      tag_150\n      swap2\n      swap1\n      tag_74\n      jump\t// in\n    tag_150:\n      tag_151\n      jump\t// in\n    tag_149:\n      stop\n        /* \"AdvancedBlockchainFirewall.sol\":400:432  bool public autoDetectionEnabled */\n    tag_28:\n      tag_152\n      tag_153\n      jump\t// in\n    tag_152:\n      mload(0x40)\n      tag_154\n      swap2\n      swap1\n      tag_71\n      jump\t// in\n    tag_154:\n      mload(0x40)\n      dup1\n      swap2\n      sub\n      swap1\n      return\n        /* \"AdvancedBlockchainFirewall.sol\":12079:12274  function updateAutoBlockThreshold(uint256 _newThreshold) external onlyAdmin {... */\n    tag_29:\n      tag_155\n      0x04\n      dup1\n      calldatasize\n      sub\n      dup2\n      add\n      swap1\n      tag_156\n      swap2\n      swap1\n      tag_63\n      jump\t// in\n    tag_156:\n      tag_157\n      jump\t// in\n    tag_155:\n      stop\n        /* \"AdvancedBlockchainFirewall.sol\":1820:1865  mapping(string => bool) public whitelistedIPs */\n    tag_30:\n      tag_158\n      0x04\n      dup1\n      calldatasize\n      sub\n      dup2\n      add\n      swap1\n      tag_159\n      swap2\n      swap1\n      tag_55\n      jump\t// in\n    tag_159:\n      tag_160\n      jump\t// in\n    tag_158:\n      mload(0x40)\n      tag_161\n      swap2\n      swap1\n      tag_71\n      jump\t// in\n    tag_161:\n      mload(0x40)\n      dup1\n      swap2\n      sub\n      swap1\n      return\n        /* \"AdvancedBlockchainFirewall.sol\":5205:5316  function removeFromWhitelist(string memory _ip) external onlyAdmin {... */\n    tag_31:\n      tag_162\n      0x04\n      dup1\n      calldatasize\n      sub\n      dup2\n      add\n      swap1\n      tag_163\n      swap2\n      swap1\n      tag_55\n      jump\t// in\n    tag_163:\n      tag_164\n      jump\t// in\n    tag_162:\n      stop\n        /* \"AdvancedBlockchainFirewall.sol\":276:296  address public owner */\n    tag_32:\n      tag_165\n      tag_166\n      jump\t// in\n    tag_165:\n      mload(0x40)\n      tag_167\n      swap2\n      swap1\n      tag_168\n      jump\t// in\n    tag_167:\n      mload(0x40)\n      dup1\n      swap2\n      sub\n      swap1\n      return\n        /* \"AdvancedBlockchainFirewall.sol\":4050:4246  function stopSystem() external onlyAdmin {... */\n    tag_33:\n      tag_169\n      tag_170\n      jump\t// in\n    tag_169:\n      stop\n        /* \"AdvancedBlockchainFirewall.sol\":5654:7443  function scanPacket(... */\n    tag_34:\n      tag_171\n      0x04\n      dup1\n      calldatasize\n      sub\n      dup2\n      add\n      swap1\n      tag_172\n      swap2\n      swap1\n      tag_173\n      jump\t// in\n    tag_172:\n      tag_174\n      jump\t// in\n    tag_171:\n      mload(0x40)\n      tag_175\n      swap2\n      swap1\n      tag_71\n      jump\t// in\n    tag_175:\n      mload(0x40)\n      dup1\n      swap2\n      sub\n      swap1\n      return\n        /* \"AdvancedBlockchainFirewall.sol\":11874:12069  function updateSuspicionThreshold(uint256 _newThreshold) external onlyAdmin {... */\n    tag_35:\n      tag_176\n      0x04\n      dup1\n      calldatasize\n      sub\n      dup2\n      add\n      swap1\n      tag_177\n      swap2\n      swap1\n      tag_63\n      jump\t// in\n    tag_177:\n      tag_178\n      jump\t// in\n    tag_176:\n      stop\n        /* \"AdvancedBlockchainFirewall.sol\":3843:4040  function startSystem() external onlyAdmin {... */\n    tag_36:\n      tag_179\n      tag_180\n      jump\t// in\n    tag_179:\n      stop\n        /* \"AdvancedBlockchainFirewall.sol\":5450:5564  function isIPWhitelisted(string memory _ip) public view returns (bool) {... */\n    tag_37:\n      tag_181\n      0x04\n      dup1\n      calldatasize\n      sub\n      dup2\n      add\n      swap1\n      tag_182\n      swap2\n      swap1\n      tag_55\n      jump\t// in\n    tag_182:\n      tag_183\n      jump\t// in\n    tag_181:\n      mload(0x40)\n      tag_184\n      swap2\n      swap1\n      tag_71\n      jump\t// in\n    tag_184:\n      mload(0x40)\n      dup1\n      swap2\n      sub\n      swap1\n      return\n        /* \"AdvancedBlockchainFirewall.sol\":1603:1656  mapping(uint256 => FirewallRule) public firewallRules */\n    tag_38:\n      tag_185\n      0x04\n      dup1\n      calldatasize\n      sub\n      dup2\n      add\n      swap1\n      tag_186\n      swap2\n      swap1\n      tag_63\n      jump\t// in\n    tag_186:\n      tag_187\n      jump\t// in\n    tag_185:\n      mload(0x40)\n      tag_188\n      swap13\n      swap12\n      swap11\n      swap10\n      swap9\n      swap8\n      swap7\n      swap6\n      swap5\n      swap4\n      swap3\n      swap2\n      swap1\n      tag_189\n      jump\t// in\n    tag_188:\n      mload(0x40)\n      dup1\n      swap2\n      sub\n      swap1\n      return\n        /* \"AdvancedBlockchainFirewall.sol\":302:328  uint256 public ruleCounter */\n    tag_39:\n      tag_190\n      tag_191\n      jump\t// in\n    tag_190:\n      mload(0x40)\n      tag_192\n      swap2\n      swap1\n      tag_60\n      jump\t// in\n    tag_192:\n      mload(0x40)\n      dup1\n      swap2\n      sub\n      swap1\n      return\n        /* \"AdvancedBlockchainFirewall.sol\":4256:4391  function enableAutoDetection() external onlyAdmin {... */\n    tag_40:\n      tag_193\n      tag_194\n      jump\t// in\n    tag_193:\n      stop\n        /* \"AdvancedBlockchainFirewall.sol\":2102:2142  uint256 public autoBlockThreshold = 1000 */\n    tag_41:\n      tag_195\n      tag_196\n      jump\t// in\n    tag_195:\n      mload(0x40)\n      tag_197\n      swap2\n      swap1\n      tag_60\n      jump\t// in\n    tag_197:\n      mload(0x40)\n      dup1\n      swap2\n      sub\n      swap1\n      return\n        /* \"AdvancedBlockchainFirewall.sol\":1931:1963  NetworkStats public networkStats */\n    tag_42:\n      tag_198\n      tag_199\n      jump\t// in\n    tag_198:\n      mload(0x40)\n      tag_200\n      swap6\n      swap5\n      swap4\n      swap3\n      swap2\n      swap1\n      tag_201\n      jump\t// in\n    tag_200:\n      mload(0x40)\n      dup1\n      swap2\n      sub\n      swap1\n      return\n        /* \"AdvancedBlockchainFirewall.sol\":1715:1763  mapping(address => bool) public authorizedAdmins */\n    tag_43:\n      tag_202\n      0x04\n      dup1\n      calldatasize\n      sub\n      dup2\n      add\n      swap1\n      tag_203\n      swap2\n      swap1\n      tag_74\n      jump\t// in\n    tag_203:\n      tag_204\n      jump\t// in\n    tag_202:\n      mload(0x40)\n      tag_205\n      swap2\n      swap1\n      tag_71\n      jump\t// in\n    tag_205:\n      mload(0x40)\n      dup1\n      swap2\n      sub\n      swap1\n      return\n        /* \"AdvancedBlockchainFirewall.sol\":11681:11864  function updateMaxConnections(uint256 _newMax) external onlyAdmin {... */\n    tag_44:\n      tag_206\n      0x04\n      dup1\n      calldatasize\n      sub\n      dup2\n      add\n      swap1\n      tag_207\n      swap2\n      swap1\n      tag_63\n      jump\t// in\n    tag_207:\n      tag_208\n      jump\t// in\n    tag_206:\n      stop\n        /* \"AdvancedBlockchainFirewall.sol\":4923:5034  function removeFromBlacklist(string memory _ip) external onlyAdmin {... */\n    tag_45:\n      tag_209\n      0x04\n      dup1\n      calldatasize\n      sub\n      dup2\n      add\n      swap1\n      tag_210\n      swap2\n      swap1\n      tag_55\n      jump\t// in\n    tag_210:\n      tag_211\n      jump\t// in\n    tag_209:\n      stop\n        /* \"AdvancedBlockchainFirewall.sol\":5044:5195  function manualWhitelist(string memory _ip) external onlyAdmin {... */\n    tag_56:\n        /* \"AdvancedBlockchainFirewall.sol\":3257:3273  authorizedAdmins */\n      0x06\n        /* \"AdvancedBlockchainFirewall.sol\":3257:3285  authorizedAdmins[msg.sender] */\n      0x00\n        /* \"AdvancedBlockchainFirewall.sol\":3274:3284  msg.sender */\n      caller\n        /* \"AdvancedBlockchainFirewall.sol\":3257:3285  authorizedAdmins[msg.sender] */\n      0xffffffffffffffffffffffffffffffffffffffff\n      and\n      0xffffffffffffffffffffffffffffffffffffffff\n      and\n      dup2\n      mstore\n      0x20\n      add\n      swap1\n      dup2\n      mstore\n      0x20\n      add\n      0x00\n      keccak256\n      0x00\n      swap1\n      sload\n      swap1\n      0x0100\n      exp\n      swap1\n      div\n      0xff\n      and\n        /* \"AdvancedBlockchainFirewall.sol\":3257:3308  authorizedAdmins[msg.sender] || msg.sender == owner */\n      dup1\n      tag_213\n      jumpi\n      pop\n        /* \"AdvancedBlockchainFirewall.sol\":3303:3308  owner */\n      0x00\n      0x00\n      swap1\n      sload\n      swap1\n      0x0100\n      exp\n      swap1\n      div\n      0xffffffffffffffffffffffffffffffffffffffff\n      and\n        /* \"AdvancedBlockchainFirewall.sol\":3289:3308  msg.sender == owner */\n      0xffffffffffffffffffffffffffffffffffffffff\n      and\n        /* \"AdvancedBlockchainFirewall.sol\":3289:3299  msg.sender */\n      caller\n        /* \"AdvancedBlockchainFirewall.sol\":3289:3308  msg.sender == owner */\n      0xffffffffffffffffffffffffffffffffffffffff\n      and\n      eq\n        /* \"AdvancedBlockchainFirewall.sol\":3257:3308  authorizedAdmins[msg.sender] || msg.sender == owner */\n    tag_213:\n        /* \"AdvancedBlockchainFirewall.sol\":3249:3327  require(authorizedAdmins[msg.sender] || msg.sender == owner, \"Not authorized\") */\n      tag_214\n      jumpi\n      mload(0x40)\n      0x08c379a000000000000000000000000000000000000000000000000000000000\n      dup2\n      mstore\n      0x04\n      add\n      tag_215\n      swap1\n      tag_216\n      jump\t// in\n    tag_215:\n      mload(0x40)\n      dup1\n      swap2\n      sub\n      swap1\n      revert\n    tag_214:\n        /* \"AdvancedBlockchainFirewall.sol\":5139:5143  true */\n      0x01\n        /* \"AdvancedBlockchainFirewall.sol\":5117:5131  whitelistedIPs */\n      0x08\n        /* \"AdvancedBlockchainFirewall.sol\":5132:5135  _ip */\n      dup3\n        /* \"AdvancedBlockchainFirewall.sol\":5117:5136  whitelistedIPs[_ip] */\n      mload(0x40)\n      tag_218\n      swap2\n      swap1\n      tag_219\n      jump\t// in\n    tag_218:\n      swap1\n      dup2\n      mstore\n      0x20\n      add\n      mload(0x40)\n      dup1\n      swap2\n      sub\n      swap1\n      keccak256\n      0x00\n        /* \"AdvancedBlockchainFirewall.sol\":5117:5143  whitelistedIPs[_ip] = true */\n      0x0100\n      exp\n      dup2\n      sload\n      dup2\n      0xff\n      mul\n      not\n      and\n      swap1\n      dup4\n      iszero\n      iszero\n      mul\n      or\n      swap1\n      sstore\n      pop\n        /* \"AdvancedBlockchainFirewall.sol\":5158:5188  IPWhitelisted(_ip, msg.sender) */\n      0x9ec5d33cb96796d4745dc075180dc0bf6ed5552e1d8dfa94efe6138b674ee7f0\n        /* \"AdvancedBlockchainFirewall.sol\":5172:5175  _ip */\n      dup2\n        /* \"AdvancedBlockchainFirewall.sol\":5177:5187  msg.sender */\n      caller\n        /* \"AdvancedBlockchainFirewall.sol\":5158:5188  IPWhitelisted(_ip, msg.sender) */\n      mload(0x40)\n      tag_220\n      swap3\n      swap2\n      swap1\n      tag_221\n      jump\t// in\n    tag_220:\n      mload(0x40)\n      dup1\n      swap2\n      sub\n      swap1\n      log1\n        /* \"AdvancedBlockchainFirewall.sol\":5044:5195  function manualWhitelist(string memory _ip) external onlyAdmin {... */\n      pop\n      jump\t// out\n        /* \"AdvancedBlockchainFirewall.sol\":2007:2051  uint256 public maxConnectionsPerMinute = 100 */\n    tag_58:\n      sload(0x0f)\n      dup2\n      jump\t// out\n        /* \"AdvancedBlockchainFirewall.sol\":1662:1709  mapping(uint256 => ThreatLog) public threatLogs */\n    tag_64:\n      mstore(0x20, 0x05)\n      dup1\n      0x00\n      mstore\n      keccak256(0x00, 0x40)\n      0x00\n      swap2\n      pop\n      swap1\n      pop\n      dup1\n      0x00\n      add\n      sload\n      swap1\n      dup1\n      0x01\n      add\n      dup1\n      sload\n      tag_222\n      swap1\n      tag_223\n      jump\t// in\n    tag_222:\n      dup1\n      0x1f\n      add\n      0x20\n      dup1\n      swap2\n      div\n      mul\n      0x20\n      add\n      mload(0x40)\n      swap1\n      dup2\n      add\n      0x40\n      mstore\n      dup1\n      swap3\n      swap2\n      swap1\n      dup2\n      dup2\n      mstore\n      0x20\n      add\n      dup3\n      dup1\n      sload\n      tag_224\n      swap1\n      tag_223\n      jump\t// in\n    tag_224:\n      dup1\n      iszero\n      tag_225\n      jumpi\n      dup1\n      0x1f\n      lt\n      tag_226\n      jumpi\n      0x0100\n      dup1\n      dup4\n      sload\n      div\n      mul\n      dup4\n      mstore\n      swap2\n      0x20\n      add\n      swap2\n      jump(tag_225)\n    tag_226:\n      dup3\n      add\n      swap2\n      swap1\n      0x00\n      mstore\n      keccak256(0x00, 0x20)\n      swap1\n    tag_227:\n      dup2\n      sload\n      dup2\n      mstore\n      swap1\n      0x01\n      add\n      swap1\n      0x20\n      add\n      dup1\n      dup4\n      gt\n      tag_227\n      jumpi\n      dup3\n      swap1\n      sub\n      0x1f\n      and\n      dup3\n      add\n      swap2\n    tag_225:\n      pop\n      pop\n      pop\n      pop\n      pop\n      swap1\n      dup1\n      0x02\n      add\n      dup1\n      sload\n      tag_228\n      swap1\n      tag_223\n      jump\t// in\n    tag_228:\n      dup1\n      0x1f\n      add\n      0x20\n      dup1\n      swap2\n      div\n      mul\n      0x20\n      add\n      mload(0x40)\n      swap1\n      dup2\n      add\n      0x40\n      mstore\n      dup1\n      swap3\n      swap2\n      swap1\n      dup2\n      dup2\n      mstore\n      0x20\n      add\n      dup3\n      dup1\n      sload\n      tag_229\n      swap1\n      tag_223\n      jump\t// in\n    tag_229:\n      dup1\n      iszero\n      tag_230\n      jumpi\n      dup1\n      0x1f\n      lt\n      tag_231\n      jumpi\n      0x0100\n      dup1\n      dup4\n      sload\n      div\n      mul\n      dup4\n      mstore\n      swap2\n      0x20\n      add\n      swap2\n      jump(tag_230)\n    tag_231:\n      dup3\n      add\n      swap2\n      swap1\n      0x00\n      mstore\n      keccak256(0x00, 0x20)\n      swap1\n    tag_232:\n      dup2\n      sload\n      dup2\n      mstore\n      swap1\n      0x01\n      add\n      swap1\n      0x20\n      add\n      dup1\n      dup4\n      gt\n      tag_232\n      jumpi\n      dup3\n      swap1\n      sub\n      0x1f\n      and\n      dup3\n      add\n      swap2\n    tag_230:\n      pop\n      pop\n      pop\n      pop\n      pop\n      swap1\n      dup1\n      0x03\n      add\n      0x00\n      swap1\n      sload\n      swap1\n      0x0100\n      exp\n      swap1\n      div\n      0xff\n      and\n      swap1\n      dup1\n      0x04\n      add\n      sload\n      swap1\n      dup1\n      0x05\n      add\n      dup1\n      sload\n      tag_233\n      swap1\n      tag_223\n      jump\t// in\n    tag_233:\n      dup1\n      0x1f\n      add\n      0x20\n      dup1\n      swap2\n      div\n      mul\n      0x20\n      add\n      mload(0x40)\n      swap1\n      dup2\n      add\n      0x40\n      mstore\n      dup1\n      swap3\n      swap2\n      swap1\n      dup2\n      dup2\n      mstore\n      0x20\n      add\n      dup3\n      dup1\n      sload\n      tag_234\n      swap1\n      tag_223\n      jump\t// in\n    tag_234:\n      dup1\n      iszero\n      tag_235\n      jumpi\n      dup1\n      0x1f\n      lt\n      tag_236\n      jumpi\n      0x0100\n      dup1\n      dup4\n      sload\n      div\n      mul\n      dup4\n      mstore\n      swap2\n      0x20\n      add\n      swap2\n      jump(tag_235)\n    tag_236:\n      dup3\n      add\n      swap2\n      swap1\n      0x00\n      mstore\n      keccak256(0x00, 0x20)\n      swap1\n    tag_237:\n      dup2\n      sload\n      dup2\n      mstore\n      swap1\n      0x01\n      add\n      swap1\n      0x20\n      add\n      dup1\n      dup4\n      gt\n      tag_237\n      jumpi\n      dup3\n      swap1\n      sub\n      0x1f\n      and\n      dup3\n      add\n      swap2\n    tag_235:\n      pop\n      pop\n      pop\n      pop\n      pop\n      swap1\n      dup1\n      0x06\n      add\n      0x00\n      swap1\n      sload\n      swap1\n      0x0100\n      exp\n      swap1\n      div\n      0xff\n      and\n      swap1\n      dup1\n      0x07\n      add\n      sload\n      swap1\n      pop\n      dup9\n      jump\t// out\n        /* \"AdvancedBlockchainFirewall.sol\":5326:5440  function isIPBlacklisted(string memory _ip) public view returns (bool) {... */\n    tag_69:\n        /* \"AdvancedBlockchainFirewall.sol\":5391:5395  bool */\n      0x00\n        /* \"AdvancedBlockchainFirewall.sol\":5414:5428  blacklistedIPs */\n      0x07\n        /* \"AdvancedBlockchainFirewall.sol\":5429:5432  _ip */\n      dup3\n        /* \"AdvancedBlockchainFirewall.sol\":5414:5433  blacklistedIPs[_ip] */\n      mload(0x40)\n      tag_239\n      swap2\n      swap1\n      tag_219\n      jump\t// in\n    tag_239:\n      swap1\n      dup2\n      mstore\n      0x20\n      add\n      mload(0x40)\n      dup1\n      swap2\n      sub\n      swap1\n      keccak256\n      0x00\n      swap1\n      sload\n      swap1\n      0x0100\n      exp\n      swap1\n      div\n      0xff\n      and\n        /* \"AdvancedBlockchainFirewall.sol\":5407:5433  return blacklistedIPs[_ip] */\n      swap1\n      pop\n        /* \"AdvancedBlockchainFirewall.sol\":5326:5440  function isIPBlacklisted(string memory _ip) public view returns (bool) {... */\n      swap2\n      swap1\n      pop\n      jump\t// out\n        /* \"AdvancedBlockchainFirewall.sol\":12557:12754  function removeAdmin(address _admin) external onlyOwner {... */\n    tag_75:\n        /* \"AdvancedBlockchainFirewall.sol\":3146:3151  owner */\n      0x00\n      0x00\n      swap1\n      sload\n      swap1\n      0x0100\n      exp\n      swap1\n      div\n      0xffffffffffffffffffffffffffffffffffffffff\n      and\n        /* \"AdvancedBlockchainFirewall.sol\":3132:3151  msg.sender == owner */\n      0xffffffffffffffffffffffffffffffffffffffff\n      and\n        /* \"AdvancedBlockchainFirewall.sol\":3132:3142  msg.sender */\n      caller\n        /* \"AdvancedBlockchainFirewall.sol\":3132:3151  msg.sender == owner */\n      0xffffffffffffffffffffffffffffffffffffffff\n      and\n      eq\n        /* \"AdvancedBlockchainFirewall.sol\":3124:3190  require(msg.sender == owner, \"Only owner can perform this action\") */\n      tag_241\n      jumpi\n      mload(0x40)\n      0x08c379a000000000000000000000000000000000000000000000000000000000\n      dup2\n      mstore\n      0x04\n      add\n      tag_242\n      swap1\n      tag_243\n      jump\t// in\n    tag_242:\n      mload(0x40)\n      dup1\n      swap2\n      sub\n      swap1\n      revert\n    tag_241:\n        /* \"AdvancedBlockchainFirewall.sol\":12641:12646  owner */\n      0x00\n      0x00\n      swap1\n      sload\n      swap1\n      0x0100\n      exp\n      swap1\n      div\n      0xffffffffffffffffffffffffffffffffffffffff\n      and\n        /* \"AdvancedBlockchainFirewall.sol\":12631:12646  _admin != owner */\n      0xffffffffffffffffffffffffffffffffffffffff\n      and\n        /* \"AdvancedBlockchainFirewall.sol\":12631:12637  _admin */\n      dup2\n        /* \"AdvancedBlockchainFirewall.sol\":12631:12646  _admin != owner */\n      0xffffffffffffffffffffffffffffffffffffffff\n      and\n      sub\n        /* \"AdvancedBlockchainFirewall.sol\":12623:12670  require(_admin != owner, \"Cannot remove owner\") */\n      tag_245\n      jumpi\n      mload(0x40)\n      0x08c379a000000000000000000000000000000000000000000000000000000000\n      dup2\n      mstore\n      0x04\n      add\n      tag_246\n      swap1\n      tag_247\n      jump\t// in\n    tag_246:\n      mload(0x40)\n      dup1\n      swap2\n      sub\n      swap1\n      revert\n    tag_245:\n        /* \"AdvancedBlockchainFirewall.sol\":12707:12712  false */\n      0x00\n        /* \"AdvancedBlockchainFirewall.sol\":12680:12696  authorizedAdmins */\n      0x06\n        /* \"AdvancedBlockchainFirewall.sol\":12680:12704  authorizedAdmins[_admin] */\n      0x00\n        /* \"AdvancedBlockchainFirewall.sol\":12697:12703  _admin */\n      dup4\n        /* \"AdvancedBlockchainFirewall.sol\":12680:12704  authorizedAdmins[_admin] */\n      0xffffffffffffffffffffffffffffffffffffffff\n      and\n      0xffffffffffffffffffffffffffffffffffffffff\n      and\n      dup2\n      mstore\n      0x20\n      add\n      swap1\n      dup2\n      mstore\n      0x20\n      add\n      0x00\n      keccak256\n      0x00\n        /* \"AdvancedBlockchainFirewall.sol\":12680:12712  authorizedAdmins[_admin] = false */\n      0x0100\n      exp\n      dup2\n      sload\n      dup2\n      0xff\n      mul\n      not\n      and\n      swap1\n      dup4\n      iszero\n      iszero\n      mul\n      or\n      swap1\n      sstore\n      pop\n        /* \"AdvancedBlockchainFirewall.sol\":12740:12746  _admin */\n      dup1\n        /* \"AdvancedBlockchainFirewall.sol\":12727:12747  AdminRemoved(_admin) */\n      0xffffffffffffffffffffffffffffffffffffffff\n      and\n      0xa3b62bc36326052d97ea62d63c3d60308ed4c3ea8ac079dd8499f1e9c4f80c0f\n      mload(0x40)\n      mload(0x40)\n      dup1\n      swap2\n      sub\n      swap1\n      log2\n        /* \"AdvancedBlockchainFirewall.sol\":12557:12754  function removeAdmin(address _admin) external onlyOwner {... */\n      pop\n      jump\t// out\n        /* \"AdvancedBlockchainFirewall.sol\":8947:9902  function logManualThreat(... */\n    tag_79:\n        /* \"AdvancedBlockchainFirewall.sol\":9165:9172  uint256 */\n      0x00\n        /* \"AdvancedBlockchainFirewall.sol\":3257:3273  authorizedAdmins */\n      0x06\n        /* \"AdvancedBlockchainFirewall.sol\":3257:3285  authorizedAdmins[msg.sender] */\n      0x00\n        /* \"AdvancedBlockchainFirewall.sol\":3274:3284  msg.sender */\n      caller\n        /* \"AdvancedBlockchainFirewall.sol\":3257:3285  authorizedAdmins[msg.sender] */\n      0xffffffffffffffffffffffffffffffffffffffff\n      and\n      0xffffffffffffffffffffffffffffffffffffffff\n      and\n      dup2\n      mstore\n      0x20\n      add\n      swap1\n      dup2\n      mstore\n      0x20\n      add\n      0x00\n      keccak256\n      0x00\n      swap1\n      sload\n      swap1\n      0x0100\n      exp\n      swap1\n      div\n      0xff\n      and\n        /* \"AdvancedBlockchainFirewall.sol\":3257:3308  authorizedAdmins[msg.sender] || msg.sender == owner */\n      dup1\n      tag_249\n      jumpi\n      pop\n        /* \"AdvancedBlockchainFirewall.sol\":3303:3308  owner */\n      0x00\n      0x00\n      swap1\n      sload\n      swap1\n      0x0100\n      exp\n      swap1\n      div\n      0xffffffffffffffffffffffffffffffffffffffff\n      and\n        /* \"AdvancedBlockchainFirewall.sol\":3289:3308  msg.sender == owner */\n      0xffffffffffffffffffffffffffffffffffffffff\n      and\n        /* \"AdvancedBlockchainFirewall.sol\":3289:3299  msg.sender */\n      caller\n        /* \"AdvancedBlockchainFirewall.sol\":3289:3308  msg.sender == owner */\n      0xffffffffffffffffffffffffffffffffffffffff\n      and\n      eq\n        /* \"AdvancedBlockchainFirewall.sol\":3257:3308  authorizedAdmins[msg.sender] || msg.sender == owner */\n    tag_249:\n        /* \"AdvancedBlockchainFirewall.sol\":3249:3327  require(authorizedAdmins[msg.sender] || msg.sender == owner, \"Not authorized\") */\n      tag_250\n      jumpi\n      mload(0x40)\n      0x08c379a000000000000000000000000000000000000000000000000000000000\n      dup2\n      mstore\n      0x04\n      add\n      tag_251\n      swap1\n      tag_216\n      jump\t// in\n    tag_251:\n      mload(0x40)\n      dup1\n      swap2\n      sub\n      swap1\n      revert\n    tag_250:\n        /* \"AdvancedBlockchainFirewall.sol\":9184:9197  threatCounter */\n      0x02\n      0x00\n        /* \"AdvancedBlockchainFirewall.sol\":9184:9199  threatCounter++ */\n      dup2\n      sload\n      dup1\n      swap3\n      swap2\n      swap1\n      tag_253\n      swap1\n      tag_254\n      jump\t// in\n    tag_253:\n      swap2\n      swap1\n      pop\n      sstore\n      pop\n        /* \"AdvancedBlockchainFirewall.sol\":9246:9585  ThreatLog({... */\n      mload(0x40)\n      dup1\n      0x0100\n      add\n      0x40\n      mstore\n      dup1\n        /* \"AdvancedBlockchainFirewall.sol\":9274:9287  threatCounter */\n      sload(0x02)\n        /* \"AdvancedBlockchainFirewall.sol\":9246:9585  ThreatLog({... */\n      dup2\n      mstore\n      0x20\n      add\n        /* \"AdvancedBlockchainFirewall.sol\":9311:9320  _sourceIP */\n      dup8\n        /* \"AdvancedBlockchainFirewall.sol\":9246:9585  ThreatLog({... */\n      dup2\n      mstore\n      0x20\n      add\n        /* \"AdvancedBlockchainFirewall.sol\":9346:9357  _attackType */\n      dup7\n        /* \"AdvancedBlockchainFirewall.sol\":9246:9585  ThreatLog({... */\n      dup2\n      mstore\n      0x20\n      add\n        /* \"AdvancedBlockchainFirewall.sol\":9378:9384  _level */\n      dup6\n        /* \"AdvancedBlockchainFirewall.sol\":9246:9585  ThreatLog({... */\n      0x03\n      dup2\n      gt\n      iszero\n      tag_255\n      jumpi\n      tag_256\n      tag_257\n      jump\t// in\n    tag_256:\n    tag_255:\n      dup2\n      mstore\n      0x20\n      add\n        /* \"AdvancedBlockchainFirewall.sol\":9409:9424  block.timestamp */\n      timestamp\n        /* \"AdvancedBlockchainFirewall.sol\":9246:9585  ThreatLog({... */\n      dup2\n      mstore\n      0x20\n      add\n        /* \"AdvancedBlockchainFirewall.sol\":9451:9463  _description */\n      dup5\n        /* \"AdvancedBlockchainFirewall.sol\":9246:9585  ThreatLog({... */\n      dup2\n      mstore\n      0x20\n      add\n        /* \"AdvancedBlockchainFirewall.sol\":9488:9500  _shouldBlock */\n      dup4\n        /* \"AdvancedBlockchainFirewall.sol\":9246:9585  ThreatLog({... */\n      iszero\n      iszero\n      dup2\n      mstore\n      0x20\n      add\n        /* \"AdvancedBlockchainFirewall.sol\":9534:9547  ipTrafficData */\n      0x09\n        /* \"AdvancedBlockchainFirewall.sol\":9548:9557  _sourceIP */\n      dup9\n        /* \"AdvancedBlockchainFirewall.sol\":9534:9558  ipTrafficData[_sourceIP] */\n      mload(0x40)\n      tag_258\n      swap2\n      swap1\n      tag_219\n      jump\t// in\n    tag_258:\n      swap1\n      dup2\n      mstore\n      0x20\n      add\n      mload(0x40)\n      dup1\n      swap2\n      sub\n      swap1\n      keccak256\n        /* \"AdvancedBlockchainFirewall.sol\":9534:9574  ipTrafficData[_sourceIP].connectionCount */\n      0x00\n      add\n      sload\n        /* \"AdvancedBlockchainFirewall.sol\":9246:9585  ThreatLog({... */\n      dup2\n      mstore\n      pop\n        /* \"AdvancedBlockchainFirewall.sol\":9218:9228  threatLogs */\n      0x05\n        /* \"AdvancedBlockchainFirewall.sol\":9218:9243  threatLogs[threatCounter] */\n      0x00\n        /* \"AdvancedBlockchainFirewall.sol\":9229:9242  threatCounter */\n      sload(0x02)\n        /* \"AdvancedBlockchainFirewall.sol\":9218:9243  threatLogs[threatCounter] */\n      dup2\n      mstore\n      0x20\n      add\n      swap1\n      dup2\n      mstore\n      0x20\n      add\n      0x00\n      keccak256\n        /* \"AdvancedBlockchainFirewall.sol\":9218:9585  threatLogs[threatCounter] = ThreatLog({... */\n      0x00\n      dup3\n      add\n      mload\n      dup2\n      0x00\n      add\n      sstore\n      0x20\n      dup3\n      add\n      mload\n      dup2\n      0x01\n      add\n      swap1\n      dup2\n      tag_259\n      swap2\n      swap1\n      tag_260\n      jump\t// in\n    tag_259:\n      pop\n      0x40\n      dup3\n      add\n      mload\n      dup2\n      0x02\n      add\n      swap1\n      dup2\n      tag_261\n      swap2\n      swap1\n      tag_260\n      jump\t// in\n    tag_261:\n      pop\n      0x60\n      dup3\n      add\n      mload\n      dup2\n      0x03\n      add\n      exp(0x0100, 0x00)\n      dup2\n      sload\n      dup2\n      0xff\n      mul\n      not\n      and\n      swap1\n      dup4\n      0x03\n      dup2\n      gt\n      iszero\n      tag_262\n      jumpi\n      tag_263\n      tag_257\n      jump\t// in\n    tag_263:\n    tag_262:\n      mul\n      or\n      swap1\n      sstore\n      pop\n      0x80\n      dup3\n      add\n      mload\n      dup2\n      0x04\n      add\n      sstore\n      0xa0\n      dup3\n      add\n      mload\n      dup2\n      0x05\n      add\n      swap1\n      dup2\n      tag_264\n      swap2\n      swap1\n      tag_260\n      jump\t// in\n    tag_264:\n      pop\n      0xc0\n      dup3\n      add\n      mload\n      dup2\n      0x06\n      add\n      exp(0x0100, 0x00)\n      dup2\n      sload\n      dup2\n      0xff\n      mul\n      not\n      and\n      swap1\n      dup4\n      iszero\n      iszero\n      mul\n      or\n      swap1\n      sstore\n      pop\n      0xe0\n      dup3\n      add\n      mload\n      dup2\n      0x07\n      add\n      sstore\n      swap1\n      pop\n      pop\n        /* \"AdvancedBlockchainFirewall.sol\":9608:9620  _shouldBlock */\n      dup2\n        /* \"AdvancedBlockchainFirewall.sol\":9604:9777  if (_shouldBlock) {... */\n      iszero\n      tag_265\n      jumpi\n        /* \"AdvancedBlockchainFirewall.sol\":9636:9662  _addToBlacklist(_sourceIP) */\n      tag_266\n        /* \"AdvancedBlockchainFirewall.sol\":9652:9661  _sourceIP */\n      dup7\n        /* \"AdvancedBlockchainFirewall.sol\":9636:9651  _addToBlacklist */\n      tag_267\n        /* \"AdvancedBlockchainFirewall.sol\":9636:9662  _addToBlacklist(_sourceIP) */\n      jump\t// in\n    tag_266:\n        /* \"AdvancedBlockchainFirewall.sol\":9676:9688  networkStats */\n      0x0a\n        /* \"AdvancedBlockchainFirewall.sol\":9676:9703  networkStats.threatsBlocked */\n      0x01\n      add\n      0x00\n        /* \"AdvancedBlockchainFirewall.sol\":9676:9705  networkStats.threatsBlocked++ */\n      dup2\n      sload\n      dup1\n      swap3\n      swap2\n      swap1\n      tag_268\n      swap1\n      tag_254\n      jump\t// in\n    tag_268:\n      swap2\n      swap1\n      pop\n      sstore\n      pop\n        /* \"AdvancedBlockchainFirewall.sol\":9604:9777  if (_shouldBlock) {... */\n      jump(tag_269)\n    tag_265:\n        /* \"AdvancedBlockchainFirewall.sol\":9736:9748  networkStats */\n      0x0a\n        /* \"AdvancedBlockchainFirewall.sol\":9736:9764  networkStats.alertsTriggered */\n      0x02\n      add\n      0x00\n        /* \"AdvancedBlockchainFirewall.sol\":9736:9766  networkStats.alertsTriggered++ */\n      dup2\n      sload\n      dup1\n      swap3\n      swap2\n      swap1\n      tag_270\n      swap1\n      tag_254\n      jump\t// in\n    tag_270:\n      swap2\n      swap1\n      pop\n      sstore\n      pop\n        /* \"AdvancedBlockchainFirewall.sol\":9604:9777  if (_shouldBlock) {... */\n    tag_269:\n        /* \"AdvancedBlockchainFirewall.sol\":9815:9828  threatCounter */\n      sload(0x02)\n        /* \"AdvancedBlockchainFirewall.sol\":9800:9865  ThreatDetected(threatCounter, _sourceIP, _level, block.timestamp) */\n      0x660e83dce644f7be3fb68c939c1d49bb83394f37683cafdb498dc4c109803e6f\n        /* \"AdvancedBlockchainFirewall.sol\":9830:9839  _sourceIP */\n      dup8\n        /* \"AdvancedBlockchainFirewall.sol\":9841:9847  _level */\n      dup7\n        /* \"AdvancedBlockchainFirewall.sol\":9849:9864  block.timestamp */\n      timestamp\n        /* \"AdvancedBlockchainFirewall.sol\":9800:9865  ThreatDetected(threatCounter, _sourceIP, _level, block.timestamp) */\n      mload(0x40)\n      tag_271\n      swap4\n      swap3\n      swap2\n      swap1\n      tag_272\n      jump\t// in\n    tag_271:\n      mload(0x40)\n      dup1\n      swap2\n      sub\n      swap1\n      log2\n        /* \"AdvancedBlockchainFirewall.sol\":9882:9895  threatCounter */\n      sload(0x02)\n        /* \"AdvancedBlockchainFirewall.sol\":9875:9895  return threatCounter */\n      swap1\n      pop\n        /* \"AdvancedBlockchainFirewall.sol\":8947:9902  function logManualThreat(... */\n      swap6\n      swap5\n      pop\n      pop\n      pop\n      pop\n      pop\n      jump\t// out\n        /* \"AdvancedBlockchainFirewall.sol\":4762:4913  function manualBlacklist(string memory _ip) external onlyAdmin {... */\n    tag_83:\n        /* \"AdvancedBlockchainFirewall.sol\":3257:3273  authorizedAdmins */\n      0x06\n        /* \"AdvancedBlockchainFirewall.sol\":3257:3285  authorizedAdmins[msg.sender] */\n      0x00\n        /* \"AdvancedBlockchainFirewall.sol\":3274:3284  msg.sender */\n      caller\n        /* \"AdvancedBlockchainFirewall.sol\":3257:3285  authorizedAdmins[msg.sender] */\n      0xffffffffffffffffffffffffffffffffffffffff\n      and\n      0xffffffffffffffffffffffffffffffffffffffff\n      and\n      dup2\n      mstore\n      0x20\n      add\n      swap1\n      dup2\n      mstore\n      0x20\n      add\n      0x00\n      keccak256\n      0x00\n      swap1\n      sload\n      swap1\n      0x0100\n      exp\n      swap1\n      div\n      0xff\n      and\n        /* \"AdvancedBlockchainFirewall.sol\":3257:3308  authorizedAdmins[msg.sender] || msg.sender == owner */\n      dup1\n      tag_274\n      jumpi\n      pop\n        /* \"AdvancedBlockchainFirewall.sol\":3303:3308  owner */\n      0x00\n      0x00\n      swap1\n      sload\n      swap1\n      0x0100\n      exp\n      swap1\n      div\n      0xffffffffffffffffffffffffffffffffffffffff\n      and\n        /* \"AdvancedBlockchainFirewall.sol\":3289:3308  msg.sender == owner */\n      0xffffffffffffffffffffffffffffffffffffffff\n      and\n        /* \"AdvancedBlockchainFirewall.sol\":3289:3299  msg.sender */\n      caller\n        /* \"AdvancedBlockchainFirewall.sol\":3289:3308  msg.sender == owner */\n      0xffffffffffffffffffffffffffffffffffffffff\n      and\n      eq\n        /* \"AdvancedBlockchainFirewall.sol\":3257:3308  authorizedAdmins[msg.sender] || msg.sender == owner */\n    tag_274:\n        /* \"AdvancedBlockchainFirewall.sol\":3249:3327  require(authorizedAdmins[msg.sender] || msg.sender == owner, \"Not authorized\") */\n      tag_275\n      jumpi\n      mload(0x40)\n      0x08c379a000000000000000000000000000000000000000000000000000000000\n      dup2\n      mstore\n      0x04\n      add\n      tag_276\n      swap1\n      tag_216\n      jump\t// in\n    tag_276:\n      mload(0x40)\n      dup1\n      swap2\n      sub\n      swap1\n      revert\n    tag_275:\n        /* \"AdvancedBlockchainFirewall.sol\":4857:4861  true */\n      0x01\n        /* \"AdvancedBlockchainFirewall.sol\":4835:4849  blacklistedIPs */\n      0x07\n        /* \"AdvancedBlockchainFirewall.sol\":4850:4853  _ip */\n      dup3\n        /* \"AdvancedBlockchainFirewall.sol\":4835:4854  blacklistedIPs[_ip] */\n      mload(0x40)\n      tag_278\n      swap2\n      swap1\n      tag_219\n      jump\t// in\n    tag_278:\n      swap1\n      dup2\n      mstore\n      0x20\n      add\n      mload(0x40)\n      dup1\n      swap2\n      sub\n      swap1\n      keccak256\n      0x00\n        /* \"AdvancedBlockchainFirewall.sol\":4835:4861  blacklistedIPs[_ip] = true */\n      0x0100\n      exp\n      dup2\n      sload\n      dup2\n      0xff\n      mul\n      not\n      and\n      swap1\n      dup4\n      iszero\n      iszero\n      mul\n      or\n      swap1\n      sstore\n      pop\n        /* \"AdvancedBlockchainFirewall.sol\":4876:4906  IPBlacklisted(_ip, msg.sender) */\n      0x47da8e84d8ced9d32176dc5085e678adf759bbf786ff74f7ef79e7b41a262761\n        /* \"AdvancedBlockchainFirewall.sol\":4890:4893  _ip */\n      dup2\n        /* \"AdvancedBlockchainFirewall.sol\":4895:4905  msg.sender */\n      caller\n        /* \"AdvancedBlockchainFirewall.sol\":4876:4906  IPBlacklisted(_ip, msg.sender) */\n      mload(0x40)\n      tag_279\n      swap3\n      swap2\n      swap1\n      tag_221\n      jump\t// in\n    tag_279:\n      mload(0x40)\n      dup1\n      swap2\n      sub\n      swap1\n      log1\n        /* \"AdvancedBlockchainFirewall.sol\":4762:4913  function manualBlacklist(string memory _ip) external onlyAdmin {... */\n      pop\n      jump\t// out\n        /* \"AdvancedBlockchainFirewall.sol\":13510:13624  function isAdmin(address _address) external view returns (bool) {... */\n    tag_86:\n        /* \"AdvancedBlockchainFirewall.sol\":13568:13572  bool */\n      0x00\n        /* \"AdvancedBlockchainFirewall.sol\":13591:13607  authorizedAdmins */\n      0x06\n        /* \"AdvancedBlockchainFirewall.sol\":13591:13617  authorizedAdmins[_address] */\n      0x00\n        /* \"AdvancedBlockchainFirewall.sol\":13608:13616  _address */\n      dup4\n        /* \"AdvancedBlockchainFirewall.sol\":13591:13617  authorizedAdmins[_address] */\n      0xffffffffffffffffffffffffffffffffffffffff\n      and\n      0xffffffffffffffffffffffffffffffffffffffff\n      and\n      dup2\n      mstore\n      0x20\n      add\n      swap1\n      dup2\n      mstore\n      0x20\n      add\n      0x00\n      keccak256\n      0x00\n      swap1\n      sload\n      swap1\n      0x0100\n      exp\n      swap1\n      div\n      0xff\n      and\n        /* \"AdvancedBlockchainFirewall.sol\":13584:13617  return authorizedAdmins[_address] */\n      swap1\n      pop\n        /* \"AdvancedBlockchainFirewall.sol\":13510:13624  function isAdmin(address _address) external view returns (bool) {... */\n      swap2\n      swap1\n      pop\n      jump\t// out\n        /* \"AdvancedBlockchainFirewall.sol\":10906:11165  function updateRuleStatus(uint256 _ruleId, bool _isActive) external onlyAdmin {... */\n    tag_91:\n        /* \"AdvancedBlockchainFirewall.sol\":3257:3273  authorizedAdmins */\n      0x06\n        /* \"AdvancedBlockchainFirewall.sol\":3257:3285  authorizedAdmins[msg.sender] */\n      0x00\n        /* \"AdvancedBlockchainFirewall.sol\":3274:3284  msg.sender */\n      caller\n        /* \"AdvancedBlockchainFirewall.sol\":3257:3285  authorizedAdmins[msg.sender] */\n      0xffffffffffffffffffffffffffffffffffffffff\n      and\n      0xffffffffffffffffffffffffffffffffffffffff\n      and\n      dup2\n      mstore\n      0x20\n      add\n      swap1\n      dup2\n      mstore\n      0x20\n      add\n      0x00\n      keccak256\n      0x00\n      swap1\n      sload\n      swap1\n      0x0100\n      exp\n      swap1\n      div\n      0xff\n      and\n        /* \"AdvancedBlockchainFirewall.sol\":3257:3308  authorizedAdmins[msg.sender] || msg.sender == owner */\n      dup1\n      tag_282\n      jumpi\n      pop\n        /* \"AdvancedBlockchainFirewall.sol\":3303:3308  owner */\n      0x00\n      0x00\n      swap1\n      sload\n      swap1\n      0x0100\n      exp\n      swap1\n      div\n      0xffffffffffffffffffffffffffffffffffffffff\n      and\n        /* \"AdvancedBlockchainFirewall.sol\":3289:3308  msg.sender == owner */\n      0xffffffffffffffffffffffffffffffffffffffff\n      and\n        /* \"AdvancedBlockchainFirewall.sol\":3289:3299  msg.sender */\n      caller\n        /* \"AdvancedBlockchainFirewall.sol\":3289:3308  msg.sender == owner */\n      0xffffffffffffffffffffffffffffffffffffffff\n      and\n      eq\n        /* \"AdvancedBlockchainFirewall.sol\":3257:3308  authorizedAdmins[msg.sender] || msg.sender == owner */\n    tag_282:\n        /* \"AdvancedBlockchainFirewall.sol\":3249:3327  require(authorizedAdmins[msg.sender] || msg.sender == owner, \"Not authorized\") */\n      tag_283\n      jumpi\n      mload(0x40)\n      0x08c379a000000000000000000000000000000000000000000000000000000000\n      dup2\n      mstore\n      0x04\n      add\n      tag_284\n      swap1\n      tag_216\n      jump\t// in\n    tag_284:\n      mload(0x40)\n      dup1\n      swap2\n      sub\n      swap1\n      revert\n    tag_283:\n        /* \"AdvancedBlockchainFirewall.sol\":11012:11013  0 */\n      0x00\n        /* \"AdvancedBlockchainFirewall.sol\":11002:11009  _ruleId */\n      dup3\n        /* \"AdvancedBlockchainFirewall.sol\":11002:11013  _ruleId > 0 */\n      gt\n        /* \"AdvancedBlockchainFirewall.sol\":11002:11039  _ruleId > 0 && _ruleId <= ruleCounter */\n      dup1\n      iszero\n      tag_286\n      jumpi\n      pop\n        /* \"AdvancedBlockchainFirewall.sol\":11028:11039  ruleCounter */\n      sload(0x01)\n        /* \"AdvancedBlockchainFirewall.sol\":11017:11024  _ruleId */\n      dup3\n        /* \"AdvancedBlockchainFirewall.sol\":11017:11039  _ruleId <= ruleCounter */\n      gt\n      iszero\n        /* \"AdvancedBlockchainFirewall.sol\":11002:11039  _ruleId > 0 && _ruleId <= ruleCounter */\n    tag_286:\n        /* \"AdvancedBlockchainFirewall.sol\":10994:11059  require(_ruleId > 0 && _ruleId <= ruleCounter, \"Invalid rule ID\") */\n      tag_287\n      jumpi\n      mload(0x40)\n      0x08c379a000000000000000000000000000000000000000000000000000000000\n      dup2\n      mstore\n      0x04\n      add\n      tag_288\n      swap1\n      tag_289\n      jump\t// in\n    tag_288:\n      mload(0x40)\n      dup1\n      swap2\n      sub\n      swap1\n      revert\n    tag_287:\n        /* \"AdvancedBlockchainFirewall.sol\":11103:11112  _isActive */\n      dup1\n        /* \"AdvancedBlockchainFirewall.sol\":11069:11082  firewallRules */\n      0x04\n        /* \"AdvancedBlockchainFirewall.sol\":11069:11091  firewallRules[_ruleId] */\n      0x00\n        /* \"AdvancedBlockchainFirewall.sol\":11083:11090  _ruleId */\n      dup5\n        /* \"AdvancedBlockchainFirewall.sol\":11069:11091  firewallRules[_ruleId] */\n      dup2\n      mstore\n      0x20\n      add\n      swap1\n      dup2\n      mstore\n      0x20\n      add\n      0x00\n      keccak256\n        /* \"AdvancedBlockchainFirewall.sol\":11069:11100  firewallRules[_ruleId].isActive */\n      0x06\n      add\n      0x02\n        /* \"AdvancedBlockchainFirewall.sol\":11069:11112  firewallRules[_ruleId].isActive = _isActive */\n      0x0100\n      exp\n      dup2\n      sload\n      dup2\n      0xff\n      mul\n      not\n      and\n      swap1\n      dup4\n      iszero\n      iszero\n      mul\n      or\n      swap1\n      sstore\n      pop\n        /* \"AdvancedBlockchainFirewall.sol\":11139:11146  _ruleId */\n      dup2\n        /* \"AdvancedBlockchainFirewall.sol\":11127:11158  RuleUpdated(_ruleId, _isActive) */\n      0x7aeba5a23b1632f12ae9b736954cb19e2f8d2660f78afc700d7f4923b205a093\n        /* \"AdvancedBlockchainFirewall.sol\":11148:11157  _isActive */\n      dup3\n        /* \"AdvancedBlockchainFirewall.sol\":11127:11158  RuleUpdated(_ruleId, _isActive) */\n      mload(0x40)\n      tag_290\n      swap2\n      swap1\n      tag_71\n      jump\t// in\n    tag_290:\n      mload(0x40)\n      dup1\n      swap2\n      sub\n      swap1\n      log2\n        /* \"AdvancedBlockchainFirewall.sol\":10906:11165  function updateRuleStatus(uint256 _ruleId, bool _isActive) external onlyAdmin {... */\n      pop\n      pop\n      jump\t// out\n        /* \"AdvancedBlockchainFirewall.sol\":1871:1920  mapping(string => IPTraffic) public ipTrafficData */\n    tag_94:\n      0x09\n      dup2\n      dup1\n      mload\n      0x20\n      dup2\n      add\n      dup3\n      add\n      dup1\n      mload\n      dup5\n      dup3\n      mstore\n      0x20\n      dup4\n      add\n      0x20\n      dup6\n      add\n      keccak256\n      dup2\n      dup4\n      mstore\n      dup1\n      swap6\n      pop\n      pop\n      pop\n      pop\n      pop\n      pop\n      0x00\n      swap2\n      pop\n      swap1\n      pop\n      dup1\n      0x00\n      add\n      sload\n      swap1\n      dup1\n      0x01\n      add\n      sload\n      swap1\n      dup1\n      0x02\n      add\n      sload\n      swap1\n      dup1\n      0x03\n      add\n      0x00\n      swap1\n      sload\n      swap1\n      0x0100\n      exp\n      swap1\n      div\n      0xff\n      and\n      swap1\n      pop\n      dup5\n      jump\t// out\n        /* \"AdvancedBlockchainFirewall.sol\":2057:2096  uint256 public suspicionThreshold = 500 */\n    tag_98:\n      sload(0x10)\n      dup2\n      jump\t// out\n        /* \"AdvancedBlockchainFirewall.sol\":11175:11387  function deleteRule(uint256 _ruleId) external onlyAdmin {... */\n    tag_102:\n        /* \"AdvancedBlockchainFirewall.sol\":3257:3273  authorizedAdmins */\n      0x06\n        /* \"AdvancedBlockchainFirewall.sol\":3257:3285  authorizedAdmins[msg.sender] */\n      0x00\n        /* \"AdvancedBlockchainFirewall.sol\":3274:3284  msg.sender */\n      caller\n        /* \"AdvancedBlockchainFirewall.sol\":3257:3285  authorizedAdmins[msg.sender] */\n      0xffffffffffffffffffffffffffffffffffffffff\n      and\n      0xffffffffffffffffffffffffffffffffffffffff\n      and\n      dup2\n      mstore\n      0x20\n      add\n      swap1\n      dup2\n      mstore\n      0x20\n      add\n      0x00\n      keccak256\n      0x00\n      swap1\n      sload\n      swap1\n      0x0100\n      exp\n      swap1\n      div\n      0xff\n      and\n        /* \"AdvancedBlockchainFirewall.sol\":3257:3308  authorizedAdmins[msg.sender] || msg.sender == owner */\n      dup1\n      tag_292\n      jumpi\n      pop\n        /* \"AdvancedBlockchainFirewall.sol\":3303:3308  owner */\n      0x00\n      0x00\n      swap1\n      sload\n      swap1\n      0x0100\n      exp\n      swap1\n      div\n      0xffffffffffffffffffffffffffffffffffffffff\n      and\n        /* \"AdvancedBlockchainFirewall.sol\":3289:3308  msg.sender == owner */\n      0xffffffffffffffffffffffffffffffffffffffff\n      and\n        /* \"AdvancedBlockchainFirewall.sol\":3289:3299  msg.sender */\n      caller\n        /* \"AdvancedBlockchainFirewall.sol\":3289:3308  msg.sender == owner */\n      0xffffffffffffffffffffffffffffffffffffffff\n      and\n      eq\n        /* \"AdvancedBlockchainFirewall.sol\":3257:3308  authorizedAdmins[msg.sender] || msg.sender == owner */\n    tag_292:\n        /* \"AdvancedBlockchainFirewall.sol\":3249:3327  require(authorizedAdmins[msg.sender] || msg.sender == owner, \"Not authorized\") */\n      tag_293\n      jumpi\n      mload(0x40)\n      0x08c379a000000000000000000000000000000000000000000000000000000000\n      dup2\n      mstore\n      0x04\n      add\n      tag_294\n      swap1\n      tag_216\n      jump\t// in\n    tag_294:\n      mload(0x40)\n      dup1\n      swap2\n      sub\n      swap1\n      revert\n    tag_293:\n        /* \"AdvancedBlockchainFirewall.sol\":11259:11260  0 */\n      0x00\n        /* \"AdvancedBlockchainFirewall.sol\":11249:11256  _ruleId */\n      dup2\n        /* \"AdvancedBlockchainFirewall.sol\":11249:11260  _ruleId > 0 */\n      gt\n        /* \"AdvancedBlockchainFirewall.sol\":11249:11286  _ruleId > 0 && _ruleId <= ruleCounter */\n      dup1\n      iszero\n      tag_296\n      jumpi\n      pop\n        /* \"AdvancedBlockchainFirewall.sol\":11275:11286  ruleCounter */\n      sload(0x01)\n        /* \"AdvancedBlockchainFirewall.sol\":11264:11271  _ruleId */\n      dup2\n        /* \"AdvancedBlockchainFirewall.sol\":11264:11286  _ruleId <= ruleCounter */\n      gt\n      iszero\n        /* \"AdvancedBlockchainFirewall.sol\":11249:11286  _ruleId > 0 && _ruleId <= ruleCounter */\n    tag_296:\n        /* \"AdvancedBlockchainFirewall.sol\":11241:11306  require(_ruleId > 0 && _ruleId <= ruleCounter, \"Invalid rule ID\") */\n      tag_297\n      jumpi\n      mload(0x40)\n      0x08c379a000000000000000000000000000000000000000000000000000000000\n      dup2\n      mstore\n      0x04\n      add\n      tag_298\n      swap1\n      tag_289\n      jump\t// in\n    tag_298:\n      mload(0x40)\n      dup1\n      swap2\n      sub\n      swap1\n      revert\n    tag_297:\n        /* \"AdvancedBlockchainFirewall.sol\":11323:11336  firewallRules */\n      0x04\n        /* \"AdvancedBlockchainFirewall.sol\":11323:11345  firewallRules[_ruleId] */\n      0x00\n        /* \"AdvancedBlockchainFirewall.sol\":11337:11344  _ruleId */\n      dup3\n        /* \"AdvancedBlockchainFirewall.sol\":11323:11345  firewallRules[_ruleId] */\n      dup2\n      mstore\n      0x20\n      add\n      swap1\n      dup2\n      mstore\n      0x20\n      add\n      0x00\n      keccak256\n      0x00\n        /* \"AdvancedBlockchainFirewall.sol\":11316:11345  delete firewallRules[_ruleId] */\n      0x00\n      dup3\n      add\n      0x00\n      swap1\n      sstore\n      0x01\n      dup3\n      add\n      0x00\n      tag_299\n      swap2\n      swap1\n      tag_300\n      jump\t// in\n    tag_299:\n      0x02\n      dup3\n      add\n      0x00\n      tag_301\n      swap2\n      swap1\n      tag_300\n      jump\t// in\n    tag_301:\n      0x03\n      dup3\n      add\n      0x00\n      tag_302\n      swap2\n      swap1\n      tag_300\n      jump\t// in\n    tag_302:\n      0x04\n      dup3\n      add\n      0x00\n      swap1\n      sstore\n      0x05\n      dup3\n      add\n      0x00\n      swap1\n      sstore\n      0x06\n      dup3\n      add\n      exp(0x0100, 0x00)\n      dup2\n      sload\n      swap1\n      0xff\n      mul\n      not\n      and\n      swap1\n      sstore\n      0x06\n      dup3\n      add\n      exp(0x0100, 0x01)\n      dup2\n      sload\n      swap1\n      0xff\n      mul\n      not\n      and\n      swap1\n      sstore\n      0x06\n      dup3\n      add\n      exp(0x0100, 0x02)\n      dup2\n      sload\n      swap1\n      0xff\n      mul\n      not\n      and\n      swap1\n      sstore\n      0x07\n      dup3\n      add\n      0x00\n      swap1\n      sstore\n      0x08\n      dup3\n      add\n      0x00\n      swap1\n      sstore\n      0x09\n      dup3\n      add\n      exp(0x0100, 0x00)\n      dup2\n      sload\n      swap1\n      0xffffffffffffffffffffffffffffffffffffffff\n      mul\n      not\n      and\n      swap1\n      sstore\n      pop\n      pop\n        /* \"AdvancedBlockchainFirewall.sol\":11372:11379  _ruleId */\n      dup1\n        /* \"AdvancedBlockchainFirewall.sol\":11360:11380  RuleDeleted(_ruleId) */\n      0x5c4bd92909db22cc3978aa8b39244161c4944f7abfcd72cc33f87dae997870aa\n      mload(0x40)\n      mload(0x40)\n      dup1\n      swap2\n      sub\n      swap1\n      log2\n        /* \"AdvancedBlockchainFirewall.sol\":11175:11387  function deleteRule(uint256 _ruleId) external onlyAdmin {... */\n      pop\n      jump\t// out\n        /* \"AdvancedBlockchainFirewall.sol\":368:394  bool public isSystemActive */\n    tag_104:\n      0x03\n      0x00\n      swap1\n      sload\n      swap1\n      0x0100\n      exp\n      swap1\n      div\n      0xff\n      and\n      dup2\n      jump\t// out\n        /* \"AdvancedBlockchainFirewall.sol\":1769:1814  mapping(string => bool) public blacklistedIPs */\n    tag_108:\n      0x07\n      dup2\n      dup1\n      mload\n      0x20\n      dup2\n      add\n      dup3\n      add\n      dup1\n      mload\n      dup5\n      dup3\n      mstore\n      0x20\n      dup4\n      add\n      0x20\n      dup6\n      add\n      keccak256\n      dup2\n      dup4\n      mstore\n      dup1\n      swap6\n      pop\n      pop\n      pop\n      pop\n      pop\n      pop\n      0x00\n      swap2\n      pop\n      sload\n      swap1\n      0x0100\n      exp\n      swap1\n      div\n      0xff\n      and\n      dup2\n      jump\t// out\n        /* \"AdvancedBlockchainFirewall.sol\":12833:13043  function getThreatLog(uint256 _threatId) external view returns (ThreatLog memory) {... */\n    tag_112:\n        /* \"AdvancedBlockchainFirewall.sol\":12897:12913  ThreatLog memory */\n      tag_303\n      tag_304\n      jump\t// in\n    tag_303:\n        /* \"AdvancedBlockchainFirewall.sol\":12945:12946  0 */\n      0x00\n        /* \"AdvancedBlockchainFirewall.sol\":12933:12942  _threatId */\n      dup3\n        /* \"AdvancedBlockchainFirewall.sol\":12933:12946  _threatId > 0 */\n      gt\n        /* \"AdvancedBlockchainFirewall.sol\":12933:12976  _threatId > 0 && _threatId <= threatCounter */\n      dup1\n      iszero\n      tag_306\n      jumpi\n      pop\n        /* \"AdvancedBlockchainFirewall.sol\":12963:12976  threatCounter */\n      sload(0x02)\n        /* \"AdvancedBlockchainFirewall.sol\":12950:12959  _threatId */\n      dup3\n        /* \"AdvancedBlockchainFirewall.sol\":12950:12976  _threatId <= threatCounter */\n      gt\n      iszero\n        /* \"AdvancedBlockchainFirewall.sol\":12933:12976  _threatId > 0 && _threatId <= threatCounter */\n    tag_306:\n        /* \"AdvancedBlockchainFirewall.sol\":12925:12998  require(_threatId > 0 && _threatId <= threatCounter, \"Invalid threat ID\") */\n      tag_307\n      jumpi\n      mload(0x40)\n      0x08c379a000000000000000000000000000000000000000000000000000000000\n      dup2\n      mstore\n      0x04\n      add\n      tag_308\n      swap1\n      tag_309\n      jump\t// in\n    tag_308:\n      mload(0x40)\n      dup1\n      swap2\n      sub\n      swap1\n      revert\n    tag_307:\n        /* \"AdvancedBlockchainFirewall.sol\":13015:13025  threatLogs */\n      0x05\n        /* \"AdvancedBlockchainFirewall.sol\":13015:13036  threatLogs[_threatId] */\n      0x00\n        /* \"AdvancedBlockchainFirewall.sol\":13026:13035  _threatId */\n      dup4\n        /* \"AdvancedBlockchainFirewall.sol\":13015:13036  threatLogs[_threatId] */\n      dup2\n      mstore\n      0x20\n      add\n      swap1\n      dup2\n      mstore\n      0x20\n      add\n      0x00\n      keccak256\n        /* \"AdvancedBlockchainFirewall.sol\":13008:13036  return threatLogs[_threatId] */\n      mload(0x40)\n      dup1\n      0x0100\n      add\n      0x40\n      mstore\n      swap1\n      dup2\n      0x00\n      dup3\n      add\n      sload\n      dup2\n      mstore\n      0x20\n      add\n      0x01\n      dup3\n      add\n      dup1\n      sload\n      tag_310\n      swap1\n      tag_223\n      jump\t// in\n    tag_310:\n      dup1\n      0x1f\n      add\n      0x20\n      dup1\n      swap2\n      div\n      mul\n      0x20\n      add\n      mload(0x40)\n      swap1\n      dup2\n      add\n      0x40\n      mstore\n      dup1\n      swap3\n      swap2\n      swap1\n      dup2\n      dup2\n      mstore\n      0x20\n      add\n      dup3\n      dup1\n      sload\n      tag_311\n      swap1\n      tag_223\n      jump\t// in\n    tag_311:\n      dup1\n      iszero\n      tag_312\n      jumpi\n      dup1\n      0x1f\n      lt\n      tag_313\n      jumpi\n      0x0100\n      dup1\n      dup4\n      sload\n      div\n      mul\n      dup4\n      mstore\n      swap2\n      0x20\n      add\n      swap2\n      jump(tag_312)\n    tag_313:\n      dup3\n      add\n      swap2\n      swap1\n      0x00\n      mstore\n      keccak256(0x00, 0x20)\n      swap1\n    tag_314:\n      dup2\n      sload\n      dup2\n      mstore\n      swap1\n      0x01\n      add\n      swap1\n      0x20\n      add\n      dup1\n      dup4\n      gt\n      tag_314\n      jumpi\n      dup3\n      swap1\n      sub\n      0x1f\n      and\n      dup3\n      add\n      swap2\n    tag_312:\n      pop\n      pop\n      pop\n      pop\n      pop\n      dup2\n      mstore\n      0x20\n      add\n      0x02\n      dup3\n      add\n      dup1\n      sload\n      tag_315\n      swap1\n      tag_223\n      jump\t// in\n    tag_315:\n      dup1\n      0x1f\n      add\n      0x20\n      dup1\n      swap2\n      div\n      mul\n      0x20\n      add\n      mload(0x40)\n      swap1\n      dup2\n      add\n      0x40\n      mstore\n      dup1\n      swap3\n      swap2\n      swap1\n      dup2\n      dup2\n      mstore\n      0x20\n      add\n      dup3\n      dup1\n      sload\n      tag_316\n      swap1\n      tag_223\n      jump\t// in\n    tag_316:\n      dup1\n      iszero\n      tag_317\n      jumpi\n      dup1\n      0x1f\n      lt\n      tag_318\n      jumpi\n      0x0100\n      dup1\n      dup4\n      sload\n      div\n      mul\n      dup4\n      mstore\n      swap2\n      0x20\n      add\n      swap2\n      jump(tag_317)\n    tag_318:\n      dup3\n      add\n      swap2\n      swap1\n      0x00\n      mstore\n      keccak256(0x00, 0x20)\n      swap1\n    tag_319:\n      dup2\n      sload\n      dup2\n      mstore\n      swap1\n      0x01\n      add\n      swap1\n      0x20\n      add\n      dup1\n      dup4\n      gt\n      tag_319\n      jumpi\n      dup3\n      swap1\n      sub\n      0x1f\n      and\n      dup3\n      add\n      swap2\n    tag_317:\n      pop\n      pop\n      pop\n      pop\n      pop\n      dup2\n      mstore\n      0x20\n      add\n      0x03\n      dup3\n      add\n      0x00\n      swap1\n      sload\n      swap1\n      0x0100\n      exp\n      swap1\n      div\n      0xff\n      and\n      0x03\n      dup2\n      gt\n      iszero\n      tag_320\n      jumpi\n      tag_321\n      tag_257\n      jump\t// in\n    tag_321:\n    tag_320:\n      0x03\n      dup2\n      gt\n      iszero\n      tag_322\n      jumpi\n      tag_323\n      tag_257\n      jump\t// in\n    tag_323:\n    tag_322:\n      dup2\n      mstore\n      0x20\n      add\n      0x04\n      dup3\n      add\n      sload\n      dup2\n      mstore\n      0x20\n      add\n      0x05\n      dup3\n      add\n      dup1\n      sload\n      tag_324\n      swap1\n      tag_223\n      jump\t// in\n    tag_324:\n      dup1\n      0x1f\n      add\n      0x20\n      dup1\n      swap2\n      div\n      mul\n      0x20\n      add\n      mload(0x40)\n      swap1\n      dup2\n      add\n      0x40\n      mstore\n      dup1\n      swap3\n      swap2\n      swap1\n      dup2\n      dup2\n      mstore\n      0x20\n      add\n      dup3\n      dup1\n      sload\n      tag_325\n      swap1\n      tag_223\n      jump\t// in\n    tag_325:\n      dup1\n      iszero\n      tag_326\n      jumpi\n      dup1\n      0x1f\n      lt\n      tag_327\n      jumpi\n      0x0100\n      dup1\n      dup4\n      sload\n      div\n      mul\n      dup4\n      mstore\n      swap2\n      0x20\n      add\n      swap2\n      jump(tag_326)\n    tag_327:\n      dup3\n      add\n      swap2\n      swap1\n      0x00\n      mstore\n      keccak256(0x00, 0x20)\n      swap1\n    tag_328:\n      dup2\n      sload\n      dup2\n      mstore\n      swap1\n      0x01\n      add\n      swap1\n      0x20\n      add\n      dup1\n      dup4\n      gt\n      tag_328\n      jumpi\n      dup3\n      swap1\n      sub\n      0x1f\n      and\n      dup3\n      add\n      swap2\n    tag_326:\n      pop\n      pop\n      pop\n      pop\n      pop\n      dup2\n      mstore\n      0x20\n      add\n      0x06\n      dup3\n      add\n      0x00\n      swap1\n      sload\n      swap1\n      0x0100\n      exp\n      swap1\n      div\n      0xff\n      and\n      iszero\n      iszero\n      iszero\n      iszero\n      dup2\n      mstore\n      0x20\n      add\n      0x07\n      dup3\n      add\n      sload\n      dup2\n      mstore\n      pop\n      pop\n      swap1\n      pop\n        /* \"AdvancedBlockchainFirewall.sol\":12833:13043  function getThreatLog(uint256 _threatId) external view returns (ThreatLog memory) {... */\n      swap2\n      swap1\n      pop\n      jump\t// out\n        /* \"AdvancedBlockchainFirewall.sol\":11397:11596  function getRule(uint256 _ruleId) external view returns (FirewallRule memory) {... */\n    tag_117:\n        /* \"AdvancedBlockchainFirewall.sol\":11454:11473  FirewallRule memory */\n      tag_329\n      tag_330\n      jump\t// in\n    tag_329:\n        /* \"AdvancedBlockchainFirewall.sol\":11503:11504  0 */\n      0x00\n        /* \"AdvancedBlockchainFirewall.sol\":11493:11500  _ruleId */\n      dup3\n        /* \"AdvancedBlockchainFirewall.sol\":11493:11504  _ruleId > 0 */\n      gt\n        /* \"AdvancedBlockchainFirewall.sol\":11493:11530  _ruleId > 0 && _ruleId <= ruleCounter */\n      dup1\n      iszero\n      tag_332\n      jumpi\n      pop\n        /* \"AdvancedBlockchainFirewall.sol\":11519:11530  ruleCounter */\n      sload(0x01)\n        /* \"AdvancedBlockchainFirewall.sol\":11508:11515  _ruleId */\n      dup3\n        /* \"AdvancedBlockchainFirewall.sol\":11508:11530  _ruleId <= ruleCounter */\n      gt\n      iszero\n        /* \"AdvancedBlockchainFirewall.sol\":11493:11530  _ruleId > 0 && _ruleId <= ruleCounter */\n    tag_332:\n        /* \"AdvancedBlockchainFirewall.sol\":11485:11550  require(_ruleId > 0 && _ruleId <= ruleCounter, \"Invalid rule ID\") */\n      tag_333\n      jumpi\n      mload(0x40)\n      0x08c379a000000000000000000000000000000000000000000000000000000000\n      dup2\n      mstore\n      0x04\n      add\n      tag_334\n      swap1\n      tag_289\n      jump\t// in\n    tag_334:\n      mload(0x40)\n      dup1\n      swap2\n      sub\n      swap1\n      revert\n    tag_333:\n        /* \"AdvancedBlockchainFirewall.sol\":11567:11580  firewallRules */\n      0x04\n        /* \"AdvancedBlockchainFirewall.sol\":11567:11589  firewallRules[_ruleId] */\n      0x00\n        /* \"AdvancedBlockchainFirewall.sol\":11581:11588  _ruleId */\n      dup4\n        /* \"AdvancedBlockchainFirewall.sol\":11567:11589  firewallRules[_ruleId] */\n      dup2\n      mstore\n      0x20\n      add\n      swap1\n      dup2\n      mstore\n      0x20\n      add\n      0x00\n      keccak256\n        /* \"AdvancedBlockchainFirewall.sol\":11560:11589  return firewallRules[_ruleId] */\n      mload(0x40)\n      dup1\n      0x0180\n      add\n      0x40\n      mstore\n      swap1\n      dup2\n      0x00\n      dup3\n      add\n      sload\n      dup2\n      mstore\n      0x20\n      add\n      0x01\n      dup3\n      add\n      dup1\n      sload\n      tag_335\n      swap1\n      tag_223\n      jump\t// in\n    tag_335:\n      dup1\n      0x1f\n      add\n      0x20\n      dup1\n      swap2\n      div\n      mul\n      0x20\n      add\n      mload(0x40)\n      swap1\n      dup2\n      add\n      0x40\n      mstore\n      dup1\n      swap3\n      swap2\n      swap1\n      dup2\n      dup2\n      mstore\n      0x20\n      add\n      dup3\n      dup1\n      sload\n      tag_336\n      swap1\n      tag_223\n      jump\t// in\n    tag_336:\n      dup1\n      iszero\n      tag_337\n      jumpi\n      dup1\n      0x1f\n      lt\n      tag_338\n      jumpi\n      0x0100\n      dup1\n      dup4\n      sload\n      div\n      mul\n      dup4\n      mstore\n      swap2\n      0x20\n      add\n      swap2\n      jump(tag_337)\n    tag_338:\n      dup3\n      add\n      swap2\n      swap1\n      0x00\n      mstore\n      keccak256(0x00, 0x20)\n      swap1\n    tag_339:\n      dup2\n      sload\n      dup2\n      mstore\n      swap1\n      0x01\n      add\n      swap1\n      0x20\n      add\n      dup1\n      dup4\n      gt\n      tag_339\n      jumpi\n      dup3\n      swap1\n      sub\n      0x1f\n      and\n      dup3\n      add\n      swap2\n    tag_337:\n      pop\n      pop\n      pop\n      pop\n      pop\n      dup2\n      mstore\n      0x20\n      add\n      0x02\n      dup3\n      add\n      dup1\n      sload\n      tag_340\n      swap1\n      tag_223\n      jump\t// in\n    tag_340:\n      dup1\n      0x1f\n      add\n      0x20\n      dup1\n      swap2\n      div\n      mul\n      0x20\n      add\n      mload(0x40)\n      swap1\n      dup2\n      add\n      0x40\n      mstore\n      dup1\n      swap3\n      swap2\n      swap1\n      dup2\n      dup2\n      mstore\n      0x20\n      add\n      dup3\n      dup1\n      sload\n      tag_341\n      swap1\n      tag_223\n      jump\t// in\n    tag_341:\n      dup1\n      iszero\n      tag_342\n      jumpi\n      dup1\n      0x1f\n      lt\n      tag_343\n      jumpi\n      0x0100\n      dup1\n      dup4\n      sload\n      div\n      mul\n      dup4\n      mstore\n      swap2\n      0x20\n      add\n      swap2\n      jump(tag_342)\n    tag_343:\n      dup3\n      add\n      swap2\n      swap1\n      0x00\n      mstore\n      keccak256(0x00, 0x20)\n      swap1\n    tag_344:\n      dup2\n      sload\n      dup2\n      mstore\n      swap1\n      0x01\n      add\n      swap1\n      0x20\n      add\n      dup1\n      dup4\n      gt\n      tag_344\n      jumpi\n      dup3\n      swap1\n      sub\n      0x1f\n      and\n      dup3\n      add\n      swap2\n    tag_342:\n      pop\n      pop\n      pop\n      pop\n      pop\n      dup2\n      mstore\n      0x20\n      add\n      0x03\n      dup3\n      add\n      dup1\n      sload\n      tag_345\n      swap1\n      tag_223\n      jump\t// in\n    tag_345:\n      dup1\n      0x1f\n      add\n      0x20\n      dup1\n      swap2\n      div\n      mul\n      0x20\n      add\n      mload(0x40)\n      swap1\n      dup2\n      add\n      0x40\n      mstore\n      dup1\n      swap3\n      swap2\n      swap1\n      dup2\n      dup2\n      mstore\n      0x20\n      add\n      dup3\n      dup1\n      sload\n      tag_346\n      swap1\n      tag_223\n      jump\t// in\n    tag_346:\n      dup1\n      iszero\n      tag_347\n      jumpi\n      dup1\n      0x1f\n      lt\n      tag_348\n      jumpi\n      0x0100\n      dup1\n      dup4\n      sload\n      div\n      mul\n      dup4\n      mstore\n      swap2\n      0x20\n      add\n      swap2\n      jump(tag_347)\n    tag_348:\n      dup3\n      add\n      swap2\n      swap1\n      0x00\n      mstore\n      keccak256(0x00, 0x20)\n      swap1\n    tag_349:\n      dup2\n      sload\n      dup2\n      mstore\n      swap1\n      0x01\n      add\n      swap1\n      0x20\n      add\n      dup1\n      dup4\n      gt\n      tag_349\n      jumpi\n      dup3\n      swap1\n      sub\n      0x1f\n      and\n      dup3\n      add\n      swap2\n    tag_347:\n      pop\n      pop\n      pop\n      pop\n      pop\n      dup2\n      mstore\n      0x20\n      add\n      0x04\n      dup3\n      add\n      sload\n      dup2\n      mstore\n      0x20\n      add\n      0x05\n      dup3\n      add\n      sload\n      dup2\n      mstore\n      0x20\n      add\n      0x06\n      dup3\n      add\n      0x00\n      swap1\n      sload\n      swap1\n      0x0100\n      exp\n      swap1\n      div\n      0xff\n      and\n      0x05\n      dup2\n      gt\n      iszero\n      tag_350\n      jumpi\n      tag_351\n      tag_257\n      jump\t// in\n    tag_351:\n    tag_350:\n      0x05\n      dup2\n      gt\n      iszero\n      tag_352\n      jumpi\n      tag_353\n      tag_257\n      jump\t// in\n    tag_353:\n    tag_352:\n      dup2\n      mstore\n      0x20\n      add\n      0x06\n      dup3\n      add\n      0x01\n      swap1\n      sload\n      swap1\n      0x0100\n      exp\n      swap1\n      div\n      0xff\n      and\n      0x02\n      dup2\n      gt\n      iszero\n      tag_354\n      jumpi\n      tag_355\n      tag_257\n      jump\t// in\n    tag_355:\n    tag_354:\n      0x02\n      dup2\n      gt\n      iszero\n      tag_356\n      jumpi\n      tag_357\n      tag_257\n      jump\t// in\n    tag_357:\n    tag_356:\n      dup2\n      mstore\n      0x20\n      add\n      0x06\n      dup3\n      add\n      0x02\n      swap1\n      sload\n      swap1\n      0x0100\n      exp\n      swap1\n      div\n      0xff\n      and\n      iszero\n      iszero\n      iszero\n      iszero\n      dup2\n      mstore\n      0x20\n      add\n      0x07\n      dup3\n      add\n      sload\n      dup2\n      mstore\n      0x20\n      add\n      0x08\n      dup3\n      add\n      sload\n      dup2\n      mstore\n      0x20\n      add\n      0x09\n      dup3\n      add\n      0x00\n      swap1\n      sload\n      swap1\n      0x0100\n      exp\n      swap1\n      div\n      0xffffffffffffffffffffffffffffffffffffffff\n      and\n      0xffffffffffffffffffffffffffffffffffffffff\n      and\n      0xffffffffffffffffffffffffffffffffffffffff\n      and\n      dup2\n      mstore\n      pop\n      pop\n      swap1\n      pop\n        /* \"AdvancedBlockchainFirewall.sol\":11397:11596  function getRule(uint256 _ruleId) external view returns (FirewallRule memory) {... */\n      swap2\n      swap1\n      pop\n      jump\t// out\n        /* \"AdvancedBlockchainFirewall.sol\":13187:13294  function getNetworkStats() external view returns (NetworkStats memory) {... */\n    tag_121:\n        /* \"AdvancedBlockchainFirewall.sol\":13237:13256  NetworkStats memory */\n      tag_358\n      tag_359\n      jump\t// in\n    tag_358:\n        /* \"AdvancedBlockchainFirewall.sol\":13275:13287  networkStats */\n      0x0a\n        /* \"AdvancedBlockchainFirewall.sol\":13268:13287  return networkStats */\n      mload(0x40)\n      dup1\n      0xa0\n      add\n      0x40\n      mstore\n      swap1\n      dup2\n      0x00\n      dup3\n      add\n      sload\n      dup2\n      mstore\n      0x20\n      add\n      0x01\n      dup3\n      add\n      sload\n      dup2\n      mstore\n      0x20\n      add\n      0x02\n      dup3\n      add\n      sload\n      dup2\n      mstore\n      0x20\n      add\n      0x03\n      dup3\n      add\n      sload\n      dup2\n      mstore\n      0x20\n      add\n      0x04\n      dup3\n      add\n      sload\n      dup2\n      mstore\n      pop\n      pop\n      swap1\n      pop\n        /* \"AdvancedBlockchainFirewall.sol\":13187:13294  function getNetworkStats() external view returns (NetworkStats memory) {... */\n      swap1\n      jump\t// out\n        /* \"AdvancedBlockchainFirewall.sol\":13634:14001  function getSystemStatus() external view returns (... */\n    tag_125:\n        /* \"AdvancedBlockchainFirewall.sol\":13693:13704  bool active */\n      0x00\n        /* \"AdvancedBlockchainFirewall.sol\":13714:13732  bool autoDetection */\n      0x00\n        /* \"AdvancedBlockchainFirewall.sol\":13742:13757  uint256 threats */\n      0x00\n        /* \"AdvancedBlockchainFirewall.sol\":13767:13782  uint256 blocked */\n      0x00\n        /* \"AdvancedBlockchainFirewall.sol\":13792:13805  uint256 rules */\n      0x00\n        /* \"AdvancedBlockchainFirewall.sol\":13843:13857  isSystemActive */\n      0x03\n      0x00\n      swap1\n      sload\n      swap1\n      0x0100\n      exp\n      swap1\n      div\n      0xff\n      and\n        /* \"AdvancedBlockchainFirewall.sol\":13871:13891  autoDetectionEnabled */\n      0x03\n      0x01\n      swap1\n      sload\n      swap1\n      0x0100\n      exp\n      swap1\n      div\n      0xff\n      and\n        /* \"AdvancedBlockchainFirewall.sol\":13905:13918  threatCounter */\n      sload(0x02)\n        /* \"AdvancedBlockchainFirewall.sol\":13932:13944  networkStats */\n      0x0a\n        /* \"AdvancedBlockchainFirewall.sol\":13932:13959  networkStats.threatsBlocked */\n      0x01\n      add\n      sload\n        /* \"AdvancedBlockchainFirewall.sol\":13973:13984  ruleCounter */\n      sload(0x01)\n        /* \"AdvancedBlockchainFirewall.sol\":13822:13994  return (... */\n      swap5\n      pop\n      swap5\n      pop\n      swap5\n      pop\n      swap5\n      pop\n      swap5\n      pop\n        /* \"AdvancedBlockchainFirewall.sol\":13634:14001  function getSystemStatus() external view returns (... */\n      swap1\n      swap2\n      swap3\n      swap4\n      swap5\n      jump\t// out\n        /* \"AdvancedBlockchainFirewall.sol\":13304:13395  function getRuleCount() external view returns (uint256) {... */\n    tag_129:\n        /* \"AdvancedBlockchainFirewall.sol\":13351:13358  uint256 */\n      0x00\n        /* \"AdvancedBlockchainFirewall.sol\":13377:13388  ruleCounter */\n      sload(0x01)\n        /* \"AdvancedBlockchainFirewall.sol\":13370:13388  return ruleCounter */\n      swap1\n      pop\n        /* \"AdvancedBlockchainFirewall.sol\":13304:13395  function getRuleCount() external view returns (uint256) {... */\n      swap1\n      jump\t// out\n        /* \"AdvancedBlockchainFirewall.sol\":13053:13177  function getIPTraffic(string memory _ip) external view returns (IPTraffic memory) {... */\n    tag_133:\n        /* \"AdvancedBlockchainFirewall.sol\":13117:13133  IPTraffic memory */\n      tag_363\n      tag_364\n      jump\t// in\n    tag_363:\n        /* \"AdvancedBlockchainFirewall.sol\":13152:13165  ipTrafficData */\n      0x09\n        /* \"AdvancedBlockchainFirewall.sol\":13166:13169  _ip */\n      dup3\n        /* \"AdvancedBlockchainFirewall.sol\":13152:13170  ipTrafficData[_ip] */\n      mload(0x40)\n      tag_366\n      swap2\n      swap1\n      tag_219\n      jump\t// in\n    tag_366:\n      swap1\n      dup2\n      mstore\n      0x20\n      add\n      mload(0x40)\n      dup1\n      swap2\n      sub\n      swap1\n      keccak256\n        /* \"AdvancedBlockchainFirewall.sol\":13145:13170  return ipTrafficData[_ip] */\n      mload(0x40)\n      dup1\n      0x80\n      add\n      0x40\n      mstore\n      swap1\n      dup2\n      0x00\n      dup3\n      add\n      sload\n      dup2\n      mstore\n      0x20\n      add\n      0x01\n      dup3\n      add\n      sload\n      dup2\n      mstore\n      0x20\n      add\n      0x02\n      dup3\n      add\n      sload\n      dup2\n      mstore\n      0x20\n      add\n      0x03\n      dup3\n      add\n      0x00\n      swap1\n      sload\n      swap1\n      0x0100\n      exp\n      swap1\n      div\n      0xff\n      and\n      iszero\n      iszero\n      iszero\n      iszero\n      dup2\n      mstore\n      pop\n      pop\n      swap1\n      pop\n        /* \"AdvancedBlockchainFirewall.sol\":13053:13177  function getIPTraffic(string memory _ip) external view returns (IPTraffic memory) {... */\n      swap2\n      swap1\n      pop\n      jump\t// out\n        /* \"AdvancedBlockchainFirewall.sol\":13405:13500  function getThreatCount() external view returns (uint256) {... */\n    tag_137:\n        /* \"AdvancedBlockchainFirewall.sol\":13454:13461  uint256 */\n      0x00\n        /* \"AdvancedBlockchainFirewall.sol\":13480:13493  threatCounter */\n      sload(0x02)\n        /* \"AdvancedBlockchainFirewall.sol\":13473:13493  return threatCounter */\n      swap1\n      pop\n        /* \"AdvancedBlockchainFirewall.sol\":13405:13500  function getThreatCount() external view returns (uint256) {... */\n      swap1\n      jump\t// out\n        /* \"AdvancedBlockchainFirewall.sol\":9981:10896  function createRule(... */\n    tag_142:\n        /* \"AdvancedBlockchainFirewall.sol\":10281:10288  uint256 */\n      0x00\n        /* \"AdvancedBlockchainFirewall.sol\":3257:3273  authorizedAdmins */\n      0x06\n        /* \"AdvancedBlockchainFirewall.sol\":3257:3285  authorizedAdmins[msg.sender] */\n      0x00\n        /* \"AdvancedBlockchainFirewall.sol\":3274:3284  msg.sender */\n      caller\n        /* \"AdvancedBlockchainFirewall.sol\":3257:3285  authorizedAdmins[msg.sender] */\n      0xffffffffffffffffffffffffffffffffffffffff\n      and\n      0xffffffffffffffffffffffffffffffffffffffff\n      and\n      dup2\n      mstore\n      0x20\n      add\n      swap1\n      dup2\n      mstore\n      0x20\n      add\n      0x00\n      keccak256\n      0x00\n      swap1\n      sload\n      swap1\n      0x0100\n      exp\n      swap1\n      div\n      0xff\n      and\n        /* \"AdvancedBlockchainFirewall.sol\":3257:3308  authorizedAdmins[msg.sender] || msg.sender == owner */\n      dup1\n      tag_369\n      jumpi\n      pop\n        /* \"AdvancedBlockchainFirewall.sol\":3303:3308  owner */\n      0x00\n      0x00\n      swap1\n      sload\n      swap1\n      0x0100\n      exp\n      swap1\n      div\n      0xffffffffffffffffffffffffffffffffffffffff\n      and\n        /* \"AdvancedBlockchainFirewall.sol\":3289:3308  msg.sender == owner */\n      0xffffffffffffffffffffffffffffffffffffffff\n      and\n        /* \"AdvancedBlockchainFirewall.sol\":3289:3299  msg.sender */\n      caller\n        /* \"AdvancedBlockchainFirewall.sol\":3289:3308  msg.sender == owner */\n      0xffffffffffffffffffffffffffffffffffffffff\n      and\n      eq\n        /* \"AdvancedBlockchainFirewall.sol\":3257:3308  authorizedAdmins[msg.sender] || msg.sender == owner */\n    tag_369:\n        /* \"AdvancedBlockchainFirewall.sol\":3249:3327  require(authorizedAdmins[msg.sender] || msg.sender == owner, \"Not authorized\") */\n      tag_370\n      jumpi\n      mload(0x40)\n      0x08c379a000000000000000000000000000000000000000000000000000000000\n      dup2\n      mstore\n      0x04\n      add\n      tag_371\n      swap1\n      tag_216\n      jump\t// in\n    tag_371:\n      mload(0x40)\n      dup1\n      swap2\n      sub\n      swap1\n      revert\n    tag_370:\n        /* \"AdvancedBlockchainFirewall.sol\":10300:10311  ruleCounter */\n      0x01\n      0x00\n        /* \"AdvancedBlockchainFirewall.sol\":10300:10313  ruleCounter++ */\n      dup2\n      sload\n      dup1\n      swap3\n      swap2\n      swap1\n      tag_373\n      swap1\n      tag_254\n      jump\t// in\n    tag_373:\n      swap2\n      swap1\n      pop\n      sstore\n      pop\n        /* \"AdvancedBlockchainFirewall.sol\":10361:10797  FirewallRule({... */\n      mload(0x40)\n      dup1\n      0x0180\n      add\n      0x40\n      mstore\n      dup1\n        /* \"AdvancedBlockchainFirewall.sol\":10392:10403  ruleCounter */\n      sload(0x01)\n        /* \"AdvancedBlockchainFirewall.sol\":10361:10797  FirewallRule({... */\n      dup2\n      mstore\n      0x20\n      add\n        /* \"AdvancedBlockchainFirewall.sol\":10423:10428  _name */\n      dup11\n        /* \"AdvancedBlockchainFirewall.sol\":10361:10797  FirewallRule({... */\n      dup2\n      mstore\n      0x20\n      add\n        /* \"AdvancedBlockchainFirewall.sol\":10452:10461  _sourceIP */\n      dup10\n        /* \"AdvancedBlockchainFirewall.sol\":10361:10797  FirewallRule({... */\n      dup2\n      mstore\n      0x20\n      add\n        /* \"AdvancedBlockchainFirewall.sol\":10490:10504  _destinationIP */\n      dup9\n        /* \"AdvancedBlockchainFirewall.sol\":10361:10797  FirewallRule({... */\n      dup2\n      mstore\n      0x20\n      add\n        /* \"AdvancedBlockchainFirewall.sol\":10530:10541  _sourcePort */\n      dup8\n        /* \"AdvancedBlockchainFirewall.sol\":10361:10797  FirewallRule({... */\n      dup2\n      mstore\n      0x20\n      add\n        /* \"AdvancedBlockchainFirewall.sol\":10572:10588  _destinationPort */\n      dup7\n        /* \"AdvancedBlockchainFirewall.sol\":10361:10797  FirewallRule({... */\n      dup2\n      mstore\n      0x20\n      add\n        /* \"AdvancedBlockchainFirewall.sol\":10612:10621  _protocol */\n      dup6\n        /* \"AdvancedBlockchainFirewall.sol\":10361:10797  FirewallRule({... */\n      0x05\n      dup2\n      gt\n      iszero\n      tag_374\n      jumpi\n      tag_375\n      tag_257\n      jump\t// in\n    tag_375:\n    tag_374:\n      dup2\n      mstore\n      0x20\n      add\n        /* \"AdvancedBlockchainFirewall.sol\":10643:10650  _action */\n      dup5\n        /* \"AdvancedBlockchainFirewall.sol\":10361:10797  FirewallRule({... */\n      0x02\n      dup2\n      gt\n      iszero\n      tag_376\n      jumpi\n      tag_377\n      tag_257\n      jump\t// in\n    tag_377:\n    tag_376:\n      dup2\n      mstore\n      0x20\n      add\n        /* \"AdvancedBlockchainFirewall.sol\":10674:10678  true */\n      0x01\n        /* \"AdvancedBlockchainFirewall.sol\":10361:10797  FirewallRule({... */\n      iszero\n      iszero\n      dup2\n      mstore\n      0x20\n      add\n        /* \"AdvancedBlockchainFirewall.sol\":10702:10711  _priority */\n      dup4\n        /* \"AdvancedBlockchainFirewall.sol\":10361:10797  FirewallRule({... */\n      dup2\n      mstore\n      0x20\n      add\n        /* \"AdvancedBlockchainFirewall.sol\":10736:10751  block.timestamp */\n      timestamp\n        /* \"AdvancedBlockchainFirewall.sol\":10361:10797  FirewallRule({... */\n      dup2\n      mstore\n      0x20\n      add\n        /* \"AdvancedBlockchainFirewall.sol\":10776:10786  msg.sender */\n      caller\n        /* \"AdvancedBlockchainFirewall.sol\":10361:10797  FirewallRule({... */\n      0xffffffffffffffffffffffffffffffffffffffff\n      and\n      dup2\n      mstore\n      pop\n        /* \"AdvancedBlockchainFirewall.sol\":10332:10345  firewallRules */\n      0x04\n        /* \"AdvancedBlockchainFirewall.sol\":10332:10358  firewallRules[ruleCounter] */\n      0x00\n        /* \"AdvancedBlockchainFirewall.sol\":10346:10357  ruleCounter */\n      sload(0x01)\n        /* \"AdvancedBlockchainFirewall.sol\":10332:10358  firewallRules[ruleCounter] */\n      dup2\n      mstore\n      0x20\n      add\n      swap1\n      dup2\n      mstore\n      0x20\n      add\n      0x00\n      keccak256\n        /* \"AdvancedBlockchainFirewall.sol\":10332:10797  firewallRules[ruleCounter] = FirewallRule({... */\n      0x00\n      dup3\n      add\n      mload\n      dup2\n      0x00\n      add\n      sstore\n      0x20\n      dup3\n      add\n      mload\n      dup2\n      0x01\n      add\n      swap1\n      dup2\n      tag_378\n      swap2\n      swap1\n      tag_260\n      jump\t// in\n    tag_378:\n      pop\n      0x40\n      dup3\n      add\n      mload\n      dup2\n      0x02\n      add\n      swap1\n      dup2\n      tag_379\n      swap2\n      swap1\n      tag_260\n      jump\t// in\n    tag_379:\n      pop\n      0x60\n      dup3\n      add\n      mload\n      dup2\n      0x03\n      add\n      swap1\n      dup2\n      tag_380\n      swap2\n      swap1\n      tag_260\n      jump\t// in\n    tag_380:\n      pop\n      0x80\n      dup3\n      add\n      mload\n      dup2\n      0x04\n      add\n      sstore\n      0xa0\n      dup3\n      add\n      mload\n      dup2\n      0x05\n      add\n      sstore\n      0xc0\n      dup3\n      add\n      mload\n      dup2\n      0x06\n      add\n      exp(0x0100, 0x00)\n      dup2\n      sload\n      dup2\n      0xff\n      mul\n      not\n      and\n      swap1\n      dup4\n      0x05\n      dup2\n      gt\n      iszero\n      tag_381\n      jumpi\n      tag_382\n      tag_257\n      jump\t// in\n    tag_382:\n    tag_381:\n      mul\n      or\n      swap1\n      sstore\n      pop\n      0xe0\n      dup3\n      add\n      mload\n      dup2\n      0x06\n      add\n      exp(0x0100, 0x01)\n      dup2\n      sload\n      dup2\n      0xff\n      mul\n      not\n      and\n      swap1\n      dup4\n      0x02\n      dup2\n      gt\n      iszero\n      tag_383\n      jumpi\n      tag_384\n      tag_257\n      jump\t// in\n    tag_384:\n    tag_383:\n      mul\n      or\n      swap1\n      sstore\n      pop\n      0x0100\n      dup3\n      add\n      mload\n      dup2\n      0x06\n      add\n      exp(0x0100, 0x02)\n      dup2\n      sload\n      dup2\n      0xff\n      mul\n      not\n      and\n      swap1\n      dup4\n      iszero\n      iszero\n      mul\n      or\n      swap1\n      sstore\n      pop\n      0x0120\n      dup3\n      add\n      mload\n      dup2\n      0x07\n      add\n      sstore\n      0x0140\n      dup3\n      add\n      mload\n      dup2\n      0x08\n      add\n      sstore\n      0x0160\n      dup3\n      add\n      mload\n      dup2\n      0x09\n      add\n      exp(0x0100, 0x00)\n      dup2\n      sload\n      dup2\n      0xffffffffffffffffffffffffffffffffffffffff\n      mul\n      not\n      and\n      swap1\n      dup4\n      0xffffffffffffffffffffffffffffffffffffffff\n      and\n      mul\n      or\n      swap1\n      sstore\n      pop\n      swap1\n      pop\n      pop\n        /* \"AdvancedBlockchainFirewall.sol\":10833:10844  ruleCounter */\n      sload(0x01)\n        /* \"AdvancedBlockchainFirewall.sol\":10821:10861  RuleCreated(ruleCounter, _name, _action) */\n      0xeef4ab80be438bd786e0d340d5494930b9916b35de336e115e328076f2ea6dc4\n        /* \"AdvancedBlockchainFirewall.sol\":10846:10851  _name */\n      dup11\n        /* \"AdvancedBlockchainFirewall.sol\":10853:10860  _action */\n      dup6\n        /* \"AdvancedBlockchainFirewall.sol\":10821:10861  RuleCreated(ruleCounter, _name, _action) */\n      mload(0x40)\n      tag_385\n      swap3\n      swap2\n      swap1\n      tag_386\n      jump\t// in\n    tag_385:\n      mload(0x40)\n      dup1\n      swap2\n      sub\n      swap1\n      log2\n        /* \"AdvancedBlockchainFirewall.sol\":10878:10889  ruleCounter */\n      sload(0x01)\n        /* \"AdvancedBlockchainFirewall.sol\":10871:10889  return ruleCounter */\n      swap1\n      pop\n        /* \"AdvancedBlockchainFirewall.sol\":9981:10896  function createRule(... */\n      swap9\n      swap8\n      pop\n      pop\n      pop\n      pop\n      pop\n      pop\n      pop\n      pop\n      jump\t// out\n        /* \"AdvancedBlockchainFirewall.sol\":334:362  uint256 public threatCounter */\n    tag_145:\n      sload(0x02)\n      dup2\n      jump\t// out\n        /* \"AdvancedBlockchainFirewall.sol\":4401:4539  function disableAutoDetection() external onlyAdmin {... */\n    tag_148:\n        /* \"AdvancedBlockchainFirewall.sol\":3257:3273  authorizedAdmins */\n      0x06\n        /* \"AdvancedBlockchainFirewall.sol\":3257:3285  authorizedAdmins[msg.sender] */\n      0x00\n        /* \"AdvancedBlockchainFirewall.sol\":3274:3284  msg.sender */\n      caller\n        /* \"AdvancedBlockchainFirewall.sol\":3257:3285  authorizedAdmins[msg.sender] */\n      0xffffffffffffffffffffffffffffffffffffffff\n      and\n      0xffffffffffffffffffffffffffffffffffffffff\n      and\n      dup2\n      mstore\n      0x20\n      add\n      swap1\n      dup2\n      mstore\n      0x20\n      add\n      0x00\n      keccak256\n      0x00\n      swap1\n      sload\n      swap1\n      0x0100\n      exp\n      swap1\n      div\n      0xff\n      and\n        /* \"AdvancedBlockchainFirewall.sol\":3257:3308  authorizedAdmins[msg.sender] || msg.sender == owner */\n      dup1\n      tag_388\n      jumpi\n      pop\n        /* \"AdvancedBlockchainFirewall.sol\":3303:3308  owner */\n      0x00\n      0x00\n      swap1\n      sload\n      swap1\n      0x0100\n      exp\n      swap1\n      div\n      0xffffffffffffffffffffffffffffffffffffffff\n      and\n        /* \"AdvancedBlockchainFirewall.sol\":3289:3308  msg.sender == owner */\n      0xffffffffffffffffffffffffffffffffffffffff\n      and\n        /* \"AdvancedBlockchainFirewall.sol\":3289:3299  msg.sender */\n      caller\n        /* \"AdvancedBlockchainFirewall.sol\":3289:3308  msg.sender == owner */\n      0xffffffffffffffffffffffffffffffffffffffff\n      and\n      eq\n        /* \"AdvancedBlockchainFirewall.sol\":3257:3308  authorizedAdmins[msg.sender] || msg.sender == owner */\n    tag_388:\n        /* \"AdvancedBlockchainFirewall.sol\":3249:3327  require(authorizedAdmins[msg.sender] || msg.sender == owner, \"Not authorized\") */\n      tag_389\n      jumpi\n      mload(0x40)\n      0x08c379a000000000000000000000000000000000000000000000000000000000\n      dup2\n      mstore\n      0x04\n      add\n      tag_390\n      swap1\n      tag_216\n      jump\t// in\n    tag_390:\n      mload(0x40)\n      dup1\n      swap2\n      sub\n      swap1\n      revert\n    tag_389:\n        /* \"AdvancedBlockchainFirewall.sol\":4485:4490  false */\n      0x00\n        /* \"AdvancedBlockchainFirewall.sol\":4462:4482  autoDetectionEnabled */\n      0x03\n      0x01\n        /* \"AdvancedBlockchainFirewall.sol\":4462:4490  autoDetectionEnabled = false */\n      0x0100\n      exp\n      dup2\n      sload\n      dup2\n      0xff\n      mul\n      not\n      and\n      swap1\n      dup4\n      iszero\n      iszero\n      mul\n      or\n      swap1\n      sstore\n      pop\n        /* \"AdvancedBlockchainFirewall.sol\":4505:4532  AutoDetectionEnabled(false) */\n      0x6e7ad8b07133ce5a518b1001dd033dc8403c768f691a1f8e81140fa664deb690\n        /* \"AdvancedBlockchainFirewall.sol\":4526:4531  false */\n      0x00\n        /* \"AdvancedBlockchainFirewall.sol\":4505:4532  AutoDetectionEnabled(false) */\n      mload(0x40)\n      tag_392\n      swap2\n      swap1\n      tag_71\n      jump\t// in\n    tag_392:\n      mload(0x40)\n      dup1\n      swap2\n      sub\n      swap1\n      log1\n        /* \"AdvancedBlockchainFirewall.sol\":4401:4539  function disableAutoDetection() external onlyAdmin {... */\n      jump\t// out\n        /* \"AdvancedBlockchainFirewall.sol\":12355:12547  function addAdmin(address _admin) external onlyOwner {... */\n    tag_151:\n        /* \"AdvancedBlockchainFirewall.sol\":3146:3151  owner */\n      0x00\n      0x00\n      swap1\n      sload\n      swap1\n      0x0100\n      exp\n      swap1\n      div\n      0xffffffffffffffffffffffffffffffffffffffff\n      and\n        /* \"AdvancedBlockchainFirewall.sol\":3132:3151  msg.sender == owner */\n      0xffffffffffffffffffffffffffffffffffffffff\n      and\n        /* \"AdvancedBlockchainFirewall.sol\":3132:3142  msg.sender */\n      caller\n        /* \"AdvancedBlockchainFirewall.sol\":3132:3151  msg.sender == owner */\n      0xffffffffffffffffffffffffffffffffffffffff\n      and\n      eq\n        /* \"AdvancedBlockchainFirewall.sol\":3124:3190  require(msg.sender == owner, \"Only owner can perform this action\") */\n      tag_394\n      jumpi\n      mload(0x40)\n      0x08c379a000000000000000000000000000000000000000000000000000000000\n      dup2\n      mstore\n      0x04\n      add\n      tag_395\n      swap1\n      tag_243\n      jump\t// in\n    tag_395:\n      mload(0x40)\n      dup1\n      swap2\n      sub\n      swap1\n      revert\n    tag_394:\n        /* \"AdvancedBlockchainFirewall.sol\":12444:12445  0 */\n      0x00\n        /* \"AdvancedBlockchainFirewall.sol\":12426:12446  _admin != address(0) */\n      0xffffffffffffffffffffffffffffffffffffffff\n      and\n        /* \"AdvancedBlockchainFirewall.sol\":12426:12432  _admin */\n      dup2\n        /* \"AdvancedBlockchainFirewall.sol\":12426:12446  _admin != address(0) */\n      0xffffffffffffffffffffffffffffffffffffffff\n      and\n      sub\n        /* \"AdvancedBlockchainFirewall.sol\":12418:12466  require(_admin != address(0), \"Invalid address\") */\n      tag_397\n      jumpi\n      mload(0x40)\n      0x08c379a000000000000000000000000000000000000000000000000000000000\n      dup2\n      mstore\n      0x04\n      add\n      tag_398\n      swap1\n      tag_399\n      jump\t// in\n    tag_398:\n      mload(0x40)\n      dup1\n      swap2\n      sub\n      swap1\n      revert\n    tag_397:\n        /* \"AdvancedBlockchainFirewall.sol\":12503:12507  true */\n      0x01\n        /* \"AdvancedBlockchainFirewall.sol\":12476:12492  authorizedAdmins */\n      0x06\n        /* \"AdvancedBlockchainFirewall.sol\":12476:12500  authorizedAdmins[_admin] */\n      0x00\n        /* \"AdvancedBlockchainFirewall.sol\":12493:12499  _admin */\n      dup4\n        /* \"AdvancedBlockchainFirewall.sol\":12476:12500  authorizedAdmins[_admin] */\n      0xffffffffffffffffffffffffffffffffffffffff\n      and\n      0xffffffffffffffffffffffffffffffffffffffff\n      and\n      dup2\n      mstore\n      0x20\n      add\n      swap1\n      dup2\n      mstore\n      0x20\n      add\n      0x00\n      keccak256\n      0x00\n        /* \"AdvancedBlockchainFirewall.sol\":12476:12507  authorizedAdmins[_admin] = true */\n      0x0100\n      exp\n      dup2\n      sload\n      dup2\n      0xff\n      mul\n      not\n      and\n      swap1\n      dup4\n      iszero\n      iszero\n      mul\n      or\n      swap1\n      sstore\n      pop\n        /* \"AdvancedBlockchainFirewall.sol\":12533:12539  _admin */\n      dup1\n        /* \"AdvancedBlockchainFirewall.sol\":12522:12540  AdminAdded(_admin) */\n      0xffffffffffffffffffffffffffffffffffffffff\n      and\n      0x44d6d25963f097ad14f29f06854a01f575648a1ef82f30e562ccd3889717e339\n      mload(0x40)\n      mload(0x40)\n      dup1\n      swap2\n      sub\n      swap1\n      log2\n        /* \"AdvancedBlockchainFirewall.sol\":12355:12547  function addAdmin(address _admin) external onlyOwner {... */\n      pop\n      jump\t// out\n        /* \"AdvancedBlockchainFirewall.sol\":400:432  bool public autoDetectionEnabled */\n    tag_153:\n      0x03\n      0x01\n      swap1\n      sload\n      swap1\n      0x0100\n      exp\n      swap1\n      div\n      0xff\n      and\n      dup2\n      jump\t// out\n        /* \"AdvancedBlockchainFirewall.sol\":12079:12274  function updateAutoBlockThreshold(uint256 _newThreshold) external onlyAdmin {... */\n    tag_157:\n        /* \"AdvancedBlockchainFirewall.sol\":3257:3273  authorizedAdmins */\n      0x06\n        /* \"AdvancedBlockchainFirewall.sol\":3257:3285  authorizedAdmins[msg.sender] */\n      0x00\n        /* \"AdvancedBlockchainFirewall.sol\":3274:3284  msg.sender */\n      caller\n        /* \"AdvancedBlockchainFirewall.sol\":3257:3285  authorizedAdmins[msg.sender] */\n      0xffffffffffffffffffffffffffffffffffffffff\n      and\n      0xffffffffffffffffffffffffffffffffffffffff\n      and\n      dup2\n      mstore\n      0x20\n      add\n      swap1\n      dup2\n      mstore\n      0x20\n      add\n      0x00\n      keccak256\n      0x00\n      swap1\n      sload\n      swap1\n      0x0100\n      exp\n      swap1\n      div\n      0xff\n      and\n        /* \"AdvancedBlockchainFirewall.sol\":3257:3308  authorizedAdmins[msg.sender] || msg.sender == owner */\n      dup1\n      tag_401\n      jumpi\n      pop\n        /* \"AdvancedBlockchainFirewall.sol\":3303:3308  owner */\n      0x00\n      0x00\n      swap1\n      sload\n      swap1\n      0x0100\n      exp\n      swap1\n      div\n      0xffffffffffffffffffffffffffffffffffffffff\n      and\n        /* \"AdvancedBlockchainFirewall.sol\":3289:3308  msg.sender == owner */\n      0xffffffffffffffffffffffffffffffffffffffff\n      and\n        /* \"AdvancedBlockchainFirewall.sol\":3289:3299  msg.sender */\n      caller\n        /* \"AdvancedBlockchainFirewall.sol\":3289:3308  msg.sender == owner */\n      0xffffffffffffffffffffffffffffffffffffffff\n      and\n      eq\n        /* \"AdvancedBlockchainFirewall.sol\":3257:3308  authorizedAdmins[msg.sender] || msg.sender == owner */\n    tag_401:\n        /* \"AdvancedBlockchainFirewall.sol\":3249:3327  require(authorizedAdmins[msg.sender] || msg.sender == owner, \"Not authorized\") */\n      tag_402\n      jumpi\n      mload(0x40)\n      0x08c379a000000000000000000000000000000000000000000000000000000000\n      dup2\n      mstore\n      0x04\n      add\n      tag_403\n      swap1\n      tag_216\n      jump\t// in\n    tag_403:\n      mload(0x40)\n      dup1\n      swap2\n      sub\n      swap1\n      revert\n    tag_402:\n        /* \"AdvancedBlockchainFirewall.sol\":12186:12199  _newThreshold */\n      dup1\n        /* \"AdvancedBlockchainFirewall.sol\":12165:12183  autoBlockThreshold */\n      0x11\n        /* \"AdvancedBlockchainFirewall.sol\":12165:12199  autoBlockThreshold = _newThreshold */\n      dup2\n      swap1\n      sstore\n      pop\n        /* \"AdvancedBlockchainFirewall.sol\":12214:12267  ThresholdUpdated(\"autoBlockThreshold\", _newThreshold) */\n      0xbc563de8c41ac66a7038e5cdcc313d786622bb5a46f1f62d154e52c7fd363d68\n        /* \"AdvancedBlockchainFirewall.sol\":12253:12266  _newThreshold */\n      dup2\n        /* \"AdvancedBlockchainFirewall.sol\":12214:12267  ThresholdUpdated(\"autoBlockThreshold\", _newThreshold) */\n      mload(0x40)\n      tag_405\n      swap2\n      swap1\n      tag_406\n      jump\t// in\n    tag_405:\n      mload(0x40)\n      dup1\n      swap2\n      sub\n      swap1\n      log1\n        /* \"AdvancedBlockchainFirewall.sol\":12079:12274  function updateAutoBlockThreshold(uint256 _newThreshold) external onlyAdmin {... */\n      pop\n      jump\t// out\n        /* \"AdvancedBlockchainFirewall.sol\":1820:1865  mapping(string => bool) public whitelistedIPs */\n    tag_160:\n      0x08\n      dup2\n      dup1\n      mload\n      0x20\n      dup2\n      add\n      dup3\n      add\n      dup1\n      mload\n      dup5\n      dup3\n      mstore\n      0x20\n      dup4\n      add\n      0x20\n      dup6\n      add\n      keccak256\n      dup2\n      dup4\n      mstore\n      dup1\n      swap6\n      pop\n      pop\n      pop\n      pop\n      pop\n      pop\n      0x00\n      swap2\n      pop\n      sload\n      swap1\n      0x0100\n      exp\n      swap1\n      div\n      0xff\n      and\n      dup2\n      jump\t// out\n        /* \"AdvancedBlockchainFirewall.sol\":5205:5316  function removeFromWhitelist(string memory _ip) external onlyAdmin {... */\n    tag_164:\n        /* \"AdvancedBlockchainFirewall.sol\":3257:3273  authorizedAdmins */\n      0x06\n        /* \"AdvancedBlockchainFirewall.sol\":3257:3285  authorizedAdmins[msg.sender] */\n      0x00\n        /* \"AdvancedBlockchainFirewall.sol\":3274:3284  msg.sender */\n      caller\n        /* \"AdvancedBlockchainFirewall.sol\":3257:3285  authorizedAdmins[msg.sender] */\n      0xffffffffffffffffffffffffffffffffffffffff\n      and\n      0xffffffffffffffffffffffffffffffffffffffff\n      and\n      dup2\n      mstore\n      0x20\n      add\n      swap1\n      dup2\n      mstore\n      0x20\n      add\n      0x00\n      keccak256\n      0x00\n      swap1\n      sload\n      swap1\n      0x0100\n      exp\n      swap1\n      div\n      0xff\n      and\n        /* \"AdvancedBlockchainFirewall.sol\":3257:3308  authorizedAdmins[msg.sender] || msg.sender == owner */\n      dup1\n      tag_408\n      jumpi\n      pop\n        /* \"AdvancedBlockchainFirewall.sol\":3303:3308  owner */\n      0x00\n      0x00\n      swap1\n      sload\n      swap1\n      0x0100\n      exp\n      swap1\n      div\n      0xffffffffffffffffffffffffffffffffffffffff\n      and\n        /* \"AdvancedBlockchainFirewall.sol\":3289:3308  msg.sender == owner */\n      0xffffffffffffffffffffffffffffffffffffffff\n      and\n        /* \"AdvancedBlockchainFirewall.sol\":3289:3299  msg.sender */\n      caller\n        /* \"AdvancedBlockchainFirewall.sol\":3289:3308  msg.sender == owner */\n      0xffffffffffffffffffffffffffffffffffffffff\n      and\n      eq\n        /* \"AdvancedBlockchainFirewall.sol\":3257:3308  authorizedAdmins[msg.sender] || msg.sender == owner */\n    tag_408:\n        /* \"AdvancedBlockchainFirewall.sol\":3249:3327  require(authorizedAdmins[msg.sender] || msg.sender == owner, \"Not authorized\") */\n      tag_409\n      jumpi\n      mload(0x40)\n      0x08c379a000000000000000000000000000000000000000000000000000000000\n      dup2\n      mstore\n      0x04\n      add\n      tag_410\n      swap1\n      tag_216\n      jump\t// in\n    tag_410:\n      mload(0x40)\n      dup1\n      swap2\n      sub\n      swap1\n      revert\n    tag_409:\n        /* \"AdvancedBlockchainFirewall.sol\":5304:5309  false */\n      0x00\n        /* \"AdvancedBlockchainFirewall.sol\":5282:5296  whitelistedIPs */\n      0x08\n        /* \"AdvancedBlockchainFirewall.sol\":5297:5300  _ip */\n      dup3\n        /* \"AdvancedBlockchainFirewall.sol\":5282:5301  whitelistedIPs[_ip] */\n      mload(0x40)\n      tag_412\n      swap2\n      swap1\n      tag_219\n      jump\t// in\n    tag_412:\n      swap1\n      dup2\n      mstore\n      0x20\n      add\n      mload(0x40)\n      dup1\n      swap2\n      sub\n      swap1\n      keccak256\n      0x00\n        /* \"AdvancedBlockchainFirewall.sol\":5282:5309  whitelistedIPs[_ip] = false */\n      0x0100\n      exp\n      dup2\n      sload\n      dup2\n      0xff\n      mul\n      not\n      and\n      swap1\n      dup4\n      iszero\n      iszero\n      mul\n      or\n      swap1\n      sstore\n      pop\n        /* \"AdvancedBlockchainFirewall.sol\":5205:5316  function removeFromWhitelist(string memory _ip) external onlyAdmin {... */\n      pop\n      jump\t// out\n        /* \"AdvancedBlockchainFirewall.sol\":276:296  address public owner */\n    tag_166:\n      0x00\n      0x00\n      swap1\n      sload\n      swap1\n      0x0100\n      exp\n      swap1\n      div\n      0xffffffffffffffffffffffffffffffffffffffff\n      and\n      dup2\n      jump\t// out\n        /* \"AdvancedBlockchainFirewall.sol\":4050:4246  function stopSystem() external onlyAdmin {... */\n    tag_170:\n        /* \"AdvancedBlockchainFirewall.sol\":3257:3273  authorizedAdmins */\n      0x06\n        /* \"AdvancedBlockchainFirewall.sol\":3257:3285  authorizedAdmins[msg.sender] */\n      0x00\n        /* \"AdvancedBlockchainFirewall.sol\":3274:3284  msg.sender */\n      caller\n        /* \"AdvancedBlockchainFirewall.sol\":3257:3285  authorizedAdmins[msg.sender] */\n      0xffffffffffffffffffffffffffffffffffffffff\n      and\n      0xffffffffffffffffffffffffffffffffffffffff\n      and\n      dup2\n      mstore\n      0x20\n      add\n      swap1\n      dup2\n      mstore\n      0x20\n      add\n      0x00\n      keccak256\n      0x00\n      swap1\n      sload\n      swap1\n      0x0100\n      exp\n      swap1\n      div\n      0xff\n      and\n        /* \"AdvancedBlockchainFirewall.sol\":3257:3308  authorizedAdmins[msg.sender] || msg.sender == owner */\n      dup1\n      tag_414\n      jumpi\n      pop\n        /* \"AdvancedBlockchainFirewall.sol\":3303:3308  owner */\n      0x00\n      0x00\n      swap1\n      sload\n      swap1\n      0x0100\n      exp\n      swap1\n      div\n      0xffffffffffffffffffffffffffffffffffffffff\n      and\n        /* \"AdvancedBlockchainFirewall.sol\":3289:3308  msg.sender == owner */\n      0xffffffffffffffffffffffffffffffffffffffff\n      and\n        /* \"AdvancedBlockchainFirewall.sol\":3289:3299  msg.sender */\n      caller\n        /* \"AdvancedBlockchainFirewall.sol\":3289:3308  msg.sender == owner */\n      0xffffffffffffffffffffffffffffffffffffffff\n      and\n      eq\n        /* \"AdvancedBlockchainFirewall.sol\":3257:3308  authorizedAdmins[msg.sender] || msg.sender == owner */\n    tag_414:\n        /* \"AdvancedBlockchainFirewall.sol\":3249:3327  require(authorizedAdmins[msg.sender] || msg.sender == owner, \"Not authorized\") */\n      tag_415\n      jumpi\n      mload(0x40)\n      0x08c379a000000000000000000000000000000000000000000000000000000000\n      dup2\n      mstore\n      0x04\n      add\n      tag_416\n      swap1\n      tag_216\n      jump\t// in\n    tag_416:\n      mload(0x40)\n      dup1\n      swap2\n      sub\n      swap1\n      revert\n    tag_415:\n        /* \"AdvancedBlockchainFirewall.sol\":4109:4123  isSystemActive */\n      0x03\n      0x00\n      swap1\n      sload\n      swap1\n      0x0100\n      exp\n      swap1\n      div\n      0xff\n      and\n        /* \"AdvancedBlockchainFirewall.sol\":4101:4150  require(isSystemActive, \"System already stopped\") */\n      tag_418\n      jumpi\n      mload(0x40)\n      0x08c379a000000000000000000000000000000000000000000000000000000000\n      dup2\n      mstore\n      0x04\n      add\n      tag_419\n      swap1\n      tag_420\n      jump\t// in\n    tag_419:\n      mload(0x40)\n      dup1\n      swap2\n      sub\n      swap1\n      revert\n    tag_418:\n        /* \"AdvancedBlockchainFirewall.sol\":4177:4182  false */\n      0x00\n        /* \"AdvancedBlockchainFirewall.sol\":4160:4174  isSystemActive */\n      0x03\n      0x00\n        /* \"AdvancedBlockchainFirewall.sol\":4160:4182  isSystemActive = false */\n      0x0100\n      exp\n      dup2\n      sload\n      dup2\n      0xff\n      mul\n      not\n      and\n      swap1\n      dup4\n      iszero\n      iszero\n      mul\n      or\n      swap1\n      sstore\n      pop\n        /* \"AdvancedBlockchainFirewall.sol\":4211:4221  msg.sender */\n      caller\n        /* \"AdvancedBlockchainFirewall.sol\":4197:4239  SystemStopped(msg.sender, block.timestamp) */\n      0xffffffffffffffffffffffffffffffffffffffff\n      and\n      0x165cc0a9d21d213451d7358030906940c0873ba0f45dadfa286d12f957a91177\n        /* \"AdvancedBlockchainFirewall.sol\":4223:4238  block.timestamp */\n      timestamp\n        /* \"AdvancedBlockchainFirewall.sol\":4197:4239  SystemStopped(msg.sender, block.timestamp) */\n      mload(0x40)\n      tag_421\n      swap2\n      swap1\n      tag_60\n      jump\t// in\n    tag_421:\n      mload(0x40)\n      dup1\n      swap2\n      sub\n      swap1\n      log2\n        /* \"AdvancedBlockchainFirewall.sol\":4050:4246  function stopSystem() external onlyAdmin {... */\n      jump\t// out\n        /* \"AdvancedBlockchainFirewall.sol\":5654:7443  function scanPacket(... */\n    tag_174:\n        /* \"AdvancedBlockchainFirewall.sol\":5843:5855  bool allowed */\n      0x00\n        /* \"AdvancedBlockchainFirewall.sol\":3257:3273  authorizedAdmins */\n      0x06\n        /* \"AdvancedBlockchainFirewall.sol\":3257:3285  authorizedAdmins[msg.sender] */\n      0x00\n        /* \"AdvancedBlockchainFirewall.sol\":3274:3284  msg.sender */\n      caller\n        /* \"AdvancedBlockchainFirewall.sol\":3257:3285  authorizedAdmins[msg.sender] */\n      0xffffffffffffffffffffffffffffffffffffffff\n      and\n      0xffffffffffffffffffffffffffffffffffffffff\n      and\n      dup2\n      mstore\n      0x20\n      add\n      swap1\n      dup2\n      mstore\n      0x20\n      add\n      0x00\n      keccak256\n      0x00\n      swap1\n      sload\n      swap1\n      0x0100\n      exp\n      swap1\n      div\n      0xff\n      and\n        /* \"AdvancedBlockchainFirewall.sol\":3257:3308  authorizedAdmins[msg.sender] || msg.sender == owner */\n      dup1\n      tag_423\n      jumpi\n      pop\n        /* \"AdvancedBlockchainFirewall.sol\":3303:3308  owner */\n      0x00\n      0x00\n      swap1\n      sload\n      swap1\n      0x0100\n      exp\n      swap1\n      div\n      0xffffffffffffffffffffffffffffffffffffffff\n      and\n        /* \"AdvancedBlockchainFirewall.sol\":3289:3308  msg.sender == owner */\n      0xffffffffffffffffffffffffffffffffffffffff\n      and\n        /* \"AdvancedBlockchainFirewall.sol\":3289:3299  msg.sender */\n      caller\n        /* \"AdvancedBlockchainFirewall.sol\":3289:3308  msg.sender == owner */\n      0xffffffffffffffffffffffffffffffffffffffff\n      and\n      eq\n        /* \"AdvancedBlockchainFirewall.sol\":3257:3308  authorizedAdmins[msg.sender] || msg.sender == owner */\n    tag_423:\n        /* \"AdvancedBlockchainFirewall.sol\":3249:3327  require(authorizedAdmins[msg.sender] || msg.sender == owner, \"Not authorized\") */\n      tag_424\n      jumpi\n      mload(0x40)\n      0x08c379a000000000000000000000000000000000000000000000000000000000\n      dup2\n      mstore\n      0x04\n      add\n      tag_425\n      swap1\n      tag_216\n      jump\t// in\n    tag_425:\n      mload(0x40)\n      dup1\n      swap2\n      sub\n      swap1\n      revert\n    tag_424:\n        /* \"AdvancedBlockchainFirewall.sol\":3397:3411  isSystemActive */\n      0x03\n      0x00\n      swap1\n      sload\n      swap1\n      0x0100\n      exp\n      swap1\n      div\n      0xff\n      and\n        /* \"AdvancedBlockchainFirewall.sol\":3389:3436  require(isSystemActive, \"System is not active\") */\n      tag_427\n      jumpi\n      mload(0x40)\n      0x08c379a000000000000000000000000000000000000000000000000000000000\n      dup2\n      mstore\n      0x04\n      add\n      tag_428\n      swap1\n      tag_429\n      jump\t// in\n    tag_428:\n      mload(0x40)\n      dup1\n      swap2\n      sub\n      swap1\n      revert\n    tag_427:\n        /* \"AdvancedBlockchainFirewall.sol\":5867:5879  networkStats */\n      0x0a\n        /* \"AdvancedBlockchainFirewall.sol\":5867:5899  networkStats.totalPacketsScanned */\n      0x00\n      add\n      0x00\n        /* \"AdvancedBlockchainFirewall.sol\":5867:5901  networkStats.totalPacketsScanned++ */\n      dup2\n      sload\n      dup1\n      swap3\n      swap2\n      swap1\n      tag_431\n      swap1\n      tag_254\n      jump\t// in\n    tag_431:\n      swap2\n      swap1\n      pop\n      sstore\n      pop\n        /* \"AdvancedBlockchainFirewall.sol\":5957:5971  whitelistedIPs */\n      0x08\n        /* \"AdvancedBlockchainFirewall.sol\":5972:5981  _sourceIP */\n      dup6\n        /* \"AdvancedBlockchainFirewall.sol\":5957:5982  whitelistedIPs[_sourceIP] */\n      mload(0x40)\n      tag_432\n      swap2\n      swap1\n      tag_219\n      jump\t// in\n    tag_432:\n      swap1\n      dup2\n      mstore\n      0x20\n      add\n      mload(0x40)\n      dup1\n      swap2\n      sub\n      swap1\n      keccak256\n      0x00\n      swap1\n      sload\n      swap1\n      0x0100\n      exp\n      swap1\n      div\n      0xff\n      and\n        /* \"AdvancedBlockchainFirewall.sol\":5953:6020  if (whitelistedIPs[_sourceIP]) {... */\n      iszero\n      tag_433\n      jumpi\n        /* \"AdvancedBlockchainFirewall.sol\":6005:6009  true */\n      0x01\n        /* \"AdvancedBlockchainFirewall.sol\":5998:6009  return true */\n      swap1\n      pop\n      jump(tag_430)\n        /* \"AdvancedBlockchainFirewall.sol\":5953:6020  if (whitelistedIPs[_sourceIP]) {... */\n    tag_433:\n        /* \"AdvancedBlockchainFirewall.sol\":6069:6083  blacklistedIPs */\n      0x07\n        /* \"AdvancedBlockchainFirewall.sol\":6084:6093  _sourceIP */\n      dup6\n        /* \"AdvancedBlockchainFirewall.sol\":6069:6094  blacklistedIPs[_sourceIP] */\n      mload(0x40)\n      tag_434\n      swap2\n      swap1\n      tag_219\n      jump\t// in\n    tag_434:\n      swap1\n      dup2\n      mstore\n      0x20\n      add\n      mload(0x40)\n      dup1\n      swap2\n      sub\n      swap1\n      keccak256\n      0x00\n      swap1\n      sload\n      swap1\n      0x0100\n      exp\n      swap1\n      div\n      0xff\n      and\n        /* \"AdvancedBlockchainFirewall.sol\":6065:6176  if (blacklistedIPs[_sourceIP]) {... */\n      iszero\n      tag_435\n      jumpi\n        /* \"AdvancedBlockchainFirewall.sol\":6110:6122  networkStats */\n      0x0a\n        /* \"AdvancedBlockchainFirewall.sol\":6110:6137  networkStats.threatsBlocked */\n      0x01\n      add\n      0x00\n        /* \"AdvancedBlockchainFirewall.sol\":6110:6139  networkStats.threatsBlocked++ */\n      dup2\n      sload\n      dup1\n      swap3\n      swap2\n      swap1\n      tag_436\n      swap1\n      tag_254\n      jump\t// in\n    tag_436:\n      swap2\n      swap1\n      pop\n      sstore\n      pop\n        /* \"AdvancedBlockchainFirewall.sol\":6160:6165  false */\n      0x00\n        /* \"AdvancedBlockchainFirewall.sol\":6153:6165  return false */\n      swap1\n      pop\n      jump(tag_430)\n        /* \"AdvancedBlockchainFirewall.sol\":6065:6176  if (blacklistedIPs[_sourceIP]) {... */\n    tag_435:\n        /* \"AdvancedBlockchainFirewall.sol\":6225:6250  IPTraffic storage traffic */\n      0x00\n        /* \"AdvancedBlockchainFirewall.sol\":6253:6266  ipTrafficData */\n      0x09\n        /* \"AdvancedBlockchainFirewall.sol\":6267:6276  _sourceIP */\n      dup7\n        /* \"AdvancedBlockchainFirewall.sol\":6253:6277  ipTrafficData[_sourceIP] */\n      mload(0x40)\n      tag_437\n      swap2\n      swap1\n      tag_219\n      jump\t// in\n    tag_437:\n      swap1\n      dup2\n      mstore\n      0x20\n      add\n      mload(0x40)\n      dup1\n      swap2\n      sub\n      swap1\n      keccak256\n        /* \"AdvancedBlockchainFirewall.sol\":6225:6277  IPTraffic storage traffic = ipTrafficData[_sourceIP] */\n      swap1\n      pop\n        /* \"AdvancedBlockchainFirewall.sol\":6287:6294  traffic */\n      dup1\n        /* \"AdvancedBlockchainFirewall.sol\":6287:6310  traffic.connectionCount */\n      0x00\n      add\n      0x00\n        /* \"AdvancedBlockchainFirewall.sol\":6287:6312  traffic.connectionCount++ */\n      dup2\n      sload\n      dup1\n      swap3\n      swap2\n      swap1\n      tag_438\n      swap1\n      tag_254\n      jump\t// in\n    tag_438:\n      swap2\n      swap1\n      pop\n      sstore\n      pop\n        /* \"AdvancedBlockchainFirewall.sol\":6347:6362  block.timestamp */\n      timestamp\n        /* \"AdvancedBlockchainFirewall.sol\":6322:6329  traffic */\n      dup2\n        /* \"AdvancedBlockchainFirewall.sol\":6322:6344  traffic.lastAccessTime */\n      0x01\n      add\n        /* \"AdvancedBlockchainFirewall.sol\":6322:6362  traffic.lastAccessTime = block.timestamp */\n      dup2\n      swap1\n      sstore\n      pop\n        /* \"AdvancedBlockchainFirewall.sol\":6394:6398  true */\n      0x01\n        /* \"AdvancedBlockchainFirewall.sol\":6372:6379  traffic */\n      dup2\n        /* \"AdvancedBlockchainFirewall.sol\":6372:6391  traffic.isMonitored */\n      0x03\n      add\n      0x00\n        /* \"AdvancedBlockchainFirewall.sol\":6372:6398  traffic.isMonitored = true */\n      0x0100\n      exp\n      dup2\n      sload\n      dup2\n      0xff\n      mul\n      not\n      and\n      swap1\n      dup4\n      iszero\n      iszero\n      mul\n      or\n      swap1\n      sstore\n      pop\n        /* \"AdvancedBlockchainFirewall.sol\":6453:6473  autoDetectionEnabled */\n      0x03\n      0x01\n      swap1\n      sload\n      swap1\n      0x0100\n      exp\n      swap1\n      div\n      0xff\n      and\n        /* \"AdvancedBlockchainFirewall.sol\":6449:7407  if (autoDetectionEnabled) {... */\n      iszero\n      tag_439\n      jumpi\n        /* \"AdvancedBlockchainFirewall.sol\":6589:6612  maxConnectionsPerMinute */\n      sload(0x0f)\n        /* \"AdvancedBlockchainFirewall.sol\":6563:6570  traffic */\n      dup2\n        /* \"AdvancedBlockchainFirewall.sol\":6563:6586  traffic.connectionCount */\n      0x00\n      add\n      sload\n        /* \"AdvancedBlockchainFirewall.sol\":6563:6612  traffic.connectionCount > maxConnectionsPerMinute */\n      gt\n        /* \"AdvancedBlockchainFirewall.sol\":6559:6676  if (traffic.connectionCount > maxConnectionsPerMinute) {... */\n      iszero\n      tag_440\n      jumpi\n        /* \"AdvancedBlockchainFirewall.sol\":6658:6661  100 */\n      0x64\n        /* \"AdvancedBlockchainFirewall.sol\":6632:6639  traffic */\n      dup2\n        /* \"AdvancedBlockchainFirewall.sol\":6632:6654  traffic.suspicionScore */\n      0x02\n      add\n      0x00\n        /* \"AdvancedBlockchainFirewall.sol\":6632:6661  traffic.suspicionScore += 100 */\n      dup3\n      dup3\n      sload\n      tag_441\n      swap2\n      swap1\n      tag_442\n      jump\t// in\n    tag_441:\n      swap3\n      pop\n      pop\n      dup2\n      swap1\n      sstore\n      pop\n        /* \"AdvancedBlockchainFirewall.sol\":6559:6676  if (traffic.connectionCount > maxConnectionsPerMinute) {... */\n    tag_440:\n        /* \"AdvancedBlockchainFirewall.sol\":6792:6793  1 */\n      0x01\n        /* \"AdvancedBlockchainFirewall.sol\":6767:6774  traffic */\n      dup2\n        /* \"AdvancedBlockchainFirewall.sol\":6767:6789  traffic.lastAccessTime */\n      0x01\n      add\n      sload\n        /* \"AdvancedBlockchainFirewall.sol\":6749:6764  block.timestamp */\n      timestamp\n        /* \"AdvancedBlockchainFirewall.sol\":6749:6789  block.timestamp - traffic.lastAccessTime */\n      tag_443\n      swap2\n      swap1\n      tag_444\n      jump\t// in\n    tag_443:\n        /* \"AdvancedBlockchainFirewall.sol\":6749:6793  block.timestamp - traffic.lastAccessTime < 1 */\n      lt\n        /* \"AdvancedBlockchainFirewall.sol\":6745:6856  if (block.timestamp - traffic.lastAccessTime < 1) {... */\n      iszero\n      tag_445\n      jumpi\n        /* \"AdvancedBlockchainFirewall.sol\":6839:6841  50 */\n      0x32\n        /* \"AdvancedBlockchainFirewall.sol\":6813:6820  traffic */\n      dup2\n        /* \"AdvancedBlockchainFirewall.sol\":6813:6835  traffic.suspicionScore */\n      0x02\n      add\n      0x00\n        /* \"AdvancedBlockchainFirewall.sol\":6813:6841  traffic.suspicionScore += 50 */\n      dup3\n      dup3\n      sload\n      tag_446\n      swap2\n      swap1\n      tag_442\n      jump\t// in\n    tag_446:\n      swap3\n      pop\n      pop\n      dup2\n      swap1\n      sstore\n      pop\n        /* \"AdvancedBlockchainFirewall.sol\":6745:6856  if (block.timestamp - traffic.lastAccessTime < 1) {... */\n    tag_445:\n        /* \"AdvancedBlockchainFirewall.sol\":6887:6960  PacketScanned(_sourceIP, traffic.connectionCount, traffic.suspicionScore) */\n      0x897b3330d7532b2d19e68c076324c22552b47ba90b511669bc2a0c8b58a7e310\n        /* \"AdvancedBlockchainFirewall.sol\":6901:6910  _sourceIP */\n      dup7\n        /* \"AdvancedBlockchainFirewall.sol\":6912:6919  traffic */\n      dup3\n        /* \"AdvancedBlockchainFirewall.sol\":6912:6935  traffic.connectionCount */\n      0x00\n      add\n      sload\n        /* \"AdvancedBlockchainFirewall.sol\":6937:6944  traffic */\n      dup4\n        /* \"AdvancedBlockchainFirewall.sol\":6937:6959  traffic.suspicionScore */\n      0x02\n      add\n      sload\n        /* \"AdvancedBlockchainFirewall.sol\":6887:6960  PacketScanned(_sourceIP, traffic.connectionCount, traffic.suspicionScore) */\n      mload(0x40)\n      tag_447\n      swap4\n      swap3\n      swap2\n      swap1\n      tag_448\n      jump\t// in\n    tag_447:\n      mload(0x40)\n      dup1\n      swap2\n      sub\n      swap1\n      log1\n        /* \"AdvancedBlockchainFirewall.sol\":7065:7083  autoBlockThreshold */\n      sload(0x11)\n        /* \"AdvancedBlockchainFirewall.sol\":7039:7046  traffic */\n      dup2\n        /* \"AdvancedBlockchainFirewall.sol\":7039:7061  traffic.suspicionScore */\n      0x02\n      add\n      sload\n        /* \"AdvancedBlockchainFirewall.sol\":7039:7083  traffic.suspicionScore >= autoBlockThreshold */\n      lt\n        /* \"AdvancedBlockchainFirewall.sol\":7035:7195  if (traffic.suspicionScore >= autoBlockThreshold) {... */\n      tag_449\n      jumpi\n        /* \"AdvancedBlockchainFirewall.sol\":7103:7150  _autoBlockIP(_sourceIP, traffic.suspicionScore) */\n      tag_450\n        /* \"AdvancedBlockchainFirewall.sol\":7116:7125  _sourceIP */\n      dup7\n        /* \"AdvancedBlockchainFirewall.sol\":7127:7134  traffic */\n      dup3\n        /* \"AdvancedBlockchainFirewall.sol\":7127:7149  traffic.suspicionScore */\n      0x02\n      add\n      sload\n        /* \"AdvancedBlockchainFirewall.sol\":7103:7115  _autoBlockIP */\n      tag_451\n        /* \"AdvancedBlockchainFirewall.sol\":7103:7150  _autoBlockIP(_sourceIP, traffic.suspicionScore) */\n      jump\t// in\n    tag_450:\n        /* \"AdvancedBlockchainFirewall.sol\":7175:7180  false */\n      0x00\n        /* \"AdvancedBlockchainFirewall.sol\":7168:7180  return false */\n      swap2\n      pop\n      pop\n      jump(tag_430)\n        /* \"AdvancedBlockchainFirewall.sol\":7035:7195  if (traffic.suspicionScore >= autoBlockThreshold) {... */\n    tag_449:\n        /* \"AdvancedBlockchainFirewall.sol\":7295:7313  suspicionThreshold */\n      sload(0x10)\n        /* \"AdvancedBlockchainFirewall.sol\":7269:7276  traffic */\n      dup2\n        /* \"AdvancedBlockchainFirewall.sol\":7269:7291  traffic.suspicionScore */\n      0x02\n      add\n      sload\n        /* \"AdvancedBlockchainFirewall.sol\":7269:7313  traffic.suspicionScore >= suspicionThreshold */\n      lt\n        /* \"AdvancedBlockchainFirewall.sol\":7265:7397  if (traffic.suspicionScore >= suspicionThreshold) {... */\n      tag_452\n      jumpi\n        /* \"AdvancedBlockchainFirewall.sol\":7333:7382  _generateAlert(_sourceIP, traffic.suspicionScore) */\n      tag_453\n        /* \"AdvancedBlockchainFirewall.sol\":7348:7357  _sourceIP */\n      dup7\n        /* \"AdvancedBlockchainFirewall.sol\":7359:7366  traffic */\n      dup3\n        /* \"AdvancedBlockchainFirewall.sol\":7359:7381  traffic.suspicionScore */\n      0x02\n      add\n      sload\n        /* \"AdvancedBlockchainFirewall.sol\":7333:7347  _generateAlert */\n      tag_454\n        /* \"AdvancedBlockchainFirewall.sol\":7333:7382  _generateAlert(_sourceIP, traffic.suspicionScore) */\n      jump\t// in\n    tag_453:\n        /* \"AdvancedBlockchainFirewall.sol\":7265:7397  if (traffic.suspicionScore >= suspicionThreshold) {... */\n    tag_452:\n        /* \"AdvancedBlockchainFirewall.sol\":6449:7407  if (autoDetectionEnabled) {... */\n    tag_439:\n        /* \"AdvancedBlockchainFirewall.sol\":7432:7436  true */\n      0x01\n        /* \"AdvancedBlockchainFirewall.sol\":7425:7436  return true */\n      swap2\n      pop\n      pop\n        /* \"AdvancedBlockchainFirewall.sol\":3446:3447  _ */\n    tag_430:\n        /* \"AdvancedBlockchainFirewall.sol\":5654:7443  function scanPacket(... */\n      swap5\n      swap4\n      pop\n      pop\n      pop\n      pop\n      jump\t// out\n        /* \"AdvancedBlockchainFirewall.sol\":11874:12069  function updateSuspicionThreshold(uint256 _newThreshold) external onlyAdmin {... */\n    tag_178:\n        /* \"AdvancedBlockchainFirewall.sol\":3257:3273  authorizedAdmins */\n      0x06\n        /* \"AdvancedBlockchainFirewall.sol\":3257:3285  authorizedAdmins[msg.sender] */\n      0x00\n        /* \"AdvancedBlockchainFirewall.sol\":3274:3284  msg.sender */\n      caller\n        /* \"AdvancedBlockchainFirewall.sol\":3257:3285  authorizedAdmins[msg.sender] */\n      0xffffffffffffffffffffffffffffffffffffffff\n      and\n      0xffffffffffffffffffffffffffffffffffffffff\n      and\n      dup2\n      mstore\n      0x20\n      add\n      swap1\n      dup2\n      mstore\n      0x20\n      add\n      0x00\n      keccak256\n      0x00\n      swap1\n      sload\n      swap1\n      0x0100\n      exp\n      swap1\n      div\n      0xff\n      and\n        /* \"AdvancedBlockchainFirewall.sol\":3257:3308  authorizedAdmins[msg.sender] || msg.sender == owner */\n      dup1\n      tag_456\n      jumpi\n      pop\n        /* \"AdvancedBlockchainFirewall.sol\":3303:3308  owner */\n      0x00\n      0x00\n      swap1\n      sload\n      swap1\n      0x0100\n      exp\n      swap1\n      div\n      0xffffffffffffffffffffffffffffffffffffffff\n      and\n        /* \"AdvancedBlockchainFirewall.sol\":3289:3308  msg.sender == owner */\n      0xffffffffffffffffffffffffffffffffffffffff\n      and\n        /* \"AdvancedBlockchainFirewall.sol\":3289:3299  msg.sender */\n      caller\n        /* \"AdvancedBlockchainFirewall.sol\":3289:3308  msg.sender == owner */\n      0xffffffffffffffffffffffffffffffffffffffff\n      and\n      eq\n        /* \"AdvancedBlockchainFirewall.sol\":3257:3308  authorizedAdmins[msg.sender] || msg.sender == owner */\n    tag_456:\n        /* \"AdvancedBlockchainFirewall.sol\":3249:3327  require(authorizedAdmins[msg.sender] || msg.sender == owner, \"Not authorized\") */\n      tag_457\n      jumpi\n      mload(0x40)\n      0x08c379a000000000000000000000000000000000000000000000000000000000\n      dup2\n      mstore\n      0x04\n      add\n      tag_458\n      swap1\n      tag_216\n      jump\t// in\n    tag_458:\n      mload(0x40)\n      dup1\n      swap2\n      sub\n      swap1\n      revert\n    tag_457:\n        /* \"AdvancedBlockchainFirewall.sol\":11981:11994  _newThreshold */\n      dup1\n        /* \"AdvancedBlockchainFirewall.sol\":11960:11978  suspicionThreshold */\n      0x10\n        /* \"AdvancedBlockchainFirewall.sol\":11960:11994  suspicionThreshold = _newThreshold */\n      dup2\n      swap1\n      sstore\n      pop\n        /* \"AdvancedBlockchainFirewall.sol\":12009:12062  ThresholdUpdated(\"suspicionThreshold\", _newThreshold) */\n      0xbc563de8c41ac66a7038e5cdcc313d786622bb5a46f1f62d154e52c7fd363d68\n        /* \"AdvancedBlockchainFirewall.sol\":12048:12061  _newThreshold */\n      dup2\n        /* \"AdvancedBlockchainFirewall.sol\":12009:12062  ThresholdUpdated(\"suspicionThreshold\", _newThreshold) */\n      mload(0x40)\n      tag_460\n      swap2\n      swap1\n      tag_461\n      jump\t// in\n    tag_460:\n      mload(0x40)\n      dup1\n      swap2\n      sub\n      swap1\n      log1\n        /* \"AdvancedBlockchainFirewall.sol\":11874:12069  function updateSuspicionThreshold(uint256 _newThreshold) external onlyAdmin {... */\n      pop\n      jump\t// out\n        /* \"AdvancedBlockchainFirewall.sol\":3843:4040  function startSystem() external onlyAdmin {... */\n    tag_180:\n        /* \"AdvancedBlockchainFirewall.sol\":3257:3273  authorizedAdmins */\n      0x06\n        /* \"AdvancedBlockchainFirewall.sol\":3257:3285  authorizedAdmins[msg.sender] */\n      0x00\n        /* \"AdvancedBlockchainFirewall.sol\":3274:3284  msg.sender */\n      caller\n        /* \"AdvancedBlockchainFirewall.sol\":3257:3285  authorizedAdmins[msg.sender] */\n      0xffffffffffffffffffffffffffffffffffffffff\n      and\n      0xffffffffffffffffffffffffffffffffffffffff\n      and\n      dup2\n      mstore\n      0x20\n      add\n      swap1\n      dup2\n      mstore\n      0x20\n      add\n      0x00\n      keccak256\n      0x00\n      swap1\n      sload\n      swap1\n      0x0100\n      exp\n      swap1\n      div\n      0xff\n      and\n        /* \"AdvancedBlockchainFirewall.sol\":3257:3308  authorizedAdmins[msg.sender] || msg.sender == owner */\n      dup1\n      tag_463\n      jumpi\n      pop\n        /* \"AdvancedBlockchainFirewall.sol\":3303:3308  owner */\n      0x00\n      0x00\n      swap1\n      sload\n      swap1\n      0x0100\n      exp\n      swap1\n      div\n      0xffffffffffffffffffffffffffffffffffffffff\n      and\n        /* \"AdvancedBlockchainFirewall.sol\":3289:3308  msg.sender == owner */\n      0xffffffffffffffffffffffffffffffffffffffff\n      and\n        /* \"AdvancedBlockchainFirewall.sol\":3289:3299  msg.sender */\n      caller\n        /* \"AdvancedBlockchainFirewall.sol\":3289:3308  msg.sender == owner */\n      0xffffffffffffffffffffffffffffffffffffffff\n      and\n      eq\n        /* \"AdvancedBlockchainFirewall.sol\":3257:3308  authorizedAdmins[msg.sender] || msg.sender == owner */\n    tag_463:\n        /* \"AdvancedBlockchainFirewall.sol\":3249:3327  require(authorizedAdmins[msg.sender] || msg.sender == owner, \"Not authorized\") */\n      tag_464\n      jumpi\n      mload(0x40)\n      0x08c379a000000000000000000000000000000000000000000000000000000000\n      dup2\n      mstore\n      0x04\n      add\n      tag_465\n      swap1\n      tag_216\n      jump\t// in\n    tag_465:\n      mload(0x40)\n      dup1\n      swap2\n      sub\n      swap1\n      revert\n    tag_464:\n        /* \"AdvancedBlockchainFirewall.sol\":3904:3918  isSystemActive */\n      0x03\n      0x00\n      swap1\n      sload\n      swap1\n      0x0100\n      exp\n      swap1\n      div\n      0xff\n      and\n        /* \"AdvancedBlockchainFirewall.sol\":3903:3918  !isSystemActive */\n      iszero\n        /* \"AdvancedBlockchainFirewall.sol\":3895:3945  require(!isSystemActive, \"System already running\") */\n      tag_467\n      jumpi\n      mload(0x40)\n      0x08c379a000000000000000000000000000000000000000000000000000000000\n      dup2\n      mstore\n      0x04\n      add\n      tag_468\n      swap1\n      tag_469\n      jump\t// in\n    tag_468:\n      mload(0x40)\n      dup1\n      swap2\n      sub\n      swap1\n      revert\n    tag_467:\n        /* \"AdvancedBlockchainFirewall.sol\":3972:3976  true */\n      0x01\n        /* \"AdvancedBlockchainFirewall.sol\":3955:3969  isSystemActive */\n      0x03\n      0x00\n        /* \"AdvancedBlockchainFirewall.sol\":3955:3976  isSystemActive = true */\n      0x0100\n      exp\n      dup2\n      sload\n      dup2\n      0xff\n      mul\n      not\n      and\n      swap1\n      dup4\n      iszero\n      iszero\n      mul\n      or\n      swap1\n      sstore\n      pop\n        /* \"AdvancedBlockchainFirewall.sol\":4005:4015  msg.sender */\n      caller\n        /* \"AdvancedBlockchainFirewall.sol\":3991:4033  SystemStarted(msg.sender, block.timestamp) */\n      0xffffffffffffffffffffffffffffffffffffffff\n      and\n      0x1ed67830eb62a203a43ac29178d7fcb7996cd3b36190838d8de3f63ac1312f8f\n        /* \"AdvancedBlockchainFirewall.sol\":4017:4032  block.timestamp */\n      timestamp\n        /* \"AdvancedBlockchainFirewall.sol\":3991:4033  SystemStarted(msg.sender, block.timestamp) */\n      mload(0x40)\n      tag_470\n      swap2\n      swap1\n      tag_60\n      jump\t// in\n    tag_470:\n      mload(0x40)\n      dup1\n      swap2\n      sub\n      swap1\n      log2\n        /* \"AdvancedBlockchainFirewall.sol\":3843:4040  function startSystem() external onlyAdmin {... */\n      jump\t// out\n        /* \"AdvancedBlockchainFirewall.sol\":5450:5564  function isIPWhitelisted(string memory _ip) public view returns (bool) {... */\n    tag_183:\n        /* \"AdvancedBlockchainFirewall.sol\":5515:5519  bool */\n      0x00\n        /* \"AdvancedBlockchainFirewall.sol\":5538:5552  whitelistedIPs */\n      0x08\n        /* \"AdvancedBlockchainFirewall.sol\":5553:5556  _ip */\n      dup3\n        /* \"AdvancedBlockchainFirewall.sol\":5538:5557  whitelistedIPs[_ip] */\n      mload(0x40)\n      tag_472\n      swap2\n      swap1\n      tag_219\n      jump\t// in\n    tag_472:\n      swap1\n      dup2\n      mstore\n      0x20\n      add\n      mload(0x40)\n      dup1\n      swap2\n      sub\n      swap1\n      keccak256\n      0x00\n      swap1\n      sload\n      swap1\n      0x0100\n      exp\n      swap1\n      div\n      0xff\n      and\n        /* \"AdvancedBlockchainFirewall.sol\":5531:5557  return whitelistedIPs[_ip] */\n      swap1\n      pop\n        /* \"AdvancedBlockchainFirewall.sol\":5450:5564  function isIPWhitelisted(string memory _ip) public view returns (bool) {... */\n      swap2\n      swap1\n      pop\n      jump\t// out\n        /* \"AdvancedBlockchainFirewall.sol\":1603:1656  mapping(uint256 => FirewallRule) public firewallRules */\n    tag_187:\n      mstore(0x20, 0x04)\n      dup1\n      0x00\n      mstore\n      keccak256(0x00, 0x40)\n      0x00\n      swap2\n      pop\n      swap1\n      pop\n      dup1\n      0x00\n      add\n      sload\n      swap1\n      dup1\n      0x01\n      add\n      dup1\n      sload\n      tag_473\n      swap1\n      tag_223\n      jump\t// in\n    tag_473:\n      dup1\n      0x1f\n      add\n      0x20\n      dup1\n      swap2\n      div\n      mul\n      0x20\n      add\n      mload(0x40)\n      swap1\n      dup2\n      add\n      0x40\n      mstore\n      dup1\n      swap3\n      swap2\n      swap1\n      dup2\n      dup2\n      mstore\n      0x20\n      add\n      dup3\n      dup1\n      sload\n      tag_474\n      swap1\n      tag_223\n      jump\t// in\n    tag_474:\n      dup1\n      iszero\n      tag_475\n      jumpi\n      dup1\n      0x1f\n      lt\n      tag_476\n      jumpi\n      0x0100\n      dup1\n      dup4\n      sload\n      div\n      mul\n      dup4\n      mstore\n      swap2\n      0x20\n      add\n      swap2\n      jump(tag_475)\n    tag_476:\n      dup3\n      add\n      swap2\n      swap1\n      0x00\n      mstore\n      keccak256(0x00, 0x20)\n      swap1\n    tag_477:\n      dup2\n      sload\n      dup2\n      mstore\n      swap1\n      0x01\n      add\n      swap1\n      0x20\n      add\n      dup1\n      dup4\n      gt\n      tag_477\n      jumpi\n      dup3\n      swap1\n      sub\n      0x1f\n      and\n      dup3\n      add\n      swap2\n    tag_475:\n      pop\n      pop\n      pop\n      pop\n      pop\n      swap1\n      dup1\n      0x02\n      add\n      dup1\n      sload\n      tag_478\n      swap1\n      tag_223\n      jump\t// in\n    tag_478:\n      dup1\n      0x1f\n      add\n      0x20\n      dup1\n      swap2\n      div\n      mul\n      0x20\n      add\n      mload(0x40)\n      swap1\n      dup2\n      add\n      0x40\n      mstore\n      dup1\n      swap3\n      swap2\n      swap1\n      dup2\n      dup2\n      mstore\n      0x20\n      add\n      dup3\n      dup1\n      sload\n      tag_479\n      swap1\n      tag_223\n      jump\t// in\n    tag_479:\n      dup1\n      iszero\n      tag_480\n      jumpi\n      dup1\n      0x1f\n      lt\n      tag_481\n      jumpi\n      0x0100\n      dup1\n      dup4\n      sload\n      div\n      mul\n      dup4\n      mstore\n      swap2\n      0x20\n      add\n      swap2\n      jump(tag_480)\n    tag_481:\n      dup3\n      add\n      swap2\n      swap1\n      0x00\n      mstore\n      keccak256(0x00, 0x20)\n      swap1\n    tag_482:\n      dup2\n      sload\n      dup2\n      mstore\n      swap1\n      0x01\n      add\n      swap1\n      0x20\n      add\n      dup1\n      dup4\n      gt\n      tag_482\n      jumpi\n      dup3\n      swap1\n      sub\n      0x1f\n      and\n      dup3\n      add\n      swap2\n    tag_480:\n      pop\n      pop\n      pop\n      pop\n      pop\n      swap1\n      dup1\n      0x03\n      add\n      dup1\n      sload\n      tag_483\n      swap1\n      tag_223\n      jump\t// in\n    tag_483:\n      dup1\n      0x1f\n      add\n      0x20\n      dup1\n      swap2\n      div\n      mul\n      0x20\n      add\n      mload(0x40)\n      swap1\n      dup2\n      add\n      0x40\n      mstore\n      dup1\n      swap3\n      swap2\n      swap1\n      dup2\n      dup2\n      mstore\n      0x20\n      add\n      dup3\n      dup1\n      sload\n      tag_484\n      swap1\n      tag_223\n      jump\t// in\n    tag_484:\n      dup1\n      iszero\n      tag_485\n      jumpi\n      dup1\n      0x1f\n      lt\n      tag_486\n      jumpi\n      0x0100\n      dup1\n      dup4\n      sload\n      div\n      mul\n      dup4\n      mstore\n      swap2\n      0x20\n      add\n      swap2\n      jump(tag_485)\n    tag_486:\n      dup3\n      add\n      swap2\n      swap1\n      0x00\n      mstore\n      keccak256(0x00, 0x20)\n      swap1\n    tag_487:\n      dup2\n      sload\n      dup2\n      mstore\n      swap1\n      0x01\n      add\n      swap1\n      0x20\n      add\n      dup1\n      dup4\n      gt\n      tag_487\n      jumpi\n      dup3\n      swap1\n      sub\n      0x1f\n      and\n      dup3\n      add\n      swap2\n    tag_485:\n      pop\n      pop\n      pop\n      pop\n      pop\n      swap1\n      dup1\n      0x04\n      add\n      sload\n      swap1\n      dup1\n      0x05\n      add\n      sload\n      swap1\n      dup1\n      0x06\n      add\n      0x00\n      swap1\n      sload\n      swap1\n      0x0100\n      exp\n      swap1\n      div\n      0xff\n      and\n      swap1\n      dup1\n      0x06\n      add\n      0x01\n      swap1\n      sload\n      swap1\n      0x0100\n      exp\n      swap1\n      div\n      0xff\n      and\n      swap1\n      dup1\n      0x06\n      add\n      0x02\n      swap1\n      sload\n      swap1\n      0x0100\n      exp\n      swap1\n      div\n      0xff\n      and\n      swap1\n      dup1\n      0x07\n      add\n      sload\n      swap1\n      dup1\n      0x08\n      add\n      sload\n      swap1\n      dup1\n      0x09\n      add\n      0x00\n      swap1\n      sload\n      swap1\n      0x0100\n      exp\n      swap1\n      div\n      0xffffffffffffffffffffffffffffffffffffffff\n      and\n      swap1\n      pop\n      dup13\n      jump\t// out\n        /* \"AdvancedBlockchainFirewall.sol\":302:328  uint256 public ruleCounter */\n    tag_191:\n      sload(0x01)\n      dup2\n      jump\t// out\n        /* \"AdvancedBlockchainFirewall.sol\":4256:4391  function enableAutoDetection() external onlyAdmin {... */\n    tag_194:\n        /* \"AdvancedBlockchainFirewall.sol\":3257:3273  authorizedAdmins */\n      0x06\n        /* \"AdvancedBlockchainFirewall.sol\":3257:3285  authorizedAdmins[msg.sender] */\n      0x00\n        /* \"AdvancedBlockchainFirewall.sol\":3274:3284  msg.sender */\n      caller\n        /* \"AdvancedBlockchainFirewall.sol\":3257:3285  authorizedAdmins[msg.sender] */\n      0xffffffffffffffffffffffffffffffffffffffff\n      and\n      0xffffffffffffffffffffffffffffffffffffffff\n      and\n      dup2\n      mstore\n      0x20\n      add\n      swap1\n      dup2\n      mstore\n      0x20\n      add\n      0x00\n      keccak256\n      0x00\n      swap1\n      sload\n      swap1\n      0x0100\n      exp\n      swap1\n      div\n      0xff\n      and\n        /* \"AdvancedBlockchainFirewall.sol\":3257:3308  authorizedAdmins[msg.sender] || msg.sender == owner */\n      dup1\n      tag_489\n      jumpi\n      pop\n        /* \"AdvancedBlockchainFirewall.sol\":3303:3308  owner */\n      0x00\n      0x00\n      swap1\n      sload\n      swap1\n      0x0100\n      exp\n      swap1\n      div\n      0xffffffffffffffffffffffffffffffffffffffff\n      and\n        /* \"AdvancedBlockchainFirewall.sol\":3289:3308  msg.sender == owner */\n      0xffffffffffffffffffffffffffffffffffffffff\n      and\n        /* \"AdvancedBlockchainFirewall.sol\":3289:3299  msg.sender */\n      caller\n        /* \"AdvancedBlockchainFirewall.sol\":3289:3308  msg.sender == owner */\n      0xffffffffffffffffffffffffffffffffffffffff\n      and\n      eq\n        /* \"AdvancedBlockchainFirewall.sol\":3257:3308  authorizedAdmins[msg.sender] || msg.sender == owner */\n    tag_489:\n        /* \"AdvancedBlockchainFirewall.sol\":3249:3327  require(authorizedAdmins[msg.sender] || msg.sender == owner, \"Not authorized\") */\n      tag_490\n      jumpi\n      mload(0x40)\n      0x08c379a000000000000000000000000000000000000000000000000000000000\n      dup2\n      mstore\n      0x04\n      add\n      tag_491\n      swap1\n      tag_216\n      jump\t// in\n    tag_491:\n      mload(0x40)\n      dup1\n      swap2\n      sub\n      swap1\n      revert\n    tag_490:\n        /* \"AdvancedBlockchainFirewall.sol\":4339:4343  true */\n      0x01\n        /* \"AdvancedBlockchainFirewall.sol\":4316:4336  autoDetectionEnabled */\n      0x03\n      0x01\n        /* \"AdvancedBlockchainFirewall.sol\":4316:4343  autoDetectionEnabled = true */\n      0x0100\n      exp\n      dup2\n      sload\n      dup2\n      0xff\n      mul\n      not\n      and\n      swap1\n      dup4\n      iszero\n      iszero\n      mul\n      or\n      swap1\n      sstore\n      pop\n        /* \"AdvancedBlockchainFirewall.sol\":4358:4384  AutoDetectionEnabled(true) */\n      0x6e7ad8b07133ce5a518b1001dd033dc8403c768f691a1f8e81140fa664deb690\n        /* \"AdvancedBlockchainFirewall.sol\":4379:4383  true */\n      0x01\n        /* \"AdvancedBlockchainFirewall.sol\":4358:4384  AutoDetectionEnabled(true) */\n      mload(0x40)\n      tag_493\n      swap2\n      swap1\n      tag_71\n      jump\t// in\n    tag_493:\n      mload(0x40)\n      dup1\n      swap2\n      sub\n      swap1\n      log1\n        /* \"AdvancedBlockchainFirewall.sol\":4256:4391  function enableAutoDetection() external onlyAdmin {... */\n      jump\t// out\n        /* \"AdvancedBlockchainFirewall.sol\":2102:2142  uint256 public autoBlockThreshold = 1000 */\n    tag_196:\n      sload(0x11)\n      dup2\n      jump\t// out\n        /* \"AdvancedBlockchainFirewall.sol\":1931:1963  NetworkStats public networkStats */\n    tag_199:\n      0x0a\n      dup1\n      0x00\n      add\n      sload\n      swap1\n      dup1\n      0x01\n      add\n      sload\n      swap1\n      dup1\n      0x02\n      add\n      sload\n      swap1\n      dup1\n      0x03\n      add\n      sload\n      swap1\n      dup1\n      0x04\n      add\n      sload\n      swap1\n      pop\n      dup6\n      jump\t// out\n        /* \"AdvancedBlockchainFirewall.sol\":1715:1763  mapping(address => bool) public authorizedAdmins */\n    tag_204:\n      mstore(0x20, 0x06)\n      dup1\n      0x00\n      mstore\n      keccak256(0x00, 0x40)\n      0x00\n      swap2\n      pop\n      sload\n      swap1\n      0x0100\n      exp\n      swap1\n      div\n      0xff\n      and\n      dup2\n      jump\t// out\n        /* \"AdvancedBlockchainFirewall.sol\":11681:11864  function updateMaxConnections(uint256 _newMax) external onlyAdmin {... */\n    tag_208:\n        /* \"AdvancedBlockchainFirewall.sol\":3257:3273  authorizedAdmins */\n      0x06\n        /* \"AdvancedBlockchainFirewall.sol\":3257:3285  authorizedAdmins[msg.sender] */\n      0x00\n        /* \"AdvancedBlockchainFirewall.sol\":3274:3284  msg.sender */\n      caller\n        /* \"AdvancedBlockchainFirewall.sol\":3257:3285  authorizedAdmins[msg.sender] */\n      0xffffffffffffffffffffffffffffffffffffffff\n      and\n      0xffffffffffffffffffffffffffffffffffffffff\n      and\n      dup2\n      mstore\n      0x20\n      add\n      swap1\n      dup2\n      mstore\n      0x20\n      add\n      0x00\n      keccak256\n      0x00\n      swap1\n      sload\n      swap1\n      0x0100\n      exp\n      swap1\n      div\n      0xff\n      and\n        /* \"AdvancedBlockchainFirewall.sol\":3257:3308  authorizedAdmins[msg.sender] || msg.sender == owner */\n      dup1\n      tag_495\n      jumpi\n      pop\n        /* \"AdvancedBlockchainFirewall.sol\":3303:3308  owner */\n      0x00\n      0x00\n      swap1\n      sload\n      swap1\n      0x0100\n      exp\n      swap1\n      div\n      0xffffffffffffffffffffffffffffffffffffffff\n      and\n        /* \"AdvancedBlockchainFirewall.sol\":3289:3308  msg.sender == owner */\n      0xffffffffffffffffffffffffffffffffffffffff\n      and\n        /* \"AdvancedBlockchainFirewall.sol\":3289:3299  msg.sender */\n      caller\n        /* \"AdvancedBlockchainFirewall.sol\":3289:3308  msg.sender == owner */\n      0xffffffffffffffffffffffffffffffffffffffff\n      and\n      eq\n        /* \"AdvancedBlockchainFirewall.sol\":3257:3308  authorizedAdmins[msg.sender] || msg.sender == owner */\n    tag_495:\n        /* \"AdvancedBlockchainFirewall.sol\":3249:3327  require(authorizedAdmins[msg.sender] || msg.sender == owner, \"Not authorized\") */\n      tag_496\n      jumpi\n      mload(0x40)\n      0x08c379a000000000000000000000000000000000000000000000000000000000\n      dup2\n      mstore\n      0x04\n      add\n      tag_497\n      swap1\n      tag_216\n      jump\t// in\n    tag_497:\n      mload(0x40)\n      dup1\n      swap2\n      sub\n      swap1\n      revert\n    tag_496:\n        /* \"AdvancedBlockchainFirewall.sol\":11783:11790  _newMax */\n      dup1\n        /* \"AdvancedBlockchainFirewall.sol\":11757:11780  maxConnectionsPerMinute */\n      0x0f\n        /* \"AdvancedBlockchainFirewall.sol\":11757:11790  maxConnectionsPerMinute = _newMax */\n      dup2\n      swap1\n      sstore\n      pop\n        /* \"AdvancedBlockchainFirewall.sol\":11805:11857  ThresholdUpdated(\"maxConnectionsPerMinute\", _newMax) */\n      0xbc563de8c41ac66a7038e5cdcc313d786622bb5a46f1f62d154e52c7fd363d68\n        /* \"AdvancedBlockchainFirewall.sol\":11849:11856  _newMax */\n      dup2\n        /* \"AdvancedBlockchainFirewall.sol\":11805:11857  ThresholdUpdated(\"maxConnectionsPerMinute\", _newMax) */\n      mload(0x40)\n      tag_499\n      swap2\n      swap1\n      tag_500\n      jump\t// in\n    tag_499:\n      mload(0x40)\n      dup1\n      swap2\n      sub\n      swap1\n      log1\n        /* \"AdvancedBlockchainFirewall.sol\":11681:11864  function updateMaxConnections(uint256 _newMax) external onlyAdmin {... */\n      pop\n      jump\t// out\n        /* \"AdvancedBlockchainFirewall.sol\":4923:5034  function removeFromBlacklist(string memory _ip) external onlyAdmin {... */\n    tag_211:\n        /* \"AdvancedBlockchainFirewall.sol\":3257:3273  authorizedAdmins */\n      0x06\n        /* \"AdvancedBlockchainFirewall.sol\":3257:3285  authorizedAdmins[msg.sender] */\n      0x00\n        /* \"AdvancedBlockchainFirewall.sol\":3274:3284  msg.sender */\n      caller\n        /* \"AdvancedBlockchainFirewall.sol\":3257:3285  authorizedAdmins[msg.sender] */\n      0xffffffffffffffffffffffffffffffffffffffff\n      and\n      0xffffffffffffffffffffffffffffffffffffffff\n      and\n      dup2\n      mstore\n      0x20\n      add\n      swap1\n      dup2\n      mstore\n      0x20\n      add\n      0x00\n      keccak256\n      0x00\n      swap1\n      sload\n      swap1\n      0x0100\n      exp\n      swap1\n      div\n      0xff\n      and\n        /* \"AdvancedBlockchainFirewall.sol\":3257:3308  authorizedAdmins[msg.sender] || msg.sender == owner */\n      dup1\n      tag_502\n      jumpi\n      pop\n        /* \"AdvancedBlockchainFirewall.sol\":3303:3308  owner */\n      0x00\n      0x00\n      swap1\n      sload\n      swap1\n      0x0100\n      exp\n      swap1\n      div\n      0xffffffffffffffffffffffffffffffffffffffff\n      and\n        /* \"AdvancedBlockchainFirewall.sol\":3289:3308  msg.sender == owner */\n      0xffffffffffffffffffffffffffffffffffffffff\n      and\n        /* \"AdvancedBlockchainFirewall.sol\":3289:3299  msg.sender */\n      caller\n        /* \"AdvancedBlockchainFirewall.sol\":3289:3308  msg.sender == owner */\n      0xffffffffffffffffffffffffffffffffffffffff\n      and\n      eq\n        /* \"AdvancedBlockchainFirewall.sol\":3257:3308  authorizedAdmins[msg.sender] || msg.sender == owner */\n    tag_502:\n        /* \"AdvancedBlockchainFirewall.sol\":3249:3327  require(authorizedAdmins[msg.sender] || msg.sender == owner, \"Not authorized\") */\n      tag_503\n      jumpi\n      mload(0x40)\n      0x08c379a000000000000000000000000000000000000000000000000000000000\n      dup2\n      mstore\n      0x04\n      add\n      tag_504\n      swap1\n      tag_216\n      jump\t// in\n    tag_504:\n      mload(0x40)\n      dup1\n      swap2\n      sub\n      swap1\n      revert\n    tag_503:\n        /* \"AdvancedBlockchainFirewall.sol\":5022:5027  false */\n      0x00\n        /* \"AdvancedBlockchainFirewall.sol\":5000:5014  blacklistedIPs */\n      0x07\n        /* \"AdvancedBlockchainFirewall.sol\":5015:5018  _ip */\n      dup3\n        /* \"AdvancedBlockchainFirewall.sol\":5000:5019  blacklistedIPs[_ip] */\n      mload(0x40)\n      tag_506\n      swap2\n      swap1\n      tag_219\n      jump\t// in\n    tag_506:\n      swap1\n      dup2\n      mstore\n      0x20\n      add\n      mload(0x40)\n      dup1\n      swap2\n      sub\n      swap1\n      keccak256\n      0x00\n        /* \"AdvancedBlockchainFirewall.sol\":5000:5027  blacklistedIPs[_ip] = false */\n      0x0100\n      exp\n      dup2\n      sload\n      dup2\n      0xff\n      mul\n      not\n      and\n      swap1\n      dup4\n      iszero\n      iszero\n      mul\n      or\n      swap1\n      sstore\n      pop\n        /* \"AdvancedBlockchainFirewall.sol\":4923:5034  function removeFromBlacklist(string memory _ip) external onlyAdmin {... */\n      pop\n      jump\t// out\n        /* \"AdvancedBlockchainFirewall.sol\":4617:4752  function _addToBlacklist(string memory _ip) internal {... */\n    tag_267:\n        /* \"AdvancedBlockchainFirewall.sol\":4702:4706  true */\n      0x01\n        /* \"AdvancedBlockchainFirewall.sol\":4680:4694  blacklistedIPs */\n      0x07\n        /* \"AdvancedBlockchainFirewall.sol\":4695:4698  _ip */\n      dup3\n        /* \"AdvancedBlockchainFirewall.sol\":4680:4699  blacklistedIPs[_ip] */\n      mload(0x40)\n      tag_508\n      swap2\n      swap1\n      tag_219\n      jump\t// in\n    tag_508:\n      swap1\n      dup2\n      mstore\n      0x20\n      add\n      mload(0x40)\n      dup1\n      swap2\n      sub\n      swap1\n      keccak256\n      0x00\n        /* \"AdvancedBlockchainFirewall.sol\":4680:4706  blacklistedIPs[_ip] = true */\n      0x0100\n      exp\n      dup2\n      sload\n      dup2\n      0xff\n      mul\n      not\n      and\n      swap1\n      dup4\n      iszero\n      iszero\n      mul\n      or\n      swap1\n      sstore\n      pop\n        /* \"AdvancedBlockchainFirewall.sol\":4716:4728  networkStats */\n      0x0a\n        /* \"AdvancedBlockchainFirewall.sol\":4716:4743  networkStats.autoBlockedIPs */\n      0x03\n      add\n      0x00\n        /* \"AdvancedBlockchainFirewall.sol\":4716:4745  networkStats.autoBlockedIPs++ */\n      dup2\n      sload\n      dup1\n      swap3\n      swap2\n      swap1\n      tag_509\n      swap1\n      tag_254\n      jump\t// in\n    tag_509:\n      swap2\n      swap1\n      pop\n      sstore\n      pop\n        /* \"AdvancedBlockchainFirewall.sol\":4617:4752  function _addToBlacklist(string memory _ip) internal {... */\n      pop\n      jump\t// out\n        /* \"AdvancedBlockchainFirewall.sol\":7453:8208  function _autoBlockIP(string memory _ip, uint256 _score) internal {... */\n    tag_451:\n        /* \"AdvancedBlockchainFirewall.sol\":7529:7549  _addToBlacklist(_ip) */\n      tag_511\n        /* \"AdvancedBlockchainFirewall.sol\":7545:7548  _ip */\n      dup3\n        /* \"AdvancedBlockchainFirewall.sol\":7529:7544  _addToBlacklist */\n      tag_267\n        /* \"AdvancedBlockchainFirewall.sol\":7529:7549  _addToBlacklist(_ip) */\n      jump\t// in\n    tag_511:\n        /* \"AdvancedBlockchainFirewall.sol\":7568:7581  threatCounter */\n      0x02\n      0x00\n        /* \"AdvancedBlockchainFirewall.sol\":7568:7583  threatCounter++ */\n      dup2\n      sload\n      dup1\n      swap3\n      swap2\n      swap1\n      tag_512\n      swap1\n      tag_254\n      jump\t// in\n    tag_512:\n      swap2\n      swap1\n      pop\n      sstore\n      pop\n        /* \"AdvancedBlockchainFirewall.sol\":7621:8013  ThreatLog({... */\n      mload(0x40)\n      dup1\n      0x0100\n      add\n      0x40\n      mstore\n      dup1\n        /* \"AdvancedBlockchainFirewall.sol\":7649:7662  threatCounter */\n      sload(0x02)\n        /* \"AdvancedBlockchainFirewall.sol\":7621:8013  ThreatLog({... */\n      dup2\n      mstore\n      0x20\n      add\n        /* \"AdvancedBlockchainFirewall.sol\":7686:7689  _ip */\n      dup4\n        /* \"AdvancedBlockchainFirewall.sol\":7621:8013  ThreatLog({... */\n      dup2\n      mstore\n      0x20\n      add\n      mload(0x40)\n      dup1\n      0x60\n      add\n      0x40\n      mstore\n      dup1\n      0x21\n      dup2\n      mstore\n      0x20\n      add\n      data_90f4d30a3ae405433ec9e69f5ffed0d3674eaa8703169865ba38ebb98055bb78\n      0x21\n      swap2\n      codecopy\n      dup2\n      mstore\n      0x20\n      add\n        /* \"AdvancedBlockchainFirewall.sol\":7771:7787  ThreatLevel.HIGH */\n      0x02\n        /* \"AdvancedBlockchainFirewall.sol\":7621:8013  ThreatLog({... */\n      0x03\n      dup2\n      gt\n      iszero\n      tag_513\n      jumpi\n      tag_514\n      tag_257\n      jump\t// in\n    tag_514:\n    tag_513:\n      dup2\n      mstore\n      0x20\n      add\n        /* \"AdvancedBlockchainFirewall.sol\":7812:7827  block.timestamp */\n      timestamp\n        /* \"AdvancedBlockchainFirewall.sol\":7621:8013  ThreatLog({... */\n      dup2\n      mstore\n      0x20\n      add\n      mload(0x40)\n      dup1\n      0x60\n      add\n      0x40\n      mstore\n      dup1\n      0x31\n      dup2\n      mstore\n      0x20\n      add\n      data_faaca1b35c816affd650c62c0cec07087df83af3fcdd0ecf3c3efe7bea22f0dc\n      0x31\n      swap2\n      codecopy\n      dup2\n      mstore\n      0x20\n      add\n        /* \"AdvancedBlockchainFirewall.sol\":7930:7934  true */\n      0x01\n        /* \"AdvancedBlockchainFirewall.sol\":7621:8013  ThreatLog({... */\n      iszero\n      iszero\n      dup2\n      mstore\n      0x20\n      add\n        /* \"AdvancedBlockchainFirewall.sol\":7968:7981  ipTrafficData */\n      0x09\n        /* \"AdvancedBlockchainFirewall.sol\":7982:7985  _ip */\n      dup5\n        /* \"AdvancedBlockchainFirewall.sol\":7968:7986  ipTrafficData[_ip] */\n      mload(0x40)\n      tag_515\n      swap2\n      swap1\n      tag_219\n      jump\t// in\n    tag_515:\n      swap1\n      dup2\n      mstore\n      0x20\n      add\n      mload(0x40)\n      dup1\n      swap2\n      sub\n      swap1\n      keccak256\n        /* \"AdvancedBlockchainFirewall.sol\":7968:8002  ipTrafficData[_ip].connectionCount */\n      0x00\n      add\n      sload\n        /* \"AdvancedBlockchainFirewall.sol\":7621:8013  ThreatLog({... */\n      dup2\n      mstore\n      pop\n        /* \"AdvancedBlockchainFirewall.sol\":7593:7603  threatLogs */\n      0x05\n        /* \"AdvancedBlockchainFirewall.sol\":7593:7618  threatLogs[threatCounter] */\n      0x00\n        /* \"AdvancedBlockchainFirewall.sol\":7604:7617  threatCounter */\n      sload(0x02)\n        /* \"AdvancedBlockchainFirewall.sol\":7593:7618  threatLogs[threatCounter] */\n      dup2\n      mstore\n      0x20\n      add\n      swap1\n      dup2\n      mstore\n      0x20\n      add\n      0x00\n      keccak256\n        /* \"AdvancedBlockchainFirewall.sol\":7593:8013  threatLogs[threatCounter] = ThreatLog({... */\n      0x00\n      dup3\n      add\n      mload\n      dup2\n      0x00\n      add\n      sstore\n      0x20\n      dup3\n      add\n      mload\n      dup2\n      0x01\n      add\n      swap1\n      dup2\n      tag_516\n      swap2\n      swap1\n      tag_260\n      jump\t// in\n    tag_516:\n      pop\n      0x40\n      dup3\n      add\n      mload\n      dup2\n      0x02\n      add\n      swap1\n      dup2\n      tag_517\n      swap2\n      swap1\n      tag_260\n      jump\t// in\n    tag_517:\n      pop\n      0x60\n      dup3\n      add\n      mload\n      dup2\n      0x03\n      add\n      exp(0x0100, 0x00)\n      dup2\n      sload\n      dup2\n      0xff\n      mul\n      not\n      and\n      swap1\n      dup4\n      0x03\n      dup2\n      gt\n      iszero\n      tag_518\n      jumpi\n      tag_519\n      tag_257\n      jump\t// in\n    tag_519:\n    tag_518:\n      mul\n      or\n      swap1\n      sstore\n      pop\n      0x80\n      dup3\n      add\n      mload\n      dup2\n      0x04\n      add\n      sstore\n      0xa0\n      dup3\n      add\n      mload\n      dup2\n      0x05\n      add\n      swap1\n      dup2\n      tag_520\n      swap2\n      swap1\n      tag_260\n      jump\t// in\n    tag_520:\n      pop\n      0xc0\n      dup3\n      add\n      mload\n      dup2\n      0x06\n      add\n      exp(0x0100, 0x00)\n      dup2\n      sload\n      dup2\n      0xff\n      mul\n      not\n      and\n      swap1\n      dup4\n      iszero\n      iszero\n      mul\n      or\n      swap1\n      sstore\n      pop\n      0xe0\n      dup3\n      add\n      mload\n      dup2\n      0x07\n      add\n      sstore\n      swap1\n      pop\n      pop\n        /* \"AdvancedBlockchainFirewall.sol\":8032:8044  networkStats */\n      0x0a\n        /* \"AdvancedBlockchainFirewall.sol\":8032:8059  networkStats.threatsBlocked */\n      0x01\n      add\n      0x00\n        /* \"AdvancedBlockchainFirewall.sol\":8032:8061  networkStats.threatsBlocked++ */\n      dup2\n      sload\n      dup1\n      swap3\n      swap2\n      swap1\n      tag_521\n      swap1\n      tag_254\n      jump\t// in\n    tag_521:\n      swap2\n      swap1\n      pop\n      sstore\n      pop\n        /* \"AdvancedBlockchainFirewall.sol\":8076:8117  AutoBlocked(_ip, _score, block.timestamp) */\n      0xcc1d5b324e70231335c276ef854240cf68e363ae188f5c3c1f4f225e5982b284\n        /* \"AdvancedBlockchainFirewall.sol\":8088:8091  _ip */\n      dup3\n        /* \"AdvancedBlockchainFirewall.sol\":8093:8099  _score */\n      dup3\n        /* \"AdvancedBlockchainFirewall.sol\":8101:8116  block.timestamp */\n      timestamp\n        /* \"AdvancedBlockchainFirewall.sol\":8076:8117  AutoBlocked(_ip, _score, block.timestamp) */\n      mload(0x40)\n      tag_522\n      swap4\n      swap3\n      swap2\n      swap1\n      tag_448\n      jump\t// in\n    tag_522:\n      mload(0x40)\n      dup1\n      swap2\n      sub\n      swap1\n      log1\n        /* \"AdvancedBlockchainFirewall.sol\":8147:8160  threatCounter */\n      sload(0x02)\n        /* \"AdvancedBlockchainFirewall.sol\":8132:8201  ThreatDetected(threatCounter, _ip, ThreatLevel.HIGH, block.timestamp) */\n      0x660e83dce644f7be3fb68c939c1d49bb83394f37683cafdb498dc4c109803e6f\n        /* \"AdvancedBlockchainFirewall.sol\":8162:8165  _ip */\n      dup4\n        /* \"AdvancedBlockchainFirewall.sol\":8167:8183  ThreatLevel.HIGH */\n      0x02\n        /* \"AdvancedBlockchainFirewall.sol\":8185:8200  block.timestamp */\n      timestamp\n        /* \"AdvancedBlockchainFirewall.sol\":8132:8201  ThreatDetected(threatCounter, _ip, ThreatLevel.HIGH, block.timestamp) */\n      mload(0x40)\n      tag_523\n      swap4\n      swap3\n      swap2\n      swap1\n      tag_272\n      jump\t// in\n    tag_523:\n      mload(0x40)\n      dup1\n      swap2\n      sub\n      swap1\n      log2\n        /* \"AdvancedBlockchainFirewall.sol\":7453:8208  function _autoBlockIP(string memory _ip, uint256 _score) internal {... */\n      pop\n      pop\n      jump\t// out\n        /* \"AdvancedBlockchainFirewall.sol\":8218:8861  function _generateAlert(string memory _ip, uint256 _score) internal {... */\n    tag_454:\n        /* \"AdvancedBlockchainFirewall.sol\":8296:8309  threatCounter */\n      0x02\n      0x00\n        /* \"AdvancedBlockchainFirewall.sol\":8296:8311  threatCounter++ */\n      dup2\n      sload\n      dup1\n      swap3\n      swap2\n      swap1\n      tag_525\n      swap1\n      tag_254\n      jump\t// in\n    tag_525:\n      swap2\n      swap1\n      pop\n      sstore\n      pop\n        /* \"AdvancedBlockchainFirewall.sol\":8349:8719  ThreatLog({... */\n      mload(0x40)\n      dup1\n      0x0100\n      add\n      0x40\n      mstore\n      dup1\n        /* \"AdvancedBlockchainFirewall.sol\":8377:8390  threatCounter */\n      sload(0x02)\n        /* \"AdvancedBlockchainFirewall.sol\":8349:8719  ThreatLog({... */\n      dup2\n      mstore\n      0x20\n      add\n        /* \"AdvancedBlockchainFirewall.sol\":8414:8417  _ip */\n      dup4\n        /* \"AdvancedBlockchainFirewall.sol\":8349:8719  ThreatLog({... */\n      dup2\n      mstore\n      0x20\n      add\n      mload(0x40)\n      dup1\n      0x40\n      add\n      0x40\n      mstore\n      dup1\n      0x1c\n      dup2\n      mstore\n      0x20\n      add\n      0x537573706963696f757320416374697669747920446574656374656400000000\n      dup2\n      mstore\n      pop\n      dup2\n      mstore\n      0x20\n      add\n        /* \"AdvancedBlockchainFirewall.sol\":8494:8512  ThreatLevel.MEDIUM */\n      0x01\n        /* \"AdvancedBlockchainFirewall.sol\":8349:8719  ThreatLog({... */\n      0x03\n      dup2\n      gt\n      iszero\n      tag_526\n      jumpi\n      tag_527\n      tag_257\n      jump\t// in\n    tag_527:\n    tag_526:\n      dup2\n      mstore\n      0x20\n      add\n        /* \"AdvancedBlockchainFirewall.sol\":8537:8552  block.timestamp */\n      timestamp\n        /* \"AdvancedBlockchainFirewall.sol\":8349:8719  ThreatLog({... */\n      dup2\n      mstore\n      0x20\n      add\n      mload(0x40)\n      dup1\n      0x40\n      add\n      0x40\n      mstore\n      dup1\n      0x1d\n      dup2\n      mstore\n      0x20\n      add\n      0x4869676820636f6e6e656374696f6e2072617465206465746563746564000000\n      dup2\n      mstore\n      pop\n      dup2\n      mstore\n      0x20\n      add\n        /* \"AdvancedBlockchainFirewall.sol\":8635:8640  false */\n      0x00\n        /* \"AdvancedBlockchainFirewall.sol\":8349:8719  ThreatLog({... */\n      iszero\n      iszero\n      dup2\n      mstore\n      0x20\n      add\n        /* \"AdvancedBlockchainFirewall.sol\":8674:8687  ipTrafficData */\n      0x09\n        /* \"AdvancedBlockchainFirewall.sol\":8688:8691  _ip */\n      dup5\n        /* \"AdvancedBlockchainFirewall.sol\":8674:8692  ipTrafficData[_ip] */\n      mload(0x40)\n      tag_528\n      swap2\n      swap1\n      tag_219\n      jump\t// in\n    tag_528:\n      swap1\n      dup2\n      mstore\n      0x20\n      add\n      mload(0x40)\n      dup1\n      swap2\n      sub\n      swap1\n      keccak256\n        /* \"AdvancedBlockchainFirewall.sol\":8674:8708  ipTrafficData[_ip].connectionCount */\n      0x00\n      add\n      sload\n        /* \"AdvancedBlockchainFirewall.sol\":8349:8719  ThreatLog({... */\n      dup2\n      mstore\n      pop\n        /* \"AdvancedBlockchainFirewall.sol\":8321:8331  threatLogs */\n      0x05\n        /* \"AdvancedBlockchainFirewall.sol\":8321:8346  threatLogs[threatCounter] */\n      0x00\n        /* \"AdvancedBlockchainFirewall.sol\":8332:8345  threatCounter */\n      sload(0x02)\n        /* \"AdvancedBlockchainFirewall.sol\":8321:8346  threatLogs[threatCounter] */\n      dup2\n      mstore\n      0x20\n      add\n      swap1\n      dup2\n      mstore\n      0x20\n      add\n      0x00\n      keccak256\n        /* \"AdvancedBlockchainFirewall.sol\":8321:8719  threatLogs[threatCounter] = ThreatLog({... */\n      0x00\n      dup3\n      add\n      mload\n      dup2\n      0x00\n      add\n      sstore\n      0x20\n      dup3\n      add\n      mload\n      dup2\n      0x01\n      add\n      swap1\n      dup2\n      tag_529\n      swap2\n      swap1\n      tag_260\n      jump\t// in\n    tag_529:\n      pop\n      0x40\n      dup3\n      add\n      mload\n      dup2\n      0x02\n      add\n      swap1\n      dup2\n      tag_530\n      swap2\n      swap1\n      tag_260\n      jump\t// in\n    tag_530:\n      pop\n      0x60\n      dup3\n      add\n      mload\n      dup2\n      0x03\n      add\n      exp(0x0100, 0x00)\n      dup2\n      sload\n      dup2\n      0xff\n      mul\n      not\n      and\n      swap1\n      dup4\n      0x03\n      dup2\n      gt\n      iszero\n      tag_531\n      jumpi\n      tag_532\n      tag_257\n      jump\t// in\n    tag_532:\n    tag_531:\n      mul\n      or\n      swap1\n      sstore\n      pop\n      0x80\n      dup3\n      add\n      mload\n      dup2\n      0x04\n      add\n      sstore\n      0xa0\n      dup3\n      add\n      mload\n      dup2\n      0x05\n      add\n      swap1\n      dup2\n      tag_533\n      swap2\n      swap1\n      tag_260\n      jump\t// in\n    tag_533:\n      pop\n      0xc0\n      dup3\n      add\n      mload\n      dup2\n      0x06\n      add\n      exp(0x0100, 0x00)\n      dup2\n      sload\n      dup2\n      0xff\n      mul\n      not\n      and\n      swap1\n      dup4\n      iszero\n      iszero\n      mul\n      or\n      swap1\n      sstore\n      pop\n      0xe0\n      dup3\n      add\n      mload\n      dup2\n      0x07\n      add\n      sstore\n      swap1\n      pop\n      pop\n        /* \"AdvancedBlockchainFirewall.sol\":8738:8750  networkStats */\n      0x0a\n        /* \"AdvancedBlockchainFirewall.sol\":8738:8766  networkStats.alertsTriggered */\n      0x02\n      add\n      0x00\n        /* \"AdvancedBlockchainFirewall.sol\":8738:8768  networkStats.alertsTriggered++ */\n      dup2\n      sload\n      dup1\n      swap3\n      swap2\n      swap1\n      tag_534\n      swap1\n      tag_254\n      jump\t// in\n    tag_534:\n      swap2\n      swap1\n      pop\n      sstore\n      pop\n        /* \"AdvancedBlockchainFirewall.sol\":8798:8811  threatCounter */\n      sload(0x02)\n        /* \"AdvancedBlockchainFirewall.sol\":8783:8854  ThreatDetected(threatCounter, _ip, ThreatLevel.MEDIUM, block.timestamp) */\n      0x660e83dce644f7be3fb68c939c1d49bb83394f37683cafdb498dc4c109803e6f\n        /* \"AdvancedBlockchainFirewall.sol\":8813:8816  _ip */\n      dup4\n        /* \"AdvancedBlockchainFirewall.sol\":8818:8836  ThreatLevel.MEDIUM */\n      0x01\n        /* \"AdvancedBlockchainFirewall.sol\":8838:8853  block.timestamp */\n      timestamp\n        /* \"AdvancedBlockchainFirewall.sol\":8783:8854  ThreatDetected(threatCounter, _ip, ThreatLevel.MEDIUM, block.timestamp) */\n      mload(0x40)\n      tag_535\n      swap4\n      swap3\n      swap2\n      swap1\n      tag_272\n      jump\t// in\n    tag_535:\n      mload(0x40)\n      dup1\n      swap2\n      sub\n      swap1\n      log2\n        /* \"AdvancedBlockchainFirewall.sol\":8218:8861  function _generateAlert(string memory _ip, uint256 _score) internal {... */\n      pop\n      pop\n      jump\t// out\n    tag_300:\n      pop\n      dup1\n      sload\n      tag_536\n      swap1\n      tag_223\n      jump\t// in\n    tag_536:\n      0x00\n      dup3\n      sstore\n      dup1\n      0x1f\n      lt\n      tag_538\n      jumpi\n      pop\n      jump(tag_537)\n    tag_538:\n      0x1f\n      add\n      0x20\n      swap1\n      div\n      swap1\n      0x00\n      mstore\n      keccak256(0x00, 0x20)\n      swap1\n      dup2\n      add\n      swap1\n      tag_539\n      swap2\n      swap1\n      tag_540\n      jump\t// in\n    tag_539:\n    tag_537:\n      pop\n      jump\t// out\n    tag_304:\n      mload(0x40)\n      dup1\n      0x0100\n      add\n      0x40\n      mstore\n      dup1\n      0x00\n      dup2\n      mstore\n      0x20\n      add\n      0x60\n      dup2\n      mstore\n      0x20\n      add\n      0x60\n      dup2\n      mstore\n      0x20\n      add\n      0x00\n      0x03\n      dup2\n      gt\n      iszero\n      tag_541\n      jumpi\n      tag_542\n      tag_257\n      jump\t// in\n    tag_542:\n    tag_541:\n      dup2\n      mstore\n      0x20\n      add\n      0x00\n      dup2\n      mstore\n      0x20\n      add\n      0x60\n      dup2\n      mstore\n      0x20\n      add\n      iszero(iszero(0x00))\n      dup2\n      mstore\n      0x20\n      add\n      0x00\n      dup2\n      mstore\n      pop\n      swap1\n      jump\t// out\n    tag_330:\n      mload(0x40)\n      dup1\n      0x0180\n      add\n      0x40\n      mstore\n      dup1\n      0x00\n      dup2\n      mstore\n      0x20\n      add\n      0x60\n      dup2\n      mstore\n      0x20\n      add\n      0x60\n      dup2\n      mstore\n      0x20\n      add\n      0x60\n      dup2\n      mstore\n      0x20\n      add\n      0x00\n      dup2\n      mstore\n      0x20\n      add\n      0x00\n      dup2\n      mstore\n      0x20\n      add\n      0x00\n      0x05\n      dup2\n      gt\n      iszero\n      tag_543\n      jumpi\n      tag_544\n      tag_257\n      jump\t// in\n    tag_544:\n    tag_543:\n      dup2\n      mstore\n      0x20\n      add\n      0x00\n      0x02\n      dup2\n      gt\n      iszero\n      tag_545\n      jumpi\n      tag_546\n      tag_257\n      jump\t// in\n    tag_546:\n    tag_545:\n      dup2\n      mstore\n      0x20\n      add\n      iszero(iszero(0x00))\n      dup2\n      mstore\n      0x20\n      add\n      0x00\n      dup2\n      mstore\n      0x20\n      add\n      0x00\n      dup2\n      mstore\n      0x20\n      add\n      and(0xffffffffffffffffffffffffffffffffffffffff, 0x00)\n      dup2\n      mstore\n      pop\n      swap1\n      jump\t// out\n    tag_359:\n      mload(0x40)\n      dup1\n      0xa0\n      add\n      0x40\n      mstore\n      dup1\n      0x00\n      dup2\n      mstore\n      0x20\n      add\n      0x00\n      dup2\n      mstore\n      0x20\n      add\n      0x00\n      dup2\n      mstore\n      0x20\n      add\n      0x00\n      dup2\n      mstore\n      0x20\n      add\n      0x00\n      dup2\n      mstore\n      pop\n      swap1\n      jump\t// out\n    tag_364:\n      mload(0x40)\n      dup1\n      0x80\n      add\n      0x40\n      mstore\n      dup1\n      0x00\n      dup2\n      mstore\n      0x20\n      add\n      0x00\n      dup2\n      mstore\n      0x20\n      add\n      0x00\n      dup2\n      mstore\n      0x20\n      add\n      iszero(iszero(0x00))\n      dup2\n      mstore\n      pop\n      swap1\n      jump\t// out\n    tag_540:\n    tag_547:\n      dup1\n      dup3\n      gt\n      iszero\n      tag_548\n      jumpi\n      0x00\n      dup2\n      0x00\n      swap1\n      sstore\n      pop\n      0x01\n      add\n      jump(tag_547)\n    tag_548:\n      pop\n      swap1\n      jump\t// out\n        /* \"#utility.yul\":7:82   */\n    tag_549:\n        /* \"#utility.yul\":40:46   */\n      0x00\n        /* \"#utility.yul\":73:75   */\n      0x40\n        /* \"#utility.yul\":67:76   */\n      mload\n        /* \"#utility.yul\":57:76   */\n      swap1\n      pop\n        /* \"#utility.yul\":7:82   */\n      swap1\n      jump\t// out\n        /* \"#utility.yul\":88:205   */\n    tag_550:\n        /* \"#utility.yul\":197:198   */\n      0x00\n        /* \"#utility.yul\":194:195   */\n      0x00\n        /* \"#utility.yul\":187:199   */\n      revert\n        /* \"#utility.yul\":211:328   */\n    tag_551:\n        /* \"#utility.yul\":320:321   */\n      0x00\n        /* \"#utility.yul\":317:318   */\n      0x00\n        /* \"#utility.yul\":310:322   */\n      revert\n        /* \"#utility.yul\":334:451   */\n    tag_552:\n        /* \"#utility.yul\":443:444   */\n      0x00\n        /* \"#utility.yul\":440:441   */\n      0x00\n        /* \"#utility.yul\":433:445   */\n      revert\n        /* \"#utility.yul\":457:574   */\n    tag_553:\n        /* \"#utility.yul\":566:567   */\n      0x00\n        /* \"#utility.yul\":563:564   */\n      0x00\n        /* \"#utility.yul\":556:568   */\n      revert\n        /* \"#utility.yul\":580:682   */\n    tag_554:\n        /* \"#utility.yul\":621:627   */\n      0x00\n        /* \"#utility.yul\":672:674   */\n      0x1f\n        /* \"#utility.yul\":668:675   */\n      not\n        /* \"#utility.yul\":663:665   */\n      0x1f\n        /* \"#utility.yul\":656:661   */\n      dup4\n        /* \"#utility.yul\":652:666   */\n      add\n        /* \"#utility.yul\":648:676   */\n      and\n        /* \"#utility.yul\":638:676   */\n      swap1\n      pop\n        /* \"#utility.yul\":580:682   */\n      swap2\n      swap1\n      pop\n      jump\t// out\n        /* \"#utility.yul\":688:868   */\n    tag_555:\n        /* \"#utility.yul\":736:813   */\n      0x4e487b7100000000000000000000000000000000000000000000000000000000\n        /* \"#utility.yul\":733:734   */\n      0x00\n        /* \"#utility.yul\":726:814   */\n      mstore\n        /* \"#utility.yul\":833:837   */\n      0x41\n        /* \"#utility.yul\":830:831   */\n      0x04\n        /* \"#utility.yul\":823:838   */\n      mstore\n        /* \"#utility.yul\":857:861   */\n      0x24\n        /* \"#utility.yul\":854:855   */\n      0x00\n        /* \"#utility.yul\":847:862   */\n      revert\n        /* \"#utility.yul\":874:1155   */\n    tag_556:\n        /* \"#utility.yul\":957:984   */\n      tag_661\n        /* \"#utility.yul\":979:983   */\n      dup3\n        /* \"#utility.yul\":957:984   */\n      tag_554\n      jump\t// in\n    tag_661:\n        /* \"#utility.yul\":949:955   */\n      dup2\n        /* \"#utility.yul\":945:985   */\n      add\n        /* \"#utility.yul\":1087:1093   */\n      dup2\n        /* \"#utility.yul\":1075:1085   */\n      dup2\n        /* \"#utility.yul\":1072:1094   */\n      lt\n        /* \"#utility.yul\":1051:1069   */\n      0xffffffffffffffff\n        /* \"#utility.yul\":1039:1049   */\n      dup3\n        /* \"#utility.yul\":1036:1070   */\n      gt\n        /* \"#utility.yul\":1033:1095   */\n      or\n        /* \"#utility.yul\":1030:1118   */\n      iszero\n      tag_662\n      jumpi\n        /* \"#utility.yul\":1098:1116   */\n      tag_663\n      tag_555\n      jump\t// in\n    tag_663:\n        /* \"#utility.yul\":1030:1118   */\n    tag_662:\n        /* \"#utility.yul\":1138:1148   */\n      dup1\n        /* \"#utility.yul\":1134:1136   */\n      0x40\n        /* \"#utility.yul\":1127:1149   */\n      mstore\n        /* \"#utility.yul\":917:1155   */\n      pop\n        /* \"#utility.yul\":874:1155   */\n      pop\n      pop\n      jump\t// out\n        /* \"#utility.yul\":1161:1290   */\n    tag_557:\n        /* \"#utility.yul\":1195:1201   */\n      0x00\n        /* \"#utility.yul\":1222:1242   */\n      tag_665\n      tag_549\n      jump\t// in\n    tag_665:\n        /* \"#utility.yul\":1212:1242   */\n      swap1\n      pop\n        /* \"#utility.yul\":1251:1284   */\n      tag_666\n        /* \"#utility.yul\":1279:1283   */\n      dup3\n        /* \"#utility.yul\":1271:1277   */\n      dup3\n        /* \"#utility.yul\":1251:1284   */\n      tag_556\n      jump\t// in\n    tag_666:\n        /* \"#utility.yul\":1161:1290   */\n      swap2\n      swap1\n      pop\n      jump\t// out\n        /* \"#utility.yul\":1296:1604   */\n    tag_558:\n        /* \"#utility.yul\":1358:1362   */\n      0x00\n        /* \"#utility.yul\":1448:1466   */\n      0xffffffffffffffff\n        /* \"#utility.yul\":1440:1446   */\n      dup3\n        /* \"#utility.yul\":1437:1467   */\n      gt\n        /* \"#utility.yul\":1434:1490   */\n      iszero\n      tag_668\n      jumpi\n        /* \"#utility.yul\":1470:1488   */\n      tag_669\n      tag_555\n      jump\t// in\n    tag_669:\n        /* \"#utility.yul\":1434:1490   */\n    tag_668:\n        /* \"#utility.yul\":1508:1537   */\n      tag_670\n        /* \"#utility.yul\":1530:1536   */\n      dup3\n        /* \"#utility.yul\":1508:1537   */\n      tag_554\n      jump\t// in\n    tag_670:\n        /* \"#utility.yul\":1500:1537   */\n      swap1\n      pop\n        /* \"#utility.yul\":1592:1596   */\n      0x20\n        /* \"#utility.yul\":1586:1590   */\n      dup2\n        /* \"#utility.yul\":1582:1597   */\n      add\n        /* \"#utility.yul\":1574:1597   */\n      swap1\n      pop\n        /* \"#utility.yul\":1296:1604   */\n      swap2\n      swap1\n      pop\n      jump\t// out\n        /* \"#utility.yul\":1610:1758   */\n    tag_559:\n        /* \"#utility.yul\":1708:1714   */\n      dup3\n        /* \"#utility.yul\":1703:1706   */\n      dup2\n        /* \"#utility.yul\":1698:1701   */\n      dup4\n        /* \"#utility.yul\":1685:1715   */\n      calldatacopy\n        /* \"#utility.yul\":1749:1750   */\n      0x00\n        /* \"#utility.yul\":1740:1746   */\n      dup4\n        /* \"#utility.yul\":1735:1738   */\n      dup4\n        /* \"#utility.yul\":1731:1747   */\n      add\n        /* \"#utility.yul\":1724:1751   */\n      mstore\n        /* \"#utility.yul\":1610:1758   */\n      pop\n      pop\n      pop\n      jump\t// out\n        /* \"#utility.yul\":1764:2189   */\n    tag_560:\n        /* \"#utility.yul\":1842:1847   */\n      0x00\n        /* \"#utility.yul\":1867:1933   */\n      tag_673\n        /* \"#utility.yul\":1883:1932   */\n      tag_674\n        /* \"#utility.yul\":1925:1931   */\n      dup5\n        /* \"#utility.yul\":1883:1932   */\n      tag_558\n      jump\t// in\n    tag_674:\n        /* \"#utility.yul\":1867:1933   */\n      tag_557\n      jump\t// in\n    tag_673:\n        /* \"#utility.yul\":1858:1933   */\n      swap1\n      pop\n        /* \"#utility.yul\":1956:1962   */\n      dup3\n        /* \"#utility.yul\":1949:1954   */\n      dup2\n        /* \"#utility.yul\":1942:1963   */\n      mstore\n        /* \"#utility.yul\":1994:1998   */\n      0x20\n        /* \"#utility.yul\":1987:1992   */\n      dup2\n        /* \"#utility.yul\":1983:1999   */\n      add\n        /* \"#utility.yul\":2032:2035   */\n      dup5\n        /* \"#utility.yul\":2023:2029   */\n      dup5\n        /* \"#utility.yul\":2018:2021   */\n      dup5\n        /* \"#utility.yul\":2014:2030   */\n      add\n        /* \"#utility.yul\":2011:2036   */\n      gt\n        /* \"#utility.yul\":2008:2120   */\n      iszero\n      tag_675\n      jumpi\n        /* \"#utility.yul\":2039:2118   */\n      tag_676\n      tag_553\n      jump\t// in\n    tag_676:\n        /* \"#utility.yul\":2008:2120   */\n    tag_675:\n        /* \"#utility.yul\":2129:2183   */\n      tag_677\n        /* \"#utility.yul\":2176:2182   */\n      dup5\n        /* \"#utility.yul\":2171:2174   */\n      dup3\n        /* \"#utility.yul\":2166:2169   */\n      dup6\n        /* \"#utility.yul\":2129:2183   */\n      tag_559\n      jump\t// in\n    tag_677:\n        /* \"#utility.yul\":1848:2189   */\n      pop\n        /* \"#utility.yul\":1764:2189   */\n      swap4\n      swap3\n      pop\n      pop\n      pop\n      jump\t// out\n        /* \"#utility.yul\":2209:2549   */\n    tag_561:\n        /* \"#utility.yul\":2265:2270   */\n      0x00\n        /* \"#utility.yul\":2314:2317   */\n      dup3\n        /* \"#utility.yul\":2307:2311   */\n      0x1f\n        /* \"#utility.yul\":2299:2305   */\n      dup4\n        /* \"#utility.yul\":2295:2312   */\n      add\n        /* \"#utility.yul\":2291:2318   */\n      slt\n        /* \"#utility.yul\":2281:2403   */\n      tag_679\n      jumpi\n        /* \"#utility.yul\":2322:2401   */\n      tag_680\n      tag_552\n      jump\t// in\n    tag_680:\n        /* \"#utility.yul\":2281:2403   */\n    tag_679:\n        /* \"#utility.yul\":2439:2445   */\n      dup2\n        /* \"#utility.yul\":2426:2446   */\n      calldataload\n        /* \"#utility.yul\":2464:2543   */\n      tag_681\n        /* \"#utility.yul\":2539:2542   */\n      dup5\n        /* \"#utility.yul\":2531:2537   */\n      dup3\n        /* \"#utility.yul\":2524:2528   */\n      0x20\n        /* \"#utility.yul\":2516:2522   */\n      dup7\n        /* \"#utility.yul\":2512:2529   */\n      add\n        /* \"#utility.yul\":2464:2543   */\n      tag_560\n      jump\t// in\n    tag_681:\n        /* \"#utility.yul\":2455:2543   */\n      swap2\n      pop\n        /* \"#utility.yul\":2271:2549   */\n      pop\n        /* \"#utility.yul\":2209:2549   */\n      swap3\n      swap2\n      pop\n      pop\n      jump\t// out\n        /* \"#utility.yul\":2555:3064   */\n    tag_55:\n        /* \"#utility.yul\":2624:2630   */\n      0x00\n        /* \"#utility.yul\":2673:2675   */\n      0x20\n        /* \"#utility.yul\":2661:2670   */\n      dup3\n        /* \"#utility.yul\":2652:2659   */\n      dup5\n        /* \"#utility.yul\":2648:2671   */\n      sub\n        /* \"#utility.yul\":2644:2676   */\n      slt\n        /* \"#utility.yul\":2641:2760   */\n      iszero\n      tag_683\n      jumpi\n        /* \"#utility.yul\":2679:2758   */\n      tag_684\n      tag_550\n      jump\t// in\n    tag_684:\n        /* \"#utility.yul\":2641:2760   */\n    tag_683:\n        /* \"#utility.yul\":2827:2828   */\n      0x00\n        /* \"#utility.yul\":2816:2825   */\n      dup3\n        /* \"#utility.yul\":2812:2829   */\n      add\n        /* \"#utility.yul\":2799:2830   */\n      calldataload\n        /* \"#utility.yul\":2857:2875   */\n      0xffffffffffffffff\n        /* \"#utility.yul\":2849:2855   */\n      dup2\n        /* \"#utility.yul\":2846:2876   */\n      gt\n        /* \"#utility.yul\":2843:2960   */\n      iszero\n      tag_685\n      jumpi\n        /* \"#utility.yul\":2879:2958   */\n      tag_686\n      tag_551\n      jump\t// in\n    tag_686:\n        /* \"#utility.yul\":2843:2960   */\n    tag_685:\n        /* \"#utility.yul\":2984:3047   */\n      tag_687\n        /* \"#utility.yul\":3039:3046   */\n      dup5\n        /* \"#utility.yul\":3030:3036   */\n      dup3\n        /* \"#utility.yul\":3019:3028   */\n      dup6\n        /* \"#utility.yul\":3015:3037   */\n      add\n        /* \"#utility.yul\":2984:3047   */\n      tag_561\n      jump\t// in\n    tag_687:\n        /* \"#utility.yul\":2974:3047   */\n      swap2\n      pop\n        /* \"#utility.yul\":2770:3057   */\n      pop\n        /* \"#utility.yul\":2555:3064   */\n      swap3\n      swap2\n      pop\n      pop\n      jump\t// out\n        /* \"#utility.yul\":3070:3147   */\n    tag_562:\n        /* \"#utility.yul\":3107:3114   */\n      0x00\n        /* \"#utility.yul\":3136:3141   */\n      dup2\n        /* \"#utility.yul\":3125:3141   */\n      swap1\n      pop\n        /* \"#utility.yul\":3070:3147   */\n      swap2\n      swap1\n      pop\n      jump\t// out\n        /* \"#utility.yul\":3153:3271   */\n    tag_563:\n        /* \"#utility.yul\":3240:3264   */\n      tag_690\n        /* \"#utility.yul\":3258:3263   */\n      dup2\n        /* \"#utility.yul\":3240:3264   */\n      tag_562\n      jump\t// in\n    tag_690:\n        /* \"#utility.yul\":3235:3238   */\n      dup3\n        /* \"#utility.yul\":3228:3265   */\n      mstore\n        /* \"#utility.yul\":3153:3271   */\n      pop\n      pop\n      jump\t// out\n        /* \"#utility.yul\":3277:3499   */\n    tag_60:\n        /* \"#utility.yul\":3370:3374   */\n      0x00\n        /* \"#utility.yul\":3408:3410   */\n      0x20\n        /* \"#utility.yul\":3397:3406   */\n      dup3\n        /* \"#utility.yul\":3393:3411   */\n      add\n        /* \"#utility.yul\":3385:3411   */\n      swap1\n      pop\n        /* \"#utility.yul\":3421:3492   */\n      tag_692\n        /* \"#utility.yul\":3489:3490   */\n      0x00\n        /* \"#utility.yul\":3478:3487   */\n      dup4\n        /* \"#utility.yul\":3474:3491   */\n      add\n        /* \"#utility.yul\":3465:3471   */\n      dup5\n        /* \"#utility.yul\":3421:3492   */\n      tag_563\n      jump\t// in\n    tag_692:\n        /* \"#utility.yul\":3277:3499   */\n      swap3\n      swap2\n      pop\n      pop\n      jump\t// out\n        /* \"#utility.yul\":3505:3627   */\n    tag_564:\n        /* \"#utility.yul\":3578:3602   */\n      tag_694\n        /* \"#utility.yul\":3596:3601   */\n      dup2\n        /* \"#utility.yul\":3578:3602   */\n      tag_562\n      jump\t// in\n    tag_694:\n        /* \"#utility.yul\":3571:3576   */\n      dup2\n        /* \"#utility.yul\":3568:3603   */\n      eq\n        /* \"#utility.yul\":3558:3621   */\n      tag_695\n      jumpi\n        /* \"#utility.yul\":3617:3618   */\n      0x00\n        /* \"#utility.yul\":3614:3615   */\n      0x00\n        /* \"#utility.yul\":3607:3619   */\n      revert\n        /* \"#utility.yul\":3558:3621   */\n    tag_695:\n        /* \"#utility.yul\":3505:3627   */\n      pop\n      jump\t// out\n        /* \"#utility.yul\":3633:3772   */\n    tag_565:\n        /* \"#utility.yul\":3679:3684   */\n      0x00\n        /* \"#utility.yul\":3717:3723   */\n      dup2\n        /* \"#utility.yul\":3704:3724   */\n      calldataload\n        /* \"#utility.yul\":3695:3724   */\n      swap1\n      pop\n        /* \"#utility.yul\":3733:3766   */\n      tag_697\n        /* \"#utility.yul\":3760:3765   */\n      dup2\n        /* \"#utility.yul\":3733:3766   */\n      tag_564\n      jump\t// in\n    tag_697:\n        /* \"#utility.yul\":3633:3772   */\n      swap3\n      swap2\n      pop\n      pop\n      jump\t// out\n        /* \"#utility.yul\":3778:4107   */\n    tag_63:\n        /* \"#utility.yul\":3837:3843   */\n      0x00\n        /* \"#utility.yul\":3886:3888   */\n      0x20\n        /* \"#utility.yul\":3874:3883   */\n      dup3\n        /* \"#utility.yul\":3865:3872   */\n      dup5\n        /* \"#utility.yul\":3861:3884   */\n      sub\n        /* \"#utility.yul\":3857:3889   */\n      slt\n        /* \"#utility.yul\":3854:3973   */\n      iszero\n      tag_699\n      jumpi\n        /* \"#utility.yul\":3892:3971   */\n      tag_700\n      tag_550\n      jump\t// in\n    tag_700:\n        /* \"#utility.yul\":3854:3973   */\n    tag_699:\n        /* \"#utility.yul\":4012:4013   */\n      0x00\n        /* \"#utility.yul\":4037:4090   */\n      tag_701\n        /* \"#utility.yul\":4082:4089   */\n      dup5\n        /* \"#utility.yul\":4073:4079   */\n      dup3\n        /* \"#utility.yul\":4062:4071   */\n      dup6\n        /* \"#utility.yul\":4058:4080   */\n      add\n        /* \"#utility.yul\":4037:4090   */\n      tag_565\n      jump\t// in\n    tag_701:\n        /* \"#utility.yul\":4027:4090   */\n      swap2\n      pop\n        /* \"#utility.yul\":3983:4100   */\n      pop\n        /* \"#utility.yul\":3778:4107   */\n      swap3\n      swap2\n      pop\n      pop\n      jump\t// out\n        /* \"#utility.yul\":4113:4212   */\n    tag_566:\n        /* \"#utility.yul\":4165:4171   */\n      0x00\n        /* \"#utility.yul\":4199:4204   */\n      dup2\n        /* \"#utility.yul\":4193:4205   */\n      mload\n        /* \"#utility.yul\":4183:4205   */\n      swap1\n      pop\n        /* \"#utility.yul\":4113:4212   */\n      swap2\n      swap1\n      pop\n      jump\t// out\n        /* \"#utility.yul\":4218:4387   */\n    tag_567:\n        /* \"#utility.yul\":4302:4313   */\n      0x00\n        /* \"#utility.yul\":4336:4342   */\n      dup3\n        /* \"#utility.yul\":4331:4334   */\n      dup3\n        /* \"#utility.yul\":4324:4343   */\n      mstore\n        /* \"#utility.yul\":4376:4380   */\n      0x20\n        /* \"#utility.yul\":4371:4374   */\n      dup3\n        /* \"#utility.yul\":4367:4381   */\n      add\n        /* \"#utility.yul\":4352:4381   */\n      swap1\n      pop\n        /* \"#utility.yul\":4218:4387   */\n      swap3\n      swap2\n      pop\n      pop\n      jump\t// out\n        /* \"#utility.yul\":4393:4532   */\n    tag_568:\n        /* \"#utility.yul\":4482:4488   */\n      dup3\n        /* \"#utility.yul\":4477:4480   */\n      dup2\n        /* \"#utility.yul\":4472:4475   */\n      dup4\n        /* \"#utility.yul\":4466:4489   */\n      mcopy\n        /* \"#utility.yul\":4523:4524   */\n      0x00\n        /* \"#utility.yul\":4514:4520   */\n      dup4\n        /* \"#utility.yul\":4509:4512   */\n      dup4\n        /* \"#utility.yul\":4505:4521   */\n      add\n        /* \"#utility.yul\":4498:4525   */\n      mstore\n        /* \"#utility.yul\":4393:4532   */\n      pop\n      pop\n      pop\n      jump\t// out\n        /* \"#utility.yul\":4538:4915   */\n    tag_569:\n        /* \"#utility.yul\":4626:4629   */\n      0x00\n        /* \"#utility.yul\":4654:4693   */\n      tag_706\n        /* \"#utility.yul\":4687:4692   */\n      dup3\n        /* \"#utility.yul\":4654:4693   */\n      tag_566\n      jump\t// in\n    tag_706:\n        /* \"#utility.yul\":4709:4780   */\n      tag_707\n        /* \"#utility.yul\":4773:4779   */\n      dup2\n        /* \"#utility.yul\":4768:4771   */\n      dup6\n        /* \"#utility.yul\":4709:4780   */\n      tag_567\n      jump\t// in\n    tag_707:\n        /* \"#utility.yul\":4702:4780   */\n      swap4\n      pop\n        /* \"#utility.yul\":4789:4854   */\n      tag_708\n        /* \"#utility.yul\":4847:4853   */\n      dup2\n        /* \"#utility.yul\":4842:4845   */\n      dup6\n        /* \"#utility.yul\":4835:4839   */\n      0x20\n        /* \"#utility.yul\":4828:4833   */\n      dup7\n        /* \"#utility.yul\":4824:4840   */\n      add\n        /* \"#utility.yul\":4789:4854   */\n      tag_568\n      jump\t// in\n    tag_708:\n        /* \"#utility.yul\":4879:4908   */\n      tag_709\n        /* \"#utility.yul\":4901:4907   */\n      dup2\n        /* \"#utility.yul\":4879:4908   */\n      tag_554\n      jump\t// in\n    tag_709:\n        /* \"#utility.yul\":4874:4877   */\n      dup5\n        /* \"#utility.yul\":4870:4909   */\n      add\n        /* \"#utility.yul\":4863:4909   */\n      swap2\n      pop\n        /* \"#utility.yul\":4630:4915   */\n      pop\n        /* \"#utility.yul\":4538:4915   */\n      swap3\n      swap2\n      pop\n      pop\n      jump\t// out\n        /* \"#utility.yul\":4921:5101   */\n    tag_257:\n        /* \"#utility.yul\":4969:5046   */\n      0x4e487b7100000000000000000000000000000000000000000000000000000000\n        /* \"#utility.yul\":4966:4967   */\n      0x00\n        /* \"#utility.yul\":4959:5047   */\n      mstore\n        /* \"#utility.yul\":5066:5070   */\n      0x21\n        /* \"#utility.yul\":5063:5064   */\n      0x04\n        /* \"#utility.yul\":5056:5071   */\n      mstore\n        /* \"#utility.yul\":5090:5094   */\n      0x24\n        /* \"#utility.yul\":5087:5088   */\n      0x00\n        /* \"#utility.yul\":5080:5095   */\n      revert\n        /* \"#utility.yul\":5107:5226   */\n    tag_570:\n        /* \"#utility.yul\":5194:5195   */\n      0x04\n        /* \"#utility.yul\":5187:5192   */\n      dup2\n        /* \"#utility.yul\":5184:5196   */\n      lt\n        /* \"#utility.yul\":5174:5220   */\n      tag_712\n      jumpi\n        /* \"#utility.yul\":5200:5218   */\n      tag_713\n      tag_257\n      jump\t// in\n    tag_713:\n        /* \"#utility.yul\":5174:5220   */\n    tag_712:\n        /* \"#utility.yul\":5107:5226   */\n      pop\n      jump\t// out\n        /* \"#utility.yul\":5232:5371   */\n    tag_571:\n        /* \"#utility.yul\":5283:5290   */\n      0x00\n        /* \"#utility.yul\":5312:5317   */\n      dup2\n        /* \"#utility.yul\":5301:5317   */\n      swap1\n      pop\n        /* \"#utility.yul\":5318:5365   */\n      tag_715\n        /* \"#utility.yul\":5359:5364   */\n      dup3\n        /* \"#utility.yul\":5318:5365   */\n      tag_570\n      jump\t// in\n    tag_715:\n        /* \"#utility.yul\":5232:5371   */\n      swap2\n      swap1\n      pop\n      jump\t// out\n        /* \"#utility.yul\":5377:5516   */\n    tag_572:\n        /* \"#utility.yul\":5439:5448   */\n      0x00\n        /* \"#utility.yul\":5472:5510   */\n      tag_717\n        /* \"#utility.yul\":5504:5509   */\n      dup3\n        /* \"#utility.yul\":5472:5510   */\n      tag_571\n      jump\t// in\n    tag_717:\n        /* \"#utility.yul\":5459:5510   */\n      swap1\n      pop\n        /* \"#utility.yul\":5377:5516   */\n      swap2\n      swap1\n      pop\n      jump\t// out\n        /* \"#utility.yul\":5522:5677   */\n    tag_573:\n        /* \"#utility.yul\":5621:5670   */\n      tag_719\n        /* \"#utility.yul\":5664:5669   */\n      dup2\n        /* \"#utility.yul\":5621:5670   */\n      tag_572\n      jump\t// in\n    tag_719:\n        /* \"#utility.yul\":5616:5619   */\n      dup3\n        /* \"#utility.yul\":5609:5671   */\n      mstore\n        /* \"#utility.yul\":5522:5677   */\n      pop\n      pop\n      jump\t// out\n        /* \"#utility.yul\":5683:5773   */\n    tag_574:\n        /* \"#utility.yul\":5717:5724   */\n      0x00\n        /* \"#utility.yul\":5760:5765   */\n      dup2\n        /* \"#utility.yul\":5753:5766   */\n      iszero\n        /* \"#utility.yul\":5746:5767   */\n      iszero\n        /* \"#utility.yul\":5735:5767   */\n      swap1\n      pop\n        /* \"#utility.yul\":5683:5773   */\n      swap2\n      swap1\n      pop\n      jump\t// out\n        /* \"#utility.yul\":5779:5888   */\n    tag_575:\n        /* \"#utility.yul\":5860:5881   */\n      tag_722\n        /* \"#utility.yul\":5875:5880   */\n      dup2\n        /* \"#utility.yul\":5860:5881   */\n      tag_574\n      jump\t// in\n    tag_722:\n        /* \"#utility.yul\":5855:5858   */\n      dup3\n        /* \"#utility.yul\":5848:5882   */\n      mstore\n        /* \"#utility.yul\":5779:5888   */\n      pop\n      pop\n      jump\t// out\n        /* \"#utility.yul\":5894:7176   */\n    tag_66:\n        /* \"#utility.yul\":6249:6253   */\n      0x00\n        /* \"#utility.yul\":6287:6290   */\n      0x0100\n        /* \"#utility.yul\":6276:6285   */\n      dup3\n        /* \"#utility.yul\":6272:6291   */\n      add\n        /* \"#utility.yul\":6264:6291   */\n      swap1\n      pop\n        /* \"#utility.yul\":6301:6372   */\n      tag_724\n        /* \"#utility.yul\":6369:6370   */\n      0x00\n        /* \"#utility.yul\":6358:6367   */\n      dup4\n        /* \"#utility.yul\":6354:6371   */\n      add\n        /* \"#utility.yul\":6345:6351   */\n      dup12\n        /* \"#utility.yul\":6301:6372   */\n      tag_563\n      jump\t// in\n    tag_724:\n        /* \"#utility.yul\":6419:6428   */\n      dup2\n        /* \"#utility.yul\":6413:6417   */\n      dup2\n        /* \"#utility.yul\":6409:6429   */\n      sub\n        /* \"#utility.yul\":6404:6406   */\n      0x20\n        /* \"#utility.yul\":6393:6402   */\n      dup4\n        /* \"#utility.yul\":6389:6407   */\n      add\n        /* \"#utility.yul\":6382:6430   */\n      mstore\n        /* \"#utility.yul\":6447:6525   */\n      tag_725\n        /* \"#utility.yul\":6520:6524   */\n      dup2\n        /* \"#utility.yul\":6511:6517   */\n      dup11\n        /* \"#utility.yul\":6447:6525   */\n      tag_569\n      jump\t// in\n    tag_725:\n        /* \"#utility.yul\":6439:6525   */\n      swap1\n      pop\n        /* \"#utility.yul\":6572:6581   */\n      dup2\n        /* \"#utility.yul\":6566:6570   */\n      dup2\n        /* \"#utility.yul\":6562:6582   */\n      sub\n        /* \"#utility.yul\":6557:6559   */\n      0x40\n        /* \"#utility.yul\":6546:6555   */\n      dup4\n        /* \"#utility.yul\":6542:6560   */\n      add\n        /* \"#utility.yul\":6535:6583   */\n      mstore\n        /* \"#utility.yul\":6600:6678   */\n      tag_726\n        /* \"#utility.yul\":6673:6677   */\n      dup2\n        /* \"#utility.yul\":6664:6670   */\n      dup10\n        /* \"#utility.yul\":6600:6678   */\n      tag_569\n      jump\t// in\n    tag_726:\n        /* \"#utility.yul\":6592:6678   */\n      swap1\n      pop\n        /* \"#utility.yul\":6688:6772   */\n      tag_727\n        /* \"#utility.yul\":6768:6770   */\n      0x60\n        /* \"#utility.yul\":6757:6766   */\n      dup4\n        /* \"#utility.yul\":6753:6771   */\n      add\n        /* \"#utility.yul\":6744:6750   */\n      dup9\n        /* \"#utility.yul\":6688:6772   */\n      tag_573\n      jump\t// in\n    tag_727:\n        /* \"#utility.yul\":6782:6855   */\n      tag_728\n        /* \"#utility.yul\":6850:6853   */\n      0x80\n        /* \"#utility.yul\":6839:6848   */\n      dup4\n        /* \"#utility.yul\":6835:6854   */\n      add\n        /* \"#utility.yul\":6826:6832   */\n      dup8\n        /* \"#utility.yul\":6782:6855   */\n      tag_563\n      jump\t// in\n    tag_728:\n        /* \"#utility.yul\":6903:6912   */\n      dup2\n        /* \"#utility.yul\":6897:6901   */\n      dup2\n        /* \"#utility.yul\":6893:6913   */\n      sub\n        /* \"#utility.yul\":6887:6890   */\n      0xa0\n        /* \"#utility.yul\":6876:6885   */\n      dup4\n        /* \"#utility.yul\":6872:6891   */\n      add\n        /* \"#utility.yul\":6865:6914   */\n      mstore\n        /* \"#utility.yul\":6931:7009   */\n      tag_729\n        /* \"#utility.yul\":7004:7008   */\n      dup2\n        /* \"#utility.yul\":6995:7001   */\n      dup7\n        /* \"#utility.yul\":6931:7009   */\n      tag_569\n      jump\t// in\n    tag_729:\n        /* \"#utility.yul\":6923:7009   */\n      swap1\n      pop\n        /* \"#utility.yul\":7019:7086   */\n      tag_730\n        /* \"#utility.yul\":7081:7084   */\n      0xc0\n        /* \"#utility.yul\":7070:7079   */\n      dup4\n        /* \"#utility.yul\":7066:7085   */\n      add\n        /* \"#utility.yul\":7057:7063   */\n      dup6\n        /* \"#utility.yul\":7019:7086   */\n      tag_575\n      jump\t// in\n    tag_730:\n        /* \"#utility.yul\":7096:7169   */\n      tag_731\n        /* \"#utility.yul\":7164:7167   */\n      0xe0\n        /* \"#utility.yul\":7153:7162   */\n      dup4\n        /* \"#utility.yul\":7149:7168   */\n      add\n        /* \"#utility.yul\":7140:7146   */\n      dup5\n        /* \"#utility.yul\":7096:7169   */\n      tag_563\n      jump\t// in\n    tag_731:\n        /* \"#utility.yul\":5894:7176   */\n      swap10\n      swap9\n      pop\n      pop\n      pop\n      pop\n      pop\n      pop\n      pop\n      pop\n      pop\n      jump\t// out\n        /* \"#utility.yul\":7182:7392   */\n    tag_71:\n        /* \"#utility.yul\":7269:7273   */\n      0x00\n        /* \"#utility.yul\":7307:7309   */\n      0x20\n        /* \"#utility.yul\":7296:7305   */\n      dup3\n        /* \"#utility.yul\":7292:7310   */\n      add\n        /* \"#utility.yul\":7284:7310   */\n      swap1\n      pop\n        /* \"#utility.yul\":7320:7385   */\n      tag_733\n        /* \"#utility.yul\":7382:7383   */\n      0x00\n        /* \"#utility.yul\":7371:7380   */\n      dup4\n        /* \"#utility.yul\":7367:7384   */\n      add\n        /* \"#utility.yul\":7358:7364   */\n      dup5\n        /* \"#utility.yul\":7320:7385   */\n      tag_575\n      jump\t// in\n    tag_733:\n        /* \"#utility.yul\":7182:7392   */\n      swap3\n      swap2\n      pop\n      pop\n      jump\t// out\n        /* \"#utility.yul\":7398:7524   */\n    tag_576:\n        /* \"#utility.yul\":7435:7442   */\n      0x00\n        /* \"#utility.yul\":7475:7517   */\n      0xffffffffffffffffffffffffffffffffffffffff\n        /* \"#utility.yul\":7468:7473   */\n      dup3\n        /* \"#utility.yul\":7464:7518   */\n      and\n        /* \"#utility.yul\":7453:7518   */\n      swap1\n      pop\n        /* \"#utility.yul\":7398:7524   */\n      swap2\n      swap1\n      pop\n      jump\t// out\n        /* \"#utility.yul\":7530:7626   */\n    tag_577:\n        /* \"#utility.yul\":7567:7574   */\n      0x00\n        /* \"#utility.yul\":7596:7620   */\n      tag_736\n        /* \"#utility.yul\":7614:7619   */\n      dup3\n        /* \"#utility.yul\":7596:7620   */\n      tag_576\n      jump\t// in\n    tag_736:\n        /* \"#utility.yul\":7585:7620   */\n      swap1\n      pop\n        /* \"#utility.yul\":7530:7626   */\n      swap2\n      swap1\n      pop\n      jump\t// out\n        /* \"#utility.yul\":7632:7754   */\n    tag_578:\n        /* \"#utility.yul\":7705:7729   */\n      tag_738\n        /* \"#utility.yul\":7723:7728   */\n      dup2\n        /* \"#utility.yul\":7705:7729   */\n      tag_577\n      jump\t// in\n    tag_738:\n        /* \"#utility.yul\":7698:7703   */\n      dup2\n        /* \"#utility.yul\":7695:7730   */\n      eq\n        /* \"#utility.yul\":7685:7748   */\n      tag_739\n      jumpi\n        /* \"#utility.yul\":7744:7745   */\n      0x00\n        /* \"#utility.yul\":7741:7742   */\n      0x00\n        /* \"#utility.yul\":7734:7746   */\n      revert\n        /* \"#utility.yul\":7685:7748   */\n    tag_739:\n        /* \"#utility.yul\":7632:7754   */\n      pop\n      jump\t// out\n        /* \"#utility.yul\":7760:7899   */\n    tag_579:\n        /* \"#utility.yul\":7806:7811   */\n      0x00\n        /* \"#utility.yul\":7844:7850   */\n      dup2\n        /* \"#utility.yul\":7831:7851   */\n      calldataload\n        /* \"#utility.yul\":7822:7851   */\n      swap1\n      pop\n        /* \"#utility.yul\":7860:7893   */\n      tag_741\n        /* \"#utility.yul\":7887:7892   */\n      dup2\n        /* \"#utility.yul\":7860:7893   */\n      tag_578\n      jump\t// in\n    tag_741:\n        /* \"#utility.yul\":7760:7899   */\n      swap3\n      swap2\n      pop\n      pop\n      jump\t// out\n        /* \"#utility.yul\":7905:8234   */\n    tag_74:\n        /* \"#utility.yul\":7964:7970   */\n      0x00\n        /* \"#utility.yul\":8013:8015   */\n      0x20\n        /* \"#utility.yul\":8001:8010   */\n      dup3\n        /* \"#utility.yul\":7992:7999   */\n      dup5\n        /* \"#utility.yul\":7988:8011   */\n      sub\n        /* \"#utility.yul\":7984:8016   */\n      slt\n        /* \"#utility.yul\":7981:8100   */\n      iszero\n      tag_743\n      jumpi\n        /* \"#utility.yul\":8019:8098   */\n      tag_744\n      tag_550\n      jump\t// in\n    tag_744:\n        /* \"#utility.yul\":7981:8100   */\n    tag_743:\n        /* \"#utility.yul\":8139:8140   */\n      0x00\n        /* \"#utility.yul\":8164:8217   */\n      tag_745\n        /* \"#utility.yul\":8209:8216   */\n      dup5\n        /* \"#utility.yul\":8200:8206   */\n      dup3\n        /* \"#utility.yul\":8189:8198   */\n      dup6\n        /* \"#utility.yul\":8185:8207   */\n      add\n        /* \"#utility.yul\":8164:8217   */\n      tag_579\n      jump\t// in\n    tag_745:\n        /* \"#utility.yul\":8154:8217   */\n      swap2\n      pop\n        /* \"#utility.yul\":8110:8227   */\n      pop\n        /* \"#utility.yul\":7905:8234   */\n      swap3\n      swap2\n      pop\n      pop\n      jump\t// out\n        /* \"#utility.yul\":8240:8353   */\n    tag_580:\n        /* \"#utility.yul\":8327:8328   */\n      0x04\n        /* \"#utility.yul\":8320:8325   */\n      dup2\n        /* \"#utility.yul\":8317:8329   */\n      lt\n        /* \"#utility.yul\":8307:8347   */\n      tag_747\n      jumpi\n        /* \"#utility.yul\":8343:8344   */\n      0x00\n        /* \"#utility.yul\":8340:8341   */\n      0x00\n        /* \"#utility.yul\":8333:8345   */\n      revert\n        /* \"#utility.yul\":8307:8347   */\n    tag_747:\n        /* \"#utility.yul\":8240:8353   */\n      pop\n      jump\t// out\n        /* \"#utility.yul\":8359:8526   */\n    tag_581:\n        /* \"#utility.yul\":8419:8424   */\n      0x00\n        /* \"#utility.yul\":8457:8463   */\n      dup2\n        /* \"#utility.yul\":8444:8464   */\n      calldataload\n        /* \"#utility.yul\":8435:8464   */\n      swap1\n      pop\n        /* \"#utility.yul\":8473:8520   */\n      tag_749\n        /* \"#utility.yul\":8514:8519   */\n      dup2\n        /* \"#utility.yul\":8473:8520   */\n      tag_580\n      jump\t// in\n    tag_749:\n        /* \"#utility.yul\":8359:8526   */\n      swap3\n      swap2\n      pop\n      pop\n      jump\t// out\n        /* \"#utility.yul\":8532:8648   */\n    tag_582:\n        /* \"#utility.yul\":8602:8623   */\n      tag_751\n        /* \"#utility.yul\":8617:8622   */\n      dup2\n        /* \"#utility.yul\":8602:8623   */\n      tag_574\n      jump\t// in\n    tag_751:\n        /* \"#utility.yul\":8595:8600   */\n      dup2\n        /* \"#utility.yul\":8592:8624   */\n      eq\n        /* \"#utility.yul\":8582:8642   */\n      tag_752\n      jumpi\n        /* \"#utility.yul\":8638:8639   */\n      0x00\n        /* \"#utility.yul\":8635:8636   */\n      0x00\n        /* \"#utility.yul\":8628:8640   */\n      revert\n        /* \"#utility.yul\":8582:8642   */\n    tag_752:\n        /* \"#utility.yul\":8532:8648   */\n      pop\n      jump\t// out\n        /* \"#utility.yul\":8654:8787   */\n    tag_583:\n        /* \"#utility.yul\":8697:8702   */\n      0x00\n        /* \"#utility.yul\":8735:8741   */\n      dup2\n        /* \"#utility.yul\":8722:8742   */\n      calldataload\n        /* \"#utility.yul\":8713:8742   */\n      swap1\n      pop\n        /* \"#utility.yul\":8751:8781   */\n      tag_754\n        /* \"#utility.yul\":8775:8780   */\n      dup2\n        /* \"#utility.yul\":8751:8781   */\n      tag_582\n      jump\t// in\n    tag_754:\n        /* \"#utility.yul\":8654:8787   */\n      swap3\n      swap2\n      pop\n      pop\n      jump\t// out\n        /* \"#utility.yul\":8793:10266   */\n    tag_78:\n        /* \"#utility.yul\":8929:8935   */\n      0x00\n        /* \"#utility.yul\":8937:8943   */\n      0x00\n        /* \"#utility.yul\":8945:8951   */\n      0x00\n        /* \"#utility.yul\":8953:8959   */\n      0x00\n        /* \"#utility.yul\":8961:8967   */\n      0x00\n        /* \"#utility.yul\":9010:9013   */\n      0xa0\n        /* \"#utility.yul\":8998:9007   */\n      dup7\n        /* \"#utility.yul\":8989:8996   */\n      dup9\n        /* \"#utility.yul\":8985:9008   */\n      sub\n        /* \"#utility.yul\":8981:9014   */\n      slt\n        /* \"#utility.yul\":8978:9098   */\n      iszero\n      tag_756\n      jumpi\n        /* \"#utility.yul\":9017:9096   */\n      tag_757\n      tag_550\n      jump\t// in\n    tag_757:\n        /* \"#utility.yul\":8978:9098   */\n    tag_756:\n        /* \"#utility.yul\":9165:9166   */\n      0x00\n        /* \"#utility.yul\":9154:9163   */\n      dup7\n        /* \"#utility.yul\":9150:9167   */\n      add\n        /* \"#utility.yul\":9137:9168   */\n      calldataload\n        /* \"#utility.yul\":9195:9213   */\n      0xffffffffffffffff\n        /* \"#utility.yul\":9187:9193   */\n      dup2\n        /* \"#utility.yul\":9184:9214   */\n      gt\n        /* \"#utility.yul\":9181:9298   */\n      iszero\n      tag_758\n      jumpi\n        /* \"#utility.yul\":9217:9296   */\n      tag_759\n      tag_551\n      jump\t// in\n    tag_759:\n        /* \"#utility.yul\":9181:9298   */\n    tag_758:\n        /* \"#utility.yul\":9322:9385   */\n      tag_760\n        /* \"#utility.yul\":9377:9384   */\n      dup9\n        /* \"#utility.yul\":9368:9374   */\n      dup3\n        /* \"#utility.yul\":9357:9366   */\n      dup10\n        /* \"#utility.yul\":9353:9375   */\n      add\n        /* \"#utility.yul\":9322:9385   */\n      tag_561\n      jump\t// in\n    tag_760:\n        /* \"#utility.yul\":9312:9385   */\n      swap6\n      pop\n        /* \"#utility.yul\":9108:9395   */\n      pop\n        /* \"#utility.yul\":9462:9464   */\n      0x20\n        /* \"#utility.yul\":9451:9460   */\n      dup7\n        /* \"#utility.yul\":9447:9465   */\n      add\n        /* \"#utility.yul\":9434:9466   */\n      calldataload\n        /* \"#utility.yul\":9493:9511   */\n      0xffffffffffffffff\n        /* \"#utility.yul\":9485:9491   */\n      dup2\n        /* \"#utility.yul\":9482:9512   */\n      gt\n        /* \"#utility.yul\":9479:9596   */\n      iszero\n      tag_761\n      jumpi\n        /* \"#utility.yul\":9515:9594   */\n      tag_762\n      tag_551\n      jump\t// in\n    tag_762:\n        /* \"#utility.yul\":9479:9596   */\n    tag_761:\n        /* \"#utility.yul\":9620:9683   */\n      tag_763\n        /* \"#utility.yul\":9675:9682   */\n      dup9\n        /* \"#utility.yul\":9666:9672   */\n      dup3\n        /* \"#utility.yul\":9655:9664   */\n      dup10\n        /* \"#utility.yul\":9651:9673   */\n      add\n        /* \"#utility.yul\":9620:9683   */\n      tag_561\n      jump\t// in\n    tag_763:\n        /* \"#utility.yul\":9610:9683   */\n      swap5\n      pop\n        /* \"#utility.yul\":9405:9693   */\n      pop\n        /* \"#utility.yul\":9732:9734   */\n      0x40\n        /* \"#utility.yul\":9758:9825   */\n      tag_764\n        /* \"#utility.yul\":9817:9824   */\n      dup9\n        /* \"#utility.yul\":9808:9814   */\n      dup3\n        /* \"#utility.yul\":9797:9806   */\n      dup10\n        /* \"#utility.yul\":9793:9815   */\n      add\n        /* \"#utility.yul\":9758:9825   */\n      tag_581\n      jump\t// in\n    tag_764:\n        /* \"#utility.yul\":9748:9825   */\n      swap4\n      pop\n        /* \"#utility.yul\":9703:9835   */\n      pop\n        /* \"#utility.yul\":9902:9904   */\n      0x60\n        /* \"#utility.yul\":9891:9900   */\n      dup7\n        /* \"#utility.yul\":9887:9905   */\n      add\n        /* \"#utility.yul\":9874:9906   */\n      calldataload\n        /* \"#utility.yul\":9933:9951   */\n      0xffffffffffffffff\n        /* \"#utility.yul\":9925:9931   */\n      dup2\n        /* \"#utility.yul\":9922:9952   */\n      gt\n        /* \"#utility.yul\":9919:10036   */\n      iszero\n      tag_765\n      jumpi\n        /* \"#utility.yul\":9955:10034   */\n      tag_766\n      tag_551\n      jump\t// in\n    tag_766:\n        /* \"#utility.yul\":9919:10036   */\n    tag_765:\n        /* \"#utility.yul\":10060:10123   */\n      tag_767\n        /* \"#utility.yul\":10115:10122   */\n      dup9\n        /* \"#utility.yul\":10106:10112   */\n      dup3\n        /* \"#utility.yul\":10095:10104   */\n      dup10\n        /* \"#utility.yul\":10091:10113   */\n      add\n        /* \"#utility.yul\":10060:10123   */\n      tag_561\n      jump\t// in\n    tag_767:\n        /* \"#utility.yul\":10050:10123   */\n      swap3\n      pop\n        /* \"#utility.yul\":9845:10133   */\n      pop\n        /* \"#utility.yul\":10172:10175   */\n      0x80\n        /* \"#utility.yul\":10199:10249   */\n      tag_768\n        /* \"#utility.yul\":10241:10248   */\n      dup9\n        /* \"#utility.yul\":10232:10238   */\n      dup3\n        /* \"#utility.yul\":10221:10230   */\n      dup10\n        /* \"#utility.yul\":10217:10239   */\n      add\n        /* \"#utility.yul\":10199:10249   */\n      tag_583\n      jump\t// in\n    tag_768:\n        /* \"#utility.yul\":10189:10249   */\n      swap2\n      pop\n        /* \"#utility.yul\":10143:10259   */\n      pop\n        /* \"#utility.yul\":8793:10266   */\n      swap3\n      swap6\n      pop\n      swap3\n      swap6\n      swap1\n      swap4\n      pop\n      jump\t// out\n        /* \"#utility.yul\":10272:10740   */\n    tag_90:\n        /* \"#utility.yul\":10337:10343   */\n      0x00\n        /* \"#utility.yul\":10345:10351   */\n      0x00\n        /* \"#utility.yul\":10394:10396   */\n      0x40\n        /* \"#utility.yul\":10382:10391   */\n      dup4\n        /* \"#utility.yul\":10373:10380   */\n      dup6\n        /* \"#utility.yul\":10369:10392   */\n      sub\n        /* \"#utility.yul\":10365:10397   */\n      slt\n        /* \"#utility.yul\":10362:10481   */\n      iszero\n      tag_770\n      jumpi\n        /* \"#utility.yul\":10400:10479   */\n      tag_771\n      tag_550\n      jump\t// in\n    tag_771:\n        /* \"#utility.yul\":10362:10481   */\n    tag_770:\n        /* \"#utility.yul\":10520:10521   */\n      0x00\n        /* \"#utility.yul\":10545:10598   */\n      tag_772\n        /* \"#utility.yul\":10590:10597   */\n      dup6\n        /* \"#utility.yul\":10581:10587   */\n      dup3\n        /* \"#utility.yul\":10570:10579   */\n      dup7\n        /* \"#utility.yul\":10566:10588   */\n      add\n        /* \"#utility.yul\":10545:10598   */\n      tag_565\n      jump\t// in\n    tag_772:\n        /* \"#utility.yul\":10535:10598   */\n      swap3\n      pop\n        /* \"#utility.yul\":10491:10608   */\n      pop\n        /* \"#utility.yul\":10647:10649   */\n      0x20\n        /* \"#utility.yul\":10673:10723   */\n      tag_773\n        /* \"#utility.yul\":10715:10722   */\n      dup6\n        /* \"#utility.yul\":10706:10712   */\n      dup3\n        /* \"#utility.yul\":10695:10704   */\n      dup7\n        /* \"#utility.yul\":10691:10713   */\n      add\n        /* \"#utility.yul\":10673:10723   */\n      tag_583\n      jump\t// in\n    tag_773:\n        /* \"#utility.yul\":10663:10723   */\n      swap2\n      pop\n        /* \"#utility.yul\":10618:10733   */\n      pop\n        /* \"#utility.yul\":10272:10740   */\n      swap3\n      pop\n      swap3\n      swap1\n      pop\n      jump\t// out\n        /* \"#utility.yul\":10746:11287   */\n    tag_96:\n        /* \"#utility.yul\":10917:10921   */\n      0x00\n        /* \"#utility.yul\":10955:10958   */\n      0x80\n        /* \"#utility.yul\":10944:10953   */\n      dup3\n        /* \"#utility.yul\":10940:10959   */\n      add\n        /* \"#utility.yul\":10932:10959   */\n      swap1\n      pop\n        /* \"#utility.yul\":10969:11040   */\n      tag_775\n        /* \"#utility.yul\":11037:11038   */\n      0x00\n        /* \"#utility.yul\":11026:11035   */\n      dup4\n        /* \"#utility.yul\":11022:11039   */\n      add\n        /* \"#utility.yul\":11013:11019   */\n      dup8\n        /* \"#utility.yul\":10969:11040   */\n      tag_563\n      jump\t// in\n    tag_775:\n        /* \"#utility.yul\":11050:11122   */\n      tag_776\n        /* \"#utility.yul\":11118:11120   */\n      0x20\n        /* \"#utility.yul\":11107:11116   */\n      dup4\n        /* \"#utility.yul\":11103:11121   */\n      add\n        /* \"#utility.yul\":11094:11100   */\n      dup7\n        /* \"#utility.yul\":11050:11122   */\n      tag_563\n      jump\t// in\n    tag_776:\n        /* \"#utility.yul\":11132:11204   */\n      tag_777\n        /* \"#utility.yul\":11200:11202   */\n      0x40\n        /* \"#utility.yul\":11189:11198   */\n      dup4\n        /* \"#utility.yul\":11185:11203   */\n      add\n        /* \"#utility.yul\":11176:11182   */\n      dup6\n        /* \"#utility.yul\":11132:11204   */\n      tag_563\n      jump\t// in\n    tag_777:\n        /* \"#utility.yul\":11214:11280   */\n      tag_778\n        /* \"#utility.yul\":11276:11278   */\n      0x60\n        /* \"#utility.yul\":11265:11274   */\n      dup4\n        /* \"#utility.yul\":11261:11279   */\n      add\n        /* \"#utility.yul\":11252:11258   */\n      dup5\n        /* \"#utility.yul\":11214:11280   */\n      tag_575\n      jump\t// in\n    tag_778:\n        /* \"#utility.yul\":10746:11287   */\n      swap6\n      swap5\n      pop\n      pop\n      pop\n      pop\n      pop\n      jump\t// out\n        /* \"#utility.yul\":11293:11401   */\n    tag_584:\n        /* \"#utility.yul\":11370:11394   */\n      tag_780\n        /* \"#utility.yul\":11388:11393   */\n      dup2\n        /* \"#utility.yul\":11370:11394   */\n      tag_562\n      jump\t// in\n    tag_780:\n        /* \"#utility.yul\":11365:11368   */\n      dup3\n        /* \"#utility.yul\":11358:11395   */\n      mstore\n        /* \"#utility.yul\":11293:11401   */\n      pop\n      pop\n      jump\t// out\n        /* \"#utility.yul\":11407:11566   */\n    tag_585:\n        /* \"#utility.yul\":11481:11492   */\n      0x00\n        /* \"#utility.yul\":11515:11521   */\n      dup3\n        /* \"#utility.yul\":11510:11513   */\n      dup3\n        /* \"#utility.yul\":11503:11522   */\n      mstore\n        /* \"#utility.yul\":11555:11559   */\n      0x20\n        /* \"#utility.yul\":11550:11553   */\n      dup3\n        /* \"#utility.yul\":11546:11560   */\n      add\n        /* \"#utility.yul\":11531:11560   */\n      swap1\n      pop\n        /* \"#utility.yul\":11407:11566   */\n      swap3\n      swap2\n      pop\n      pop\n      jump\t// out\n        /* \"#utility.yul\":11572:11929   */\n    tag_586:\n        /* \"#utility.yul\":11650:11653   */\n      0x00\n        /* \"#utility.yul\":11678:11717   */\n      tag_783\n        /* \"#utility.yul\":11711:11716   */\n      dup3\n        /* \"#utility.yul\":11678:11717   */\n      tag_566\n      jump\t// in\n    tag_783:\n        /* \"#utility.yul\":11733:11794   */\n      tag_784\n        /* \"#utility.yul\":11787:11793   */\n      dup2\n        /* \"#utility.yul\":11782:11785   */\n      dup6\n        /* \"#utility.yul\":11733:11794   */\n      tag_585\n      jump\t// in\n    tag_784:\n        /* \"#utility.yul\":11726:11794   */\n      swap4\n      pop\n        /* \"#utility.yul\":11803:11868   */\n      tag_785\n        /* \"#utility.yul\":11861:11867   */\n      dup2\n        /* \"#utility.yul\":11856:11859   */\n      dup6\n        /* \"#utility.yul\":11849:11853   */\n      0x20\n        /* \"#utility.yul\":11842:11847   */\n      dup7\n        /* \"#utility.yul\":11838:11854   */\n      add\n        /* \"#utility.yul\":11803:11868   */\n      tag_568\n      jump\t// in\n    tag_785:\n        /* \"#utility.yul\":11893:11922   */\n      tag_786\n        /* \"#utility.yul\":11915:11921   */\n      dup2\n        /* \"#utility.yul\":11893:11922   */\n      tag_554\n      jump\t// in\n    tag_786:\n        /* \"#utility.yul\":11888:11891   */\n      dup5\n        /* \"#utility.yul\":11884:11923   */\n      add\n        /* \"#utility.yul\":11877:11923   */\n      swap2\n      pop\n        /* \"#utility.yul\":11654:11929   */\n      pop\n        /* \"#utility.yul\":11572:11929   */\n      swap3\n      swap2\n      pop\n      pop\n      jump\t// out\n        /* \"#utility.yul\":11935:12080   */\n    tag_587:\n        /* \"#utility.yul\":12024:12073   */\n      tag_788\n        /* \"#utility.yul\":12067:12072   */\n      dup2\n        /* \"#utility.yul\":12024:12073   */\n      tag_572\n      jump\t// in\n    tag_788:\n        /* \"#utility.yul\":12019:12022   */\n      dup3\n        /* \"#utility.yul\":12012:12074   */\n      mstore\n        /* \"#utility.yul\":11935:12080   */\n      pop\n      pop\n      jump\t// out\n        /* \"#utility.yul\":12086:12185   */\n    tag_588:\n        /* \"#utility.yul\":12157:12178   */\n      tag_790\n        /* \"#utility.yul\":12172:12177   */\n      dup2\n        /* \"#utility.yul\":12157:12178   */\n      tag_574\n      jump\t// in\n    tag_790:\n        /* \"#utility.yul\":12152:12155   */\n      dup3\n        /* \"#utility.yul\":12145:12179   */\n      mstore\n        /* \"#utility.yul\":12086:12185   */\n      pop\n      pop\n      jump\t// out\n        /* \"#utility.yul\":12297:14137   */\n    tag_589:\n        /* \"#utility.yul\":12416:12419   */\n      0x00\n        /* \"#utility.yul\":12452:12458   */\n      0x0100\n        /* \"#utility.yul\":12447:12450   */\n      dup4\n        /* \"#utility.yul\":12443:12459   */\n      add\n        /* \"#utility.yul\":12539:12543   */\n      0x00\n        /* \"#utility.yul\":12532:12537   */\n      dup4\n        /* \"#utility.yul\":12528:12544   */\n      add\n        /* \"#utility.yul\":12522:12545   */\n      mload\n        /* \"#utility.yul\":12558:12621   */\n      tag_792\n        /* \"#utility.yul\":12615:12619   */\n      0x00\n        /* \"#utility.yul\":12610:12613   */\n      dup7\n        /* \"#utility.yul\":12606:12620   */\n      add\n        /* \"#utility.yul\":12592:12604   */\n      dup3\n        /* \"#utility.yul\":12558:12621   */\n      tag_584\n      jump\t// in\n    tag_792:\n        /* \"#utility.yul\":12469:12631   */\n      pop\n        /* \"#utility.yul\":12717:12721   */\n      0x20\n        /* \"#utility.yul\":12710:12715   */\n      dup4\n        /* \"#utility.yul\":12706:12722   */\n      add\n        /* \"#utility.yul\":12700:12723   */\n      mload\n        /* \"#utility.yul\":12770:12773   */\n      dup5\n        /* \"#utility.yul\":12764:12768   */\n      dup3\n        /* \"#utility.yul\":12760:12774   */\n      sub\n        /* \"#utility.yul\":12753:12757   */\n      0x20\n        /* \"#utility.yul\":12748:12751   */\n      dup7\n        /* \"#utility.yul\":12744:12758   */\n      add\n        /* \"#utility.yul\":12737:12775   */\n      mstore\n        /* \"#utility.yul\":12796:12869   */\n      tag_793\n        /* \"#utility.yul\":12864:12868   */\n      dup3\n        /* \"#utility.yul\":12850:12862   */\n      dup3\n        /* \"#utility.yul\":12796:12869   */\n      tag_586\n      jump\t// in\n    tag_793:\n        /* \"#utility.yul\":12788:12869   */\n      swap2\n      pop\n        /* \"#utility.yul\":12641:12880   */\n      pop\n        /* \"#utility.yul\":12968:12972   */\n      0x40\n        /* \"#utility.yul\":12961:12966   */\n      dup4\n        /* \"#utility.yul\":12957:12973   */\n      add\n        /* \"#utility.yul\":12951:12974   */\n      mload\n        /* \"#utility.yul\":13021:13024   */\n      dup5\n        /* \"#utility.yul\":13015:13019   */\n      dup3\n        /* \"#utility.yul\":13011:13025   */\n      sub\n        /* \"#utility.yul\":13004:13008   */\n      0x40\n        /* \"#utility.yul\":12999:13002   */\n      dup7\n        /* \"#utility.yul\":12995:13009   */\n      add\n        /* \"#utility.yul\":12988:13026   */\n      mstore\n        /* \"#utility.yul\":13047:13120   */\n      tag_794\n        /* \"#utility.yul\":13115:13119   */\n      dup3\n        /* \"#utility.yul\":13101:13113   */\n      dup3\n        /* \"#utility.yul\":13047:13120   */\n      tag_586\n      jump\t// in\n    tag_794:\n        /* \"#utility.yul\":13039:13120   */\n      swap2\n      pop\n        /* \"#utility.yul\":12890:13131   */\n      pop\n        /* \"#utility.yul\":13214:13218   */\n      0x60\n        /* \"#utility.yul\":13207:13212   */\n      dup4\n        /* \"#utility.yul\":13203:13219   */\n      add\n        /* \"#utility.yul\":13197:13220   */\n      mload\n        /* \"#utility.yul\":13233:13308   */\n      tag_795\n        /* \"#utility.yul\":13302:13306   */\n      0x60\n        /* \"#utility.yul\":13297:13300   */\n      dup7\n        /* \"#utility.yul\":13293:13307   */\n      add\n        /* \"#utility.yul\":13279:13291   */\n      dup3\n        /* \"#utility.yul\":13233:13308   */\n      tag_587\n      jump\t// in\n    tag_795:\n        /* \"#utility.yul\":13141:13318   */\n      pop\n        /* \"#utility.yul\":13405:13409   */\n      0x80\n        /* \"#utility.yul\":13398:13403   */\n      dup4\n        /* \"#utility.yul\":13394:13410   */\n      add\n        /* \"#utility.yul\":13388:13411   */\n      mload\n        /* \"#utility.yul\":13424:13487   */\n      tag_796\n        /* \"#utility.yul\":13481:13485   */\n      0x80\n        /* \"#utility.yul\":13476:13479   */\n      dup7\n        /* \"#utility.yul\":13472:13486   */\n      add\n        /* \"#utility.yul\":13458:13470   */\n      dup3\n        /* \"#utility.yul\":13424:13487   */\n      tag_584\n      jump\t// in\n    tag_796:\n        /* \"#utility.yul\":13328:13497   */\n      pop\n        /* \"#utility.yul\":13586:13590   */\n      0xa0\n        /* \"#utility.yul\":13579:13584   */\n      dup4\n        /* \"#utility.yul\":13575:13591   */\n      add\n        /* \"#utility.yul\":13569:13592   */\n      mload\n        /* \"#utility.yul\":13639:13642   */\n      dup5\n        /* \"#utility.yul\":13633:13637   */\n      dup3\n        /* \"#utility.yul\":13629:13643   */\n      sub\n        /* \"#utility.yul\":13622:13626   */\n      0xa0\n        /* \"#utility.yul\":13617:13620   */\n      dup7\n        /* \"#utility.yul\":13613:13627   */\n      add\n        /* \"#utility.yul\":13606:13644   */\n      mstore\n        /* \"#utility.yul\":13665:13738   */\n      tag_797\n        /* \"#utility.yul\":13733:13737   */\n      dup3\n        /* \"#utility.yul\":13719:13731   */\n      dup3\n        /* \"#utility.yul\":13665:13738   */\n      tag_586\n      jump\t// in\n    tag_797:\n        /* \"#utility.yul\":13657:13738   */\n      swap2\n      pop\n        /* \"#utility.yul\":13507:13749   */\n      pop\n        /* \"#utility.yul\":13836:13840   */\n      0xc0\n        /* \"#utility.yul\":13829:13834   */\n      dup4\n        /* \"#utility.yul\":13825:13841   */\n      add\n        /* \"#utility.yul\":13819:13842   */\n      mload\n        /* \"#utility.yul\":13855:13912   */\n      tag_798\n        /* \"#utility.yul\":13906:13910   */\n      0xc0\n        /* \"#utility.yul\":13901:13904   */\n      dup7\n        /* \"#utility.yul\":13897:13911   */\n      add\n        /* \"#utility.yul\":13883:13895   */\n      dup3\n        /* \"#utility.yul\":13855:13912   */\n      tag_588\n      jump\t// in\n    tag_798:\n        /* \"#utility.yul\":13759:13922   */\n      pop\n        /* \"#utility.yul\":14018:14022   */\n      0xe0\n        /* \"#utility.yul\":14011:14016   */\n      dup4\n        /* \"#utility.yul\":14007:14023   */\n      add\n        /* \"#utility.yul\":14001:14024   */\n      mload\n        /* \"#utility.yul\":14037:14100   */\n      tag_799\n        /* \"#utility.yul\":14094:14098   */\n      0xe0\n        /* \"#utility.yul\":14089:14092   */\n      dup7\n        /* \"#utility.yul\":14085:14099   */\n      add\n        /* \"#utility.yul\":14071:14083   */\n      dup3\n        /* \"#utility.yul\":14037:14100   */\n      tag_584\n      jump\t// in\n    tag_799:\n        /* \"#utility.yul\":13932:14110   */\n      pop\n        /* \"#utility.yul\":14127:14131   */\n      dup1\n        /* \"#utility.yul\":14120:14131   */\n      swap2\n      pop\n        /* \"#utility.yul\":12421:14137   */\n      pop\n        /* \"#utility.yul\":12297:14137   */\n      swap3\n      swap2\n      pop\n      pop\n      jump\t// out\n        /* \"#utility.yul\":14143:14516   */\n    tag_114:\n        /* \"#utility.yul\":14286:14290   */\n      0x00\n        /* \"#utility.yul\":14324:14326   */\n      0x20\n        /* \"#utility.yul\":14313:14322   */\n      dup3\n        /* \"#utility.yul\":14309:14327   */\n      add\n        /* \"#utility.yul\":14301:14327   */\n      swap1\n      pop\n        /* \"#utility.yul\":14373:14382   */\n      dup2\n        /* \"#utility.yul\":14367:14371   */\n      dup2\n        /* \"#utility.yul\":14363:14383   */\n      sub\n        /* \"#utility.yul\":14359:14360   */\n      0x00\n        /* \"#utility.yul\":14348:14357   */\n      dup4\n        /* \"#utility.yul\":14344:14361   */\n      add\n        /* \"#utility.yul\":14337:14384   */\n      mstore\n        /* \"#utility.yul\":14401:14509   */\n      tag_801\n        /* \"#utility.yul\":14504:14508   */\n      dup2\n        /* \"#utility.yul\":14495:14501   */\n      dup5\n        /* \"#utility.yul\":14401:14509   */\n      tag_589\n      jump\t// in\n    tag_801:\n        /* \"#utility.yul\":14393:14509   */\n      swap1\n      pop\n        /* \"#utility.yul\":14143:14516   */\n      swap3\n      swap2\n      pop\n      pop\n      jump\t// out\n        /* \"#utility.yul\":14522:14638   */\n    tag_590:\n        /* \"#utility.yul\":14606:14607   */\n      0x06\n        /* \"#utility.yul\":14599:14604   */\n      dup2\n        /* \"#utility.yul\":14596:14608   */\n      lt\n        /* \"#utility.yul\":14586:14632   */\n      tag_803\n      jumpi\n        /* \"#utility.yul\":14612:14630   */\n      tag_804\n      tag_257\n      jump\t// in\n    tag_804:\n        /* \"#utility.yul\":14586:14632   */\n    tag_803:\n        /* \"#utility.yul\":14522:14638   */\n      pop\n      jump\t// out\n        /* \"#utility.yul\":14644:14777   */\n    tag_591:\n        /* \"#utility.yul\":14692:14699   */\n      0x00\n        /* \"#utility.yul\":14721:14726   */\n      dup2\n        /* \"#utility.yul\":14710:14726   */\n      swap1\n      pop\n        /* \"#utility.yul\":14727:14771   */\n      tag_806\n        /* \"#utility.yul\":14765:14770   */\n      dup3\n        /* \"#utility.yul\":14727:14771   */\n      tag_590\n      jump\t// in\n    tag_806:\n        /* \"#utility.yul\":14644:14777   */\n      swap2\n      swap1\n      pop\n      jump\t// out\n        /* \"#utility.yul\":14783:14916   */\n    tag_592:\n        /* \"#utility.yul\":14842:14851   */\n      0x00\n        /* \"#utility.yul\":14875:14910   */\n      tag_808\n        /* \"#utility.yul\":14904:14909   */\n      dup3\n        /* \"#utility.yul\":14875:14910   */\n      tag_591\n      jump\t// in\n    tag_808:\n        /* \"#utility.yul\":14862:14910   */\n      swap1\n      pop\n        /* \"#utility.yul\":14783:14916   */\n      swap2\n      swap1\n      pop\n      jump\t// out\n        /* \"#utility.yul\":14922:15061   */\n    tag_593:\n        /* \"#utility.yul\":15008:15054   */\n      tag_810\n        /* \"#utility.yul\":15048:15053   */\n      dup2\n        /* \"#utility.yul\":15008:15054   */\n      tag_592\n      jump\t// in\n    tag_810:\n        /* \"#utility.yul\":15003:15006   */\n      dup3\n        /* \"#utility.yul\":14996:15055   */\n      mstore\n        /* \"#utility.yul\":14922:15061   */\n      pop\n      pop\n      jump\t// out\n        /* \"#utility.yul\":15067:15185   */\n    tag_594:\n        /* \"#utility.yul\":15153:15154   */\n      0x03\n        /* \"#utility.yul\":15146:15151   */\n      dup2\n        /* \"#utility.yul\":15143:15155   */\n      lt\n        /* \"#utility.yul\":15133:15179   */\n      tag_812\n      jumpi\n        /* \"#utility.yul\":15159:15177   */\n      tag_813\n      tag_257\n      jump\t// in\n    tag_813:\n        /* \"#utility.yul\":15133:15179   */\n    tag_812:\n        /* \"#utility.yul\":15067:15185   */\n      pop\n      jump\t// out\n        /* \"#utility.yul\":15191:15328   */\n    tag_595:\n        /* \"#utility.yul\":15241:15248   */\n      0x00\n        /* \"#utility.yul\":15270:15275   */\n      dup2\n        /* \"#utility.yul\":15259:15275   */\n      swap1\n      pop\n        /* \"#utility.yul\":15276:15322   */\n      tag_815\n        /* \"#utility.yul\":15316:15321   */\n      dup3\n        /* \"#utility.yul\":15276:15322   */\n      tag_594\n      jump\t// in\n    tag_815:\n        /* \"#utility.yul\":15191:15328   */\n      swap2\n      swap1\n      pop\n      jump\t// out\n        /* \"#utility.yul\":15334:15471   */\n    tag_596:\n        /* \"#utility.yul\":15395:15404   */\n      0x00\n        /* \"#utility.yul\":15428:15465   */\n      tag_817\n        /* \"#utility.yul\":15459:15464   */\n      dup3\n        /* \"#utility.yul\":15428:15465   */\n      tag_595\n      jump\t// in\n    tag_817:\n        /* \"#utility.yul\":15415:15465   */\n      swap1\n      pop\n        /* \"#utility.yul\":15334:15471   */\n      swap2\n      swap1\n      pop\n      jump\t// out\n        /* \"#utility.yul\":15477:15620   */\n    tag_597:\n        /* \"#utility.yul\":15565:15613   */\n      tag_819\n        /* \"#utility.yul\":15607:15612   */\n      dup2\n        /* \"#utility.yul\":15565:15613   */\n      tag_596\n      jump\t// in\n    tag_819:\n        /* \"#utility.yul\":15560:15563   */\n      dup3\n        /* \"#utility.yul\":15553:15614   */\n      mstore\n        /* \"#utility.yul\":15477:15620   */\n      pop\n      pop\n      jump\t// out\n        /* \"#utility.yul\":15626:15734   */\n    tag_598:\n        /* \"#utility.yul\":15703:15727   */\n      tag_821\n        /* \"#utility.yul\":15721:15726   */\n      dup2\n        /* \"#utility.yul\":15703:15727   */\n      tag_577\n      jump\t// in\n    tag_821:\n        /* \"#utility.yul\":15698:15701   */\n      dup3\n        /* \"#utility.yul\":15691:15728   */\n      mstore\n        /* \"#utility.yul\":15626:15734   */\n      pop\n      pop\n      jump\t// out\n        /* \"#utility.yul\":15852:18430   */\n    tag_599:\n        /* \"#utility.yul\":15977:15980   */\n      0x00\n        /* \"#utility.yul\":16013:16019   */\n      0x0180\n        /* \"#utility.yul\":16008:16011   */\n      dup4\n        /* \"#utility.yul\":16004:16020   */\n      add\n        /* \"#utility.yul\":16100:16104   */\n      0x00\n        /* \"#utility.yul\":16093:16098   */\n      dup4\n        /* \"#utility.yul\":16089:16105   */\n      add\n        /* \"#utility.yul\":16083:16106   */\n      mload\n        /* \"#utility.yul\":16119:16182   */\n      tag_823\n        /* \"#utility.yul\":16176:16180   */\n      0x00\n        /* \"#utility.yul\":16171:16174   */\n      dup7\n        /* \"#utility.yul\":16167:16181   */\n      add\n        /* \"#utility.yul\":16153:16165   */\n      dup3\n        /* \"#utility.yul\":16119:16182   */\n      tag_584\n      jump\t// in\n    tag_823:\n        /* \"#utility.yul\":16030:16192   */\n      pop\n        /* \"#utility.yul\":16274:16278   */\n      0x20\n        /* \"#utility.yul\":16267:16272   */\n      dup4\n        /* \"#utility.yul\":16263:16279   */\n      add\n        /* \"#utility.yul\":16257:16280   */\n      mload\n        /* \"#utility.yul\":16327:16330   */\n      dup5\n        /* \"#utility.yul\":16321:16325   */\n      dup3\n        /* \"#utility.yul\":16317:16331   */\n      sub\n        /* \"#utility.yul\":16310:16314   */\n      0x20\n        /* \"#utility.yul\":16305:16308   */\n      dup7\n        /* \"#utility.yul\":16301:16315   */\n      add\n        /* \"#utility.yul\":16294:16332   */\n      mstore\n        /* \"#utility.yul\":16353:16426   */\n      tag_824\n        /* \"#utility.yul\":16421:16425   */\n      dup3\n        /* \"#utility.yul\":16407:16419   */\n      dup3\n        /* \"#utility.yul\":16353:16426   */\n      tag_586\n      jump\t// in\n    tag_824:\n        /* \"#utility.yul\":16345:16426   */\n      swap2\n      pop\n        /* \"#utility.yul\":16202:16437   */\n      pop\n        /* \"#utility.yul\":16523:16527   */\n      0x40\n        /* \"#utility.yul\":16516:16521   */\n      dup4\n        /* \"#utility.yul\":16512:16528   */\n      add\n        /* \"#utility.yul\":16506:16529   */\n      mload\n        /* \"#utility.yul\":16576:16579   */\n      dup5\n        /* \"#utility.yul\":16570:16574   */\n      dup3\n        /* \"#utility.yul\":16566:16580   */\n      sub\n        /* \"#utility.yul\":16559:16563   */\n      0x40\n        /* \"#utility.yul\":16554:16557   */\n      dup7\n        /* \"#utility.yul\":16550:16564   */\n      add\n        /* \"#utility.yul\":16543:16581   */\n      mstore\n        /* \"#utility.yul\":16602:16675   */\n      tag_825\n        /* \"#utility.yul\":16670:16674   */\n      dup3\n        /* \"#utility.yul\":16656:16668   */\n      dup3\n        /* \"#utility.yul\":16602:16675   */\n      tag_586\n      jump\t// in\n    tag_825:\n        /* \"#utility.yul\":16594:16675   */\n      swap2\n      pop\n        /* \"#utility.yul\":16447:16686   */\n      pop\n        /* \"#utility.yul\":16777:16781   */\n      0x60\n        /* \"#utility.yul\":16770:16775   */\n      dup4\n        /* \"#utility.yul\":16766:16782   */\n      add\n        /* \"#utility.yul\":16760:16783   */\n      mload\n        /* \"#utility.yul\":16830:16833   */\n      dup5\n        /* \"#utility.yul\":16824:16828   */\n      dup3\n        /* \"#utility.yul\":16820:16834   */\n      sub\n        /* \"#utility.yul\":16813:16817   */\n      0x60\n        /* \"#utility.yul\":16808:16811   */\n      dup7\n        /* \"#utility.yul\":16804:16818   */\n      add\n        /* \"#utility.yul\":16797:16835   */\n      mstore\n        /* \"#utility.yul\":16856:16929   */\n      tag_826\n        /* \"#utility.yul\":16924:16928   */\n      dup3\n        /* \"#utility.yul\":16910:16922   */\n      dup3\n        /* \"#utility.yul\":16856:16929   */\n      tag_586\n      jump\t// in\n    tag_826:\n        /* \"#utility.yul\":16848:16929   */\n      swap2\n      pop\n        /* \"#utility.yul\":16696:16940   */\n      pop\n        /* \"#utility.yul\":17028:17032   */\n      0x80\n        /* \"#utility.yul\":17021:17026   */\n      dup4\n        /* \"#utility.yul\":17017:17033   */\n      add\n        /* \"#utility.yul\":17011:17034   */\n      mload\n        /* \"#utility.yul\":17047:17110   */\n      tag_827\n        /* \"#utility.yul\":17104:17108   */\n      0x80\n        /* \"#utility.yul\":17099:17102   */\n      dup7\n        /* \"#utility.yul\":17095:17109   */\n      add\n        /* \"#utility.yul\":17081:17093   */\n      dup3\n        /* \"#utility.yul\":17047:17110   */\n      tag_584\n      jump\t// in\n    tag_827:\n        /* \"#utility.yul\":16950:17120   */\n      pop\n        /* \"#utility.yul\":17213:17217   */\n      0xa0\n        /* \"#utility.yul\":17206:17211   */\n      dup4\n        /* \"#utility.yul\":17202:17218   */\n      add\n        /* \"#utility.yul\":17196:17219   */\n      mload\n        /* \"#utility.yul\":17232:17295   */\n      tag_828\n        /* \"#utility.yul\":17289:17293   */\n      0xa0\n        /* \"#utility.yul\":17284:17287   */\n      dup7\n        /* \"#utility.yul\":17280:17294   */\n      add\n        /* \"#utility.yul\":17266:17278   */\n      dup3\n        /* \"#utility.yul\":17232:17295   */\n      tag_584\n      jump\t// in\n    tag_828:\n        /* \"#utility.yul\":17130:17305   */\n      pop\n        /* \"#utility.yul\":17391:17395   */\n      0xc0\n        /* \"#utility.yul\":17384:17389   */\n      dup4\n        /* \"#utility.yul\":17380:17396   */\n      add\n        /* \"#utility.yul\":17374:17397   */\n      mload\n        /* \"#utility.yul\":17410:17482   */\n      tag_829\n        /* \"#utility.yul\":17476:17480   */\n      0xc0\n        /* \"#utility.yul\":17471:17474   */\n      dup7\n        /* \"#utility.yul\":17467:17481   */\n      add\n        /* \"#utility.yul\":17453:17465   */\n      dup3\n        /* \"#utility.yul\":17410:17482   */\n      tag_593\n      jump\t// in\n    tag_829:\n        /* \"#utility.yul\":17315:17492   */\n      pop\n        /* \"#utility.yul\":17576:17580   */\n      0xe0\n        /* \"#utility.yul\":17569:17574   */\n      dup4\n        /* \"#utility.yul\":17565:17581   */\n      add\n        /* \"#utility.yul\":17559:17582   */\n      mload\n        /* \"#utility.yul\":17595:17669   */\n      tag_830\n        /* \"#utility.yul\":17663:17667   */\n      0xe0\n        /* \"#utility.yul\":17658:17661   */\n      dup7\n        /* \"#utility.yul\":17654:17668   */\n      add\n        /* \"#utility.yul\":17640:17652   */\n      dup3\n        /* \"#utility.yul\":17595:17669   */\n      tag_597\n      jump\t// in\n    tag_830:\n        /* \"#utility.yul\":17502:17679   */\n      pop\n        /* \"#utility.yul\":17765:17771   */\n      0x0100\n        /* \"#utility.yul\":17758:17763   */\n      dup4\n        /* \"#utility.yul\":17754:17772   */\n      add\n        /* \"#utility.yul\":17748:17773   */\n      mload\n        /* \"#utility.yul\":17786:17845   */\n      tag_831\n        /* \"#utility.yul\":17837:17843   */\n      0x0100\n        /* \"#utility.yul\":17832:17835   */\n      dup7\n        /* \"#utility.yul\":17828:17844   */\n      add\n        /* \"#utility.yul\":17814:17826   */\n      dup3\n        /* \"#utility.yul\":17786:17845   */\n      tag_588\n      jump\t// in\n    tag_831:\n        /* \"#utility.yul\":17689:17855   */\n      pop\n        /* \"#utility.yul\":17941:17947   */\n      0x0120\n        /* \"#utility.yul\":17934:17939   */\n      dup4\n        /* \"#utility.yul\":17930:17948   */\n      add\n        /* \"#utility.yul\":17924:17949   */\n      mload\n        /* \"#utility.yul\":17962:18027   */\n      tag_832\n        /* \"#utility.yul\":18019:18025   */\n      0x0120\n        /* \"#utility.yul\":18014:18017   */\n      dup7\n        /* \"#utility.yul\":18010:18026   */\n      add\n        /* \"#utility.yul\":17996:18008   */\n      dup3\n        /* \"#utility.yul\":17962:18027   */\n      tag_584\n      jump\t// in\n    tag_832:\n        /* \"#utility.yul\":17865:18037   */\n      pop\n        /* \"#utility.yul\":18124:18130   */\n      0x0140\n        /* \"#utility.yul\":18117:18122   */\n      dup4\n        /* \"#utility.yul\":18113:18131   */\n      add\n        /* \"#utility.yul\":18107:18132   */\n      mload\n        /* \"#utility.yul\":18145:18210   */\n      tag_833\n        /* \"#utility.yul\":18202:18208   */\n      0x0140\n        /* \"#utility.yul\":18197:18200   */\n      dup7\n        /* \"#utility.yul\":18193:18209   */\n      add\n        /* \"#utility.yul\":18179:18191   */\n      dup3\n        /* \"#utility.yul\":18145:18210   */\n      tag_584\n      jump\t// in\n    tag_833:\n        /* \"#utility.yul\":18047:18220   */\n      pop\n        /* \"#utility.yul\":18307:18313   */\n      0x0160\n        /* \"#utility.yul\":18300:18305   */\n      dup4\n        /* \"#utility.yul\":18296:18314   */\n      add\n        /* \"#utility.yul\":18290:18315   */\n      mload\n        /* \"#utility.yul\":18328:18393   */\n      tag_834\n        /* \"#utility.yul\":18385:18391   */\n      0x0160\n        /* \"#utility.yul\":18380:18383   */\n      dup7\n        /* \"#utility.yul\":18376:18392   */\n      add\n        /* \"#utility.yul\":18362:18374   */\n      dup3\n        /* \"#utility.yul\":18328:18393   */\n      tag_598\n      jump\t// in\n    tag_834:\n        /* \"#utility.yul\":18230:18403   */\n      pop\n        /* \"#utility.yul\":18420:18424   */\n      dup1\n        /* \"#utility.yul\":18413:18424   */\n      swap2\n      pop\n        /* \"#utility.yul\":15982:18430   */\n      pop\n        /* \"#utility.yul\":15852:18430   */\n      swap3\n      swap2\n      pop\n      pop\n      jump\t// out\n        /* \"#utility.yul\":18436:18821   */\n    tag_119:\n        /* \"#utility.yul\":18585:18589   */\n      0x00\n        /* \"#utility.yul\":18623:18625   */\n      0x20\n        /* \"#utility.yul\":18612:18621   */\n      dup3\n        /* \"#utility.yul\":18608:18626   */\n      add\n        /* \"#utility.yul\":18600:18626   */\n      swap1\n      pop\n        /* \"#utility.yul\":18672:18681   */\n      dup2\n        /* \"#utility.yul\":18666:18670   */\n      dup2\n        /* \"#utility.yul\":18662:18682   */\n      sub\n        /* \"#utility.yul\":18658:18659   */\n      0x00\n        /* \"#utility.yul\":18647:18656   */\n      dup4\n        /* \"#utility.yul\":18643:18660   */\n      add\n        /* \"#utility.yul\":18636:18683   */\n      mstore\n        /* \"#utility.yul\":18700:18814   */\n      tag_836\n        /* \"#utility.yul\":18809:18813   */\n      dup2\n        /* \"#utility.yul\":18800:18806   */\n      dup5\n        /* \"#utility.yul\":18700:18814   */\n      tag_599\n      jump\t// in\n    tag_836:\n        /* \"#utility.yul\":18692:18814   */\n      swap1\n      pop\n        /* \"#utility.yul\":18436:18821   */\n      swap3\n      swap2\n      pop\n      pop\n      jump\t// out\n        /* \"#utility.yul\":18939:20030   */\n    tag_600:\n        /* \"#utility.yul\":19092:19096   */\n      0xa0\n        /* \"#utility.yul\":19087:19090   */\n      dup3\n        /* \"#utility.yul\":19083:19097   */\n      add\n        /* \"#utility.yul\":19194:19198   */\n      0x00\n        /* \"#utility.yul\":19187:19192   */\n      dup3\n        /* \"#utility.yul\":19183:19199   */\n      add\n        /* \"#utility.yul\":19177:19200   */\n      mload\n        /* \"#utility.yul\":19213:19276   */\n      tag_838\n        /* \"#utility.yul\":19270:19274   */\n      0x00\n        /* \"#utility.yul\":19265:19268   */\n      dup6\n        /* \"#utility.yul\":19261:19275   */\n      add\n        /* \"#utility.yul\":19247:19259   */\n      dup3\n        /* \"#utility.yul\":19213:19276   */\n      tag_584\n      jump\t// in\n    tag_838:\n        /* \"#utility.yul\":19107:19286   */\n      pop\n        /* \"#utility.yul\":19378:19382   */\n      0x20\n        /* \"#utility.yul\":19371:19376   */\n      dup3\n        /* \"#utility.yul\":19367:19383   */\n      add\n        /* \"#utility.yul\":19361:19384   */\n      mload\n        /* \"#utility.yul\":19397:19460   */\n      tag_839\n        /* \"#utility.yul\":19454:19458   */\n      0x20\n        /* \"#utility.yul\":19449:19452   */\n      dup6\n        /* \"#utility.yul\":19445:19459   */\n      add\n        /* \"#utility.yul\":19431:19443   */\n      dup3\n        /* \"#utility.yul\":19397:19460   */\n      tag_584\n      jump\t// in\n    tag_839:\n        /* \"#utility.yul\":19296:19470   */\n      pop\n        /* \"#utility.yul\":19563:19567   */\n      0x40\n        /* \"#utility.yul\":19556:19561   */\n      dup3\n        /* \"#utility.yul\":19552:19568   */\n      add\n        /* \"#utility.yul\":19546:19569   */\n      mload\n        /* \"#utility.yul\":19582:19645   */\n      tag_840\n        /* \"#utility.yul\":19639:19643   */\n      0x40\n        /* \"#utility.yul\":19634:19637   */\n      dup6\n        /* \"#utility.yul\":19630:19644   */\n      add\n        /* \"#utility.yul\":19616:19628   */\n      dup3\n        /* \"#utility.yul\":19582:19645   */\n      tag_584\n      jump\t// in\n    tag_840:\n        /* \"#utility.yul\":19480:19655   */\n      pop\n        /* \"#utility.yul\":19747:19751   */\n      0x60\n        /* \"#utility.yul\":19740:19745   */\n      dup3\n        /* \"#utility.yul\":19736:19752   */\n      add\n        /* \"#utility.yul\":19730:19753   */\n      mload\n        /* \"#utility.yul\":19766:19829   */\n      tag_841\n        /* \"#utility.yul\":19823:19827   */\n      0x60\n        /* \"#utility.yul\":19818:19821   */\n      dup6\n        /* \"#utility.yul\":19814:19828   */\n      add\n        /* \"#utility.yul\":19800:19812   */\n      dup3\n        /* \"#utility.yul\":19766:19829   */\n      tag_584\n      jump\t// in\n    tag_841:\n        /* \"#utility.yul\":19665:19839   */\n      pop\n        /* \"#utility.yul\":19931:19935   */\n      0x80\n        /* \"#utility.yul\":19924:19929   */\n      dup3\n        /* \"#utility.yul\":19920:19936   */\n      add\n        /* \"#utility.yul\":19914:19937   */\n      mload\n        /* \"#utility.yul\":19950:20013   */\n      tag_842\n        /* \"#utility.yul\":20007:20011   */\n      0x80\n        /* \"#utility.yul\":20002:20005   */\n      dup6\n        /* \"#utility.yul\":19998:20012   */\n      add\n        /* \"#utility.yul\":19984:19996   */\n      dup3\n        /* \"#utility.yul\":19950:20013   */\n      tag_584\n      jump\t// in\n    tag_842:\n        /* \"#utility.yul\":19849:20023   */\n      pop\n        /* \"#utility.yul\":19061:20030   */\n      pop\n        /* \"#utility.yul\":18939:20030   */\n      pop\n      pop\n      jump\t// out\n        /* \"#utility.yul\":20036:20371   */\n    tag_123:\n        /* \"#utility.yul\":20185:20189   */\n      0x00\n        /* \"#utility.yul\":20223:20226   */\n      0xa0\n        /* \"#utility.yul\":20212:20221   */\n      dup3\n        /* \"#utility.yul\":20208:20227   */\n      add\n        /* \"#utility.yul\":20200:20227   */\n      swap1\n      pop\n        /* \"#utility.yul\":20237:20364   */\n      tag_844\n        /* \"#utility.yul\":20361:20362   */\n      0x00\n        /* \"#utility.yul\":20350:20359   */\n      dup4\n        /* \"#utility.yul\":20346:20363   */\n      add\n        /* \"#utility.yul\":20337:20343   */\n      dup5\n        /* \"#utility.yul\":20237:20364   */\n      tag_600\n      jump\t// in\n    tag_844:\n        /* \"#utility.yul\":20036:20371   */\n      swap3\n      swap2\n      pop\n      pop\n      jump\t// out\n        /* \"#utility.yul\":20377:21017   */\n    tag_127:\n        /* \"#utility.yul\":20570:20574   */\n      0x00\n        /* \"#utility.yul\":20608:20611   */\n      0xa0\n        /* \"#utility.yul\":20597:20606   */\n      dup3\n        /* \"#utility.yul\":20593:20612   */\n      add\n        /* \"#utility.yul\":20585:20612   */\n      swap1\n      pop\n        /* \"#utility.yul\":20622:20687   */\n      tag_846\n        /* \"#utility.yul\":20684:20685   */\n      0x00\n        /* \"#utility.yul\":20673:20682   */\n      dup4\n        /* \"#utility.yul\":20669:20686   */\n      add\n        /* \"#utility.yul\":20660:20666   */\n      dup9\n        /* \"#utility.yul\":20622:20687   */\n      tag_575\n      jump\t// in\n    tag_846:\n        /* \"#utility.yul\":20697:20763   */\n      tag_847\n        /* \"#utility.yul\":20759:20761   */\n      0x20\n        /* \"#utility.yul\":20748:20757   */\n      dup4\n        /* \"#utility.yul\":20744:20762   */\n      add\n        /* \"#utility.yul\":20735:20741   */\n      dup8\n        /* \"#utility.yul\":20697:20763   */\n      tag_575\n      jump\t// in\n    tag_847:\n        /* \"#utility.yul\":20773:20845   */\n      tag_848\n        /* \"#utility.yul\":20841:20843   */\n      0x40\n        /* \"#utility.yul\":20830:20839   */\n      dup4\n        /* \"#utility.yul\":20826:20844   */\n      add\n        /* \"#utility.yul\":20817:20823   */\n      dup7\n        /* \"#utility.yul\":20773:20845   */\n      tag_563\n      jump\t// in\n    tag_848:\n        /* \"#utility.yul\":20855:20927   */\n      tag_849\n        /* \"#utility.yul\":20923:20925   */\n      0x60\n        /* \"#utility.yul\":20912:20921   */\n      dup4\n        /* \"#utility.yul\":20908:20926   */\n      add\n        /* \"#utility.yul\":20899:20905   */\n      dup6\n        /* \"#utility.yul\":20855:20927   */\n      tag_563\n      jump\t// in\n    tag_849:\n        /* \"#utility.yul\":20937:21010   */\n      tag_850\n        /* \"#utility.yul\":21005:21008   */\n      0x80\n        /* \"#utility.yul\":20994:21003   */\n      dup4\n        /* \"#utility.yul\":20990:21009   */\n      add\n        /* \"#utility.yul\":20981:20987   */\n      dup5\n        /* \"#utility.yul\":20937:21010   */\n      tag_563\n      jump\t// in\n    tag_850:\n        /* \"#utility.yul\":20377:21017   */\n      swap7\n      swap6\n      pop\n      pop\n      pop\n      pop\n      pop\n      pop\n      jump\t// out\n        /* \"#utility.yul\":21129:22016   */\n    tag_601:\n        /* \"#utility.yul\":21276:21280   */\n      0x80\n        /* \"#utility.yul\":21271:21274   */\n      dup3\n        /* \"#utility.yul\":21267:21281   */\n      add\n        /* \"#utility.yul\":21374:21378   */\n      0x00\n        /* \"#utility.yul\":21367:21372   */\n      dup3\n        /* \"#utility.yul\":21363:21379   */\n      add\n        /* \"#utility.yul\":21357:21380   */\n      mload\n        /* \"#utility.yul\":21393:21456   */\n      tag_852\n        /* \"#utility.yul\":21450:21454   */\n      0x00\n        /* \"#utility.yul\":21445:21448   */\n      dup6\n        /* \"#utility.yul\":21441:21455   */\n      add\n        /* \"#utility.yul\":21427:21439   */\n      dup3\n        /* \"#utility.yul\":21393:21456   */\n      tag_584\n      jump\t// in\n    tag_852:\n        /* \"#utility.yul\":21291:21466   */\n      pop\n        /* \"#utility.yul\":21558:21562   */\n      0x20\n        /* \"#utility.yul\":21551:21556   */\n      dup3\n        /* \"#utility.yul\":21547:21563   */\n      add\n        /* \"#utility.yul\":21541:21564   */\n      mload\n        /* \"#utility.yul\":21577:21640   */\n      tag_853\n        /* \"#utility.yul\":21634:21638   */\n      0x20\n        /* \"#utility.yul\":21629:21632   */\n      dup6\n        /* \"#utility.yul\":21625:21639   */\n      add\n        /* \"#utility.yul\":21611:21623   */\n      dup3\n        /* \"#utility.yul\":21577:21640   */\n      tag_584\n      jump\t// in\n    tag_853:\n        /* \"#utility.yul\":21476:21650   */\n      pop\n        /* \"#utility.yul\":21742:21746   */\n      0x40\n        /* \"#utility.yul\":21735:21740   */\n      dup3\n        /* \"#utility.yul\":21731:21747   */\n      add\n        /* \"#utility.yul\":21725:21748   */\n      mload\n        /* \"#utility.yul\":21761:21824   */\n      tag_854\n        /* \"#utility.yul\":21818:21822   */\n      0x40\n        /* \"#utility.yul\":21813:21816   */\n      dup6\n        /* \"#utility.yul\":21809:21823   */\n      add\n        /* \"#utility.yul\":21795:21807   */\n      dup3\n        /* \"#utility.yul\":21761:21824   */\n      tag_584\n      jump\t// in\n    tag_854:\n        /* \"#utility.yul\":21660:21834   */\n      pop\n        /* \"#utility.yul\":21923:21927   */\n      0x60\n        /* \"#utility.yul\":21916:21921   */\n      dup3\n        /* \"#utility.yul\":21912:21928   */\n      add\n        /* \"#utility.yul\":21906:21929   */\n      mload\n        /* \"#utility.yul\":21942:21999   */\n      tag_855\n        /* \"#utility.yul\":21993:21997   */\n      0x60\n        /* \"#utility.yul\":21988:21991   */\n      dup6\n        /* \"#utility.yul\":21984:21998   */\n      add\n        /* \"#utility.yul\":21970:21982   */\n      dup3\n        /* \"#utility.yul\":21942:21999   */\n      tag_588\n      jump\t// in\n    tag_855:\n        /* \"#utility.yul\":21844:22009   */\n      pop\n        /* \"#utility.yul\":21245:22016   */\n      pop\n        /* \"#utility.yul\":21129:22016   */\n      pop\n      pop\n      jump\t// out\n        /* \"#utility.yul\":22022:22345   */\n    tag_135:\n        /* \"#utility.yul\":22165:22169   */\n      0x00\n        /* \"#utility.yul\":22203:22206   */\n      0x80\n        /* \"#utility.yul\":22192:22201   */\n      dup3\n        /* \"#utility.yul\":22188:22207   */\n      add\n        /* \"#utility.yul\":22180:22207   */\n      swap1\n      pop\n        /* \"#utility.yul\":22217:22338   */\n      tag_857\n        /* \"#utility.yul\":22335:22336   */\n      0x00\n        /* \"#utility.yul\":22324:22333   */\n      dup4\n        /* \"#utility.yul\":22320:22337   */\n      add\n        /* \"#utility.yul\":22311:22317   */\n      dup5\n        /* \"#utility.yul\":22217:22338   */\n      tag_601\n      jump\t// in\n    tag_857:\n        /* \"#utility.yul\":22022:22345   */\n      swap3\n      swap2\n      pop\n      pop\n      jump\t// out\n        /* \"#utility.yul\":22351:22461   */\n    tag_602:\n        /* \"#utility.yul\":22435:22436   */\n      0x06\n        /* \"#utility.yul\":22428:22433   */\n      dup2\n        /* \"#utility.yul\":22425:22437   */\n      lt\n        /* \"#utility.yul\":22415:22455   */\n      tag_859\n      jumpi\n        /* \"#utility.yul\":22451:22452   */\n      0x00\n        /* \"#utility.yul\":22448:22449   */\n      0x00\n        /* \"#utility.yul\":22441:22453   */\n      revert\n        /* \"#utility.yul\":22415:22455   */\n    tag_859:\n        /* \"#utility.yul\":22351:22461   */\n      pop\n      jump\t// out\n        /* \"#utility.yul\":22467:22628   */\n    tag_603:\n        /* \"#utility.yul\":22524:22529   */\n      0x00\n        /* \"#utility.yul\":22562:22568   */\n      dup2\n        /* \"#utility.yul\":22549:22569   */\n      calldataload\n        /* \"#utility.yul\":22540:22569   */\n      swap1\n      pop\n        /* \"#utility.yul\":22578:22622   */\n      tag_861\n        /* \"#utility.yul\":22616:22621   */\n      dup2\n        /* \"#utility.yul\":22578:22622   */\n      tag_602\n      jump\t// in\n    tag_861:\n        /* \"#utility.yul\":22467:22628   */\n      swap3\n      swap2\n      pop\n      pop\n      jump\t// out\n        /* \"#utility.yul\":22634:22746   */\n    tag_604:\n        /* \"#utility.yul\":22720:22721   */\n      0x03\n        /* \"#utility.yul\":22713:22718   */\n      dup2\n        /* \"#utility.yul\":22710:22722   */\n      lt\n        /* \"#utility.yul\":22700:22740   */\n      tag_863\n      jumpi\n        /* \"#utility.yul\":22736:22737   */\n      0x00\n        /* \"#utility.yul\":22733:22734   */\n      0x00\n        /* \"#utility.yul\":22726:22738   */\n      revert\n        /* \"#utility.yul\":22700:22740   */\n    tag_863:\n        /* \"#utility.yul\":22634:22746   */\n      pop\n      jump\t// out\n        /* \"#utility.yul\":22752:22917   */\n    tag_605:\n        /* \"#utility.yul\":22811:22816   */\n      0x00\n        /* \"#utility.yul\":22849:22855   */\n      dup2\n        /* \"#utility.yul\":22836:22856   */\n      calldataload\n        /* \"#utility.yul\":22827:22856   */\n      swap1\n      pop\n        /* \"#utility.yul\":22865:22911   */\n      tag_865\n        /* \"#utility.yul\":22905:22910   */\n      dup2\n        /* \"#utility.yul\":22865:22911   */\n      tag_604\n      jump\t// in\n    tag_865:\n        /* \"#utility.yul\":22752:22917   */\n      swap3\n      swap2\n      pop\n      pop\n      jump\t// out\n        /* \"#utility.yul\":22923:24860   */\n    tag_141:\n        /* \"#utility.yul\":23099:23105   */\n      0x00\n        /* \"#utility.yul\":23107:23113   */\n      0x00\n        /* \"#utility.yul\":23115:23121   */\n      0x00\n        /* \"#utility.yul\":23123:23129   */\n      0x00\n        /* \"#utility.yul\":23131:23137   */\n      0x00\n        /* \"#utility.yul\":23139:23145   */\n      0x00\n        /* \"#utility.yul\":23147:23153   */\n      0x00\n        /* \"#utility.yul\":23155:23161   */\n      0x00\n        /* \"#utility.yul\":23204:23207   */\n      0x0100\n        /* \"#utility.yul\":23192:23201   */\n      dup10\n        /* \"#utility.yul\":23183:23190   */\n      dup12\n        /* \"#utility.yul\":23179:23202   */\n      sub\n        /* \"#utility.yul\":23175:23208   */\n      slt\n        /* \"#utility.yul\":23172:23292   */\n      iszero\n      tag_867\n      jumpi\n        /* \"#utility.yul\":23211:23290   */\n      tag_868\n      tag_550\n      jump\t// in\n    tag_868:\n        /* \"#utility.yul\":23172:23292   */\n    tag_867:\n        /* \"#utility.yul\":23359:23360   */\n      0x00\n        /* \"#utility.yul\":23348:23357   */\n      dup10\n        /* \"#utility.yul\":23344:23361   */\n      add\n        /* \"#utility.yul\":23331:23362   */\n      calldataload\n        /* \"#utility.yul\":23389:23407   */\n      0xffffffffffffffff\n        /* \"#utility.yul\":23381:23387   */\n      dup2\n        /* \"#utility.yul\":23378:23408   */\n      gt\n        /* \"#utility.yul\":23375:23492   */\n      iszero\n      tag_869\n      jumpi\n        /* \"#utility.yul\":23411:23490   */\n      tag_870\n      tag_551\n      jump\t// in\n    tag_870:\n        /* \"#utility.yul\":23375:23492   */\n    tag_869:\n        /* \"#utility.yul\":23516:23579   */\n      tag_871\n        /* \"#utility.yul\":23571:23578   */\n      dup12\n        /* \"#utility.yul\":23562:23568   */\n      dup3\n        /* \"#utility.yul\":23551:23560   */\n      dup13\n        /* \"#utility.yul\":23547:23569   */\n      add\n        /* \"#utility.yul\":23516:23579   */\n      tag_561\n      jump\t// in\n    tag_871:\n        /* \"#utility.yul\":23506:23579   */\n      swap9\n      pop\n        /* \"#utility.yul\":23302:23589   */\n      pop\n        /* \"#utility.yul\":23656:23658   */\n      0x20\n        /* \"#utility.yul\":23645:23654   */\n      dup10\n        /* \"#utility.yul\":23641:23659   */\n      add\n        /* \"#utility.yul\":23628:23660   */\n      calldataload\n        /* \"#utility.yul\":23687:23705   */\n      0xffffffffffffffff\n        /* \"#utility.yul\":23679:23685   */\n      dup2\n        /* \"#utility.yul\":23676:23706   */\n      gt\n        /* \"#utility.yul\":23673:23790   */\n      iszero\n      tag_872\n      jumpi\n        /* \"#utility.yul\":23709:23788   */\n      tag_873\n      tag_551\n      jump\t// in\n    tag_873:\n        /* \"#utility.yul\":23673:23790   */\n    tag_872:\n        /* \"#utility.yul\":23814:23877   */\n      tag_874\n        /* \"#utility.yul\":23869:23876   */\n      dup12\n        /* \"#utility.yul\":23860:23866   */\n      dup3\n        /* \"#utility.yul\":23849:23858   */\n      dup13\n        /* \"#utility.yul\":23845:23867   */\n      add\n        /* \"#utility.yul\":23814:23877   */\n      tag_561\n      jump\t// in\n    tag_874:\n        /* \"#utility.yul\":23804:23877   */\n      swap8\n      pop\n        /* \"#utility.yul\":23599:23887   */\n      pop\n        /* \"#utility.yul\":23954:23956   */\n      0x40\n        /* \"#utility.yul\":23943:23952   */\n      dup10\n        /* \"#utility.yul\":23939:23957   */\n      add\n        /* \"#utility.yul\":23926:23958   */\n      calldataload\n        /* \"#utility.yul\":23985:24003   */\n      0xffffffffffffffff\n        /* \"#utility.yul\":23977:23983   */\n      dup2\n        /* \"#utility.yul\":23974:24004   */\n      gt\n        /* \"#utility.yul\":23971:24088   */\n      iszero\n      tag_875\n      jumpi\n        /* \"#utility.yul\":24007:24086   */\n      tag_876\n      tag_551\n      jump\t// in\n    tag_876:\n        /* \"#utility.yul\":23971:24088   */\n    tag_875:\n        /* \"#utility.yul\":24112:24175   */\n      tag_877\n        /* \"#utility.yul\":24167:24174   */\n      dup12\n        /* \"#utility.yul\":24158:24164   */\n      dup3\n        /* \"#utility.yul\":24147:24156   */\n      dup13\n        /* \"#utility.yul\":24143:24165   */\n      add\n        /* \"#utility.yul\":24112:24175   */\n      tag_561\n      jump\t// in\n    tag_877:\n        /* \"#utility.yul\":24102:24175   */\n      swap7\n      pop\n        /* \"#utility.yul\":23897:24185   */\n      pop\n        /* \"#utility.yul\":24224:24226   */\n      0x60\n        /* \"#utility.yul\":24250:24303   */\n      tag_878\n        /* \"#utility.yul\":24295:24302   */\n      dup12\n        /* \"#utility.yul\":24286:24292   */\n      dup3\n        /* \"#utility.yul\":24275:24284   */\n      dup13\n        /* \"#utility.yul\":24271:24293   */\n      add\n        /* \"#utility.yul\":24250:24303   */\n      tag_565\n      jump\t// in\n    tag_878:\n        /* \"#utility.yul\":24240:24303   */\n      swap6\n      pop\n        /* \"#utility.yul\":24195:24313   */\n      pop\n        /* \"#utility.yul\":24352:24355   */\n      0x80\n        /* \"#utility.yul\":24379:24432   */\n      tag_879\n        /* \"#utility.yul\":24424:24431   */\n      dup12\n        /* \"#utility.yul\":24415:24421   */\n      dup3\n        /* \"#utility.yul\":24404:24413   */\n      dup13\n        /* \"#utility.yul\":24400:24422   */\n      add\n        /* \"#utility.yul\":24379:24432   */\n      tag_565\n      jump\t// in\n    tag_879:\n        /* \"#utility.yul\":24369:24432   */\n      swap5\n      pop\n        /* \"#utility.yul\":24323:24442   */\n      pop\n        /* \"#utility.yul\":24481:24484   */\n      0xa0\n        /* \"#utility.yul\":24508:24572   */\n      tag_880\n        /* \"#utility.yul\":24564:24571   */\n      dup12\n        /* \"#utility.yul\":24555:24561   */\n      dup3\n        /* \"#utility.yul\":24544:24553   */\n      dup13\n        /* \"#utility.yul\":24540:24562   */\n      add\n        /* \"#utility.yul\":24508:24572   */\n      tag_603\n      jump\t// in\n    tag_880:\n        /* \"#utility.yul\":24498:24572   */\n      swap4\n      pop\n        /* \"#utility.yul\":24452:24582   */\n      pop\n        /* \"#utility.yul\":24621:24624   */\n      0xc0\n        /* \"#utility.yul\":24648:24714   */\n      tag_881\n        /* \"#utility.yul\":24706:24713   */\n      dup12\n        /* \"#utility.yul\":24697:24703   */\n      dup3\n        /* \"#utility.yul\":24686:24695   */\n      dup13\n        /* \"#utility.yul\":24682:24704   */\n      add\n        /* \"#utility.yul\":24648:24714   */\n      tag_605\n      jump\t// in\n    tag_881:\n        /* \"#utility.yul\":24638:24714   */\n      swap3\n      pop\n        /* \"#utility.yul\":24592:24724   */\n      pop\n        /* \"#utility.yul\":24763:24766   */\n      0xe0\n        /* \"#utility.yul\":24790:24843   */\n      tag_882\n        /* \"#utility.yul\":24835:24842   */\n      dup12\n        /* \"#utility.yul\":24826:24832   */\n      dup3\n        /* \"#utility.yul\":24815:24824   */\n      dup13\n        /* \"#utility.yul\":24811:24833   */\n      add\n        /* \"#utility.yul\":24790:24843   */\n      tag_565\n      jump\t// in\n    tag_882:\n        /* \"#utility.yul\":24780:24843   */\n      swap2\n      pop\n        /* \"#utility.yul\":24734:24853   */\n      pop\n        /* \"#utility.yul\":22923:24860   */\n      swap3\n      swap6\n      swap9\n      pop\n      swap3\n      swap6\n      swap9\n      swap1\n      swap4\n      swap7\n      pop\n      jump\t// out\n        /* \"#utility.yul\":24866:24984   */\n    tag_606:\n        /* \"#utility.yul\":24953:24977   */\n      tag_884\n        /* \"#utility.yul\":24971:24976   */\n      dup2\n        /* \"#utility.yul\":24953:24977   */\n      tag_577\n      jump\t// in\n    tag_884:\n        /* \"#utility.yul\":24948:24951   */\n      dup3\n        /* \"#utility.yul\":24941:24978   */\n      mstore\n        /* \"#utility.yul\":24866:24984   */\n      pop\n      pop\n      jump\t// out\n        /* \"#utility.yul\":24990:25212   */\n    tag_168:\n        /* \"#utility.yul\":25083:25087   */\n      0x00\n        /* \"#utility.yul\":25121:25123   */\n      0x20\n        /* \"#utility.yul\":25110:25119   */\n      dup3\n        /* \"#utility.yul\":25106:25124   */\n      add\n        /* \"#utility.yul\":25098:25124   */\n      swap1\n      pop\n        /* \"#utility.yul\":25134:25205   */\n      tag_886\n        /* \"#utility.yul\":25202:25203   */\n      0x00\n        /* \"#utility.yul\":25191:25200   */\n      dup4\n        /* \"#utility.yul\":25187:25204   */\n      add\n        /* \"#utility.yul\":25178:25184   */\n      dup5\n        /* \"#utility.yul\":25134:25205   */\n      tag_606\n      jump\t// in\n    tag_886:\n        /* \"#utility.yul\":24990:25212   */\n      swap3\n      swap2\n      pop\n      pop\n      jump\t// out\n        /* \"#utility.yul\":25218:26365   */\n    tag_173:\n        /* \"#utility.yul\":25335:25341   */\n      0x00\n        /* \"#utility.yul\":25343:25349   */\n      0x00\n        /* \"#utility.yul\":25351:25357   */\n      0x00\n        /* \"#utility.yul\":25359:25365   */\n      0x00\n        /* \"#utility.yul\":25408:25411   */\n      0x80\n        /* \"#utility.yul\":25396:25405   */\n      dup6\n        /* \"#utility.yul\":25387:25394   */\n      dup8\n        /* \"#utility.yul\":25383:25406   */\n      sub\n        /* \"#utility.yul\":25379:25412   */\n      slt\n        /* \"#utility.yul\":25376:25496   */\n      iszero\n      tag_888\n      jumpi\n        /* \"#utility.yul\":25415:25494   */\n      tag_889\n      tag_550\n      jump\t// in\n    tag_889:\n        /* \"#utility.yul\":25376:25496   */\n    tag_888:\n        /* \"#utility.yul\":25563:25564   */\n      0x00\n        /* \"#utility.yul\":25552:25561   */\n      dup6\n        /* \"#utility.yul\":25548:25565   */\n      add\n        /* \"#utility.yul\":25535:25566   */\n      calldataload\n        /* \"#utility.yul\":25593:25611   */\n      0xffffffffffffffff\n        /* \"#utility.yul\":25585:25591   */\n      dup2\n        /* \"#utility.yul\":25582:25612   */\n      gt\n        /* \"#utility.yul\":25579:25696   */\n      iszero\n      tag_890\n      jumpi\n        /* \"#utility.yul\":25615:25694   */\n      tag_891\n      tag_551\n      jump\t// in\n    tag_891:\n        /* \"#utility.yul\":25579:25696   */\n    tag_890:\n        /* \"#utility.yul\":25720:25783   */\n      tag_892\n        /* \"#utility.yul\":25775:25782   */\n      dup8\n        /* \"#utility.yul\":25766:25772   */\n      dup3\n        /* \"#utility.yul\":25755:25764   */\n      dup9\n        /* \"#utility.yul\":25751:25773   */\n      add\n        /* \"#utility.yul\":25720:25783   */\n      tag_561\n      jump\t// in\n    tag_892:\n        /* \"#utility.yul\":25710:25783   */\n      swap5\n      pop\n        /* \"#utility.yul\":25506:25793   */\n      pop\n        /* \"#utility.yul\":25860:25862   */\n      0x20\n        /* \"#utility.yul\":25849:25858   */\n      dup6\n        /* \"#utility.yul\":25845:25863   */\n      add\n        /* \"#utility.yul\":25832:25864   */\n      calldataload\n        /* \"#utility.yul\":25891:25909   */\n      0xffffffffffffffff\n        /* \"#utility.yul\":25883:25889   */\n      dup2\n        /* \"#utility.yul\":25880:25910   */\n      gt\n        /* \"#utility.yul\":25877:25994   */\n      iszero\n      tag_893\n      jumpi\n        /* \"#utility.yul\":25913:25992   */\n      tag_894\n      tag_551\n      jump\t// in\n    tag_894:\n        /* \"#utility.yul\":25877:25994   */\n    tag_893:\n        /* \"#utility.yul\":26018:26081   */\n      tag_895\n        /* \"#utility.yul\":26073:26080   */\n      dup8\n        /* \"#utility.yul\":26064:26070   */\n      dup3\n        /* \"#utility.yul\":26053:26062   */\n      dup9\n        /* \"#utility.yul\":26049:26071   */\n      add\n        /* \"#utility.yul\":26018:26081   */\n      tag_561\n      jump\t// in\n    tag_895:\n        /* \"#utility.yul\":26008:26081   */\n      swap4\n      pop\n        /* \"#utility.yul\":25803:26091   */\n      pop\n        /* \"#utility.yul\":26130:26132   */\n      0x40\n        /* \"#utility.yul\":26156:26209   */\n      tag_896\n        /* \"#utility.yul\":26201:26208   */\n      dup8\n        /* \"#utility.yul\":26192:26198   */\n      dup3\n        /* \"#utility.yul\":26181:26190   */\n      dup9\n        /* \"#utility.yul\":26177:26199   */\n      add\n        /* \"#utility.yul\":26156:26209   */\n      tag_565\n      jump\t// in\n    tag_896:\n        /* \"#utility.yul\":26146:26209   */\n      swap3\n      pop\n        /* \"#utility.yul\":26101:26219   */\n      pop\n        /* \"#utility.yul\":26258:26260   */\n      0x60\n        /* \"#utility.yul\":26284:26348   */\n      tag_897\n        /* \"#utility.yul\":26340:26347   */\n      dup8\n        /* \"#utility.yul\":26331:26337   */\n      dup3\n        /* \"#utility.yul\":26320:26329   */\n      dup9\n        /* \"#utility.yul\":26316:26338   */\n      add\n        /* \"#utility.yul\":26284:26348   */\n      tag_603\n      jump\t// in\n    tag_897:\n        /* \"#utility.yul\":26274:26348   */\n      swap2\n      pop\n        /* \"#utility.yul\":26229:26358   */\n      pop\n        /* \"#utility.yul\":25218:26365   */\n      swap3\n      swap6\n      swap2\n      swap5\n      pop\n      swap3\n      pop\n      jump\t// out\n        /* \"#utility.yul\":26371:26520   */\n    tag_607:\n        /* \"#utility.yul\":26467:26513   */\n      tag_899\n        /* \"#utility.yul\":26507:26512   */\n      dup2\n        /* \"#utility.yul\":26467:26513   */\n      tag_592\n      jump\t// in\n    tag_899:\n        /* \"#utility.yul\":26462:26465   */\n      dup3\n        /* \"#utility.yul\":26455:26514   */\n      mstore\n        /* \"#utility.yul\":26371:26520   */\n      pop\n      pop\n      jump\t// out\n        /* \"#utility.yul\":26526:26679   */\n    tag_608:\n        /* \"#utility.yul\":26624:26672   */\n      tag_901\n        /* \"#utility.yul\":26666:26671   */\n      dup2\n        /* \"#utility.yul\":26624:26672   */\n      tag_596\n      jump\t// in\n    tag_901:\n        /* \"#utility.yul\":26619:26622   */\n      dup3\n        /* \"#utility.yul\":26612:26673   */\n      mstore\n        /* \"#utility.yul\":26526:26679   */\n      pop\n      pop\n      jump\t// out\n        /* \"#utility.yul\":26685:28431   */\n    tag_189:\n        /* \"#utility.yul\":27162:27166   */\n      0x00\n        /* \"#utility.yul\":27200:27203   */\n      0x0180\n        /* \"#utility.yul\":27189:27198   */\n      dup3\n        /* \"#utility.yul\":27185:27204   */\n      add\n        /* \"#utility.yul\":27177:27204   */\n      swap1\n      pop\n        /* \"#utility.yul\":27214:27285   */\n      tag_903\n        /* \"#utility.yul\":27282:27283   */\n      0x00\n        /* \"#utility.yul\":27271:27280   */\n      dup4\n        /* \"#utility.yul\":27267:27284   */\n      add\n        /* \"#utility.yul\":27258:27264   */\n      dup16\n        /* \"#utility.yul\":27214:27285   */\n      tag_563\n      jump\t// in\n    tag_903:\n        /* \"#utility.yul\":27332:27341   */\n      dup2\n        /* \"#utility.yul\":27326:27330   */\n      dup2\n        /* \"#utility.yul\":27322:27342   */\n      sub\n        /* \"#utility.yul\":27317:27319   */\n      0x20\n        /* \"#utility.yul\":27306:27315   */\n      dup4\n        /* \"#utility.yul\":27302:27320   */\n      add\n        /* \"#utility.yul\":27295:27343   */\n      mstore\n        /* \"#utility.yul\":27360:27438   */\n      tag_904\n        /* \"#utility.yul\":27433:27437   */\n      dup2\n        /* \"#utility.yul\":27424:27430   */\n      dup15\n        /* \"#utility.yul\":27360:27438   */\n      tag_569\n      jump\t// in\n    tag_904:\n        /* \"#utility.yul\":27352:27438   */\n      swap1\n      pop\n        /* \"#utility.yul\":27485:27494   */\n      dup2\n        /* \"#utility.yul\":27479:27483   */\n      dup2\n        /* \"#utility.yul\":27475:27495   */\n      sub\n        /* \"#utility.yul\":27470:27472   */\n      0x40\n        /* \"#utility.yul\":27459:27468   */\n      dup4\n        /* \"#utility.yul\":27455:27473   */\n      add\n        /* \"#utility.yul\":27448:27496   */\n      mstore\n        /* \"#utility.yul\":27513:27591   */\n      tag_905\n        /* \"#utility.yul\":27586:27590   */\n      dup2\n        /* \"#utility.yul\":27577:27583   */\n      dup14\n        /* \"#utility.yul\":27513:27591   */\n      tag_569\n      jump\t// in\n    tag_905:\n        /* \"#utility.yul\":27505:27591   */\n      swap1\n      pop\n        /* \"#utility.yul\":27638:27647   */\n      dup2\n        /* \"#utility.yul\":27632:27636   */\n      dup2\n        /* \"#utility.yul\":27628:27648   */\n      sub\n        /* \"#utility.yul\":27623:27625   */\n      0x60\n        /* \"#utility.yul\":27612:27621   */\n      dup4\n        /* \"#utility.yul\":27608:27626   */\n      add\n        /* \"#utility.yul\":27601:27649   */\n      mstore\n        /* \"#utility.yul\":27666:27744   */\n      tag_906\n        /* \"#utility.yul\":27739:27743   */\n      dup2\n        /* \"#utility.yul\":27730:27736   */\n      dup13\n        /* \"#utility.yul\":27666:27744   */\n      tag_569\n      jump\t// in\n    tag_906:\n        /* \"#utility.yul\":27658:27744   */\n      swap1\n      pop\n        /* \"#utility.yul\":27754:27827   */\n      tag_907\n        /* \"#utility.yul\":27822:27825   */\n      0x80\n        /* \"#utility.yul\":27811:27820   */\n      dup4\n        /* \"#utility.yul\":27807:27826   */\n      add\n        /* \"#utility.yul\":27798:27804   */\n      dup12\n        /* \"#utility.yul\":27754:27827   */\n      tag_563\n      jump\t// in\n    tag_907:\n        /* \"#utility.yul\":27837:27910   */\n      tag_908\n        /* \"#utility.yul\":27905:27908   */\n      0xa0\n        /* \"#utility.yul\":27894:27903   */\n      dup4\n        /* \"#utility.yul\":27890:27909   */\n      add\n        /* \"#utility.yul\":27881:27887   */\n      dup11\n        /* \"#utility.yul\":27837:27910   */\n      tag_563\n      jump\t// in\n    tag_908:\n        /* \"#utility.yul\":27920:28002   */\n      tag_909\n        /* \"#utility.yul\":27997:28000   */\n      0xc0\n        /* \"#utility.yul\":27986:27995   */\n      dup4\n        /* \"#utility.yul\":27982:28001   */\n      add\n        /* \"#utility.yul\":27973:27979   */\n      dup10\n        /* \"#utility.yul\":27920:28002   */\n      tag_607\n      jump\t// in\n    tag_909:\n        /* \"#utility.yul\":28012:28096   */\n      tag_910\n        /* \"#utility.yul\":28091:28094   */\n      0xe0\n        /* \"#utility.yul\":28080:28089   */\n      dup4\n        /* \"#utility.yul\":28076:28095   */\n      add\n        /* \"#utility.yul\":28067:28073   */\n      dup9\n        /* \"#utility.yul\":28012:28096   */\n      tag_608\n      jump\t// in\n    tag_910:\n        /* \"#utility.yul\":28106:28173   */\n      tag_911\n        /* \"#utility.yul\":28168:28171   */\n      0x0100\n        /* \"#utility.yul\":28157:28166   */\n      dup4\n        /* \"#utility.yul\":28153:28172   */\n      add\n        /* \"#utility.yul\":28144:28150   */\n      dup8\n        /* \"#utility.yul\":28106:28173   */\n      tag_575\n      jump\t// in\n    tag_911:\n        /* \"#utility.yul\":28183:28256   */\n      tag_912\n        /* \"#utility.yul\":28251:28254   */\n      0x0120\n        /* \"#utility.yul\":28240:28249   */\n      dup4\n        /* \"#utility.yul\":28236:28255   */\n      add\n        /* \"#utility.yul\":28227:28233   */\n      dup7\n        /* \"#utility.yul\":28183:28256   */\n      tag_563\n      jump\t// in\n    tag_912:\n        /* \"#utility.yul\":28266:28340   */\n      tag_913\n        /* \"#utility.yul\":28335:28338   */\n      0x0140\n        /* \"#utility.yul\":28324:28333   */\n      dup4\n        /* \"#utility.yul\":28320:28339   */\n      add\n        /* \"#utility.yul\":28310:28317   */\n      dup6\n        /* \"#utility.yul\":28266:28340   */\n      tag_563\n      jump\t// in\n    tag_913:\n        /* \"#utility.yul\":28350:28424   */\n      tag_914\n        /* \"#utility.yul\":28419:28422   */\n      0x0160\n        /* \"#utility.yul\":28408:28417   */\n      dup4\n        /* \"#utility.yul\":28404:28423   */\n      add\n        /* \"#utility.yul\":28394:28401   */\n      dup5\n        /* \"#utility.yul\":28350:28424   */\n      tag_606\n      jump\t// in\n    tag_914:\n        /* \"#utility.yul\":26685:28431   */\n      swap14\n      swap13\n      pop\n      pop\n      pop\n      pop\n      pop\n      pop\n      pop\n      pop\n      pop\n      pop\n      pop\n      pop\n      pop\n      jump\t// out\n        /* \"#utility.yul\":28437:29101   */\n    tag_201:\n        /* \"#utility.yul\":28642:28646   */\n      0x00\n        /* \"#utility.yul\":28680:28683   */\n      0xa0\n        /* \"#utility.yul\":28669:28678   */\n      dup3\n        /* \"#utility.yul\":28665:28684   */\n      add\n        /* \"#utility.yul\":28657:28684   */\n      swap1\n      pop\n        /* \"#utility.yul\":28694:28765   */\n      tag_916\n        /* \"#utility.yul\":28762:28763   */\n      0x00\n        /* \"#utility.yul\":28751:28760   */\n      dup4\n        /* \"#utility.yul\":28747:28764   */\n      add\n        /* \"#utility.yul\":28738:28744   */\n      dup9\n        /* \"#utility.yul\":28694:28765   */\n      tag_563\n      jump\t// in\n    tag_916:\n        /* \"#utility.yul\":28775:28847   */\n      tag_917\n        /* \"#utility.yul\":28843:28845   */\n      0x20\n        /* \"#utility.yul\":28832:28841   */\n      dup4\n        /* \"#utility.yul\":28828:28846   */\n      add\n        /* \"#utility.yul\":28819:28825   */\n      dup8\n        /* \"#utility.yul\":28775:28847   */\n      tag_563\n      jump\t// in\n    tag_917:\n        /* \"#utility.yul\":28857:28929   */\n      tag_918\n        /* \"#utility.yul\":28925:28927   */\n      0x40\n        /* \"#utility.yul\":28914:28923   */\n      dup4\n        /* \"#utility.yul\":28910:28928   */\n      add\n        /* \"#utility.yul\":28901:28907   */\n      dup7\n        /* \"#utility.yul\":28857:28929   */\n      tag_563\n      jump\t// in\n    tag_918:\n        /* \"#utility.yul\":28939:29011   */\n      tag_919\n        /* \"#utility.yul\":29007:29009   */\n      0x60\n        /* \"#utility.yul\":28996:29005   */\n      dup4\n        /* \"#utility.yul\":28992:29010   */\n      add\n        /* \"#utility.yul\":28983:28989   */\n      dup6\n        /* \"#utility.yul\":28939:29011   */\n      tag_563\n      jump\t// in\n    tag_919:\n        /* \"#utility.yul\":29021:29094   */\n      tag_920\n        /* \"#utility.yul\":29089:29092   */\n      0x80\n        /* \"#utility.yul\":29078:29087   */\n      dup4\n        /* \"#utility.yul\":29074:29093   */\n      add\n        /* \"#utility.yul\":29065:29071   */\n      dup5\n        /* \"#utility.yul\":29021:29094   */\n      tag_563\n      jump\t// in\n    tag_920:\n        /* \"#utility.yul\":28437:29101   */\n      swap7\n      swap6\n      pop\n      pop\n      pop\n      pop\n      pop\n      pop\n      jump\t// out\n        /* \"#utility.yul\":29107:29271   */\n    tag_609:\n        /* \"#utility.yul\":29247:29263   */\n      0x4e6f7420617574686f72697a6564000000000000000000000000000000000000\n        /* \"#utility.yul\":29243:29244   */\n      0x00\n        /* \"#utility.yul\":29235:29241   */\n      dup3\n        /* \"#utility.yul\":29231:29245   */\n      add\n        /* \"#utility.yul\":29224:29264   */\n      mstore\n        /* \"#utility.yul\":29107:29271   */\n      pop\n      jump\t// out\n        /* \"#utility.yul\":29277:29643   */\n    tag_610:\n        /* \"#utility.yul\":29419:29422   */\n      0x00\n        /* \"#utility.yul\":29440:29507   */\n      tag_923\n        /* \"#utility.yul\":29504:29506   */\n      0x0e\n        /* \"#utility.yul\":29499:29502   */\n      dup4\n        /* \"#utility.yul\":29440:29507   */\n      tag_567\n      jump\t// in\n    tag_923:\n        /* \"#utility.yul\":29433:29507   */\n      swap2\n      pop\n        /* \"#utility.yul\":29516:29609   */\n      tag_924\n        /* \"#utility.yul\":29605:29608   */\n      dup3\n        /* \"#utility.yul\":29516:29609   */\n      tag_609\n      jump\t// in\n    tag_924:\n        /* \"#utility.yul\":29634:29636   */\n      0x20\n        /* \"#utility.yul\":29629:29632   */\n      dup3\n        /* \"#utility.yul\":29625:29637   */\n      add\n        /* \"#utility.yul\":29618:29637   */\n      swap1\n      pop\n        /* \"#utility.yul\":29277:29643   */\n      swap2\n      swap1\n      pop\n      jump\t// out\n        /* \"#utility.yul\":29649:30068   */\n    tag_216:\n        /* \"#utility.yul\":29815:29819   */\n      0x00\n        /* \"#utility.yul\":29853:29855   */\n      0x20\n        /* \"#utility.yul\":29842:29851   */\n      dup3\n        /* \"#utility.yul\":29838:29856   */\n      add\n        /* \"#utility.yul\":29830:29856   */\n      swap1\n      pop\n        /* \"#utility.yul\":29902:29911   */\n      dup2\n        /* \"#utility.yul\":29896:29900   */\n      dup2\n        /* \"#utility.yul\":29892:29912   */\n      sub\n        /* \"#utility.yul\":29888:29889   */\n      0x00\n        /* \"#utility.yul\":29877:29886   */\n      dup4\n        /* \"#utility.yul\":29873:29890   */\n      add\n        /* \"#utility.yul\":29866:29913   */\n      mstore\n        /* \"#utility.yul\":29930:30061   */\n      tag_926\n        /* \"#utility.yul\":30056:30060   */\n      dup2\n        /* \"#utility.yul\":29930:30061   */\n      tag_610\n      jump\t// in\n    tag_926:\n        /* \"#utility.yul\":29922:30061   */\n      swap1\n      pop\n        /* \"#utility.yul\":29649:30068   */\n      swap2\n      swap1\n      pop\n      jump\t// out\n        /* \"#utility.yul\":30074:30222   */\n    tag_611:\n        /* \"#utility.yul\":30176:30187   */\n      0x00\n        /* \"#utility.yul\":30213:30216   */\n      dup2\n        /* \"#utility.yul\":30198:30216   */\n      swap1\n      pop\n        /* \"#utility.yul\":30074:30222   */\n      swap3\n      swap2\n      pop\n      pop\n      jump\t// out\n        /* \"#utility.yul\":30228:30618   */\n    tag_612:\n        /* \"#utility.yul\":30334:30337   */\n      0x00\n        /* \"#utility.yul\":30362:30401   */\n      tag_929\n        /* \"#utility.yul\":30395:30400   */\n      dup3\n        /* \"#utility.yul\":30362:30401   */\n      tag_566\n      jump\t// in\n    tag_929:\n        /* \"#utility.yul\":30417:30506   */\n      tag_930\n        /* \"#utility.yul\":30499:30505   */\n      dup2\n        /* \"#utility.yul\":30494:30497   */\n      dup6\n        /* \"#utility.yul\":30417:30506   */\n      tag_611\n      jump\t// in\n    tag_930:\n        /* \"#utility.yul\":30410:30506   */\n      swap4\n      pop\n        /* \"#utility.yul\":30515:30580   */\n      tag_931\n        /* \"#utility.yul\":30573:30579   */\n      dup2\n        /* \"#utility.yul\":30568:30571   */\n      dup6\n        /* \"#utility.yul\":30561:30565   */\n      0x20\n        /* \"#utility.yul\":30554:30559   */\n      dup7\n        /* \"#utility.yul\":30550:30566   */\n      add\n        /* \"#utility.yul\":30515:30580   */\n      tag_568\n      jump\t// in\n    tag_931:\n        /* \"#utility.yul\":30605:30611   */\n      dup1\n        /* \"#utility.yul\":30600:30603   */\n      dup5\n        /* \"#utility.yul\":30596:30612   */\n      add\n        /* \"#utility.yul\":30589:30612   */\n      swap2\n      pop\n        /* \"#utility.yul\":30338:30618   */\n      pop\n        /* \"#utility.yul\":30228:30618   */\n      swap3\n      swap2\n      pop\n      pop\n      jump\t// out\n        /* \"#utility.yul\":30624:30899   */\n    tag_219:\n        /* \"#utility.yul\":30756:30759   */\n      0x00\n        /* \"#utility.yul\":30778:30873   */\n      tag_933\n        /* \"#utility.yul\":30869:30872   */\n      dup3\n        /* \"#utility.yul\":30860:30866   */\n      dup5\n        /* \"#utility.yul\":30778:30873   */\n      tag_612\n      jump\t// in\n    tag_933:\n        /* \"#utility.yul\":30771:30873   */\n      swap2\n      pop\n        /* \"#utility.yul\":30890:30893   */\n      dup2\n        /* \"#utility.yul\":30883:30893   */\n      swap1\n      pop\n        /* \"#utility.yul\":30624:30899   */\n      swap3\n      swap2\n      pop\n      pop\n      jump\t// out\n        /* \"#utility.yul\":30905:31328   */\n    tag_221:\n        /* \"#utility.yul\":31046:31050   */\n      0x00\n        /* \"#utility.yul\":31084:31086   */\n      0x40\n        /* \"#utility.yul\":31073:31082   */\n      dup3\n        /* \"#utility.yul\":31069:31087   */\n      add\n        /* \"#utility.yul\":31061:31087   */\n      swap1\n      pop\n        /* \"#utility.yul\":31133:31142   */\n      dup2\n        /* \"#utility.yul\":31127:31131   */\n      dup2\n        /* \"#utility.yul\":31123:31143   */\n      sub\n        /* \"#utility.yul\":31119:31120   */\n      0x00\n        /* \"#utility.yul\":31108:31117   */\n      dup4\n        /* \"#utility.yul\":31104:31121   */\n      add\n        /* \"#utility.yul\":31097:31144   */\n      mstore\n        /* \"#utility.yul\":31161:31239   */\n      tag_935\n        /* \"#utility.yul\":31234:31238   */\n      dup2\n        /* \"#utility.yul\":31225:31231   */\n      dup6\n        /* \"#utility.yul\":31161:31239   */\n      tag_569\n      jump\t// in\n    tag_935:\n        /* \"#utility.yul\":31153:31239   */\n      swap1\n      pop\n        /* \"#utility.yul\":31249:31321   */\n      tag_936\n        /* \"#utility.yul\":31317:31319   */\n      0x20\n        /* \"#utility.yul\":31306:31315   */\n      dup4\n        /* \"#utility.yul\":31302:31320   */\n      add\n        /* \"#utility.yul\":31293:31299   */\n      dup5\n        /* \"#utility.yul\":31249:31321   */\n      tag_606\n      jump\t// in\n    tag_936:\n        /* \"#utility.yul\":30905:31328   */\n      swap4\n      swap3\n      pop\n      pop\n      pop\n      jump\t// out\n        /* \"#utility.yul\":31334:31514   */\n    tag_613:\n        /* \"#utility.yul\":31382:31459   */\n      0x4e487b7100000000000000000000000000000000000000000000000000000000\n        /* \"#utility.yul\":31379:31380   */\n      0x00\n        /* \"#utility.yul\":31372:31460   */\n      mstore\n        /* \"#utility.yul\":31479:31483   */\n      0x22\n        /* \"#utility.yul\":31476:31477   */\n      0x04\n        /* \"#utility.yul\":31469:31484   */\n      mstore\n        /* \"#utility.yul\":31503:31507   */\n      0x24\n        /* \"#utility.yul\":31500:31501   */\n      0x00\n        /* \"#utility.yul\":31493:31508   */\n      revert\n        /* \"#utility.yul\":31520:31840   */\n    tag_223:\n        /* \"#utility.yul\":31564:31570   */\n      0x00\n        /* \"#utility.yul\":31601:31602   */\n      0x02\n        /* \"#utility.yul\":31595:31599   */\n      dup3\n        /* \"#utility.yul\":31591:31603   */\n      div\n        /* \"#utility.yul\":31581:31603   */\n      swap1\n      pop\n        /* \"#utility.yul\":31648:31649   */\n      0x01\n        /* \"#utility.yul\":31642:31646   */\n      dup3\n        /* \"#utility.yul\":31638:31650   */\n      and\n        /* \"#utility.yul\":31669:31687   */\n      dup1\n        /* \"#utility.yul\":31659:31740   */\n      tag_939\n      jumpi\n        /* \"#utility.yul\":31725:31729   */\n      0x7f\n        /* \"#utility.yul\":31717:31723   */\n      dup3\n        /* \"#utility.yul\":31713:31730   */\n      and\n        /* \"#utility.yul\":31703:31730   */\n      swap2\n      pop\n        /* \"#utility.yul\":31659:31740   */\n    tag_939:\n        /* \"#utility.yul\":31787:31789   */\n      0x20\n        /* \"#utility.yul\":31779:31785   */\n      dup3\n        /* \"#utility.yul\":31776:31790   */\n      lt\n        /* \"#utility.yul\":31756:31774   */\n      dup2\n        /* \"#utility.yul\":31753:31791   */\n      sub\n        /* \"#utility.yul\":31750:31834   */\n      tag_940\n      jumpi\n        /* \"#utility.yul\":31806:31824   */\n      tag_941\n      tag_613\n      jump\t// in\n    tag_941:\n        /* \"#utility.yul\":31750:31834   */\n    tag_940:\n        /* \"#utility.yul\":31571:31840   */\n      pop\n        /* \"#utility.yul\":31520:31840   */\n      swap2\n      swap1\n      pop\n      jump\t// out\n        /* \"#utility.yul\":31846:32067   */\n    tag_614:\n        /* \"#utility.yul\":31986:32020   */\n      0x4f6e6c79206f776e65722063616e20706572666f726d20746869732061637469\n        /* \"#utility.yul\":31982:31983   */\n      0x00\n        /* \"#utility.yul\":31974:31980   */\n      dup3\n        /* \"#utility.yul\":31970:31984   */\n      add\n        /* \"#utility.yul\":31963:32021   */\n      mstore\n        /* \"#utility.yul\":32055:32059   */\n      0x6f6e000000000000000000000000000000000000000000000000000000000000\n        /* \"#utility.yul\":32050:32052   */\n      0x20\n        /* \"#utility.yul\":32042:32048   */\n      dup3\n        /* \"#utility.yul\":32038:32053   */\n      add\n        /* \"#utility.yul\":32031:32060   */\n      mstore\n        /* \"#utility.yul\":31846:32067   */\n      pop\n      jump\t// out\n        /* \"#utility.yul\":32073:32439   */\n    tag_615:\n        /* \"#utility.yul\":32215:32218   */\n      0x00\n        /* \"#utility.yul\":32236:32303   */\n      tag_944\n        /* \"#utility.yul\":32300:32302   */\n      0x22\n        /* \"#utility.yul\":32295:32298   */\n      dup4\n        /* \"#utility.yul\":32236:32303   */\n      tag_567\n      jump\t// in\n    tag_944:\n        /* \"#utility.yul\":32229:32303   */\n      swap2\n      pop\n        /* \"#utility.yul\":32312:32405   */\n      tag_945\n        /* \"#utility.yul\":32401:32404   */\n      dup3\n        /* \"#utility.yul\":32312:32405   */\n      tag_614\n      jump\t// in\n    tag_945:\n        /* \"#utility.yul\":32430:32432   */\n      0x40\n        /* \"#utility.yul\":32425:32428   */\n      dup3\n        /* \"#utility.yul\":32421:32433   */\n      add\n        /* \"#utility.yul\":32414:32433   */\n      swap1\n      pop\n        /* \"#utility.yul\":32073:32439   */\n      swap2\n      swap1\n      pop\n      jump\t// out\n        /* \"#utility.yul\":32445:32864   */\n    tag_243:\n        /* \"#utility.yul\":32611:32615   */\n      0x00\n        /* \"#utility.yul\":32649:32651   */\n      0x20\n        /* \"#utility.yul\":32638:32647   */\n      dup3\n        /* \"#utility.yul\":32634:32652   */\n      add\n        /* \"#utility.yul\":32626:32652   */\n      swap1\n      pop\n        /* \"#utility.yul\":32698:32707   */\n      dup2\n        /* \"#utility.yul\":32692:32696   */\n      dup2\n        /* \"#utility.yul\":32688:32708   */\n      sub\n        /* \"#utility.yul\":32684:32685   */\n      0x00\n        /* \"#utility.yul\":32673:32682   */\n      dup4\n        /* \"#utility.yul\":32669:32686   */\n      add\n        /* \"#utility.yul\":32662:32709   */\n      mstore\n        /* \"#utility.yul\":32726:32857   */\n      tag_947\n        /* \"#utility.yul\":32852:32856   */\n      dup2\n        /* \"#utility.yul\":32726:32857   */\n      tag_615\n      jump\t// in\n    tag_947:\n        /* \"#utility.yul\":32718:32857   */\n      swap1\n      pop\n        /* \"#utility.yul\":32445:32864   */\n      swap2\n      swap1\n      pop\n      jump\t// out\n        /* \"#utility.yul\":32870:33039   */\n    tag_616:\n        /* \"#utility.yul\":33010:33031   */\n      0x43616e6e6f742072656d6f7665206f776e657200000000000000000000000000\n        /* \"#utility.yul\":33006:33007   */\n      0x00\n        /* \"#utility.yul\":32998:33004   */\n      dup3\n        /* \"#utility.yul\":32994:33008   */\n      add\n        /* \"#utility.yul\":32987:33032   */\n      mstore\n        /* \"#utility.yul\":32870:33039   */\n      pop\n      jump\t// out\n        /* \"#utility.yul\":33045:33411   */\n    tag_617:\n        /* \"#utility.yul\":33187:33190   */\n      0x00\n        /* \"#utility.yul\":33208:33275   */\n      tag_950\n        /* \"#utility.yul\":33272:33274   */\n      0x13\n        /* \"#utility.yul\":33267:33270   */\n      dup4\n        /* \"#utility.yul\":33208:33275   */\n      tag_567\n      jump\t// in\n    tag_950:\n        /* \"#utility.yul\":33201:33275   */\n      swap2\n      pop\n        /* \"#utility.yul\":33284:33377   */\n      tag_951\n        /* \"#utility.yul\":33373:33376   */\n      dup3\n        /* \"#utility.yul\":33284:33377   */\n      tag_616\n      jump\t// in\n    tag_951:\n        /* \"#utility.yul\":33402:33404   */\n      0x20\n        /* \"#utility.yul\":33397:33400   */\n      dup3\n        /* \"#utility.yul\":33393:33405   */\n      add\n        /* \"#utility.yul\":33386:33405   */\n      swap1\n      pop\n        /* \"#utility.yul\":33045:33411   */\n      swap2\n      swap1\n      pop\n      jump\t// out\n        /* \"#utility.yul\":33417:33836   */\n    tag_247:\n        /* \"#utility.yul\":33583:33587   */\n      0x00\n        /* \"#utility.yul\":33621:33623   */\n      0x20\n        /* \"#utility.yul\":33610:33619   */\n      dup3\n        /* \"#utility.yul\":33606:33624   */\n      add\n        /* \"#utility.yul\":33598:33624   */\n      swap1\n      pop\n        /* \"#utility.yul\":33670:33679   */\n      dup2\n        /* \"#utility.yul\":33664:33668   */\n      dup2\n        /* \"#utility.yul\":33660:33680   */\n      sub\n        /* \"#utility.yul\":33656:33657   */\n      0x00\n        /* \"#utility.yul\":33645:33654   */\n      dup4\n        /* \"#utility.yul\":33641:33658   */\n      add\n        /* \"#utility.yul\":33634:33681   */\n      mstore\n        /* \"#utility.yul\":33698:33829   */\n      tag_953\n        /* \"#utility.yul\":33824:33828   */\n      dup2\n        /* \"#utility.yul\":33698:33829   */\n      tag_617\n      jump\t// in\n    tag_953:\n        /* \"#utility.yul\":33690:33829   */\n      swap1\n      pop\n        /* \"#utility.yul\":33417:33836   */\n      swap2\n      swap1\n      pop\n      jump\t// out\n        /* \"#utility.yul\":33842:34022   */\n    tag_618:\n        /* \"#utility.yul\":33890:33967   */\n      0x4e487b7100000000000000000000000000000000000000000000000000000000\n        /* \"#utility.yul\":33887:33888   */\n      0x00\n        /* \"#utility.yul\":33880:33968   */\n      mstore\n        /* \"#utility.yul\":33987:33991   */\n      0x11\n        /* \"#utility.yul\":33984:33985   */\n      0x04\n        /* \"#utility.yul\":33977:33992   */\n      mstore\n        /* \"#utility.yul\":34011:34015   */\n      0x24\n        /* \"#utility.yul\":34008:34009   */\n      0x00\n        /* \"#utility.yul\":34001:34016   */\n      revert\n        /* \"#utility.yul\":34028:34261   */\n    tag_254:\n        /* \"#utility.yul\":34067:34070   */\n      0x00\n        /* \"#utility.yul\":34090:34114   */\n      tag_956\n        /* \"#utility.yul\":34108:34113   */\n      dup3\n        /* \"#utility.yul\":34090:34114   */\n      tag_562\n      jump\t// in\n    tag_956:\n        /* \"#utility.yul\":34081:34114   */\n      swap2\n      pop\n        /* \"#utility.yul\":34136:34202   */\n      0xffffffffffffffffffffffffffffffffffffffffffffffffffffffffffffffff\n        /* \"#utility.yul\":34129:34134   */\n      dup3\n        /* \"#utility.yul\":34126:34203   */\n      sub\n        /* \"#utility.yul\":34123:34226   */\n      tag_957\n      jumpi\n        /* \"#utility.yul\":34206:34224   */\n      tag_958\n      tag_618\n      jump\t// in\n    tag_958:\n        /* \"#utility.yul\":34123:34226   */\n    tag_957:\n        /* \"#utility.yul\":34253:34254   */\n      0x01\n        /* \"#utility.yul\":34246:34251   */\n      dup3\n        /* \"#utility.yul\":34242:34255   */\n      add\n        /* \"#utility.yul\":34235:34255   */\n      swap1\n      pop\n        /* \"#utility.yul\":34028:34261   */\n      swap2\n      swap1\n      pop\n      jump\t// out\n        /* \"#utility.yul\":34267:34408   */\n    tag_619:\n        /* \"#utility.yul\":34316:34320   */\n      0x00\n        /* \"#utility.yul\":34339:34342   */\n      dup2\n        /* \"#utility.yul\":34331:34342   */\n      swap1\n      pop\n        /* \"#utility.yul\":34362:34365   */\n      dup2\n        /* \"#utility.yul\":34359:34360   */\n      0x00\n        /* \"#utility.yul\":34352:34366   */\n      mstore\n        /* \"#utility.yul\":34396:34400   */\n      0x20\n        /* \"#utility.yul\":34393:34394   */\n      0x00\n        /* \"#utility.yul\":34383:34401   */\n      keccak256\n        /* \"#utility.yul\":34375:34401   */\n      swap1\n      pop\n        /* \"#utility.yul\":34267:34408   */\n      swap2\n      swap1\n      pop\n      jump\t// out\n        /* \"#utility.yul\":34414:34507   */\n    tag_620:\n        /* \"#utility.yul\":34451:34457   */\n      0x00\n        /* \"#utility.yul\":34498:34500   */\n      0x20\n        /* \"#utility.yul\":34493:34495   */\n      0x1f\n        /* \"#utility.yul\":34486:34491   */\n      dup4\n        /* \"#utility.yul\":34482:34496   */\n      add\n        /* \"#utility.yul\":34478:34501   */\n      div\n        /* \"#utility.yul\":34468:34501   */\n      swap1\n      pop\n        /* \"#utility.yul\":34414:34507   */\n      swap2\n      swap1\n      pop\n      jump\t// out\n        /* \"#utility.yul\":34513:34620   */\n    tag_621:\n        /* \"#utility.yul\":34557:34565   */\n      0x00\n        /* \"#utility.yul\":34607:34612   */\n      dup3\n        /* \"#utility.yul\":34601:34605   */\n      dup3\n        /* \"#utility.yul\":34597:34613   */\n      shl\n        /* \"#utility.yul\":34576:34613   */\n      swap1\n      pop\n        /* \"#utility.yul\":34513:34620   */\n      swap3\n      swap2\n      pop\n      pop\n      jump\t// out\n        /* \"#utility.yul\":34626:35019   */\n    tag_622:\n        /* \"#utility.yul\":34695:34701   */\n      0x00\n        /* \"#utility.yul\":34745:34746   */\n      0x08\n        /* \"#utility.yul\":34733:34743   */\n      dup4\n        /* \"#utility.yul\":34729:34747   */\n      mul\n        /* \"#utility.yul\":34768:34865   */\n      tag_963\n        /* \"#utility.yul\":34798:34864   */\n      0xffffffffffffffffffffffffffffffffffffffffffffffffffffffffffffffff\n        /* \"#utility.yul\":34787:34796   */\n      dup3\n        /* \"#utility.yul\":34768:34865   */\n      tag_621\n      jump\t// in\n    tag_963:\n        /* \"#utility.yul\":34886:34925   */\n      tag_964\n        /* \"#utility.yul\":34916:34924   */\n      dup7\n        /* \"#utility.yul\":34905:34914   */\n      dup4\n        /* \"#utility.yul\":34886:34925   */\n      tag_621\n      jump\t// in\n    tag_964:\n        /* \"#utility.yul\":34874:34925   */\n      swap6\n      pop\n        /* \"#utility.yul\":34958:34962   */\n      dup1\n        /* \"#utility.yul\":34954:34963   */\n      not\n        /* \"#utility.yul\":34947:34952   */\n      dup5\n        /* \"#utility.yul\":34943:34964   */\n      and\n        /* \"#utility.yul\":34934:34964   */\n      swap4\n      pop\n        /* \"#utility.yul\":35007:35011   */\n      dup1\n        /* \"#utility.yul\":34997:35005   */\n      dup7\n        /* \"#utility.yul\":34993:35012   */\n      and\n        /* \"#utility.yul\":34986:34991   */\n      dup5\n        /* \"#utility.yul\":34983:35013   */\n      or\n        /* \"#utility.yul\":34973:35013   */\n      swap3\n      pop\n        /* \"#utility.yul\":34702:35019   */\n      pop\n      pop\n        /* \"#utility.yul\":34626:35019   */\n      swap4\n      swap3\n      pop\n      pop\n      pop\n      jump\t// out\n        /* \"#utility.yul\":35025:35085   */\n    tag_623:\n        /* \"#utility.yul\":35053:35056   */\n      0x00\n        /* \"#utility.yul\":35074:35079   */\n      dup2\n        /* \"#utility.yul\":35067:35079   */\n      swap1\n      pop\n        /* \"#utility.yul\":35025:35085   */\n      swap2\n      swap1\n      pop\n      jump\t// out\n        /* \"#utility.yul\":35091:35233   */\n    tag_624:\n        /* \"#utility.yul\":35141:35150   */\n      0x00\n        /* \"#utility.yul\":35174:35227   */\n      tag_967\n        /* \"#utility.yul\":35192:35226   */\n      tag_968\n        /* \"#utility.yul\":35201:35225   */\n      tag_969\n        /* \"#utility.yul\":35219:35224   */\n      dup5\n        /* \"#utility.yul\":35201:35225   */\n      tag_562\n      jump\t// in\n    tag_969:\n        /* \"#utility.yul\":35192:35226   */\n      tag_623\n      jump\t// in\n    tag_968:\n        /* \"#utility.yul\":35174:35227   */\n      tag_562\n      jump\t// in\n    tag_967:\n        /* \"#utility.yul\":35161:35227   */\n      swap1\n      pop\n        /* \"#utility.yul\":35091:35233   */\n      swap2\n      swap1\n      pop\n      jump\t// out\n        /* \"#utility.yul\":35239:35314   */\n    tag_625:\n        /* \"#utility.yul\":35282:35285   */\n      0x00\n        /* \"#utility.yul\":35303:35308   */\n      dup2\n        /* \"#utility.yul\":35296:35308   */\n      swap1\n      pop\n        /* \"#utility.yul\":35239:35314   */\n      swap2\n      swap1\n      pop\n      jump\t// out\n        /* \"#utility.yul\":35320:35589   */\n    tag_626:\n        /* \"#utility.yul\":35430:35469   */\n      tag_972\n        /* \"#utility.yul\":35461:35468   */\n      dup4\n        /* \"#utility.yul\":35430:35469   */\n      tag_624\n      jump\t// in\n    tag_972:\n        /* \"#utility.yul\":35491:35582   */\n      tag_973\n        /* \"#utility.yul\":35540:35581   */\n      tag_974\n        /* \"#utility.yul\":35564:35580   */\n      dup3\n        /* \"#utility.yul\":35540:35581   */\n      tag_625\n      jump\t// in\n    tag_974:\n        /* \"#utility.yul\":35532:35538   */\n      dup5\n        /* \"#utility.yul\":35525:35529   */\n      dup5\n        /* \"#utility.yul\":35519:35530   */\n      sload\n        /* \"#utility.yul\":35491:35582   */\n      tag_622\n      jump\t// in\n    tag_973:\n        /* \"#utility.yul\":35485:35489   */\n      dup3\n        /* \"#utility.yul\":35478:35583   */\n      sstore\n        /* \"#utility.yul\":35396:35589   */\n      pop\n        /* \"#utility.yul\":35320:35589   */\n      pop\n      pop\n      pop\n      jump\t// out\n        /* \"#utility.yul\":35595:35668   */\n    tag_627:\n        /* \"#utility.yul\":35640:35643   */\n      0x00\n        /* \"#utility.yul\":35661:35662   */\n      0x00\n        /* \"#utility.yul\":35654:35662   */\n      swap1\n      pop\n        /* \"#utility.yul\":35595:35668   */\n      swap1\n      jump\t// out\n        /* \"#utility.yul\":35674:35863   */\n    tag_628:\n        /* \"#utility.yul\":35751:35783   */\n      tag_977\n      tag_627\n      jump\t// in\n    tag_977:\n        /* \"#utility.yul\":35792:35857   */\n      tag_978\n        /* \"#utility.yul\":35850:35856   */\n      dup2\n        /* \"#utility.yul\":35842:35848   */\n      dup5\n        /* \"#utility.yul\":35836:35840   */\n      dup5\n        /* \"#utility.yul\":35792:35857   */\n      tag_626\n      jump\t// in\n    tag_978:\n        /* \"#utility.yul\":35727:35863   */\n      pop\n        /* \"#utility.yul\":35674:35863   */\n      pop\n      pop\n      jump\t// out\n        /* \"#utility.yul\":35869:36055   */\n    tag_629:\n        /* \"#utility.yul\":35929:36049   */\n    tag_980:\n        /* \"#utility.yul\":35946:35949   */\n      dup2\n        /* \"#utility.yul\":35939:35944   */\n      dup2\n        /* \"#utility.yul\":35936:35950   */\n      lt\n        /* \"#utility.yul\":35929:36049   */\n      iszero\n      tag_982\n      jumpi\n        /* \"#utility.yul\":36000:36039   */\n      tag_983\n        /* \"#utility.yul\":36037:36038   */\n      0x00\n        /* \"#utility.yul\":36030:36035   */\n      dup3\n        /* \"#utility.yul\":36000:36039   */\n      tag_628\n      jump\t// in\n    tag_983:\n        /* \"#utility.yul\":35973:35974   */\n      0x01\n        /* \"#utility.yul\":35966:35971   */\n      dup2\n        /* \"#utility.yul\":35962:35975   */\n      add\n        /* \"#utility.yul\":35953:35975   */\n      swap1\n      pop\n        /* \"#utility.yul\":35929:36049   */\n      jump(tag_980)\n    tag_982:\n        /* \"#utility.yul\":35869:36055   */\n      pop\n      pop\n      jump\t// out\n        /* \"#utility.yul\":36061:36604   */\n    tag_630:\n        /* \"#utility.yul\":36162:36164   */\n      0x1f\n        /* \"#utility.yul\":36157:36160   */\n      dup3\n        /* \"#utility.yul\":36154:36165   */\n      gt\n        /* \"#utility.yul\":36151:36597   */\n      iszero\n      tag_985\n      jumpi\n        /* \"#utility.yul\":36196:36234   */\n      tag_986\n        /* \"#utility.yul\":36228:36233   */\n      dup2\n        /* \"#utility.yul\":36196:36234   */\n      tag_619\n      jump\t// in\n    tag_986:\n        /* \"#utility.yul\":36280:36309   */\n      tag_987\n        /* \"#utility.yul\":36298:36308   */\n      dup5\n        /* \"#utility.yul\":36280:36309   */\n      tag_620\n      jump\t// in\n    tag_987:\n        /* \"#utility.yul\":36270:36278   */\n      dup2\n        /* \"#utility.yul\":36266:36310   */\n      add\n        /* \"#utility.yul\":36463:36465   */\n      0x20\n        /* \"#utility.yul\":36451:36461   */\n      dup6\n        /* \"#utility.yul\":36448:36466   */\n      lt\n        /* \"#utility.yul\":36445:36494   */\n      iszero\n      tag_988\n      jumpi\n        /* \"#utility.yul\":36484:36492   */\n      dup2\n        /* \"#utility.yul\":36469:36492   */\n      swap1\n      pop\n        /* \"#utility.yul\":36445:36494   */\n    tag_988:\n        /* \"#utility.yul\":36507:36587   */\n      tag_989\n        /* \"#utility.yul\":36563:36585   */\n      tag_990\n        /* \"#utility.yul\":36581:36584   */\n      dup6\n        /* \"#utility.yul\":36563:36585   */\n      tag_620\n      jump\t// in\n    tag_990:\n        /* \"#utility.yul\":36553:36561   */\n      dup4\n        /* \"#utility.yul\":36549:36586   */\n      add\n        /* \"#utility.yul\":36536:36547   */\n      dup3\n        /* \"#utility.yul\":36507:36587   */\n      tag_629\n      jump\t// in\n    tag_989:\n        /* \"#utility.yul\":36166:36597   */\n      pop\n      pop\n        /* \"#utility.yul\":36151:36597   */\n    tag_985:\n        /* \"#utility.yul\":36061:36604   */\n      pop\n      pop\n      pop\n      jump\t// out\n        /* \"#utility.yul\":36610:36727   */\n    tag_631:\n        /* \"#utility.yul\":36664:36672   */\n      0x00\n        /* \"#utility.yul\":36714:36719   */\n      dup3\n        /* \"#utility.yul\":36708:36712   */\n      dup3\n        /* \"#utility.yul\":36704:36720   */\n      shr\n        /* \"#utility.yul\":36683:36720   */\n      swap1\n      pop\n        /* \"#utility.yul\":36610:36727   */\n      swap3\n      swap2\n      pop\n      pop\n      jump\t// out\n        /* \"#utility.yul\":36733:36902   */\n    tag_632:\n        /* \"#utility.yul\":36777:36783   */\n      0x00\n        /* \"#utility.yul\":36810:36861   */\n      tag_993\n        /* \"#utility.yul\":36858:36859   */\n      0x00\n        /* \"#utility.yul\":36854:36860   */\n      not\n        /* \"#utility.yul\":36846:36851   */\n      dup5\n        /* \"#utility.yul\":36843:36844   */\n      0x08\n        /* \"#utility.yul\":36839:36852   */\n      mul\n        /* \"#utility.yul\":36810:36861   */\n      tag_631\n      jump\t// in\n    tag_993:\n        /* \"#utility.yul\":36806:36862   */\n      not\n        /* \"#utility.yul\":36891:36895   */\n      dup1\n        /* \"#utility.yul\":36885:36889   */\n      dup4\n        /* \"#utility.yul\":36881:36896   */\n      and\n        /* \"#utility.yul\":36871:36896   */\n      swap2\n      pop\n        /* \"#utility.yul\":36784:36902   */\n      pop\n        /* \"#utility.yul\":36733:36902   */\n      swap3\n      swap2\n      pop\n      pop\n      jump\t// out\n        /* \"#utility.yul\":36907:37202   */\n    tag_633:\n        /* \"#utility.yul\":36983:36987   */\n      0x00\n        /* \"#utility.yul\":37129:37158   */\n      tag_995\n        /* \"#utility.yul\":37154:37157   */\n      dup4\n        /* \"#utility.yul\":37148:37152   */\n      dup4\n        /* \"#utility.yul\":37129:37158   */\n      tag_632\n      jump\t// in\n    tag_995:\n        /* \"#utility.yul\":37121:37158   */\n      swap2\n      pop\n        /* \"#utility.yul\":37191:37194   */\n      dup3\n        /* \"#utility.yul\":37188:37189   */\n      0x02\n        /* \"#utility.yul\":37184:37195   */\n      mul\n        /* \"#utility.yul\":37178:37182   */\n      dup3\n        /* \"#utility.yul\":37175:37196   */\n      or\n        /* \"#utility.yul\":37167:37196   */\n      swap1\n      pop\n        /* \"#utility.yul\":36907:37202   */\n      swap3\n      swap2\n      pop\n      pop\n      jump\t// out\n        /* \"#utility.yul\":37207:38602   */\n    tag_260:\n        /* \"#utility.yul\":37324:37361   */\n      tag_997\n        /* \"#utility.yul\":37357:37360   */\n      dup3\n        /* \"#utility.yul\":37324:37361   */\n      tag_566\n      jump\t// in\n    tag_997:\n        /* \"#utility.yul\":37426:37444   */\n      0xffffffffffffffff\n        /* \"#utility.yul\":37418:37424   */\n      dup2\n        /* \"#utility.yul\":37415:37445   */\n      gt\n        /* \"#utility.yul\":37412:37468   */\n      iszero\n      tag_998\n      jumpi\n        /* \"#utility.yul\":37448:37466   */\n      tag_999\n      tag_555\n      jump\t// in\n    tag_999:\n        /* \"#utility.yul\":37412:37468   */\n    tag_998:\n        /* \"#utility.yul\":37492:37530   */\n      tag_1000\n        /* \"#utility.yul\":37524:37528   */\n      dup3\n        /* \"#utility.yul\":37518:37529   */\n      sload\n        /* \"#utility.yul\":37492:37530   */\n      tag_223\n      jump\t// in\n    tag_1000:\n        /* \"#utility.yul\":37577:37644   */\n      tag_1001\n        /* \"#utility.yul\":37637:37643   */\n      dup3\n        /* \"#utility.yul\":37629:37635   */\n      dup3\n        /* \"#utility.yul\":37623:37627   */\n      dup6\n        /* \"#utility.yul\":37577:37644   */\n      tag_630\n      jump\t// in\n    tag_1001:\n        /* \"#utility.yul\":37671:37672   */\n      0x00\n        /* \"#utility.yul\":37695:37699   */\n      0x20\n        /* \"#utility.yul\":37682:37699   */\n      swap1\n      pop\n        /* \"#utility.yul\":37727:37729   */\n      0x1f\n        /* \"#utility.yul\":37719:37725   */\n      dup4\n        /* \"#utility.yul\":37716:37730   */\n      gt\n        /* \"#utility.yul\":37744:37745   */\n      0x01\n        /* \"#utility.yul\":37739:38357   */\n      dup2\n      eq\n      tag_1003\n      jumpi\n        /* \"#utility.yul\":38401:38402   */\n      0x00\n        /* \"#utility.yul\":38418:38424   */\n      dup5\n        /* \"#utility.yul\":38415:38492   */\n      iszero\n      tag_1004\n      jumpi\n        /* \"#utility.yul\":38467:38476   */\n      dup3\n        /* \"#utility.yul\":38462:38465   */\n      dup8\n        /* \"#utility.yul\":38458:38477   */\n      add\n        /* \"#utility.yul\":38452:38478   */\n      mload\n        /* \"#utility.yul\":38443:38478   */\n      swap1\n      pop\n        /* \"#utility.yul\":38415:38492   */\n    tag_1004:\n        /* \"#utility.yul\":38518:38585   */\n      tag_1005\n        /* \"#utility.yul\":38578:38584   */\n      dup6\n        /* \"#utility.yul\":38571:38576   */\n      dup3\n        /* \"#utility.yul\":38518:38585   */\n      tag_633\n      jump\t// in\n    tag_1005:\n        /* \"#utility.yul\":38512:38516   */\n      dup7\n        /* \"#utility.yul\":38505:38586   */\n      sstore\n        /* \"#utility.yul\":38374:38596   */\n      pop\n        /* \"#utility.yul\":37709:38596   */\n      jump(tag_1002)\n        /* \"#utility.yul\":37739:38357   */\n    tag_1003:\n        /* \"#utility.yul\":37791:37795   */\n      0x1f\n        /* \"#utility.yul\":37787:37796   */\n      not\n        /* \"#utility.yul\":37779:37785   */\n      dup5\n        /* \"#utility.yul\":37775:37797   */\n      and\n        /* \"#utility.yul\":37825:37862   */\n      tag_1006\n        /* \"#utility.yul\":37857:37861   */\n      dup7\n        /* \"#utility.yul\":37825:37862   */\n      tag_619\n      jump\t// in\n    tag_1006:\n        /* \"#utility.yul\":37884:37885   */\n      0x00\n        /* \"#utility.yul\":37898:38106   */\n    tag_1007:\n        /* \"#utility.yul\":37912:37919   */\n      dup3\n        /* \"#utility.yul\":37909:37910   */\n      dup2\n        /* \"#utility.yul\":37906:37920   */\n      lt\n        /* \"#utility.yul\":37898:38106   */\n      iszero\n      tag_1009\n      jumpi\n        /* \"#utility.yul\":37991:38000   */\n      dup5\n        /* \"#utility.yul\":37986:37989   */\n      dup10\n        /* \"#utility.yul\":37982:38001   */\n      add\n        /* \"#utility.yul\":37976:38002   */\n      mload\n        /* \"#utility.yul\":37968:37974   */\n      dup3\n        /* \"#utility.yul\":37961:38003   */\n      sstore\n        /* \"#utility.yul\":38042:38043   */\n      0x01\n        /* \"#utility.yul\":38034:38040   */\n      dup3\n        /* \"#utility.yul\":38030:38044   */\n      add\n        /* \"#utility.yul\":38020:38044   */\n      swap2\n      pop\n        /* \"#utility.yul\":38089:38091   */\n      0x20\n        /* \"#utility.yul\":38078:38087   */\n      dup6\n        /* \"#utility.yul\":38074:38092   */\n      add\n        /* \"#utility.yul\":38061:38092   */\n      swap5\n      pop\n        /* \"#utility.yul\":37935:37939   */\n      0x20\n        /* \"#utility.yul\":37932:37933   */\n      dup2\n        /* \"#utility.yul\":37928:37940   */\n      add\n        /* \"#utility.yul\":37923:37940   */\n      swap1\n      pop\n        /* \"#utility.yul\":37898:38106   */\n      jump(tag_1007)\n    tag_1009:\n        /* \"#utility.yul\":38134:38140   */\n      dup7\n        /* \"#utility.yul\":38125:38132   */\n      dup4\n        /* \"#utility.yul\":38122:38141   */\n      lt\n        /* \"#utility.yul\":38119:38298   */\n      iszero\n      tag_1010\n      jumpi\n        /* \"#utility.yul\":38192:38201   */\n      dup5\n        /* \"#utility.yul\":38187:38190   */\n      dup10\n        /* \"#utility.yul\":38183:38202   */\n      add\n        /* \"#utility.yul\":38177:38203   */\n      mload\n        /* \"#utility.yul\":38235:38283   */\n      tag_1011\n        /* \"#utility.yul\":38277:38281   */\n      0x1f\n        /* \"#utility.yul\":38269:38275   */\n      dup10\n        /* \"#utility.yul\":38265:38282   */\n      and\n        /* \"#utility.yul\":38254:38263   */\n      dup3\n        /* \"#utility.yul\":38235:38283   */\n      tag_632\n      jump\t// in\n    tag_1011:\n        /* \"#utility.yul\":38227:38233   */\n      dup4\n        /* \"#utility.yul\":38220:38284   */\n      sstore\n        /* \"#utility.yul\":38142:38298   */\n      pop\n        /* \"#utility.yul\":38119:38298   */\n    tag_1010:\n        /* \"#utility.yul\":38344:38345   */\n      0x01\n        /* \"#utility.yul\":38340:38341   */\n      0x02\n        /* \"#utility.yul\":38332:38338   */\n      dup9\n        /* \"#utility.yul\":38328:38342   */\n      mul\n        /* \"#utility.yul\":38324:38346   */\n      add\n        /* \"#utility.yul\":38318:38322   */\n      dup9\n        /* \"#utility.yul\":38311:38347   */\n      sstore\n        /* \"#utility.yul\":37746:38357   */\n      pop\n      pop\n      pop\n        /* \"#utility.yul\":37709:38596   */\n    tag_1002:\n      pop\n        /* \"#utility.yul\":37299:38602   */\n      pop\n      pop\n      pop\n        /* \"#utility.yul\":37207:38602   */\n      pop\n      pop\n      jump\t// out\n        /* \"#utility.yul\":38608:39165   */\n    tag_272:\n        /* \"#utility.yul\":38789:38793   */\n      0x00\n        /* \"#utility.yul\":38827:38829   */\n      0x60\n        /* \"#utility.yul\":38816:38825   */\n      dup3\n        /* \"#utility.yul\":38812:38830   */\n      add\n        /* \"#utility.yul\":38804:38830   */\n      swap1\n      pop\n        /* \"#utility.yul\":38876:38885   */\n      dup2\n        /* \"#utility.yul\":38870:38874   */\n      dup2\n        /* \"#utility.yul\":38866:38886   */\n      sub\n        /* \"#utility.yul\":38862:38863   */\n      0x00\n        /* \"#utility.yul\":38851:38860   */\n      dup4\n        /* \"#utility.yul\":38847:38864   */\n      add\n        /* \"#utility.yul\":38840:38887   */\n      mstore\n        /* \"#utility.yul\":38904:38982   */\n      tag_1013\n        /* \"#utility.yul\":38977:38981   */\n      dup2\n        /* \"#utility.yul\":38968:38974   */\n      dup7\n        /* \"#utility.yul\":38904:38982   */\n      tag_569\n      jump\t// in\n    tag_1013:\n        /* \"#utility.yul\":38896:38982   */\n      swap1\n      pop\n        /* \"#utility.yul\":38992:39076   */\n      tag_1014\n        /* \"#utility.yul\":39072:39074   */\n      0x20\n        /* \"#utility.yul\":39061:39070   */\n      dup4\n        /* \"#utility.yul\":39057:39075   */\n      add\n        /* \"#utility.yul\":39048:39054   */\n      dup6\n        /* \"#utility.yul\":38992:39076   */\n      tag_573\n      jump\t// in\n    tag_1014:\n        /* \"#utility.yul\":39086:39158   */\n      tag_1015\n        /* \"#utility.yul\":39154:39156   */\n      0x40\n        /* \"#utility.yul\":39143:39152   */\n      dup4\n        /* \"#utility.yul\":39139:39157   */\n      add\n        /* \"#utility.yul\":39130:39136   */\n      dup5\n        /* \"#utility.yul\":39086:39158   */\n      tag_563\n      jump\t// in\n    tag_1015:\n        /* \"#utility.yul\":38608:39165   */\n      swap5\n      swap4\n      pop\n      pop\n      pop\n      pop\n      jump\t// out\n        /* \"#utility.yul\":39171:39336   */\n    tag_634:\n        /* \"#utility.yul\":39311:39328   */\n      0x496e76616c69642072756c652049440000000000000000000000000000000000\n        /* \"#utility.yul\":39307:39308   */\n      0x00\n        /* \"#utility.yul\":39299:39305   */\n      dup3\n        /* \"#utility.yul\":39295:39309   */\n      add\n        /* \"#utility.yul\":39288:39329   */\n      mstore\n        /* \"#utility.yul\":39171:39336   */\n      pop\n      jump\t// out\n        /* \"#utility.yul\":39342:39708   */\n    tag_635:\n        /* \"#utility.yul\":39484:39487   */\n      0x00\n        /* \"#utility.yul\":39505:39572   */\n      tag_1018\n        /* \"#utility.yul\":39569:39571   */\n      0x0f\n        /* \"#utility.yul\":39564:39567   */\n      dup4\n        /* \"#utility.yul\":39505:39572   */\n      tag_567\n      jump\t// in\n    tag_1018:\n        /* \"#utility.yul\":39498:39572   */\n      swap2\n      pop\n        /* \"#utility.yul\":39581:39674   */\n      tag_1019\n        /* \"#utility.yul\":39670:39673   */\n      dup3\n        /* \"#utility.yul\":39581:39674   */\n      tag_634\n      jump\t// in\n    tag_1019:\n        /* \"#utility.yul\":39699:39701   */\n      0x20\n        /* \"#utility.yul\":39694:39697   */\n      dup3\n        /* \"#utility.yul\":39690:39702   */\n      add\n        /* \"#utility.yul\":39683:39702   */\n      swap1\n      pop\n        /* \"#utility.yul\":39342:39708   */\n      swap2\n      swap1\n      pop\n      jump\t// out\n        /* \"#utility.yul\":39714:40133   */\n    tag_289:\n        /* \"#utility.yul\":39880:39884   */\n      0x00\n        /* \"#utility.yul\":39918:39920   */\n      0x20\n        /* \"#utility.yul\":39907:39916   */\n      dup3\n        /* \"#utility.yul\":39903:39921   */\n      add\n        /* \"#utility.yul\":39895:39921   */\n      swap1\n      pop\n        /* \"#utility.yul\":39967:39976   */\n      dup2\n        /* \"#utility.yul\":39961:39965   */\n      dup2\n        /* \"#utility.yul\":39957:39977   */\n      sub\n        /* \"#utility.yul\":39953:39954   */\n      0x00\n        /* \"#utility.yul\":39942:39951   */\n      dup4\n        /* \"#utility.yul\":39938:39955   */\n      add\n        /* \"#utility.yul\":39931:39978   */\n      mstore\n        /* \"#utility.yul\":39995:40126   */\n      tag_1021\n        /* \"#utility.yul\":40121:40125   */\n      dup2\n        /* \"#utility.yul\":39995:40126   */\n      tag_635\n      jump\t// in\n    tag_1021:\n        /* \"#utility.yul\":39987:40126   */\n      swap1\n      pop\n        /* \"#utility.yul\":39714:40133   */\n      swap2\n      swap1\n      pop\n      jump\t// out\n        /* \"#utility.yul\":40139:40306   */\n    tag_636:\n        /* \"#utility.yul\":40279:40298   */\n      0x496e76616c696420746872656174204944000000000000000000000000000000\n        /* \"#utility.yul\":40275:40276   */\n      0x00\n        /* \"#utility.yul\":40267:40273   */\n      dup3\n        /* \"#utility.yul\":40263:40277   */\n      add\n        /* \"#utility.yul\":40256:40299   */\n      mstore\n        /* \"#utility.yul\":40139:40306   */\n      pop\n      jump\t// out\n        /* \"#utility.yul\":40312:40678   */\n    tag_637:\n        /* \"#utility.yul\":40454:40457   */\n      0x00\n        /* \"#utility.yul\":40475:40542   */\n      tag_1024\n        /* \"#utility.yul\":40539:40541   */\n      0x11\n        /* \"#utility.yul\":40534:40537   */\n      dup4\n        /* \"#utility.yul\":40475:40542   */\n      tag_567\n      jump\t// in\n    tag_1024:\n        /* \"#utility.yul\":40468:40542   */\n      swap2\n      pop\n        /* \"#utility.yul\":40551:40644   */\n      tag_1025\n        /* \"#utility.yul\":40640:40643   */\n      dup3\n        /* \"#utility.yul\":40551:40644   */\n      tag_636\n      jump\t// in\n    tag_1025:\n        /* \"#utility.yul\":40669:40671   */\n      0x20\n        /* \"#utility.yul\":40664:40667   */\n      dup3\n        /* \"#utility.yul\":40660:40672   */\n      add\n        /* \"#utility.yul\":40653:40672   */\n      swap1\n      pop\n        /* \"#utility.yul\":40312:40678   */\n      swap2\n      swap1\n      pop\n      jump\t// out\n        /* \"#utility.yul\":40684:41103   */\n    tag_309:\n        /* \"#utility.yul\":40850:40854   */\n      0x00\n        /* \"#utility.yul\":40888:40890   */\n      0x20\n        /* \"#utility.yul\":40877:40886   */\n      dup3\n        /* \"#utility.yul\":40873:40891   */\n      add\n        /* \"#utility.yul\":40865:40891   */\n      swap1\n      pop\n        /* \"#utility.yul\":40937:40946   */\n      dup2\n        /* \"#utility.yul\":40931:40935   */\n      dup2\n        /* \"#utility.yul\":40927:40947   */\n      sub\n        /* \"#utility.yul\":40923:40924   */\n      0x00\n        /* \"#utility.yul\":40912:40921   */\n      dup4\n        /* \"#utility.yul\":40908:40925   */\n      add\n        /* \"#utility.yul\":40901:40948   */\n      mstore\n        /* \"#utility.yul\":40965:41096   */\n      tag_1027\n        /* \"#utility.yul\":41091:41095   */\n      dup2\n        /* \"#utility.yul\":40965:41096   */\n      tag_637\n      jump\t// in\n    tag_1027:\n        /* \"#utility.yul\":40957:41096   */\n      swap1\n      pop\n        /* \"#utility.yul\":40684:41103   */\n      swap2\n      swap1\n      pop\n      jump\t// out\n        /* \"#utility.yul\":41109:41554   */\n    tag_386:\n        /* \"#utility.yul\":41261:41265   */\n      0x00\n        /* \"#utility.yul\":41299:41301   */\n      0x40\n        /* \"#utility.yul\":41288:41297   */\n      dup3\n        /* \"#utility.yul\":41284:41302   */\n      add\n        /* \"#utility.yul\":41276:41302   */\n      swap1\n      pop\n        /* \"#utility.yul\":41348:41357   */\n      dup2\n        /* \"#utility.yul\":41342:41346   */\n      dup2\n        /* \"#utility.yul\":41338:41358   */\n      sub\n        /* \"#utility.yul\":41334:41335   */\n      0x00\n        /* \"#utility.yul\":41323:41332   */\n      dup4\n        /* \"#utility.yul\":41319:41336   */\n      add\n        /* \"#utility.yul\":41312:41359   */\n      mstore\n        /* \"#utility.yul\":41376:41454   */\n      tag_1029\n        /* \"#utility.yul\":41449:41453   */\n      dup2\n        /* \"#utility.yul\":41440:41446   */\n      dup6\n        /* \"#utility.yul\":41376:41454   */\n      tag_569\n      jump\t// in\n    tag_1029:\n        /* \"#utility.yul\":41368:41454   */\n      swap1\n      pop\n        /* \"#utility.yul\":41464:41547   */\n      tag_1030\n        /* \"#utility.yul\":41543:41545   */\n      0x20\n        /* \"#utility.yul\":41532:41541   */\n      dup4\n        /* \"#utility.yul\":41528:41546   */\n      add\n        /* \"#utility.yul\":41519:41525   */\n      dup5\n        /* \"#utility.yul\":41464:41547   */\n      tag_608\n      jump\t// in\n    tag_1030:\n        /* \"#utility.yul\":41109:41554   */\n      swap4\n      swap3\n      pop\n      pop\n      pop\n      jump\t// out\n        /* \"#utility.yul\":41560:41725   */\n    tag_638:\n        /* \"#utility.yul\":41700:41717   */\n      0x496e76616c696420616464726573730000000000000000000000000000000000\n        /* \"#utility.yul\":41696:41697   */\n      0x00\n        /* \"#utility.yul\":41688:41694   */\n      dup3\n        /* \"#utility.yul\":41684:41698   */\n      add\n        /* \"#utility.yul\":41677:41718   */\n      mstore\n        /* \"#utility.yul\":41560:41725   */\n      pop\n      jump\t// out\n        /* \"#utility.yul\":41731:42097   */\n    tag_639:\n        /* \"#utility.yul\":41873:41876   */\n      0x00\n        /* \"#utility.yul\":41894:41961   */\n      tag_1033\n        /* \"#utility.yul\":41958:41960   */\n      0x0f\n        /* \"#utility.yul\":41953:41956   */\n      dup4\n        /* \"#utility.yul\":41894:41961   */\n      tag_567\n      jump\t// in\n    tag_1033:\n        /* \"#utility.yul\":41887:41961   */\n      swap2\n      pop\n        /* \"#utility.yul\":41970:42063   */\n      tag_1034\n        /* \"#utility.yul\":42059:42062   */\n      dup3\n        /* \"#utility.yul\":41970:42063   */\n      tag_638\n      jump\t// in\n    tag_1034:\n        /* \"#utility.yul\":42088:42090   */\n      0x20\n        /* \"#utility.yul\":42083:42086   */\n      dup3\n        /* \"#utility.yul\":42079:42091   */\n      add\n        /* \"#utility.yul\":42072:42091   */\n      swap1\n      pop\n        /* \"#utility.yul\":41731:42097   */\n      swap2\n      swap1\n      pop\n      jump\t// out\n        /* \"#utility.yul\":42103:42522   */\n    tag_399:\n        /* \"#utility.yul\":42269:42273   */\n      0x00\n        /* \"#utility.yul\":42307:42309   */\n      0x20\n        /* \"#utility.yul\":42296:42305   */\n      dup3\n        /* \"#utility.yul\":42292:42310   */\n      add\n        /* \"#utility.yul\":42284:42310   */\n      swap1\n      pop\n        /* \"#utility.yul\":42356:42365   */\n      dup2\n        /* \"#utility.yul\":42350:42354   */\n      dup2\n        /* \"#utility.yul\":42346:42366   */\n      sub\n        /* \"#utility.yul\":42342:42343   */\n      0x00\n        /* \"#utility.yul\":42331:42340   */\n      dup4\n        /* \"#utility.yul\":42327:42344   */\n      add\n        /* \"#utility.yul\":42320:42367   */\n      mstore\n        /* \"#utility.yul\":42384:42515   */\n      tag_1036\n        /* \"#utility.yul\":42510:42514   */\n      dup2\n        /* \"#utility.yul\":42384:42515   */\n      tag_639\n      jump\t// in\n    tag_1036:\n        /* \"#utility.yul\":42376:42515   */\n      swap1\n      pop\n        /* \"#utility.yul\":42103:42522   */\n      swap2\n      swap1\n      pop\n      jump\t// out\n        /* \"#utility.yul\":42528:42696   */\n    tag_640:\n        /* \"#utility.yul\":42668:42688   */\n      0x6175746f426c6f636b5468726573686f6c640000000000000000000000000000\n        /* \"#utility.yul\":42664:42665   */\n      0x00\n        /* \"#utility.yul\":42656:42662   */\n      dup3\n        /* \"#utility.yul\":42652:42666   */\n      add\n        /* \"#utility.yul\":42645:42689   */\n      mstore\n        /* \"#utility.yul\":42528:42696   */\n      pop\n      jump\t// out\n        /* \"#utility.yul\":42702:43068   */\n    tag_641:\n        /* \"#utility.yul\":42844:42847   */\n      0x00\n        /* \"#utility.yul\":42865:42932   */\n      tag_1039\n        /* \"#utility.yul\":42929:42931   */\n      0x12\n        /* \"#utility.yul\":42924:42927   */\n      dup4\n        /* \"#utility.yul\":42865:42932   */\n      tag_567\n      jump\t// in\n    tag_1039:\n        /* \"#utility.yul\":42858:42932   */\n      swap2\n      pop\n        /* \"#utility.yul\":42941:43034   */\n      tag_1040\n        /* \"#utility.yul\":43030:43033   */\n      dup3\n        /* \"#utility.yul\":42941:43034   */\n      tag_640\n      jump\t// in\n    tag_1040:\n        /* \"#utility.yul\":43059:43061   */\n      0x20\n        /* \"#utility.yul\":43054:43057   */\n      dup3\n        /* \"#utility.yul\":43050:43062   */\n      add\n        /* \"#utility.yul\":43043:43062   */\n      swap1\n      pop\n        /* \"#utility.yul\":42702:43068   */\n      swap2\n      swap1\n      pop\n      jump\t// out\n        /* \"#utility.yul\":43074:43603   */\n    tag_406:\n        /* \"#utility.yul\":43268:43272   */\n      0x00\n        /* \"#utility.yul\":43306:43308   */\n      0x40\n        /* \"#utility.yul\":43295:43304   */\n      dup3\n        /* \"#utility.yul\":43291:43309   */\n      add\n        /* \"#utility.yul\":43283:43309   */\n      swap1\n      pop\n        /* \"#utility.yul\":43355:43364   */\n      dup2\n        /* \"#utility.yul\":43349:43353   */\n      dup2\n        /* \"#utility.yul\":43345:43365   */\n      sub\n        /* \"#utility.yul\":43341:43342   */\n      0x00\n        /* \"#utility.yul\":43330:43339   */\n      dup4\n        /* \"#utility.yul\":43326:43343   */\n      add\n        /* \"#utility.yul\":43319:43366   */\n      mstore\n        /* \"#utility.yul\":43383:43514   */\n      tag_1042\n        /* \"#utility.yul\":43509:43513   */\n      dup2\n        /* \"#utility.yul\":43383:43514   */\n      tag_641\n      jump\t// in\n    tag_1042:\n        /* \"#utility.yul\":43375:43514   */\n      swap1\n      pop\n        /* \"#utility.yul\":43524:43596   */\n      tag_1043\n        /* \"#utility.yul\":43592:43594   */\n      0x20\n        /* \"#utility.yul\":43581:43590   */\n      dup4\n        /* \"#utility.yul\":43577:43595   */\n      add\n        /* \"#utility.yul\":43568:43574   */\n      dup5\n        /* \"#utility.yul\":43524:43596   */\n      tag_563\n      jump\t// in\n    tag_1043:\n        /* \"#utility.yul\":43074:43603   */\n      swap3\n      swap2\n      pop\n      pop\n      jump\t// out\n        /* \"#utility.yul\":43609:43781   */\n    tag_642:\n        /* \"#utility.yul\":43749:43773   */\n      0x53797374656d20616c72656164792073746f7070656400000000000000000000\n        /* \"#utility.yul\":43745:43746   */\n      0x00\n        /* \"#utility.yul\":43737:43743   */\n      dup3\n        /* \"#utility.yul\":43733:43747   */\n      add\n        /* \"#utility.yul\":43726:43774   */\n      mstore\n        /* \"#utility.yul\":43609:43781   */\n      pop\n      jump\t// out\n        /* \"#utility.yul\":43787:44153   */\n    tag_643:\n        /* \"#utility.yul\":43929:43932   */\n      0x00\n        /* \"#utility.yul\":43950:44017   */\n      tag_1046\n        /* \"#utility.yul\":44014:44016   */\n      0x16\n        /* \"#utility.yul\":44009:44012   */\n      dup4\n        /* \"#utility.yul\":43950:44017   */\n      tag_567\n      jump\t// in\n    tag_1046:\n        /* \"#utility.yul\":43943:44017   */\n      swap2\n      pop\n        /* \"#utility.yul\":44026:44119   */\n      tag_1047\n        /* \"#utility.yul\":44115:44118   */\n      dup3\n        /* \"#utility.yul\":44026:44119   */\n      tag_642\n      jump\t// in\n    tag_1047:\n        /* \"#utility.yul\":44144:44146   */\n      0x20\n        /* \"#utility.yul\":44139:44142   */\n      dup3\n        /* \"#utility.yul\":44135:44147   */\n      add\n        /* \"#utility.yul\":44128:44147   */\n      swap1\n      pop\n        /* \"#utility.yul\":43787:44153   */\n      swap2\n      swap1\n      pop\n      jump\t// out\n        /* \"#utility.yul\":44159:44578   */\n    tag_420:\n        /* \"#utility.yul\":44325:44329   */\n      0x00\n        /* \"#utility.yul\":44363:44365   */\n      0x20\n        /* \"#utility.yul\":44352:44361   */\n      dup3\n        /* \"#utility.yul\":44348:44366   */\n      add\n        /* \"#utility.yul\":44340:44366   */\n      swap1\n      pop\n        /* \"#utility.yul\":44412:44421   */\n      dup2\n        /* \"#utility.yul\":44406:44410   */\n      dup2\n        /* \"#utility.yul\":44402:44422   */\n      sub\n        /* \"#utility.yul\":44398:44399   */\n      0x00\n        /* \"#utility.yul\":44387:44396   */\n      dup4\n        /* \"#utility.yul\":44383:44400   */\n      add\n        /* \"#utility.yul\":44376:44423   */\n      mstore\n        /* \"#utility.yul\":44440:44571   */\n      tag_1049\n        /* \"#utility.yul\":44566:44570   */\n      dup2\n        /* \"#utility.yul\":44440:44571   */\n      tag_643\n      jump\t// in\n    tag_1049:\n        /* \"#utility.yul\":44432:44571   */\n      swap1\n      pop\n        /* \"#utility.yul\":44159:44578   */\n      swap2\n      swap1\n      pop\n      jump\t// out\n        /* \"#utility.yul\":44584:44754   */\n    tag_644:\n        /* \"#utility.yul\":44724:44746   */\n      0x53797374656d206973206e6f7420616374697665000000000000000000000000\n        /* \"#utility.yul\":44720:44721   */\n      0x00\n        /* \"#utility.yul\":44712:44718   */\n      dup3\n        /* \"#utility.yul\":44708:44722   */\n      add\n        /* \"#utility.yul\":44701:44747   */\n      mstore\n        /* \"#utility.yul\":44584:44754   */\n      pop\n      jump\t// out\n        /* \"#utility.yul\":44760:45126   */\n    tag_645:\n        /* \"#utility.yul\":44902:44905   */\n      0x00\n        /* \"#utility.yul\":44923:44990   */\n      tag_1052\n        /* \"#utility.yul\":44987:44989   */\n      0x14\n        /* \"#utility.yul\":44982:44985   */\n      dup4\n        /* \"#utility.yul\":44923:44990   */\n      tag_567\n      jump\t// in\n    tag_1052:\n        /* \"#utility.yul\":44916:44990   */\n      swap2\n      pop\n        /* \"#utility.yul\":44999:45092   */\n      tag_1053\n        /* \"#utility.yul\":45088:45091   */\n      dup3\n        /* \"#utility.yul\":44999:45092   */\n      tag_644\n      jump\t// in\n    tag_1053:\n        /* \"#utility.yul\":45117:45119   */\n      0x20\n        /* \"#utility.yul\":45112:45115   */\n      dup3\n        /* \"#utility.yul\":45108:45120   */\n      add\n        /* \"#utility.yul\":45101:45120   */\n      swap1\n      pop\n        /* \"#utility.yul\":44760:45126   */\n      swap2\n      swap1\n      pop\n      jump\t// out\n        /* \"#utility.yul\":45132:45551   */\n    tag_429:\n        /* \"#utility.yul\":45298:45302   */\n      0x00\n        /* \"#utility.yul\":45336:45338   */\n      0x20\n        /* \"#utility.yul\":45325:45334   */\n      dup3\n        /* \"#utility.yul\":45321:45339   */\n      add\n        /* \"#utility.yul\":45313:45339   */\n      swap1\n      pop\n        /* \"#utility.yul\":45385:45394   */\n      dup2\n        /* \"#utility.yul\":45379:45383   */\n      dup2\n        /* \"#utility.yul\":45375:45395   */\n      sub\n        /* \"#utility.yul\":45371:45372   */\n      0x00\n        /* \"#utility.yul\":45360:45369   */\n      dup4\n        /* \"#utility.yul\":45356:45373   */\n      add\n        /* \"#utility.yul\":45349:45396   */\n      mstore\n        /* \"#utility.yul\":45413:45544   */\n      tag_1055\n        /* \"#utility.yul\":45539:45543   */\n      dup2\n        /* \"#utility.yul\":45413:45544   */\n      tag_645\n      jump\t// in\n    tag_1055:\n        /* \"#utility.yul\":45405:45544   */\n      swap1\n      pop\n        /* \"#utility.yul\":45132:45551   */\n      swap2\n      swap1\n      pop\n      jump\t// out\n        /* \"#utility.yul\":45557:45748   */\n    tag_442:\n        /* \"#utility.yul\":45597:45600   */\n      0x00\n        /* \"#utility.yul\":45616:45636   */\n      tag_1057\n        /* \"#utility.yul\":45634:45635   */\n      dup3\n        /* \"#utility.yul\":45616:45636   */\n      tag_562\n      jump\t// in\n    tag_1057:\n        /* \"#utility.yul\":45611:45636   */\n      swap2\n      pop\n        /* \"#utility.yul\":45650:45670   */\n      tag_1058\n        /* \"#utility.yul\":45668:45669   */\n      dup4\n        /* \"#utility.yul\":45650:45670   */\n      tag_562\n      jump\t// in\n    tag_1058:\n        /* \"#utility.yul\":45645:45670   */\n      swap3\n      pop\n        /* \"#utility.yul\":45693:45694   */\n      dup3\n        /* \"#utility.yul\":45690:45691   */\n      dup3\n        /* \"#utility.yul\":45686:45695   */\n      add\n        /* \"#utility.yul\":45679:45695   */\n      swap1\n      pop\n        /* \"#utility.yul\":45714:45717   */\n      dup1\n        /* \"#utility.yul\":45711:45712   */\n      dup3\n        /* \"#utility.yul\":45708:45718   */\n      gt\n        /* \"#utility.yul\":45705:45741   */\n      iszero\n      tag_1059\n      jumpi\n        /* \"#utility.yul\":45721:45739   */\n      tag_1060\n      tag_618\n      jump\t// in\n    tag_1060:\n        /* \"#utility.yul\":45705:45741   */\n    tag_1059:\n        /* \"#utility.yul\":45557:45748   */\n      swap3\n      swap2\n      pop\n      pop\n      jump\t// out\n        /* \"#utility.yul\":45754:45948   */\n    tag_444:\n        /* \"#utility.yul\":45794:45798   */\n      0x00\n        /* \"#utility.yul\":45814:45834   */\n      tag_1062\n        /* \"#utility.yul\":45832:45833   */\n      dup3\n        /* \"#utility.yul\":45814:45834   */\n      tag_562\n      jump\t// in\n    tag_1062:\n        /* \"#utility.yul\":45809:45834   */\n      swap2\n      pop\n        /* \"#utility.yul\":45848:45868   */\n      tag_1063\n        /* \"#utility.yul\":45866:45867   */\n      dup4\n        /* \"#utility.yul\":45848:45868   */\n      tag_562\n      jump\t// in\n    tag_1063:\n        /* \"#utility.yul\":45843:45868   */\n      swap3\n      pop\n        /* \"#utility.yul\":45892:45893   */\n      dup3\n        /* \"#utility.yul\":45889:45890   */\n      dup3\n        /* \"#utility.yul\":45885:45894   */\n      sub\n        /* \"#utility.yul\":45877:45894   */\n      swap1\n      pop\n        /* \"#utility.yul\":45916:45917   */\n      dup2\n        /* \"#utility.yul\":45910:45914   */\n      dup2\n        /* \"#utility.yul\":45907:45918   */\n      gt\n        /* \"#utility.yul\":45904:45941   */\n      iszero\n      tag_1064\n      jumpi\n        /* \"#utility.yul\":45921:45939   */\n      tag_1065\n      tag_618\n      jump\t// in\n    tag_1065:\n        /* \"#utility.yul\":45904:45941   */\n    tag_1064:\n        /* \"#utility.yul\":45754:45948   */\n      swap3\n      swap2\n      pop\n      pop\n      jump\t// out\n        /* \"#utility.yul\":45954:46487   */\n    tag_448:\n        /* \"#utility.yul\":46123:46127   */\n      0x00\n        /* \"#utility.yul\":46161:46163   */\n      0x60\n        /* \"#utility.yul\":46150:46159   */\n      dup3\n        /* \"#utility.yul\":46146:46164   */\n      add\n        /* \"#utility.yul\":46138:46164   */\n      swap1\n      pop\n        /* \"#utility.yul\":46210:46219   */\n      dup2\n        /* \"#utility.yul\":46204:46208   */\n      dup2\n        /* \"#utility.yul\":46200:46220   */\n      sub\n        /* \"#utility.yul\":46196:46197   */\n      0x00\n        /* \"#utility.yul\":46185:46194   */\n      dup4\n        /* \"#utility.yul\":46181:46198   */\n      add\n        /* \"#utility.yul\":46174:46221   */\n      mstore\n        /* \"#utility.yul\":46238:46316   */\n      tag_1067\n        /* \"#utility.yul\":46311:46315   */\n      dup2\n        /* \"#utility.yul\":46302:46308   */\n      dup7\n        /* \"#utility.yul\":46238:46316   */\n      tag_569\n      jump\t// in\n    tag_1067:\n        /* \"#utility.yul\":46230:46316   */\n      swap1\n      pop\n        /* \"#utility.yul\":46326:46398   */\n      tag_1068\n        /* \"#utility.yul\":46394:46396   */\n      0x20\n        /* \"#utility.yul\":46383:46392   */\n      dup4\n        /* \"#utility.yul\":46379:46397   */\n      add\n        /* \"#utility.yul\":46370:46376   */\n      dup6\n        /* \"#utility.yul\":46326:46398   */\n      tag_563\n      jump\t// in\n    tag_1068:\n        /* \"#utility.yul\":46408:46480   */\n      tag_1069\n        /* \"#utility.yul\":46476:46478   */\n      0x40\n        /* \"#utility.yul\":46465:46474   */\n      dup4\n        /* \"#utility.yul\":46461:46479   */\n      add\n        /* \"#utility.yul\":46452:46458   */\n      dup5\n        /* \"#utility.yul\":46408:46480   */\n      tag_563\n      jump\t// in\n    tag_1069:\n        /* \"#utility.yul\":45954:46487   */\n      swap5\n      swap4\n      pop\n      pop\n      pop\n      pop\n      jump\t// out\n        /* \"#utility.yul\":46493:46661   */\n    tag_646:\n        /* \"#utility.yul\":46633:46653   */\n      0x737573706963696f6e5468726573686f6c640000000000000000000000000000\n        /* \"#utility.yul\":46629:46630   */\n      0x00\n        /* \"#utility.yul\":46621:46627   */\n      dup3\n        /* \"#utility.yul\":46617:46631   */\n      add\n        /* \"#utility.yul\":46610:46654   */\n      mstore\n        /* \"#utility.yul\":46493:46661   */\n      pop\n      jump\t// out\n        /* \"#utility.yul\":46667:47033   */\n    tag_647:\n        /* \"#utility.yul\":46809:46812   */\n      0x00\n        /* \"#utility.yul\":46830:46897   */\n      tag_1072\n        /* \"#utility.yul\":46894:46896   */\n      0x12\n        /* \"#utility.yul\":46889:46892   */\n      dup4\n        /* \"#utility.yul\":46830:46897   */\n      tag_567\n      jump\t// in\n    tag_1072:\n        /* \"#utility.yul\":46823:46897   */\n      swap2\n      pop\n        /* \"#utility.yul\":46906:46999   */\n      tag_1073\n        /* \"#utility.yul\":46995:46998   */\n      dup3\n        /* \"#utility.yul\":46906:46999   */\n      tag_646\n      jump\t// in\n    tag_1073:\n        /* \"#utility.yul\":47024:47026   */\n      0x20\n        /* \"#utility.yul\":47019:47022   */\n      dup3\n        /* \"#utility.yul\":47015:47027   */\n      add\n        /* \"#utility.yul\":47008:47027   */\n      swap1\n      pop\n        /* \"#utility.yul\":46667:47033   */\n      swap2\n      swap1\n      pop\n      jump\t// out\n        /* \"#utility.yul\":47039:47568   */\n    tag_461:\n        /* \"#utility.yul\":47233:47237   */\n      0x00\n        /* \"#utility.yul\":47271:47273   */\n      0x40\n        /* \"#utility.yul\":47260:47269   */\n      dup3\n        /* \"#utility.yul\":47256:47274   */\n      add\n        /* \"#utility.yul\":47248:47274   */\n      swap1\n      pop\n        /* \"#utility.yul\":47320:47329   */\n      dup2\n        /* \"#utility.yul\":47314:47318   */\n      dup2\n        /* \"#utility.yul\":47310:47330   */\n      sub\n        /* \"#utility.yul\":47306:47307   */\n      0x00\n        /* \"#utility.yul\":47295:47304   */\n      dup4\n        /* \"#utility.yul\":47291:47308   */\n      add\n        /* \"#utility.yul\":47284:47331   */\n      mstore\n        /* \"#utility.yul\":47348:47479   */\n      tag_1075\n        /* \"#utility.yul\":47474:47478   */\n      dup2\n        /* \"#utility.yul\":47348:47479   */\n      tag_647\n      jump\t// in\n    tag_1075:\n        /* \"#utility.yul\":47340:47479   */\n      swap1\n      pop\n        /* \"#utility.yul\":47489:47561   */\n      tag_1076\n        /* \"#utility.yul\":47557:47559   */\n      0x20\n        /* \"#utility.yul\":47546:47555   */\n      dup4\n        /* \"#utility.yul\":47542:47560   */\n      add\n        /* \"#utility.yul\":47533:47539   */\n      dup5\n        /* \"#utility.yul\":47489:47561   */\n      tag_563\n      jump\t// in\n    tag_1076:\n        /* \"#utility.yul\":47039:47568   */\n      swap3\n      swap2\n      pop\n      pop\n      jump\t// out\n        /* \"#utility.yul\":47574:47746   */\n    tag_648:\n        /* \"#utility.yul\":47714:47738   */\n      0x53797374656d20616c72656164792072756e6e696e6700000000000000000000\n        /* \"#utility.yul\":47710:47711   */\n      0x00\n        /* \"#utility.yul\":47702:47708   */\n      dup3\n        /* \"#utility.yul\":47698:47712   */\n      add\n        /* \"#utility.yul\":47691:47739   */\n      mstore\n        /* \"#utility.yul\":47574:47746   */\n      pop\n      jump\t// out\n        /* \"#utility.yul\":47752:48118   */\n    tag_649:\n        /* \"#utility.yul\":47894:47897   */\n      0x00\n        /* \"#utility.yul\":47915:47982   */\n      tag_1079\n        /* \"#utility.yul\":47979:47981   */\n      0x16\n        /* \"#utility.yul\":47974:47977   */\n      dup4\n        /* \"#utility.yul\":47915:47982   */\n      tag_567\n      jump\t// in\n    tag_1079:\n        /* \"#utility.yul\":47908:47982   */\n      swap2\n      pop\n        /* \"#utility.yul\":47991:48084   */\n      tag_1080\n        /* \"#utility.yul\":48080:48083   */\n      dup3\n        /* \"#utility.yul\":47991:48084   */\n      tag_648\n      jump\t// in\n    tag_1080:\n        /* \"#utility.yul\":48109:48111   */\n      0x20\n        /* \"#utility.yul\":48104:48107   */\n      dup3\n        /* \"#utility.yul\":48100:48112   */\n      add\n        /* \"#utility.yul\":48093:48112   */\n      swap1\n      pop\n        /* \"#utility.yul\":47752:48118   */\n      swap2\n      swap1\n      pop\n      jump\t// out\n        /* \"#utility.yul\":48124:48543   */\n    tag_469:\n        /* \"#utility.yul\":48290:48294   */\n      0x00\n        /* \"#utility.yul\":48328:48330   */\n      0x20\n        /* \"#utility.yul\":48317:48326   */\n      dup3\n        /* \"#utility.yul\":48313:48331   */\n      add\n        /* \"#utility.yul\":48305:48331   */\n      swap1\n      pop\n        /* \"#utility.yul\":48377:48386   */\n      dup2\n        /* \"#utility.yul\":48371:48375   */\n      dup2\n        /* \"#utility.yul\":48367:48387   */\n      sub\n        /* \"#utility.yul\":48363:48364   */\n      0x00\n        /* \"#utility.yul\":48352:48361   */\n      dup4\n        /* \"#utility.yul\":48348:48365   */\n      add\n        /* \"#utility.yul\":48341:48388   */\n      mstore\n        /* \"#utility.yul\":48405:48536   */\n      tag_1082\n        /* \"#utility.yul\":48531:48535   */\n      dup2\n        /* \"#utility.yul\":48405:48536   */\n      tag_649\n      jump\t// in\n    tag_1082:\n        /* \"#utility.yul\":48397:48536   */\n      swap1\n      pop\n        /* \"#utility.yul\":48124:48543   */\n      swap2\n      swap1\n      pop\n      jump\t// out\n        /* \"#utility.yul\":48549:48722   */\n    tag_650:\n        /* \"#utility.yul\":48689:48714   */\n      0x6d6178436f6e6e656374696f6e735065724d696e757465000000000000000000\n        /* \"#utility.yul\":48685:48686   */\n      0x00\n        /* \"#utility.yul\":48677:48683   */\n      dup3\n        /* \"#utility.yul\":48673:48687   */\n      add\n        /* \"#utility.yul\":48666:48715   */\n      mstore\n        /* \"#utility.yul\":48549:48722   */\n      pop\n      jump\t// out\n        /* \"#utility.yul\":48728:49094   */\n    tag_651:\n        /* \"#utility.yul\":48870:48873   */\n      0x00\n        /* \"#utility.yul\":48891:48958   */\n      tag_1085\n        /* \"#utility.yul\":48955:48957   */\n      0x17\n        /* \"#utility.yul\":48950:48953   */\n      dup4\n        /* \"#utility.yul\":48891:48958   */\n      tag_567\n      jump\t// in\n    tag_1085:\n        /* \"#utility.yul\":48884:48958   */\n      swap2\n      pop\n        /* \"#utility.yul\":48967:49060   */\n      tag_1086\n        /* \"#utility.yul\":49056:49059   */\n      dup3\n        /* \"#utility.yul\":48967:49060   */\n      tag_650\n      jump\t// in\n    tag_1086:\n        /* \"#utility.yul\":49085:49087   */\n      0x20\n        /* \"#utility.yul\":49080:49083   */\n      dup3\n        /* \"#utility.yul\":49076:49088   */\n      add\n        /* \"#utility.yul\":49069:49088   */\n      swap1\n      pop\n        /* \"#utility.yul\":48728:49094   */\n      swap2\n      swap1\n      pop\n      jump\t// out\n        /* \"#utility.yul\":49100:49629   */\n    tag_500:\n        /* \"#utility.yul\":49294:49298   */\n      0x00\n        /* \"#utility.yul\":49332:49334   */\n      0x40\n        /* \"#utility.yul\":49321:49330   */\n      dup3\n        /* \"#utility.yul\":49317:49335   */\n      add\n        /* \"#utility.yul\":49309:49335   */\n      swap1\n      pop\n        /* \"#utility.yul\":49381:49390   */\n      dup2\n        /* \"#utility.yul\":49375:49379   */\n      dup2\n        /* \"#utility.yul\":49371:49391   */\n      sub\n        /* \"#utility.yul\":49367:49368   */\n      0x00\n        /* \"#utility.yul\":49356:49365   */\n      dup4\n        /* \"#utility.yul\":49352:49369   */\n      add\n        /* \"#utility.yul\":49345:49392   */\n      mstore\n        /* \"#utility.yul\":49409:49540   */\n      tag_1088\n        /* \"#utility.yul\":49535:49539   */\n      dup2\n        /* \"#utility.yul\":49409:49540   */\n      tag_651\n      jump\t// in\n    tag_1088:\n        /* \"#utility.yul\":49401:49540   */\n      swap1\n      pop\n        /* \"#utility.yul\":49550:49622   */\n      tag_1089\n        /* \"#utility.yul\":49618:49620   */\n      0x20\n        /* \"#utility.yul\":49607:49616   */\n      dup4\n        /* \"#utility.yul\":49603:49621   */\n      add\n        /* \"#utility.yul\":49594:49600   */\n      dup5\n        /* \"#utility.yul\":49550:49622   */\n      tag_563\n      jump\t// in\n    tag_1089:\n        /* \"#utility.yul\":49100:49629   */\n      swap3\n      swap2\n      pop\n      pop\n      jump\t// out\n    stop\n    data_90f4d30a3ae405433ec9e69f5ffed0d3674eaa8703169865ba38ebb98055bb78 4175746f2d446574656374656420537573706963696f7573204163746976697479\n    data_faaca1b35c816affd650c62c0cec07087df83af3fcdd0ecf3c3efe7bea22f0dc 4175746f6d61746963616c6c7920626c6f636b65642064756520746f206869676820737573706963696f6e2073636f7265\n\n    auxdata: 0xa26469706673582212209c02c898a21912cf5f76c107118f1c67f251e046d3f0518b7be6c3347cd06fc364736f6c634300081e0033\n}\n",
				"bytecode": {
					"linkReferences": {},
					"object": "60806040526064600f556101f46010556103e8601155348015610020575f5ffd5b50335f5f6101000a81548173ffffffffffffffffffffffffffffffffffffffff021916908373ffffffffffffffffffffffffffffffffffffffff160217905550600160065f3373ffffffffffffffffffffffffffffffffffffffff1673ffffffffffffffffffffffffffffffffffffffff1681526020019081526020015f205f6101000a81548160ff0219169083151502179055505f6001819055505f6002819055505f60035f6101000a81548160ff0219169083151502179055506001600360016101000a81548160ff0219169083151502179055506040518060a001604052805f81526020015f81526020015f81526020015f815260200142815250600a5f820151815f015560208201518160010155604082015181600201556060820151816003015560808201518160040155905050615144806101605f395ff3fe608060405234801561000f575f5ffd5b5060043610610267575f3560e01c80636dd3e61a1161014f578063a0e362f9116100c1578063b3d9bffc11610085578063b3d9bffc14610788578063be7c409114610792578063c021e0f6146107b0578063c10460d8146107d2578063d54e398b14610802578063ed6229b21461081e57610267565b8063a0e362f9146106d9578063ac584166146106f5578063ad91cb94146106ff578063b11b267b1461072f578063b2df46961461076a57610267565b80637b064412116101135780637b0644121461061957806381544029146106355780638cbab21f146106655780638da5cb5b146106815780639a4d6f731461069f5780639fdb4729146106a957610267565b80636dd3e61a146105875780636eb143ba146105b75780636eed7e43146105d557806370480275146105df5780637a26b08f146105fb57610267565b80632fe37089116101e857806348462037116101ac57806348462037146104ab5780634a662f48146104db57806350c1d19d146104f95780635c3ca9101461051b5780635db2e212146105395780636096954f1461056957610267565b80632fe37089146103f357806330626b5c14610411578063351662261461042d5780633df907c31461044b578063444927ac1461047b57610267565b806322347c311161022f57806322347c3114610328578063225b623a1461035857806324d7806c146103745780632e7389f4146103a45780632f0ee67f146103c057610267565b80630e7310f81461026b5780630ecc9b241461028757806311454c16146102a5578063175a292d146102dc5780631785f53c1461030c575b5f5ffd5b61028560048036038101906102809190613a9f565b61083a565b005b61028f61098b565b60405161029c9190613afe565b60405180910390f35b6102bf60048036038101906102ba9190613b41565b610991565b6040516102d3989796959493929190613c59565b60405180910390f35b6102f660048036038101906102f19190613a9f565b610b7f565b6040516103039190613cea565b60405180910390f35b61032660048036038101906103219190613d5d565b610bb2565b005b610342600480360381019061033d9190613dd5565b610d68565b60405161034f9190613afe565b60405180910390f35b610372600480360381019061036d9190613a9f565b611026565b005b61038e60048036038101906103899190613d5d565b611177565b60405161039b9190613cea565b60405180910390f35b6103be60048036038101906103b99190613ea0565b6111c9565b005b6103da60048036038101906103d59190613a9f565b611360565b6040516103ea9493929190613ede565b60405180910390f35b6103fb6113b0565b6040516104089190613afe565b60405180910390f35b61042b60048036038101906104269190613b41565b6113b6565b005b6104356115d9565b6040516104429190613cea565b60405180910390f35b61046560048036038101906104609190613a9f565b6115eb565b6040516104729190613cea565b60405180910390f35b61049560048036038101906104909190613b41565b611620565b6040516104a29190614051565b60405180910390f35b6104c560048036038101906104c09190613b41565b6118bd565b6040516104d2919061421b565b60405180910390f35b6104e3611bff565b6040516104f091906142a1565b60405180910390f35b610501611c4a565b6040516105129594939291906142ba565b60405180910390f35b610523611c8b565b6040516105309190613afe565b60405180910390f35b610553600480360381019061054e9190613a9f565b611c94565b604051610560919061435e565b60405180910390f35b610571611d03565b60405161057e9190613afe565b60405180910390f35b6105a1600480360381019061059c91906143bd565b611d0c565b6040516105ae9190613afe565b60405180910390f35b6105bf612032565b6040516105cc9190613afe565b60405180910390f35b6105dd612038565b005b6105f960048036038101906105f49190613d5d565b61216a565b005b610603612301565b6040516106109190613cea565b60405180910390f35b610633600480360381019061062e9190613b41565b612314565b005b61064f600480360381019061064a9190613a9f565b612434565b60405161065c9190613cea565b60405180910390f35b61067f600480360381019061067a9190613a9f565b612469565b005b610689612580565b60405161069691906144d1565b60405180910390f35b6106a76125a4565b005b6106c360048036038101906106be91906144ea565b61273a565b6040516106d09190613cea565b60405180910390f35b6106f360048036038101906106ee9190613b41565b612a6d565b005b6106fd612b8d565b005b61071960048036038101906107149190613a9f565b612d25565b6040516107269190613cea565b60405180910390f35b61074960048036038101906107449190613b41565b612d58565b6040516107619c9b9a999897969594939291906145a4565b60405180910390f35b610772612f8b565b60405161077f9190613afe565b60405180910390f35b610790612f91565b005b61079a6130c5565b6040516107a79190613afe565b60405180910390f35b6107b86130cb565b6040516107c9959493929190614671565b60405180910390f35b6107ec60048036038101906107e79190613d5d565b6130ee565b6040516107f99190613cea565b60405180910390f35b61081c60048036038101906108179190613b41565b61310b565b005b61083860048036038101906108339190613a9f565b61322b565b005b60065f3373ffffffffffffffffffffffffffffffffffffffff1673ffffffffffffffffffffffffffffffffffffffff1681526020019081526020015f205f9054906101000a900460ff16806108da57505f5f9054906101000a900473ffffffffffffffffffffffffffffffffffffffff1673ffffffffffffffffffffffffffffffffffffffff163373ffffffffffffffffffffffffffffffffffffffff16145b610919576040517f08c379a00000000000000000000000000000000000000000000000000000000081526004016109109061470c565b60405180910390fd5b600160088260405161092b9190614764565b90815260200160405180910390205f6101000a81548160ff0219169083151502179055507f9ec5d33cb96796d4745dc075180dc0bf6ed5552e1d8dfa94efe6138b674ee7f0813360405161098092919061477a565b60405180910390a150565b600f5481565b6005602052805f5260405f205f91509050805f0154908060010180546109b6906147d5565b80601f01602080910402602001604051908101604052809291908181526020018280546109e2906147d5565b8015610a2d5780601f10610a0457610100808354040283529160200191610a2d565b820191905f5260205f20905b815481529060010190602001808311610a1057829003601f168201915b505050505090806002018054610a42906147d5565b80601f0160208091040260200160405190810160405280929190818152602001828054610a6e906147d5565b8015610ab95780601f10610a9057610100808354040283529160200191610ab9565b820191905f5260205f20905b815481529060010190602001808311610a9c57829003601f168201915b505050505090806003015f9054906101000a900460ff1690806004015490806005018054610ae6906147d5565b80601f0160208091040260200160405190810160405280929190818152602001828054610b12906147d5565b8015610b5d5780601f10610b3457610100808354040283529160200191610b5d565b820191905f5260205f20905b815481529060010190602001808311610b4057829003601f168201915b505050505090806006015f9054906101000a900460ff16908060070154905088565b5f600782604051610b909190614764565b90815260200160405180910390205f9054906101000a900460ff169050919050565b5f5f9054906101000a900473ffffffffffffffffffffffffffffffffffffffff1673ffffffffffffffffffffffffffffffffffffffff163373ffffffffffffffffffffffffffffffffffffffff1614610c40576040517f08c379a0000000000000000000000000000000000000000000000000000000008152600401610c3790614875565b60405180910390fd5b5f5f9054906101000a900473ffffffffffffffffffffffffffffffffffffffff1673ffffffffffffffffffffffffffffffffffffffff168173ffffffffffffffffffffffffffffffffffffffff1603610cce576040517f08c379a0000000000000000000000000000000000000000000000000000000008152600401610cc5906148dd565b60405180910390fd5b5f60065f8373ffffffffffffffffffffffffffffffffffffffff1673ffffffffffffffffffffffffffffffffffffffff1681526020019081526020015f205f6101000a81548160ff0219169083151502179055508073ffffffffffffffffffffffffffffffffffffffff167fa3b62bc36326052d97ea62d63c3d60308ed4c3ea8ac079dd8499f1e9c4f80c0f60405160405180910390a250565b5f60065f3373ffffffffffffffffffffffffffffffffffffffff1673ffffffffffffffffffffffffffffffffffffffff1681526020019081526020015f205f9054906101000a900460ff1680610e0957505f5f9054906101000a900473ffffffffffffffffffffffffffffffffffffffff1673ffffffffffffffffffffffffffffffffffffffff163373ffffffffffffffffffffffffffffffffffffffff16145b610e48576040517f08c379a0000000000000000000000000000000000000000000000000000000008152600401610e3f9061470c565b60405180910390fd5b60025f815480929190610e5a90614928565b91905055506040518061010001604052806002548152602001878152602001868152602001856003811115610e9257610e91613bcc565b5b81526020014281526020018481526020018315158152602001600988604051610ebb9190614764565b90815260200160405180910390205f015481525060055f60025481526020019081526020015f205f820151815f01556020820151816001019081610eff9190614b0f565b506040820151816002019081610f159190614b0f565b506060820151816003015f6101000a81548160ff02191690836003811115610f4057610f3f613bcc565b5b02179055506080820151816004015560a0820151816005019081610f649190614b0f565b5060c0820151816006015f6101000a81548160ff02191690831515021790555060e082015181600701559050508115610fbf57610fa086613342565b600a6001015f815480929190610fb590614928565b9190505550610fda565b600a6002015f815480929190610fd490614928565b91905055505b6002547f660e83dce644f7be3fb68c939c1d49bb83394f37683cafdb498dc4c109803e6f87864260405161101093929190614bde565b60405180910390a2600254905095945050505050565b60065f3373ffffffffffffffffffffffffffffffffffffffff1673ffffffffffffffffffffffffffffffffffffffff1681526020019081526020015f205f9054906101000a900460ff16806110c657505f5f9054906101000a900473ffffffffffffffffffffffffffffffffffffffff1673ffffffffffffffffffffffffffffffffffffffff163373ffffffffffffffffffffffffffffffffffffffff16145b611105576040517f08c379a00000000000000000000000000000000000000000000000000000000081526004016110fc9061470c565b60405180910390fd5b60016007826040516111179190614764565b90815260200160405180910390205f6101000a81548160ff0219169083151502179055507f47da8e84d8ced9d32176dc5085e678adf759bbf786ff74f7ef79e7b41a262761813360405161116c92919061477a565b60405180910390a150565b5f60065f8373ffffffffffffffffffffffffffffffffffffffff1673ffffffffffffffffffffffffffffffffffffffff1681526020019081526020015f205f9054906101000a900460ff169050919050565b60065f3373ffffffffffffffffffffffffffffffffffffffff1673ffffffffffffffffffffffffffffffffffffffff1681526020019081526020015f205f9054906101000a900460ff168061126957505f5f9054906101000a900473ffffffffffffffffffffffffffffffffffffffff1673ffffffffffffffffffffffffffffffffffffffff163373ffffffffffffffffffffffffffffffffffffffff16145b6112a8576040517f08c379a000000000000000000000000000000000000000000000000000000000815260040161129f9061470c565b60405180910390fd5b5f821180156112b957506001548211155b6112f8576040517f08c379a00000000000000000000000000000000000000000000000000000000081526004016112ef90614c64565b60405180910390fd5b8060045f8481526020019081526020015f2060060160026101000a81548160ff021916908315150217905550817f7aeba5a23b1632f12ae9b736954cb19e2f8d2660f78afc700d7f4923b205a093826040516113549190613cea565b60405180910390a25050565b6009818051602081018201805184825260208301602085012081835280955050505050505f91509050805f015490806001015490806002015490806003015f9054906101000a900460ff16905084565b60105481565b60065f3373ffffffffffffffffffffffffffffffffffffffff1673ffffffffffffffffffffffffffffffffffffffff1681526020019081526020015f205f9054906101000a900460ff168061145657505f5f9054906101000a900473ffffffffffffffffffffffffffffffffffffffff1673ffffffffffffffffffffffffffffffffffffffff163373ffffffffffffffffffffffffffffffffffffffff16145b611495576040517f08c379a000000000000000000000000000000000000000000000000000000000815260040161148c9061470c565b60405180910390fd5b5f811180156114a657506001548111155b6114e5576040517f08c379a00000000000000000000000000000000000000000000000000000000081526004016114dc90614c64565b60405180910390fd5b60045f8281526020019081526020015f205f5f82015f9055600182015f61150c91906137c2565b600282015f61151b91906137c2565b600382015f61152a91906137c2565b600482015f9055600582015f9055600682015f6101000a81549060ff02191690556006820160016101000a81549060ff02191690556006820160026101000a81549060ff0219169055600782015f9055600882015f9055600982015f6101000a81549073ffffffffffffffffffffffffffffffffffffffff02191690555050807f5c4bd92909db22cc3978aa8b39244161c4944f7abfcd72cc33f87dae997870aa60405160405180910390a250565b60035f9054906101000a900460ff1681565b6007818051602081018201805184825260208301602085012081835280955050505050505f915054906101000a900460ff1681565b6116286137ff565b5f8211801561163957506002548211155b611678576040517f08c379a000000000000000000000000000000000000000000000000000000000815260040161166f90614ccc565b60405180910390fd5b60055f8381526020019081526020015f20604051806101000160405290815f82015481526020016001820180546116ae906147d5565b80601f01602080910402602001604051908101604052809291908181526020018280546116da906147d5565b80156117255780601f106116fc57610100808354040283529160200191611725565b820191905f5260205f20905b81548152906001019060200180831161170857829003601f168201915b5050505050815260200160028201805461173e906147d5565b80601f016020809104026020016040519081016040528092919081815260200182805461176a906147d5565b80156117b55780601f1061178c576101008083540402835291602001916117b5565b820191905f5260205f20905b81548152906001019060200180831161179857829003601f168201915b50505050508152602001600382015f9054906101000a900460ff1660038111156117e2576117e1613bcc565b5b60038111156117f4576117f3613bcc565b5b815260200160048201548152602001600582018054611812906147d5565b80601f016020809104026020016040519081016040528092919081815260200182805461183e906147d5565b80156118895780601f1061186057610100808354040283529160200191611889565b820191905f5260205f20905b81548152906001019060200180831161186c57829003601f168201915b50505050508152602001600682015f9054906101000a900460ff161515151581526020016007820154815250509050919050565b6118c5613853565b5f821180156118d657506001548211155b611915576040517f08c379a000000000000000000000000000000000000000000000000000000000815260040161190c90614c64565b60405180910390fd5b60045f8381526020019081526020015f20604051806101800160405290815f820154815260200160018201805461194b906147d5565b80601f0160208091040260200160405190810160405280929190818152602001828054611977906147d5565b80156119c25780601f10611999576101008083540402835291602001916119c2565b820191905f5260205f20905b8154815290600101906020018083116119a557829003601f168201915b505050505081526020016002820180546119db906147d5565b80601f0160208091040260200160405190810160405280929190818152602001828054611a07906147d5565b8015611a525780601f10611a2957610100808354040283529160200191611a52565b820191905f5260205f20905b815481529060010190602001808311611a3557829003601f168201915b50505050508152602001600382018054611a6b906147d5565b80601f0160208091040260200160405190810160405280929190818152602001828054611a97906147d5565b8015611ae25780601f10611ab957610100808354040283529160200191611ae2565b820191905f5260205f20905b815481529060010190602001808311611ac557829003601f168201915b505050505081526020016004820154815260200160058201548152602001600682015f9054906101000a900460ff166005811115611b2357611b22613bcc565b5b6005811115611b3557611b34613bcc565b5b81526020016006820160019054906101000a900460ff166002811115611b5e57611b5d613bcc565b5b6002811115611b7057611b6f613bcc565b5b81526020016006820160029054906101000a900460ff161515151581526020016007820154815260200160088201548152602001600982015f9054906101000a900473ffffffffffffffffffffffffffffffffffffffff1673ffffffffffffffffffffffffffffffffffffffff1673ffffffffffffffffffffffffffffffffffffffff16815250509050919050565b611c076138e7565b600a6040518060a00160405290815f8201548152602001600182015481526020016002820154815260200160038201548152602001600482015481525050905090565b5f5f5f5f5f60035f9054906101000a900460ff16600360019054906101000a900460ff16600254600a60010154600154945094509450945094509091929394565b5f600154905090565b611c9c613911565b600982604051611cac9190614764565b90815260200160405180910390206040518060800160405290815f82015481526020016001820154815260200160028201548152602001600382015f9054906101000a900460ff1615151515815250509050919050565b5f600254905090565b5f60065f3373ffffffffffffffffffffffffffffffffffffffff1673ffffffffffffffffffffffffffffffffffffffff1681526020019081526020015f205f9054906101000a900460ff1680611dad57505f5f9054906101000a900473ffffffffffffffffffffffffffffffffffffffff1673ffffffffffffffffffffffffffffffffffffffff163373ffffffffffffffffffffffffffffffffffffffff16145b611dec576040517f08c379a0000000000000000000000000000000000000000000000000000000008152600401611de39061470c565b60405180910390fd5b60015f815480929190611dfe90614928565b919050555060405180610180016040528060015481526020018a8152602001898152602001888152602001878152602001868152602001856005811115611e4857611e47613bcc565b5b8152602001846002811115611e6057611e5f613bcc565b5b81526020016001151581526020018381526020014281526020013373ffffffffffffffffffffffffffffffffffffffff1681525060045f60015481526020019081526020015f205f820151815f01556020820151816001019081611ec49190614b0f565b506040820151816002019081611eda9190614b0f565b506060820151816003019081611ef09190614b0f565b506080820151816004015560a0820151816005015560c0820151816006015f6101000a81548160ff02191690836005811115611f2f57611f2e613bcc565b5b021790555060e08201518160060160016101000a81548160ff02191690836002811115611f5f57611f5e613bcc565b5b02179055506101008201518160060160026101000a81548160ff02191690831515021790555061012082015181600701556101408201518160080155610160820151816009015f6101000a81548173ffffffffffffffffffffffffffffffffffffffff021916908373ffffffffffffffffffffffffffffffffffffffff1602179055509050506001547feef4ab80be438bd786e0d340d5494930b9916b35de336e115e328076f2ea6dc48a85604051612019929190614cea565b60405180910390a2600154905098975050505050505050565b60025481565b60065f3373ffffffffffffffffffffffffffffffffffffffff1673ffffffffffffffffffffffffffffffffffffffff1681526020019081526020015f205f9054906101000a900460ff16806120d857505f5f9054906101000a900473ffffffffffffffffffffffffffffffffffffffff1673ffffffffffffffffffffffffffffffffffffffff163373ffffffffffffffffffffffffffffffffffffffff16145b612117576040517f08c379a000000000000000000000000000000000000000000000000000000000815260040161210e9061470c565b60405180910390fd5b5f600360016101000a81548160ff0219169083151502179055507f6e7ad8b07133ce5a518b1001dd033dc8403c768f691a1f8e81140fa664deb6905f6040516121609190613cea565b60405180910390a1565b5f5f9054906101000a900473ffffffffffffffffffffffffffffffffffffffff1673ffffffffffffffffffffffffffffffffffffffff163373ffffffffffffffffffffffffffffffffffffffff16146121f8576040517f08c379a00000000000000000000000000000000000000000000000000000000081526004016121ef90614875565b60405180910390fd5b5f73ffffffffffffffffffffffffffffffffffffffff168173ffffffffffffffffffffffffffffffffffffffff1603612266576040517f08c379a000000000000000000000000000000000000000000000000000000000815260040161225d90614d62565b60405180910390fd5b600160065f8373ffffffffffffffffffffffffffffffffffffffff1673ffffffffffffffffffffffffffffffffffffffff1681526020019081526020015f205f6101000a81548160ff0219169083151502179055508073ffffffffffffffffffffffffffffffffffffffff167f44d6d25963f097ad14f29f06854a01f575648a1ef82f30e562ccd3889717e33960405160405180910390a250565b600360019054906101000a900460ff1681565b60065f3373ffffffffffffffffffffffffffffffffffffffff1673ffffffffffffffffffffffffffffffffffffffff1681526020019081526020015f205f9054906101000a900460ff16806123b457505f5f9054906101000a900473ffffffffffffffffffffffffffffffffffffffff1673ffffffffffffffffffffffffffffffffffffffff163373ffffffffffffffffffffffffffffffffffffffff16145b6123f3576040517f08c379a00000000000000000000000000000000000000000000000000000000081526004016123ea9061470c565b60405180910390fd5b806011819055507fbc563de8c41ac66a7038e5cdcc313d786622bb5a46f1f62d154e52c7fd363d68816040516124299190614dca565b60405180910390a150565b6008818051602081018201805184825260208301602085012081835280955050505050505f915054906101000a900460ff1681565b60065f3373ffffffffffffffffffffffffffffffffffffffff1673ffffffffffffffffffffffffffffffffffffffff1681526020019081526020015f205f9054906101000a900460ff168061250957505f5f9054906101000a900473ffffffffffffffffffffffffffffffffffffffff1673ffffffffffffffffffffffffffffffffffffffff163373ffffffffffffffffffffffffffffffffffffffff16145b612548576040517f08c379a000000000000000000000000000000000000000000000000000000000815260040161253f9061470c565b60405180910390fd5b5f6008826040516125599190614764565b90815260200160405180910390205f6101000a81548160ff02191690831515021790555050565b5f5f9054906101000a900473ffffffffffffffffffffffffffffffffffffffff1681565b60065f3373ffffffffffffffffffffffffffffffffffffffff1673ffffffffffffffffffffffffffffffffffffffff1681526020019081526020015f205f9054906101000a900460ff168061264457505f5f9054906101000a900473ffffffffffffffffffffffffffffffffffffffff1673ffffffffffffffffffffffffffffffffffffffff163373ffffffffffffffffffffffffffffffffffffffff16145b612683576040517f08c379a000000000000000000000000000000000000000000000000000000000815260040161267a9061470c565b60405180910390fd5b60035f9054906101000a900460ff166126d1576040517f08c379a00000000000000000000000000000000000000000000000000000000081526004016126c890614e40565b60405180910390fd5b5f60035f6101000a81548160ff0219169083151502179055503373ffffffffffffffffffffffffffffffffffffffff167f165cc0a9d21d213451d7358030906940c0873ba0f45dadfa286d12f957a91177426040516127309190613afe565b60405180910390a2565b5f60065f3373ffffffffffffffffffffffffffffffffffffffff1673ffffffffffffffffffffffffffffffffffffffff1681526020019081526020015f205f9054906101000a900460ff16806127db57505f5f9054906101000a900473ffffffffffffffffffffffffffffffffffffffff1673ffffffffffffffffffffffffffffffffffffffff163373ffffffffffffffffffffffffffffffffffffffff16145b61281a576040517f08c379a00000000000000000000000000000000000000000000000000000000081526004016128119061470c565b60405180910390fd5b60035f9054906101000a900460ff16612868576040517f08c379a000000000000000000000000000000000000000000000000000000000815260040161285f90614ea8565b60405180910390fd5b600a5f015f81548092919061287c90614928565b91905055506008856040516128919190614764565b90815260200160405180910390205f9054906101000a900460ff16156128ba5760019050612a65565b6007856040516128ca9190614764565b90815260200160405180910390205f9054906101000a900460ff161561290c57600a6001015f8154809291906128ff90614928565b91905055505f9050612a65565b5f60098660405161291d9190614764565b90815260200160405180910390209050805f015f81548092919061294090614928565b91905055504281600101819055506001816003015f6101000a81548160ff021916908315150217905550600360019054906101000a900460ff1615612a5f57600f54815f015411156129a8576064816002015f8282546129a09190614ec6565b925050819055505b60018160010154426129ba9190614ef9565b10156129dc576032816002015f8282546129d49190614ec6565b925050819055505b7f897b3330d7532b2d19e68c076324c22552b47ba90b511669bc2a0c8b58a7e31086825f01548360020154604051612a1693929190614f2c565b60405180910390a1601154816002015410612a4257612a39868260020154613395565b5f915050612a65565b601054816002015410612a5e57612a5d8682600201546135b1565b5b5b60019150505b949350505050565b60065f3373ffffffffffffffffffffffffffffffffffffffff1673ffffffffffffffffffffffffffffffffffffffff1681526020019081526020015f205f9054906101000a900460ff1680612b0d57505f5f9054906101000a900473ffffffffffffffffffffffffffffffffffffffff1673ffffffffffffffffffffffffffffffffffffffff163373ffffffffffffffffffffffffffffffffffffffff16145b612b4c576040517f08c379a0000000000000000000000000000000000000000000000000000000008152600401612b439061470c565b60405180910390fd5b806010819055507fbc563de8c41ac66a7038e5cdcc313d786622bb5a46f1f62d154e52c7fd363d6881604051612b829190614fb2565b60405180910390a150565b60065f3373ffffffffffffffffffffffffffffffffffffffff1673ffffffffffffffffffffffffffffffffffffffff1681526020019081526020015f205f9054906101000a900460ff1680612c2d57505f5f9054906101000a900473ffffffffffffffffffffffffffffffffffffffff1673ffffffffffffffffffffffffffffffffffffffff163373ffffffffffffffffffffffffffffffffffffffff16145b612c6c576040517f08c379a0000000000000000000000000000000000000000000000000000000008152600401612c639061470c565b60405180910390fd5b60035f9054906101000a900460ff1615612cbb576040517f08c379a0000000000000000000000000000000000000000000000000000000008152600401612cb290615028565b60405180910390fd5b600160035f6101000a81548160ff0219169083151502179055503373ffffffffffffffffffffffffffffffffffffffff167f1ed67830eb62a203a43ac29178d7fcb7996cd3b36190838d8de3f63ac1312f8f42604051612d1b9190613afe565b60405180910390a2565b5f600882604051612d369190614764565b90815260200160405180910390205f9054906101000a900460ff169050919050565b6004602052805f5260405f205f91509050805f015490806001018054612d7d906147d5565b80601f0160208091040260200160405190810160405280929190818152602001828054612da9906147d5565b8015612df45780601f10612dcb57610100808354040283529160200191612df4565b820191905f5260205f20905b815481529060010190602001808311612dd757829003601f168201915b505050505090806002018054612e09906147d5565b80601f0160208091040260200160405190810160405280929190818152602001828054612e35906147d5565b8015612e805780601f10612e5757610100808354040283529160200191612e80565b820191905f5260205f20905b815481529060010190602001808311612e6357829003601f168201915b505050505090806003018054612e95906147d5565b80601f0160208091040260200160405190810160405280929190818152602001828054612ec1906147d5565b8015612f0c5780601f10612ee357610100808354040283529160200191612f0c565b820191905f5260205f20905b815481529060010190602001808311612eef57829003601f168201915b505050505090806004015490806005015490806006015f9054906101000a900460ff16908060060160019054906101000a900460ff16908060060160029054906101000a900460ff1690806007015490806008015490806009015f9054906101000a900473ffffffffffffffffffffffffffffffffffffffff1690508c565b60015481565b60065f3373ffffffffffffffffffffffffffffffffffffffff1673ffffffffffffffffffffffffffffffffffffffff1681526020019081526020015f205f9054906101000a900460ff168061303157505f5f9054906101000a900473ffffffffffffffffffffffffffffffffffffffff1673ffffffffffffffffffffffffffffffffffffffff163373ffffffffffffffffffffffffffffffffffffffff16145b613070576040517f08c379a00000000000000000000000000000000000000000000000000000000081526004016130679061470c565b60405180910390fd5b6001600360016101000a81548160ff0219169083151502179055507f6e7ad8b07133ce5a518b1001dd033dc8403c768f691a1f8e81140fa664deb69060016040516130bb9190613cea565b60405180910390a1565b60115481565b600a805f0154908060010154908060020154908060030154908060040154905085565b6006602052805f5260405f205f915054906101000a900460ff1681565b60065f3373ffffffffffffffffffffffffffffffffffffffff1673ffffffffffffffffffffffffffffffffffffffff1681526020019081526020015f205f9054906101000a900460ff16806131ab57505f5f9054906101000a900473ffffffffffffffffffffffffffffffffffffffff1673ffffffffffffffffffffffffffffffffffffffff163373ffffffffffffffffffffffffffffffffffffffff16145b6131ea576040517f08c379a00000000000000000000000000000000000000000000000000000000081526004016131e19061470c565b60405180910390fd5b80600f819055507fbc563de8c41ac66a7038e5cdcc313d786622bb5a46f1f62d154e52c7fd363d68816040516132209190615090565b60405180910390a150565b60065f3373ffffffffffffffffffffffffffffffffffffffff1673ffffffffffffffffffffffffffffffffffffffff1681526020019081526020015f205f9054906101000a900460ff16806132cb57505f5f9054906101000a900473ffffffffffffffffffffffffffffffffffffffff1673ffffffffffffffffffffffffffffffffffffffff163373ffffffffffffffffffffffffffffffffffffffff16145b61330a576040517f08c379a00000000000000000000000000000000000000000000000000000000081526004016133019061470c565b60405180910390fd5b5f60078260405161331b9190614764565b90815260200160405180910390205f6101000a81548160ff02191690831515021790555050565b60016007826040516133549190614764565b90815260200160405180910390205f6101000a81548160ff021916908315150217905550600a6003015f81548092919061338d90614928565b919050555050565b61339e82613342565b60025f8154809291906133b090614928565b919050555060405180610100016040528060025481526020018381526020016040518060600160405280602181526020016150bd6021913981526020016002600381111561340157613400613bcc565b5b81526020014281526020016040518060600160405280603181526020016150de6031913981526020016001151581526020016009846040516134439190614764565b90815260200160405180910390205f015481525060055f60025481526020019081526020015f205f820151815f015560208201518160010190816134879190614b0f565b50604082015181600201908161349d9190614b0f565b506060820151816003015f6101000a81548160ff021916908360038111156134c8576134c7613bcc565b5b02179055506080820151816004015560a08201518160050190816134ec9190614b0f565b5060c0820151816006015f6101000a81548160ff02191690831515021790555060e08201518160070155905050600a6001015f81548092919061352e90614928565b91905055507fcc1d5b324e70231335c276ef854240cf68e363ae188f5c3c1f4f225e5982b28482824260405161356693929190614f2c565b60405180910390a16002547f660e83dce644f7be3fb68c939c1d49bb83394f37683cafdb498dc4c109803e6f836002426040516135a593929190614bde565b60405180910390a25050565b60025f8154809291906135c390614928565b919050555060405180610100016040528060025481526020018381526020016040518060400160405280601c81526020017f537573706963696f75732041637469766974792044657465637465640000000081525081526020016001600381111561363157613630613bcc565b5b81526020014281526020016040518060400160405280601d81526020017f4869676820636f6e6e656374696f6e207261746520646574656374656400000081525081526020015f1515815260200160098460405161368f9190614764565b90815260200160405180910390205f015481525060055f60025481526020019081526020015f205f820151815f015560208201518160010190816136d39190614b0f565b5060408201518160020190816136e99190614b0f565b506060820151816003015f6101000a81548160ff0219169083600381111561371457613713613bcc565b5b02179055506080820151816004015560a08201518160050190816137389190614b0f565b5060c0820151816006015f6101000a81548160ff02191690831515021790555060e08201518160070155905050600a6002015f81548092919061377a90614928565b91905055506002547f660e83dce644f7be3fb68c939c1d49bb83394f37683cafdb498dc4c109803e6f836001426040516137b693929190614bde565b60405180910390a25050565b5080546137ce906147d5565b5f825580601f106137df57506137fc565b601f0160209004905f5260205f20908101906137fb9190613937565b5b50565b6040518061010001604052805f815260200160608152602001606081526020015f600381111561383257613831613bcc565b5b81526020015f8152602001606081526020015f151581526020015f81525090565b6040518061018001604052805f81526020016060815260200160608152602001606081526020015f81526020015f81526020015f600581111561389957613898613bcc565b5b81526020015f60028111156138b1576138b0613bcc565b5b81526020015f151581526020015f81526020015f81526020015f73ffffffffffffffffffffffffffffffffffffffff1681525090565b6040518060a001604052805f81526020015f81526020015f81526020015f81526020015f81525090565b60405180608001604052805f81526020015f81526020015f81526020015f151581525090565b5b8082111561394e575f815f905550600101613938565b5090565b5f604051905090565b5f5ffd5b5f5ffd5b5f5ffd5b5f5ffd5b5f601f19601f8301169050919050565b7f4e487b71000000000000000000000000000000000000000000000000000000005f52604160045260245ffd5b6139b18261396b565b810181811067ffffffffffffffff821117156139d0576139cf61397b565b5b80604052505050565b5f6139e2613952565b90506139ee82826139a8565b919050565b5f67ffffffffffffffff821115613a0d57613a0c61397b565b5b613a168261396b565b9050602081019050919050565b828183375f83830152505050565b5f613a43613a3e846139f3565b6139d9565b905082815260208101848484011115613a5f57613a5e613967565b5b613a6a848285613a23565b509392505050565b5f82601f830112613a8657613a85613963565b5b8135613a96848260208601613a31565b91505092915050565b5f60208284031215613ab457613ab361395b565b5b5f82013567ffffffffffffffff811115613ad157613ad061395f565b5b613add84828501613a72565b91505092915050565b5f819050919050565b613af881613ae6565b82525050565b5f602082019050613b115f830184613aef565b92915050565b613b2081613ae6565b8114613b2a575f5ffd5b50565b5f81359050613b3b81613b17565b92915050565b5f60208284031215613b5657613b5561395b565b5b5f613b6384828501613b2d565b91505092915050565b5f81519050919050565b5f82825260208201905092915050565b8281835e5f83830152505050565b5f613b9e82613b6c565b613ba88185613b76565b9350613bb8818560208601613b86565b613bc18161396b565b840191505092915050565b7f4e487b71000000000000000000000000000000000000000000000000000000005f52602160045260245ffd5b60048110613c0a57613c09613bcc565b5b50565b5f819050613c1a82613bf9565b919050565b5f613c2982613c0d565b9050919050565b613c3981613c1f565b82525050565b5f8115159050919050565b613c5381613c3f565b82525050565b5f61010082019050613c6d5f83018b613aef565b8181036020830152613c7f818a613b94565b90508181036040830152613c938189613b94565b9050613ca26060830188613c30565b613caf6080830187613aef565b81810360a0830152613cc18186613b94565b9050613cd060c0830185613c4a565b613cdd60e0830184613aef565b9998505050505050505050565b5f602082019050613cfd5f830184613c4a565b92915050565b5f73ffffffffffffffffffffffffffffffffffffffff82169050919050565b5f613d2c82613d03565b9050919050565b613d3c81613d22565b8114613d46575f5ffd5b50565b5f81359050613d5781613d33565b92915050565b5f60208284031215613d7257613d7161395b565b5b5f613d7f84828501613d49565b91505092915050565b60048110613d94575f5ffd5b50565b5f81359050613da581613d88565b92915050565b613db481613c3f565b8114613dbe575f5ffd5b50565b5f81359050613dcf81613dab565b92915050565b5f5f5f5f5f60a08688031215613dee57613ded61395b565b5b5f86013567ffffffffffffffff811115613e0b57613e0a61395f565b5b613e1788828901613a72565b955050602086013567ffffffffffffffff811115613e3857613e3761395f565b5b613e4488828901613a72565b9450506040613e5588828901613d97565b935050606086013567ffffffffffffffff811115613e7657613e7561395f565b5b613e8288828901613a72565b9250506080613e9388828901613dc1565b9150509295509295909350565b5f5f60408385031215613eb657613eb561395b565b5b5f613ec385828601613b2d565b9250506020613ed485828601613dc1565b9150509250929050565b5f608082019050613ef15f830187613aef565b613efe6020830186613aef565b613f0b6040830185613aef565b613f186060830184613c4a565b95945050505050565b613f2a81613ae6565b82525050565b5f82825260208201905092915050565b5f613f4a82613b6c565b613f548185613f30565b9350613f64818560208601613b86565b613f6d8161396b565b840191505092915050565b613f8181613c1f565b82525050565b613f9081613c3f565b82525050565b5f61010083015f830151613fac5f860182613f21565b5060208301518482036020860152613fc48282613f40565b91505060408301518482036040860152613fde8282613f40565b9150506060830151613ff36060860182613f78565b5060808301516140066080860182613f21565b5060a083015184820360a086015261401e8282613f40565b91505060c083015161403360c0860182613f87565b5060e083015161404660e0860182613f21565b508091505092915050565b5f6020820190508181035f8301526140698184613f96565b905092915050565b6006811061408257614081613bcc565b5b50565b5f81905061409282614071565b919050565b5f6140a182614085565b9050919050565b6140b181614097565b82525050565b600381106140c8576140c7613bcc565b5b50565b5f8190506140d8826140b7565b919050565b5f6140e7826140cb565b9050919050565b6140f7816140dd565b82525050565b61410681613d22565b82525050565b5f61018083015f8301516141225f860182613f21565b506020830151848203602086015261413a8282613f40565b915050604083015184820360408601526141548282613f40565b9150506060830151848203606086015261416e8282613f40565b91505060808301516141836080860182613f21565b5060a083015161419660a0860182613f21565b5060c08301516141a960c08601826140a8565b5060e08301516141bc60e08601826140ee565b506101008301516141d1610100860182613f87565b506101208301516141e6610120860182613f21565b506101408301516141fb610140860182613f21565b506101608301516142106101608601826140fd565b508091505092915050565b5f6020820190508181035f830152614233818461410c565b905092915050565b60a082015f82015161424f5f850182613f21565b5060208201516142626020850182613f21565b5060408201516142756040850182613f21565b5060608201516142886060850182613f21565b50608082015161429b6080850182613f21565b50505050565b5f60a0820190506142b45f83018461423b565b92915050565b5f60a0820190506142cd5f830188613c4a565b6142da6020830187613c4a565b6142e76040830186613aef565b6142f46060830185613aef565b6143016080830184613aef565b9695505050505050565b608082015f82015161431f5f850182613f21565b5060208201516143326020850182613f21565b5060408201516143456040850182613f21565b5060608201516143586060850182613f87565b50505050565b5f6080820190506143715f83018461430b565b92915050565b60068110614383575f5ffd5b50565b5f8135905061439481614377565b92915050565b600381106143a6575f5ffd5b50565b5f813590506143b78161439a565b92915050565b5f5f5f5f5f5f5f5f610100898b0312156143da576143d961395b565b5b5f89013567ffffffffffffffff8111156143f7576143f661395f565b5b6144038b828c01613a72565b985050602089013567ffffffffffffffff8111156144245761442361395f565b5b6144308b828c01613a72565b975050604089013567ffffffffffffffff8111156144515761445061395f565b5b61445d8b828c01613a72565b965050606061446e8b828c01613b2d565b955050608061447f8b828c01613b2d565b94505060a06144908b828c01614386565b93505060c06144a18b828c016143a9565b92505060e06144b28b828c01613b2d565b9150509295985092959890939650565b6144cb81613d22565b82525050565b5f6020820190506144e45f8301846144c2565b92915050565b5f5f5f5f608085870312156145025761450161395b565b5b5f85013567ffffffffffffffff81111561451f5761451e61395f565b5b61452b87828801613a72565b945050602085013567ffffffffffffffff81111561454c5761454b61395f565b5b61455887828801613a72565b935050604061456987828801613b2d565b925050606061457a87828801614386565b91505092959194509250565b61458f81614097565b82525050565b61459e816140dd565b82525050565b5f610180820190506145b85f83018f613aef565b81810360208301526145ca818e613b94565b905081810360408301526145de818d613b94565b905081810360608301526145f2818c613b94565b9050614601608083018b613aef565b61460e60a083018a613aef565b61461b60c0830189614586565b61462860e0830188614595565b614636610100830187613c4a565b614644610120830186613aef565b614652610140830185613aef565b6146606101608301846144c2565b9d9c50505050505050505050505050565b5f60a0820190506146845f830188613aef565b6146916020830187613aef565b61469e6040830186613aef565b6146ab6060830185613aef565b6146b86080830184613aef565b9695505050505050565b7f4e6f7420617574686f72697a65640000000000000000000000000000000000005f82015250565b5f6146f6600e83613b76565b9150614701826146c2565b602082019050919050565b5f6020820190508181035f830152614723816146ea565b9050919050565b5f81905092915050565b5f61473e82613b6c565b614748818561472a565b9350614758818560208601613b86565b80840191505092915050565b5f61476f8284614734565b915081905092915050565b5f6040820190508181035f8301526147928185613b94565b90506147a160208301846144c2565b9392505050565b7f4e487b71000000000000000000000000000000000000000000000000000000005f52602260045260245ffd5b5f60028204905060018216806147ec57607f821691505b6020821081036147ff576147fe6147a8565b5b50919050565b7f4f6e6c79206f776e65722063616e20706572666f726d207468697320616374695f8201527f6f6e000000000000000000000000000000000000000000000000000000000000602082015250565b5f61485f602283613b76565b915061486a82614805565b604082019050919050565b5f6020820190508181035f83015261488c81614853565b9050919050565b7f43616e6e6f742072656d6f7665206f776e6572000000000000000000000000005f82015250565b5f6148c7601383613b76565b91506148d282614893565b602082019050919050565b5f6020820190508181035f8301526148f4816148bb565b9050919050565b7f4e487b71000000000000000000000000000000000000000000000000000000005f52601160045260245ffd5b5f61493282613ae6565b91507fffffffffffffffffffffffffffffffffffffffffffffffffffffffffffffffff8203614964576149636148fb565b5b600182019050919050565b5f819050815f5260205f209050919050565b5f6020601f8301049050919050565b5f82821b905092915050565b5f600883026149cb7fffffffffffffffffffffffffffffffffffffffffffffffffffffffffffffffff82614990565b6149d58683614990565b95508019841693508086168417925050509392505050565b5f819050919050565b5f614a10614a0b614a0684613ae6565b6149ed565b613ae6565b9050919050565b5f819050919050565b614a29836149f6565b614a3d614a3582614a17565b84845461499c565b825550505050565b5f5f905090565b614a54614a45565b614a5f818484614a20565b505050565b5b81811015614a8257614a775f82614a4c565b600181019050614a65565b5050565b601f821115614ac757614a988161496f565b614aa184614981565b81016020851015614ab0578190505b614ac4614abc85614981565b830182614a64565b50505b505050565b5f82821c905092915050565b5f614ae75f1984600802614acc565b1980831691505092915050565b5f614aff8383614ad8565b9150826002028217905092915050565b614b1882613b6c565b67ffffffffffffffff811115614b3157614b3061397b565b5b614b3b82546147d5565b614b46828285614a86565b5f60209050601f831160018114614b77575f8415614b65578287015190505b614b6f8582614af4565b865550614bd6565b601f198416614b858661496f565b5f5b82811015614bac57848901518255600182019150602085019450602081019050614b87565b86831015614bc95784890151614bc5601f891682614ad8565b8355505b6001600288020188555050505b505050505050565b5f6060820190508181035f830152614bf68186613b94565b9050614c056020830185613c30565b614c126040830184613aef565b949350505050565b7f496e76616c69642072756c6520494400000000000000000000000000000000005f82015250565b5f614c4e600f83613b76565b9150614c5982614c1a565b602082019050919050565b5f6020820190508181035f830152614c7b81614c42565b9050919050565b7f496e76616c6964207468726561742049440000000000000000000000000000005f82015250565b5f614cb6601183613b76565b9150614cc182614c82565b602082019050919050565b5f6020820190508181035f830152614ce381614caa565b9050919050565b5f6040820190508181035f830152614d028185613b94565b9050614d116020830184614595565b9392505050565b7f496e76616c6964206164647265737300000000000000000000000000000000005f82015250565b5f614d4c600f83613b76565b9150614d5782614d18565b602082019050919050565b5f6020820190508181035f830152614d7981614d40565b9050919050565b7f6175746f426c6f636b5468726573686f6c6400000000000000000000000000005f82015250565b5f614db4601283613b76565b9150614dbf82614d80565b602082019050919050565b5f6040820190508181035f830152614de181614da8565b9050614df06020830184613aef565b92915050565b7f53797374656d20616c72656164792073746f70706564000000000000000000005f82015250565b5f614e2a601683613b76565b9150614e3582614df6565b602082019050919050565b5f6020820190508181035f830152614e5781614e1e565b9050919050565b7f53797374656d206973206e6f74206163746976650000000000000000000000005f82015250565b5f614e92601483613b76565b9150614e9d82614e5e565b602082019050919050565b5f6020820190508181035f830152614ebf81614e86565b9050919050565b5f614ed082613ae6565b9150614edb83613ae6565b9250828201905080821115614ef357614ef26148fb565b5b92915050565b5f614f0382613ae6565b9150614f0e83613ae6565b9250828203905081811115614f2657614f256148fb565b5b92915050565b5f6060820190508181035f830152614f448186613b94565b9050614f536020830185613aef565b614f606040830184613aef565b949350505050565b7f737573706963696f6e5468726573686f6c6400000000000000000000000000005f82015250565b5f614f9c601283613b76565b9150614fa782614f68565b602082019050919050565b5f6040820190508181035f830152614fc981614f90565b9050614fd86020830184613aef565b92915050565b7f53797374656d20616c72656164792072756e6e696e67000000000000000000005f82015250565b5f615012601683613b76565b915061501d82614fde565b602082019050919050565b5f6020820190508181035f83015261503f81615006565b9050919050565b7f6d6178436f6e6e656374696f6e735065724d696e7574650000000000000000005f82015250565b5f61507a601783613b76565b915061508582615046565b602082019050919050565b5f6040820190508181035f8301526150a78161506e565b90506150b66020830184613aef565b9291505056fe4175746f2d446574656374656420537573706963696f75732041637469766974794175746f6d61746963616c6c7920626c6f636b65642064756520746f206869676820737573706963696f6e2073636f7265a26469706673582212209c02c898a21912cf5f76c107118f1c67f251e046d3f0518b7be6c3347cd06fc364736f6c634300081e0033",
					"opcodes": "PUSH1 0x80 PUSH1 0x40 MSTORE PUSH1 0x64 PUSH1 0xF SSTORE PUSH2 0x1F4 PUSH1 0x10 SSTORE PUSH2 0x3E8 PUSH1 0x11 SSTORE CALLVALUE DUP1 ISZERO PUSH2 0x20 JUMPI PUSH0 PUSH0 REVERT JUMPDEST POP CALLER PUSH0 PUSH0 PUSH2 0x100 EXP DUP2 SLOAD DUP2 PUSH20 0xFFFFFFFFFFFFFFFFFFFFFFFFFFFFFFFFFFFFFFFF MUL NOT AND SWAP1 DUP4 PUSH20 0xFFFFFFFFFFFFFFFFFFFFFFFFFFFFFFFFFFFFFFFF AND MUL OR SWAP1 SSTORE POP PUSH1 0x1 PUSH1 0x6 PUSH0 CALLER PUSH20 0xFFFFFFFFFFFFFFFFFFFFFFFFFFFFFFFFFFFFFFFF AND PUSH20 0xFFFFFFFFFFFFFFFFFFFFFFFFFFFFFFFFFFFFFFFF AND DUP2 MSTORE PUSH1 0x20 ADD SWAP1 DUP2 MSTORE PUSH1 0x20 ADD PUSH0 KECCAK256 PUSH0 PUSH2 0x100 EXP DUP2 SLOAD DUP2 PUSH1 0xFF MUL NOT AND SWAP1 DUP4 ISZERO ISZERO MUL OR SWAP1 SSTORE POP PUSH0 PUSH1 0x1 DUP2 SWAP1 SSTORE POP PUSH0 PUSH1 0x2 DUP2 SWAP1 SSTORE POP PUSH0 PUSH1 0x3 PUSH0 PUSH2 0x100 EXP DUP2 SLOAD DUP2 PUSH1 0xFF MUL NOT AND SWAP1 DUP4 ISZERO ISZERO MUL OR SWAP1 SSTORE POP PUSH1 0x1 PUSH1 0x3 PUSH1 0x1 PUSH2 0x100 EXP DUP2 SLOAD DUP2 PUSH1 0xFF MUL NOT AND SWAP1 DUP4 ISZERO ISZERO MUL OR SWAP1 SSTORE POP PUSH1 0x40 MLOAD DUP1 PUSH1 0xA0 ADD PUSH1 0x40 MSTORE DUP1 PUSH0 DUP2 MSTORE PUSH1 0x20 ADD PUSH0 DUP2 MSTORE PUSH1 0x20 ADD PUSH0 DUP2 MSTORE PUSH1 0x20 ADD PUSH0 DUP2 MSTORE PUSH1 0x20 ADD TIMESTAMP DUP2 MSTORE POP PUSH1 0xA PUSH0 DUP3 ADD MLOAD DUP2 PUSH0 ADD SSTORE PUSH1 0x20 DUP3 ADD MLOAD DUP2 PUSH1 0x1 ADD SSTORE PUSH1 0x40 DUP3 ADD MLOAD DUP2 PUSH1 0x2 ADD SSTORE PUSH1 0x60 DUP3 ADD MLOAD DUP2 PUSH1 0x3 ADD SSTORE PUSH1 0x80 DUP3 ADD MLOAD DUP2 PUSH1 0x4 ADD SSTORE SWAP1 POP POP PUSH2 0x5144 DUP1 PUSH2 0x160 PUSH0 CODECOPY PUSH0 RETURN INVALID PUSH1 0x80 PUSH1 0x40 MSTORE CALLVALUE DUP1 ISZERO PUSH2 0xF JUMPI PUSH0 PUSH0 REVERT JUMPDEST POP PUSH1 0x4 CALLDATASIZE LT PUSH2 0x267 JUMPI PUSH0 CALLDATALOAD PUSH1 0xE0 SHR DUP1 PUSH4 0x6DD3E61A GT PUSH2 0x14F JUMPI DUP1 PUSH4 0xA0E362F9 GT PUSH2 0xC1 JUMPI DUP1 PUSH4 0xB3D9BFFC GT PUSH2 0x85 JUMPI DUP1 PUSH4 0xB3D9BFFC EQ PUSH2 0x788 JUMPI DUP1 PUSH4 0xBE7C4091 EQ PUSH2 0x792 JUMPI DUP1 PUSH4 0xC021E0F6 EQ PUSH2 0x7B0 JUMPI DUP1 PUSH4 0xC10460D8 EQ PUSH2 0x7D2 JUMPI DUP1 PUSH4 0xD54E398B EQ PUSH2 0x802 JUMPI DUP1 PUSH4 0xED6229B2 EQ PUSH2 0x81E JUMPI PUSH2 0x267 JUMP JUMPDEST DUP1 PUSH4 0xA0E362F9 EQ PUSH2 0x6D9 JUMPI DUP1 PUSH4 0xAC584166 EQ PUSH2 0x6F5 JUMPI DUP1 PUSH4 0xAD91CB94 EQ PUSH2 0x6FF JUMPI DUP1 PUSH4 0xB11B267B EQ PUSH2 0x72F JUMPI DUP1 PUSH4 0xB2DF4696 EQ PUSH2 0x76A JUMPI PUSH2 0x267 JUMP JUMPDEST DUP1 PUSH4 0x7B064412 GT PUSH2 0x113 JUMPI DUP1 PUSH4 0x7B064412 EQ PUSH2 0x619 JUMPI DUP1 PUSH4 0x81544029 EQ PUSH2 0x635 JUMPI DUP1 PUSH4 0x8CBAB21F EQ PUSH2 0x665 JUMPI DUP1 PUSH4 0x8DA5CB5B EQ PUSH2 0x681 JUMPI DUP1 PUSH4 0x9A4D6F73 EQ PUSH2 0x69F JUMPI DUP1 PUSH4 0x9FDB4729 EQ PUSH2 0x6A9 JUMPI PUSH2 0x267 JUMP JUMPDEST DUP1 PUSH4 0x6DD3E61A EQ PUSH2 0x587 JUMPI DUP1 PUSH4 0x6EB143BA EQ PUSH2 0x5B7 JUMPI DUP1 PUSH4 0x6EED7E43 EQ PUSH2 0x5D5 JUMPI DUP1 PUSH4 0x70480275 EQ PUSH2 0x5DF JUMPI DUP1 PUSH4 0x7A26B08F EQ PUSH2 0x5FB JUMPI PUSH2 0x267 JUMP JUMPDEST DUP1 PUSH4 0x2FE37089 GT PUSH2 0x1E8 JUMPI DUP1 PUSH4 0x48462037 GT PUSH2 0x1AC JUMPI DUP1 PUSH4 0x48462037 EQ PUSH2 0x4AB JUMPI DUP1 PUSH4 0x4A662F48 EQ PUSH2 0x4DB JUMPI DUP1 PUSH4 0x50C1D19D EQ PUSH2 0x4F9 JUMPI DUP1 PUSH4 0x5C3CA910 EQ PUSH2 0x51B JUMPI DUP1 PUSH4 0x5DB2E212 EQ PUSH2 0x539 JUMPI DUP1 PUSH4 0x6096954F EQ PUSH2 0x569 JUMPI PUSH2 0x267 JUMP JUMPDEST DUP1 PUSH4 0x2FE37089 EQ PUSH2 0x3F3 JUMPI DUP1 PUSH4 0x30626B5C EQ PUSH2 0x411 JUMPI DUP1 PUSH4 0x35166226 EQ PUSH2 0x42D JUMPI DUP1 PUSH4 0x3DF907C3 EQ PUSH2 0x44B JUMPI DUP1 PUSH4 0x444927AC EQ PUSH2 0x47B JUMPI PUSH2 0x267 JUMP JUMPDEST DUP1 PUSH4 0x22347C31 GT PUSH2 0x22F JUMPI DUP1 PUSH4 0x22347C31 EQ PUSH2 0x328 JUMPI DUP1 PUSH4 0x225B623A EQ PUSH2 0x358 JUMPI DUP1 PUSH4 0x24D7806C EQ PUSH2 0x374 JUMPI DUP1 PUSH4 0x2E7389F4 EQ PUSH2 0x3A4 JUMPI DUP1 PUSH4 0x2F0EE67F EQ PUSH2 0x3C0 JUMPI PUSH2 0x267 JUMP JUMPDEST DUP1 PUSH4 0xE7310F8 EQ PUSH2 0x26B JUMPI DUP1 PUSH4 0xECC9B24 EQ PUSH2 0x287 JUMPI DUP1 PUSH4 0x11454C16 EQ PUSH2 0x2A5 JUMPI DUP1 PUSH4 0x175A292D EQ PUSH2 0x2DC JUMPI DUP1 PUSH4 0x1785F53C EQ PUSH2 0x30C JUMPI JUMPDEST PUSH0 PUSH0 REVERT JUMPDEST PUSH2 0x285 PUSH1 0x4 DUP1 CALLDATASIZE SUB DUP2 ADD SWAP1 PUSH2 0x280 SWAP2 SWAP1 PUSH2 0x3A9F JUMP JUMPDEST PUSH2 0x83A JUMP JUMPDEST STOP JUMPDEST PUSH2 0x28F PUSH2 0x98B JUMP JUMPDEST PUSH1 0x40 MLOAD PUSH2 0x29C SWAP2 SWAP1 PUSH2 0x3AFE JUMP JUMPDEST PUSH1 0x40 MLOAD DUP1 SWAP2 SUB SWAP1 RETURN JUMPDEST PUSH2 0x2BF PUSH1 0x4 DUP1 CALLDATASIZE SUB DUP2 ADD SWAP1 PUSH2 0x2BA SWAP2 SWAP1 PUSH2 0x3B41 JUMP JUMPDEST PUSH2 0x991 JUMP JUMPDEST PUSH1 0x40 MLOAD PUSH2 0x2D3 SWAP9 SWAP8 SWAP7 SWAP6 SWAP5 SWAP4 SWAP3 SWAP2 SWAP1 PUSH2 0x3C59 JUMP JUMPDEST PUSH1 0x40 MLOAD DUP1 SWAP2 SUB SWAP1 RETURN JUMPDEST PUSH2 0x2F6 PUSH1 0x4 DUP1 CALLDATASIZE SUB DUP2 ADD SWAP1 PUSH2 0x2F1 SWAP2 SWAP1 PUSH2 0x3A9F JUMP JUMPDEST PUSH2 0xB7F JUMP JUMPDEST PUSH1 0x40 MLOAD PUSH2 0x303 SWAP2 SWAP1 PUSH2 0x3CEA JUMP JUMPDEST PUSH1 0x40 MLOAD DUP1 SWAP2 SUB SWAP1 RETURN JUMPDEST PUSH2 0x326 PUSH1 0x4 DUP1 CALLDATASIZE SUB DUP2 ADD SWAP1 PUSH2 0x321 SWAP2 SWAP1 PUSH2 0x3D5D JUMP JUMPDEST PUSH2 0xBB2 JUMP JUMPDEST STOP JUMPDEST PUSH2 0x342 PUSH1 0x4 DUP1 CALLDATASIZE SUB DUP2 ADD SWAP1 PUSH2 0x33D SWAP2 SWAP1 PUSH2 0x3DD5 JUMP JUMPDEST PUSH2 0xD68 JUMP JUMPDEST PUSH1 0x40 MLOAD PUSH2 0x34F SWAP2 SWAP1 PUSH2 0x3AFE JUMP JUMPDEST PUSH1 0x40 MLOAD DUP1 SWAP2 SUB SWAP1 RETURN JUMPDEST PUSH2 0x372 PUSH1 0x4 DUP1 CALLDATASIZE SUB DUP2 ADD SWAP1 PUSH2 0x36D SWAP2 SWAP1 PUSH2 0x3A9F JUMP JUMPDEST PUSH2 0x1026 JUMP JUMPDEST STOP JUMPDEST PUSH2 0x38E PUSH1 0x4 DUP1 CALLDATASIZE SUB DUP2 ADD SWAP1 PUSH2 0x389 SWAP2 SWAP1 PUSH2 0x3D5D JUMP JUMPDEST PUSH2 0x1177 JUMP JUMPDEST PUSH1 0x40 MLOAD PUSH2 0x39B SWAP2 SWAP1 PUSH2 0x3CEA JUMP JUMPDEST PUSH1 0x40 MLOAD DUP1 SWAP2 SUB SWAP1 RETURN JUMPDEST PUSH2 0x3BE PUSH1 0x4 DUP1 CALLDATASIZE SUB DUP2 ADD SWAP1 PUSH2 0x3B9 SWAP2 SWAP1 PUSH2 0x3EA0 JUMP JUMPDEST PUSH2 0x11C9 JUMP JUMPDEST STOP JUMPDEST PUSH2 0x3DA PUSH1 0x4 DUP1 CALLDATASIZE SUB DUP2 ADD SWAP1 PUSH2 0x3D5 SWAP2 SWAP1 PUSH2 0x3A9F JUMP JUMPDEST PUSH2 0x1360 JUMP JUMPDEST PUSH1 0x40 MLOAD PUSH2 0x3EA SWAP5 SWAP4 SWAP3 SWAP2 SWAP1 PUSH2 0x3EDE JUMP JUMPDEST PUSH1 0x40 MLOAD DUP1 SWAP2 SUB SWAP1 RETURN JUMPDEST PUSH2 0x3FB PUSH2 0x13B0 JUMP JUMPDEST PUSH1 0x40 MLOAD PUSH2 0x408 SWAP2 SWAP1 PUSH2 0x3AFE JUMP JUMPDEST PUSH1 0x40 MLOAD DUP1 SWAP2 SUB SWAP1 RETURN JUMPDEST PUSH2 0x42B PUSH1 0x4 DUP1 CALLDATASIZE SUB DUP2 ADD SWAP1 PUSH2 0x426 SWAP2 SWAP1 PUSH2 0x3B41 JUMP JUMPDEST PUSH2 0x13B6 JUMP JUMPDEST STOP JUMPDEST PUSH2 0x435 PUSH2 0x15D9 JUMP JUMPDEST PUSH1 0x40 MLOAD PUSH2 0x442 SWAP2 SWAP1 PUSH2 0x3CEA JUMP JUMPDEST PUSH1 0x40 MLOAD DUP1 SWAP2 SUB SWAP1 RETURN JUMPDEST PUSH2 0x465 PUSH1 0x4 DUP1 CALLDATASIZE SUB DUP2 ADD SWAP1 PUSH2 0x460 SWAP2 SWAP1 PUSH2 0x3A9F JUMP JUMPDEST PUSH2 0x15EB JUMP JUMPDEST PUSH1 0x40 MLOAD PUSH2 0x472 SWAP2 SWAP1 PUSH2 0x3CEA JUMP JUMPDEST PUSH1 0x40 MLOAD DUP1 SWAP2 SUB SWAP1 RETURN JUMPDEST PUSH2 0x495 PUSH1 0x4 DUP1 CALLDATASIZE SUB DUP2 ADD SWAP1 PUSH2 0x490 SWAP2 SWAP1 PUSH2 0x3B41 JUMP JUMPDEST PUSH2 0x1620 JUMP JUMPDEST PUSH1 0x40 MLOAD PUSH2 0x4A2 SWAP2 SWAP1 PUSH2 0x4051 JUMP JUMPDEST PUSH1 0x40 MLOAD DUP1 SWAP2 SUB SWAP1 RETURN JUMPDEST PUSH2 0x4C5 PUSH1 0x4 DUP1 CALLDATASIZE SUB DUP2 ADD SWAP1 PUSH2 0x4C0 SWAP2 SWAP1 PUSH2 0x3B41 JUMP JUMPDEST PUSH2 0x18BD JUMP JUMPDEST PUSH1 0x40 MLOAD PUSH2 0x4D2 SWAP2 SWAP1 PUSH2 0x421B JUMP JUMPDEST PUSH1 0x40 MLOAD DUP1 SWAP2 SUB SWAP1 RETURN JUMPDEST PUSH2 0x4E3 PUSH2 0x1BFF JUMP JUMPDEST PUSH1 0x40 MLOAD PUSH2 0x4F0 SWAP2 SWAP1 PUSH2 0x42A1 JUMP JUMPDEST PUSH1 0x40 MLOAD DUP1 SWAP2 SUB SWAP1 RETURN JUMPDEST PUSH2 0x501 PUSH2 0x1C4A JUMP JUMPDEST PUSH1 0x40 MLOAD PUSH2 0x512 SWAP6 SWAP5 SWAP4 SWAP3 SWAP2 SWAP1 PUSH2 0x42BA JUMP JUMPDEST PUSH1 0x40 MLOAD DUP1 SWAP2 SUB SWAP1 RETURN JUMPDEST PUSH2 0x523 PUSH2 0x1C8B JUMP JUMPDEST PUSH1 0x40 MLOAD PUSH2 0x530 SWAP2 SWAP1 PUSH2 0x3AFE JUMP JUMPDEST PUSH1 0x40 MLOAD DUP1 SWAP2 SUB SWAP1 RETURN JUMPDEST PUSH2 0x553 PUSH1 0x4 DUP1 CALLDATASIZE SUB DUP2 ADD SWAP1 PUSH2 0x54E SWAP2 SWAP1 PUSH2 0x3A9F JUMP JUMPDEST PUSH2 0x1C94 JUMP JUMPDEST PUSH1 0x40 MLOAD PUSH2 0x560 SWAP2 SWAP1 PUSH2 0x435E JUMP JUMPDEST PUSH1 0x40 MLOAD DUP1 SWAP2 SUB SWAP1 RETURN JUMPDEST PUSH2 0x571 PUSH2 0x1D03 JUMP JUMPDEST PUSH1 0x40 MLOAD PUSH2 0x57E SWAP2 SWAP1 PUSH2 0x3AFE JUMP JUMPDEST PUSH1 0x40 MLOAD DUP1 SWAP2 SUB SWAP1 RETURN JUMPDEST PUSH2 0x5A1 PUSH1 0x4 DUP1 CALLDATASIZE SUB DUP2 ADD SWAP1 PUSH2 0x59C SWAP2 SWAP1 PUSH2 0x43BD JUMP JUMPDEST PUSH2 0x1D0C JUMP JUMPDEST PUSH1 0x40 MLOAD PUSH2 0x5AE SWAP2 SWAP1 PUSH2 0x3AFE JUMP JUMPDEST PUSH1 0x40 MLOAD DUP1 SWAP2 SUB SWAP1 RETURN JUMPDEST PUSH2 0x5BF PUSH2 0x2032 JUMP JUMPDEST PUSH1 0x40 MLOAD PUSH2 0x5CC SWAP2 SWAP1 PUSH2 0x3AFE JUMP JUMPDEST PUSH1 0x40 MLOAD DUP1 SWAP2 SUB SWAP1 RETURN JUMPDEST PUSH2 0x5DD PUSH2 0x2038 JUMP JUMPDEST STOP JUMPDEST PUSH2 0x5F9 PUSH1 0x4 DUP1 CALLDATASIZE SUB DUP2 ADD SWAP1 PUSH2 0x5F4 SWAP2 SWAP1 PUSH2 0x3D5D JUMP JUMPDEST PUSH2 0x216A JUMP JUMPDEST STOP JUMPDEST PUSH2 0x603 PUSH2 0x2301 JUMP JUMPDEST PUSH1 0x40 MLOAD PUSH2 0x610 SWAP2 SWAP1 PUSH2 0x3CEA JUMP JUMPDEST PUSH1 0x40 MLOAD DUP1 SWAP2 SUB SWAP1 RETURN JUMPDEST PUSH2 0x633 PUSH1 0x4 DUP1 CALLDATASIZE SUB DUP2 ADD SWAP1 PUSH2 0x62E SWAP2 SWAP1 PUSH2 0x3B41 JUMP JUMPDEST PUSH2 0x2314 JUMP JUMPDEST STOP JUMPDEST PUSH2 0x64F PUSH1 0x4 DUP1 CALLDATASIZE SUB DUP2 ADD SWAP1 PUSH2 0x64A SWAP2 SWAP1 PUSH2 0x3A9F JUMP JUMPDEST PUSH2 0x2434 JUMP JUMPDEST PUSH1 0x40 MLOAD PUSH2 0x65C SWAP2 SWAP1 PUSH2 0x3CEA JUMP JUMPDEST PUSH1 0x40 MLOAD DUP1 SWAP2 SUB SWAP1 RETURN JUMPDEST PUSH2 0x67F PUSH1 0x4 DUP1 CALLDATASIZE SUB DUP2 ADD SWAP1 PUSH2 0x67A SWAP2 SWAP1 PUSH2 0x3A9F JUMP JUMPDEST PUSH2 0x2469 JUMP JUMPDEST STOP JUMPDEST PUSH2 0x689 PUSH2 0x2580 JUMP JUMPDEST PUSH1 0x40 MLOAD PUSH2 0x696 SWAP2 SWAP1 PUSH2 0x44D1 JUMP JUMPDEST PUSH1 0x40 MLOAD DUP1 SWAP2 SUB SWAP1 RETURN JUMPDEST PUSH2 0x6A7 PUSH2 0x25A4 JUMP JUMPDEST STOP JUMPDEST PUSH2 0x6C3 PUSH1 0x4 DUP1 CALLDATASIZE SUB DUP2 ADD SWAP1 PUSH2 0x6BE SWAP2 SWAP1 PUSH2 0x44EA JUMP JUMPDEST PUSH2 0x273A JUMP JUMPDEST PUSH1 0x40 MLOAD PUSH2 0x6D0 SWAP2 SWAP1 PUSH2 0x3CEA JUMP JUMPDEST PUSH1 0x40 MLOAD DUP1 SWAP2 SUB SWAP1 RETURN JUMPDEST PUSH2 0x6F3 PUSH1 0x4 DUP1 CALLDATASIZE SUB DUP2 ADD SWAP1 PUSH2 0x6EE SWAP2 SWAP1 PUSH2 0x3B41 JUMP JUMPDEST PUSH2 0x2A6D JUMP JUMPDEST STOP JUMPDEST PUSH2 0x6FD PUSH2 0x2B8D JUMP JUMPDEST STOP JUMPDEST PUSH2 0x719 PUSH1 0x4 DUP1 CALLDATASIZE SUB DUP2 ADD SWAP1 PUSH2 0x714 SWAP2 SWAP1 PUSH2 0x3A9F JUMP JUMPDEST PUSH2 0x2D25 JUMP JUMPDEST PUSH1 0x40 MLOAD PUSH2 0x726 SWAP2 SWAP1 PUSH2 0x3CEA JUMP JUMPDEST PUSH1 0x40 MLOAD DUP1 SWAP2 SUB SWAP1 RETURN JUMPDEST PUSH2 0x749 PUSH1 0x4 DUP1 CALLDATASIZE SUB DUP2 ADD SWAP1 PUSH2 0x744 SWAP2 SWAP1 PUSH2 0x3B41 JUMP JUMPDEST PUSH2 0x2D58 JUMP JUMPDEST PUSH1 0x40 MLOAD PUSH2 0x761 SWAP13 SWAP12 SWAP11 SWAP10 SWAP9 SWAP8 SWAP7 SWAP6 SWAP5 SWAP4 SWAP3 SWAP2 SWAP1 PUSH2 0x45A4 JUMP JUMPDEST PUSH1 0x40 MLOAD DUP1 SWAP2 SUB SWAP1 RETURN JUMPDEST PUSH2 0x772 PUSH2 0x2F8B JUMP JUMPDEST PUSH1 0x40 MLOAD PUSH2 0x77F SWAP2 SWAP1 PUSH2 0x3AFE JUMP JUMPDEST PUSH1 0x40 MLOAD DUP1 SWAP2 SUB SWAP1 RETURN JUMPDEST PUSH2 0x790 PUSH2 0x2F91 JUMP JUMPDEST STOP JUMPDEST PUSH2 0x79A PUSH2 0x30C5 JUMP JUMPDEST PUSH1 0x40 MLOAD PUSH2 0x7A7 SWAP2 SWAP1 PUSH2 0x3AFE JUMP JUMPDEST PUSH1 0x40 MLOAD DUP1 SWAP2 SUB SWAP1 RETURN JUMPDEST PUSH2 0x7B8 PUSH2 0x30CB JUMP JUMPDEST PUSH1 0x40 MLOAD PUSH2 0x7C9 SWAP6 SWAP5 SWAP4 SWAP3 SWAP2 SWAP1 PUSH2 0x4671 JUMP JUMPDEST PUSH1 0x40 MLOAD DUP1 SWAP2 SUB SWAP1 RETURN JUMPDEST PUSH2 0x7EC PUSH1 0x4 DUP1 CALLDATASIZE SUB DUP2 ADD SWAP1 PUSH2 0x7E7 SWAP2 SWAP1 PUSH2 0x3D5D JUMP JUMPDEST PUSH2 0x30EE JUMP JUMPDEST PUSH1 0x40 MLOAD PUSH2 0x7F9 SWAP2 SWAP1 PUSH2 0x3CEA JUMP JUMPDEST PUSH1 0x40 MLOAD DUP1 SWAP2 SUB SWAP1 RETURN JUMPDEST PUSH2 0x81C PUSH1 0x4 DUP1 CALLDATASIZE SUB DUP2 ADD SWAP1 PUSH2 0x817 SWAP2 SWAP1 PUSH2 0x3B41 JUMP JUMPDEST PUSH2 0x310B JUMP JUMPDEST STOP JUMPDEST PUSH2 0x838 PUSH1 0x4 DUP1 CALLDATASIZE SUB DUP2 ADD SWAP1 PUSH2 0x833 SWAP2 SWAP1 PUSH2 0x3A9F JUMP JUMPDEST PUSH2 0x322B JUMP JUMPDEST STOP JUMPDEST PUSH1 0x6 PUSH0 CALLER PUSH20 0xFFFFFFFFFFFFFFFFFFFFFFFFFFFFFFFFFFFFFFFF AND PUSH20 0xFFFFFFFFFFFFFFFFFFFFFFFFFFFFFFFFFFFFFFFF AND DUP2 MSTORE PUSH1 0x20 ADD SWAP1 DUP2 MSTORE PUSH1 0x20 ADD PUSH0 KECCAK256 PUSH0 SWAP1 SLOAD SWAP1 PUSH2 0x100 EXP SWAP1 DIV PUSH1 0xFF AND DUP1 PUSH2 0x8DA JUMPI POP PUSH0 PUSH0 SWAP1 SLOAD SWAP1 PUSH2 0x100 EXP SWAP1 DIV PUSH20 0xFFFFFFFFFFFFFFFFFFFFFFFFFFFFFFFFFFFFFFFF AND PUSH20 0xFFFFFFFFFFFFFFFFFFFFFFFFFFFFFFFFFFFFFFFF AND CALLER PUSH20 0xFFFFFFFFFFFFFFFFFFFFFFFFFFFFFFFFFFFFFFFF AND EQ JUMPDEST PUSH2 0x919 JUMPI PUSH1 0x40 MLOAD PUSH32 0x8C379A000000000000000000000000000000000000000000000000000000000 DUP2 MSTORE PUSH1 0x4 ADD PUSH2 0x910 SWAP1 PUSH2 0x470C JUMP JUMPDEST PUSH1 0x40 MLOAD DUP1 SWAP2 SUB SWAP1 REVERT JUMPDEST PUSH1 0x1 PUSH1 0x8 DUP3 PUSH1 0x40 MLOAD PUSH2 0x92B SWAP2 SWAP1 PUSH2 0x4764 JUMP JUMPDEST SWAP1 DUP2 MSTORE PUSH1 0x20 ADD PUSH1 0x40 MLOAD DUP1 SWAP2 SUB SWAP1 KECCAK256 PUSH0 PUSH2 0x100 EXP DUP2 SLOAD DUP2 PUSH1 0xFF MUL NOT AND SWAP1 DUP4 ISZERO ISZERO MUL OR SWAP1 SSTORE POP PUSH32 0x9EC5D33CB96796D4745DC075180DC0BF6ED5552E1D8DFA94EFE6138B674EE7F0 DUP2 CALLER PUSH1 0x40 MLOAD PUSH2 0x980 SWAP3 SWAP2 SWAP1 PUSH2 0x477A JUMP JUMPDEST PUSH1 0x40 MLOAD DUP1 SWAP2 SUB SWAP1 LOG1 POP JUMP JUMPDEST PUSH1 0xF SLOAD DUP2 JUMP JUMPDEST PUSH1 0x5 PUSH1 0x20 MSTORE DUP1 PUSH0 MSTORE PUSH1 0x40 PUSH0 KECCAK256 PUSH0 SWAP2 POP SWAP1 POP DUP1 PUSH0 ADD SLOAD SWAP1 DUP1 PUSH1 0x1 ADD DUP1 SLOAD PUSH2 0x9B6 SWAP1 PUSH2 0x47D5 JUMP JUMPDEST DUP1 PUSH1 0x1F ADD PUSH1 0x20 DUP1 SWAP2 DIV MUL PUSH1 0x20 ADD PUSH1 0x40 MLOAD SWAP1 DUP2 ADD PUSH1 0x40 MSTORE DUP1 SWAP3 SWAP2 SWAP1 DUP2 DUP2 MSTORE PUSH1 0x20 ADD DUP3 DUP1 SLOAD PUSH2 0x9E2 SWAP1 PUSH2 0x47D5 JUMP JUMPDEST DUP1 ISZERO PUSH2 0xA2D JUMPI DUP1 PUSH1 0x1F LT PUSH2 0xA04 JUMPI PUSH2 0x100 DUP1 DUP4 SLOAD DIV MUL DUP4 MSTORE SWAP2 PUSH1 0x20 ADD SWAP2 PUSH2 0xA2D JUMP JUMPDEST DUP3 ADD SWAP2 SWAP1 PUSH0 MSTORE PUSH1 0x20 PUSH0 KECCAK256 SWAP1 JUMPDEST DUP2 SLOAD DUP2 MSTORE SWAP1 PUSH1 0x1 ADD SWAP1 PUSH1 0x20 ADD DUP1 DUP4 GT PUSH2 0xA10 JUMPI DUP3 SWAP1 SUB PUSH1 0x1F AND DUP3 ADD SWAP2 JUMPDEST POP POP POP POP POP SWAP1 DUP1 PUSH1 0x2 ADD DUP1 SLOAD PUSH2 0xA42 SWAP1 PUSH2 0x47D5 JUMP JUMPDEST DUP1 PUSH1 0x1F ADD PUSH1 0x20 DUP1 SWAP2 DIV MUL PUSH1 0x20 ADD PUSH1 0x40 MLOAD SWAP1 DUP2 ADD PUSH1 0x40 MSTORE DUP1 SWAP3 SWAP2 SWAP1 DUP2 DUP2 MSTORE PUSH1 0x20 ADD DUP3 DUP1 SLOAD PUSH2 0xA6E SWAP1 PUSH2 0x47D5 JUMP JUMPDEST DUP1 ISZERO PUSH2 0xAB9 JUMPI DUP1 PUSH1 0x1F LT PUSH2 0xA90 JUMPI PUSH2 0x100 DUP1 DUP4 SLOAD DIV MUL DUP4 MSTORE SWAP2 PUSH1 0x20 ADD SWAP2 PUSH2 0xAB9 JUMP JUMPDEST DUP3 ADD SWAP2 SWAP1 PUSH0 MSTORE PUSH1 0x20 PUSH0 KECCAK256 SWAP1 JUMPDEST DUP2 SLOAD DUP2 MSTORE SWAP1 PUSH1 0x1 ADD SWAP1 PUSH1 0x20 ADD DUP1 DUP4 GT PUSH2 0xA9C JUMPI DUP3 SWAP1 SUB PUSH1 0x1F AND DUP3 ADD SWAP2 JUMPDEST POP POP POP POP POP SWAP1 DUP1 PUSH1 0x3 ADD PUSH0 SWAP1 SLOAD SWAP1 PUSH2 0x100 EXP SWAP1 DIV PUSH1 0xFF AND SWAP1 DUP1 PUSH1 0x4 ADD SLOAD SWAP1 DUP1 PUSH1 0x5 ADD DUP1 SLOAD PUSH2 0xAE6 SWAP1 PUSH2 0x47D5 JUMP JUMPDEST DUP1 PUSH1 0x1F ADD PUSH1 0x20 DUP1 SWAP2 DIV MUL PUSH1 0x20 ADD PUSH1 0x40 MLOAD SWAP1 DUP2 ADD PUSH1 0x40 MSTORE DUP1 SWAP3 SWAP2 SWAP1 DUP2 DUP2 MSTORE PUSH1 0x20 ADD DUP3 DUP1 SLOAD PUSH2 0xB12 SWAP1 PUSH2 0x47D5 JUMP JUMPDEST DUP1 ISZERO PUSH2 0xB5D JUMPI DUP1 PUSH1 0x1F LT PUSH2 0xB34 JUMPI PUSH2 0x100 DUP1 DUP4 SLOAD DIV MUL DUP4 MSTORE SWAP2 PUSH1 0x20 ADD SWAP2 PUSH2 0xB5D JUMP JUMPDEST DUP3 ADD SWAP2 SWAP1 PUSH0 MSTORE PUSH1 0x20 PUSH0 KECCAK256 SWAP1 JUMPDEST DUP2 SLOAD DUP2 MSTORE SWAP1 PUSH1 0x1 ADD SWAP1 PUSH1 0x20 ADD DUP1 DUP4 GT PUSH2 0xB40 JUMPI DUP3 SWAP1 SUB PUSH1 0x1F AND DUP3 ADD SWAP2 JUMPDEST POP POP POP POP POP SWAP1 DUP1 PUSH1 0x6 ADD PUSH0 SWAP1 SLOAD SWAP1 PUSH2 0x100 EXP SWAP1 DIV PUSH1 0xFF AND SWAP1 DUP1 PUSH1 0x7 ADD SLOAD SWAP1 POP DUP9 JUMP JUMPDEST PUSH0 PUSH1 0x7 DUP3 PUSH1 0x40 MLOAD PUSH2 0xB90 SWAP2 SWAP1 PUSH2 0x4764 JUMP JUMPDEST SWAP1 DUP2 MSTORE PUSH1 0x20 ADD PUSH1 0x40 MLOAD DUP1 SWAP2 SUB SWAP1 KECCAK256 PUSH0 SWAP1 SLOAD SWAP1 PUSH2 0x100 EXP SWAP1 DIV PUSH1 0xFF AND SWAP1 POP SWAP2 SWAP1 POP JUMP JUMPDEST PUSH0 PUSH0 SWAP1 SLOAD SWAP1 PUSH2 0x100 EXP SWAP1 DIV PUSH20 0xFFFFFFFFFFFFFFFFFFFFFFFFFFFFFFFFFFFFFFFF AND PUSH20 0xFFFFFFFFFFFFFFFFFFFFFFFFFFFFFFFFFFFFFFFF AND CALLER PUSH20 0xFFFFFFFFFFFFFFFFFFFFFFFFFFFFFFFFFFFFFFFF AND EQ PUSH2 0xC40 JUMPI PUSH1 0x40 MLOAD PUSH32 0x8C379A000000000000000000000000000000000000000000000000000000000 DUP2 MSTORE PUSH1 0x4 ADD PUSH2 0xC37 SWAP1 PUSH2 0x4875 JUMP JUMPDEST PUSH1 0x40 MLOAD DUP1 SWAP2 SUB SWAP1 REVERT JUMPDEST PUSH0 PUSH0 SWAP1 SLOAD SWAP1 PUSH2 0x100 EXP SWAP1 DIV PUSH20 0xFFFFFFFFFFFFFFFFFFFFFFFFFFFFFFFFFFFFFFFF AND PUSH20 0xFFFFFFFFFFFFFFFFFFFFFFFFFFFFFFFFFFFFFFFF AND DUP2 PUSH20 0xFFFFFFFFFFFFFFFFFFFFFFFFFFFFFFFFFFFFFFFF AND SUB PUSH2 0xCCE JUMPI PUSH1 0x40 MLOAD PUSH32 0x8C379A000000000000000000000000000000000000000000000000000000000 DUP2 MSTORE PUSH1 0x4 ADD PUSH2 0xCC5 SWAP1 PUSH2 0x48DD JUMP JUMPDEST PUSH1 0x40 MLOAD DUP1 SWAP2 SUB SWAP1 REVERT JUMPDEST PUSH0 PUSH1 0x6 PUSH0 DUP4 PUSH20 0xFFFFFFFFFFFFFFFFFFFFFFFFFFFFFFFFFFFFFFFF AND PUSH20 0xFFFFFFFFFFFFFFFFFFFFFFFFFFFFFFFFFFFFFFFF AND DUP2 MSTORE PUSH1 0x20 ADD SWAP1 DUP2 MSTORE PUSH1 0x20 ADD PUSH0 KECCAK256 PUSH0 PUSH2 0x100 EXP DUP2 SLOAD DUP2 PUSH1 0xFF MUL NOT AND SWAP1 DUP4 ISZERO ISZERO MUL OR SWAP1 SSTORE POP DUP1 PUSH20 0xFFFFFFFFFFFFFFFFFFFFFFFFFFFFFFFFFFFFFFFF AND PUSH32 0xA3B62BC36326052D97EA62D63C3D60308ED4C3EA8AC079DD8499F1E9C4F80C0F PUSH1 0x40 MLOAD PUSH1 0x40 MLOAD DUP1 SWAP2 SUB SWAP1 LOG2 POP JUMP JUMPDEST PUSH0 PUSH1 0x6 PUSH0 CALLER PUSH20 0xFFFFFFFFFFFFFFFFFFFFFFFFFFFFFFFFFFFFFFFF AND PUSH20 0xFFFFFFFFFFFFFFFFFFFFFFFFFFFFFFFFFFFFFFFF AND DUP2 MSTORE PUSH1 0x20 ADD SWAP1 DUP2 MSTORE PUSH1 0x20 ADD PUSH0 KECCAK256 PUSH0 SWAP1 SLOAD SWAP1 PUSH2 0x100 EXP SWAP1 DIV PUSH1 0xFF AND DUP1 PUSH2 0xE09 JUMPI POP PUSH0 PUSH0 SWAP1 SLOAD SWAP1 PUSH2 0x100 EXP SWAP1 DIV PUSH20 0xFFFFFFFFFFFFFFFFFFFFFFFFFFFFFFFFFFFFFFFF AND PUSH20 0xFFFFFFFFFFFFFFFFFFFFFFFFFFFFFFFFFFFFFFFF AND CALLER PUSH20 0xFFFFFFFFFFFFFFFFFFFFFFFFFFFFFFFFFFFFFFFF AND EQ JUMPDEST PUSH2 0xE48 JUMPI PUSH1 0x40 MLOAD PUSH32 0x8C379A000000000000000000000000000000000000000000000000000000000 DUP2 MSTORE PUSH1 0x4 ADD PUSH2 0xE3F SWAP1 PUSH2 0x470C JUMP JUMPDEST PUSH1 0x40 MLOAD DUP1 SWAP2 SUB SWAP1 REVERT JUMPDEST PUSH1 0x2 PUSH0 DUP2 SLOAD DUP1 SWAP3 SWAP2 SWAP1 PUSH2 0xE5A SWAP1 PUSH2 0x4928 JUMP JUMPDEST SWAP2 SWAP1 POP SSTORE POP PUSH1 0x40 MLOAD DUP1 PUSH2 0x100 ADD PUSH1 0x40 MSTORE DUP1 PUSH1 0x2 SLOAD DUP2 MSTORE PUSH1 0x20 ADD DUP8 DUP2 MSTORE PUSH1 0x20 ADD DUP7 DUP2 MSTORE PUSH1 0x20 ADD DUP6 PUSH1 0x3 DUP2 GT ISZERO PUSH2 0xE92 JUMPI PUSH2 0xE91 PUSH2 0x3BCC JUMP JUMPDEST JUMPDEST DUP2 MSTORE PUSH1 0x20 ADD TIMESTAMP DUP2 MSTORE PUSH1 0x20 ADD DUP5 DUP2 MSTORE PUSH1 0x20 ADD DUP4 ISZERO ISZERO DUP2 MSTORE PUSH1 0x20 ADD PUSH1 0x9 DUP9 PUSH1 0x40 MLOAD PUSH2 0xEBB SWAP2 SWAP1 PUSH2 0x4764 JUMP JUMPDEST SWAP1 DUP2 MSTORE PUSH1 0x20 ADD PUSH1 0x40 MLOAD DUP1 SWAP2 SUB SWAP1 KECCAK256 PUSH0 ADD SLOAD DUP2 MSTORE POP PUSH1 0x5 PUSH0 PUSH1 0x2 SLOAD DUP2 MSTORE PUSH1 0x20 ADD SWAP1 DUP2 MSTORE PUSH1 0x20 ADD PUSH0 KECCAK256 PUSH0 DUP3 ADD MLOAD DUP2 PUSH0 ADD SSTORE PUSH1 0x20 DUP3 ADD MLOAD DUP2 PUSH1 0x1 ADD SWAP1 DUP2 PUSH2 0xEFF SWAP2 SWAP1 PUSH2 0x4B0F JUMP JUMPDEST POP PUSH1 0x40 DUP3 ADD MLOAD DUP2 PUSH1 0x2 ADD SWAP1 DUP2 PUSH2 0xF15 SWAP2 SWAP1 PUSH2 0x4B0F JUMP JUMPDEST POP PUSH1 0x60 DUP3 ADD MLOAD DUP2 PUSH1 0x3 ADD PUSH0 PUSH2 0x100 EXP DUP2 SLOAD DUP2 PUSH1 0xFF MUL NOT AND SWAP1 DUP4 PUSH1 0x3 DUP2 GT ISZERO PUSH2 0xF40 JUMPI PUSH2 0xF3F PUSH2 0x3BCC JUMP JUMPDEST JUMPDEST MUL OR SWAP1 SSTORE POP PUSH1 0x80 DUP3 ADD MLOAD DUP2 PUSH1 0x4 ADD SSTORE PUSH1 0xA0 DUP3 ADD MLOAD DUP2 PUSH1 0x5 ADD SWAP1 DUP2 PUSH2 0xF64 SWAP2 SWAP1 PUSH2 0x4B0F JUMP JUMPDEST POP PUSH1 0xC0 DUP3 ADD MLOAD DUP2 PUSH1 0x6 ADD PUSH0 PUSH2 0x100 EXP DUP2 SLOAD DUP2 PUSH1 0xFF MUL NOT AND SWAP1 DUP4 ISZERO ISZERO MUL OR SWAP1 SSTORE POP PUSH1 0xE0 DUP3 ADD MLOAD DUP2 PUSH1 0x7 ADD SSTORE SWAP1 POP POP DUP2 ISZERO PUSH2 0xFBF JUMPI PUSH2 0xFA0 DUP7 PUSH2 0x3342 JUMP JUMPDEST PUSH1 0xA PUSH1 0x1 ADD PUSH0 DUP2 SLOAD DUP1 SWAP3 SWAP2 SWAP1 PUSH2 0xFB5 SWAP1 PUSH2 0x4928 JUMP JUMPDEST SWAP2 SWAP1 POP SSTORE POP PUSH2 0xFDA JUMP JUMPDEST PUSH1 0xA PUSH1 0x2 ADD PUSH0 DUP2 SLOAD DUP1 SWAP3 SWAP2 SWAP1 PUSH2 0xFD4 SWAP1 PUSH2 0x4928 JUMP JUMPDEST SWAP2 SWAP1 POP SSTORE POP JUMPDEST PUSH1 0x2 SLOAD PUSH32 0x660E83DCE644F7BE3FB68C939C1D49BB83394F37683CAFDB498DC4C109803E6F DUP8 DUP7 TIMESTAMP PUSH1 0x40 MLOAD PUSH2 0x1010 SWAP4 SWAP3 SWAP2 SWAP1 PUSH2 0x4BDE JUMP JUMPDEST PUSH1 0x40 MLOAD DUP1 SWAP2 SUB SWAP1 LOG2 PUSH1 0x2 SLOAD SWAP1 POP SWAP6 SWAP5 POP POP POP POP POP JUMP JUMPDEST PUSH1 0x6 PUSH0 CALLER PUSH20 0xFFFFFFFFFFFFFFFFFFFFFFFFFFFFFFFFFFFFFFFF AND PUSH20 0xFFFFFFFFFFFFFFFFFFFFFFFFFFFFFFFFFFFFFFFF AND DUP2 MSTORE PUSH1 0x20 ADD SWAP1 DUP2 MSTORE PUSH1 0x20 ADD PUSH0 KECCAK256 PUSH0 SWAP1 SLOAD SWAP1 PUSH2 0x100 EXP SWAP1 DIV PUSH1 0xFF AND DUP1 PUSH2 0x10C6 JUMPI POP PUSH0 PUSH0 SWAP1 SLOAD SWAP1 PUSH2 0x100 EXP SWAP1 DIV PUSH20 0xFFFFFFFFFFFFFFFFFFFFFFFFFFFFFFFFFFFFFFFF AND PUSH20 0xFFFFFFFFFFFFFFFFFFFFFFFFFFFFFFFFFFFFFFFF AND CALLER PUSH20 0xFFFFFFFFFFFFFFFFFFFFFFFFFFFFFFFFFFFFFFFF AND EQ JUMPDEST PUSH2 0x1105 JUMPI PUSH1 0x40 MLOAD PUSH32 0x8C379A000000000000000000000000000000000000000000000000000000000 DUP2 MSTORE PUSH1 0x4 ADD PUSH2 0x10FC SWAP1 PUSH2 0x470C JUMP JUMPDEST PUSH1 0x40 MLOAD DUP1 SWAP2 SUB SWAP1 REVERT JUMPDEST PUSH1 0x1 PUSH1 0x7 DUP3 PUSH1 0x40 MLOAD PUSH2 0x1117 SWAP2 SWAP1 PUSH2 0x4764 JUMP JUMPDEST SWAP1 DUP2 MSTORE PUSH1 0x20 ADD PUSH1 0x40 MLOAD DUP1 SWAP2 SUB SWAP1 KECCAK256 PUSH0 PUSH2 0x100 EXP DUP2 SLOAD DUP2 PUSH1 0xFF MUL NOT AND SWAP1 DUP4 ISZERO ISZERO MUL OR SWAP1 SSTORE POP PUSH32 0x47DA8E84D8CED9D32176DC5085E678ADF759BBF786FF74F7EF79E7B41A262761 DUP2 CALLER PUSH1 0x40 MLOAD PUSH2 0x116C SWAP3 SWAP2 SWAP1 PUSH2 0x477A JUMP JUMPDEST PUSH1 0x40 MLOAD DUP1 SWAP2 SUB SWAP1 LOG1 POP JUMP JUMPDEST PUSH0 PUSH1 0x6 PUSH0 DUP4 PUSH20 0xFFFFFFFFFFFFFFFFFFFFFFFFFFFFFFFFFFFFFFFF AND PUSH20 0xFFFFFFFFFFFFFFFFFFFFFFFFFFFFFFFFFFFFFFFF AND DUP2 MSTORE PUSH1 0x20 ADD SWAP1 DUP2 MSTORE PUSH1 0x20 ADD PUSH0 KECCAK256 PUSH0 SWAP1 SLOAD SWAP1 PUSH2 0x100 EXP SWAP1 DIV PUSH1 0xFF AND SWAP1 POP SWAP2 SWAP1 POP JUMP JUMPDEST PUSH1 0x6 PUSH0 CALLER PUSH20 0xFFFFFFFFFFFFFFFFFFFFFFFFFFFFFFFFFFFFFFFF AND PUSH20 0xFFFFFFFFFFFFFFFFFFFFFFFFFFFFFFFFFFFFFFFF AND DUP2 MSTORE PUSH1 0x20 ADD SWAP1 DUP2 MSTORE PUSH1 0x20 ADD PUSH0 KECCAK256 PUSH0 SWAP1 SLOAD SWAP1 PUSH2 0x100 EXP SWAP1 DIV PUSH1 0xFF AND DUP1 PUSH2 0x1269 JUMPI POP PUSH0 PUSH0 SWAP1 SLOAD SWAP1 PUSH2 0x100 EXP SWAP1 DIV PUSH20 0xFFFFFFFFFFFFFFFFFFFFFFFFFFFFFFFFFFFFFFFF AND PUSH20 0xFFFFFFFFFFFFFFFFFFFFFFFFFFFFFFFFFFFFFFFF AND CALLER PUSH20 0xFFFFFFFFFFFFFFFFFFFFFFFFFFFFFFFFFFFFFFFF AND EQ JUMPDEST PUSH2 0x12A8 JUMPI PUSH1 0x40 MLOAD PUSH32 0x8C379A000000000000000000000000000000000000000000000000000000000 DUP2 MSTORE PUSH1 0x4 ADD PUSH2 0x129F SWAP1 PUSH2 0x470C JUMP JUMPDEST PUSH1 0x40 MLOAD DUP1 SWAP2 SUB SWAP1 REVERT JUMPDEST PUSH0 DUP3 GT DUP1 ISZERO PUSH2 0x12B9 JUMPI POP PUSH1 0x1 SLOAD DUP3 GT ISZERO JUMPDEST PUSH2 0x12F8 JUMPI PUSH1 0x40 MLOAD PUSH32 0x8C379A000000000000000000000000000000000000000000000000000000000 DUP2 MSTORE PUSH1 0x4 ADD PUSH2 0x12EF SWAP1 PUSH2 0x4C64 JUMP JUMPDEST PUSH1 0x40 MLOAD DUP1 SWAP2 SUB SWAP1 REVERT JUMPDEST DUP1 PUSH1 0x4 PUSH0 DUP5 DUP2 MSTORE PUSH1 0x20 ADD SWAP1 DUP2 MSTORE PUSH1 0x20 ADD PUSH0 KECCAK256 PUSH1 0x6 ADD PUSH1 0x2 PUSH2 0x100 EXP DUP2 SLOAD DUP2 PUSH1 0xFF MUL NOT AND SWAP1 DUP4 ISZERO ISZERO MUL OR SWAP1 SSTORE POP DUP2 PUSH32 0x7AEBA5A23B1632F12AE9B736954CB19E2F8D2660F78AFC700D7F4923B205A093 DUP3 PUSH1 0x40 MLOAD PUSH2 0x1354 SWAP2 SWAP1 PUSH2 0x3CEA JUMP JUMPDEST PUSH1 0x40 MLOAD DUP1 SWAP2 SUB SWAP1 LOG2 POP POP JUMP JUMPDEST PUSH1 0x9 DUP2 DUP1 MLOAD PUSH1 0x20 DUP2 ADD DUP3 ADD DUP1 MLOAD DUP5 DUP3 MSTORE PUSH1 0x20 DUP4 ADD PUSH1 0x20 DUP6 ADD KECCAK256 DUP2 DUP4 MSTORE DUP1 SWAP6 POP POP POP POP POP POP PUSH0 SWAP2 POP SWAP1 POP DUP1 PUSH0 ADD SLOAD SWAP1 DUP1 PUSH1 0x1 ADD SLOAD SWAP1 DUP1 PUSH1 0x2 ADD SLOAD SWAP1 DUP1 PUSH1 0x3 ADD PUSH0 SWAP1 SLOAD SWAP1 PUSH2 0x100 EXP SWAP1 DIV PUSH1 0xFF AND SWAP1 POP DUP5 JUMP JUMPDEST PUSH1 0x10 SLOAD DUP2 JUMP JUMPDEST PUSH1 0x6 PUSH0 CALLER PUSH20 0xFFFFFFFFFFFFFFFFFFFFFFFFFFFFFFFFFFFFFFFF AND PUSH20 0xFFFFFFFFFFFFFFFFFFFFFFFFFFFFFFFFFFFFFFFF AND DUP2 MSTORE PUSH1 0x20 ADD SWAP1 DUP2 MSTORE PUSH1 0x20 ADD PUSH0 KECCAK256 PUSH0 SWAP1 SLOAD SWAP1 PUSH2 0x100 EXP SWAP1 DIV PUSH1 0xFF AND DUP1 PUSH2 0x1456 JUMPI POP PUSH0 PUSH0 SWAP1 SLOAD SWAP1 PUSH2 0x100 EXP SWAP1 DIV PUSH20 0xFFFFFFFFFFFFFFFFFFFFFFFFFFFFFFFFFFFFFFFF AND PUSH20 0xFFFFFFFFFFFFFFFFFFFFFFFFFFFFFFFFFFFFFFFF AND CALLER PUSH20 0xFFFFFFFFFFFFFFFFFFFFFFFFFFFFFFFFFFFFFFFF AND EQ JUMPDEST PUSH2 0x1495 JUMPI PUSH1 0x40 MLOAD PUSH32 0x8C379A000000000000000000000000000000000000000000000000000000000 DUP2 MSTORE PUSH1 0x4 ADD PUSH2 0x148C SWAP1 PUSH2 0x470C JUMP JUMPDEST PUSH1 0x40 MLOAD DUP1 SWAP2 SUB SWAP1 REVERT JUMPDEST PUSH0 DUP2 GT DUP1 ISZERO PUSH2 0x14A6 JUMPI POP PUSH1 0x1 SLOAD DUP2 GT ISZERO JUMPDEST PUSH2 0x14E5 JUMPI PUSH1 0x40 MLOAD PUSH32 0x8C379A000000000000000000000000000000000000000000000000000000000 DUP2 MSTORE PUSH1 0x4 ADD PUSH2 0x14DC SWAP1 PUSH2 0x4C64 JUMP JUMPDEST PUSH1 0x40 MLOAD DUP1 SWAP2 SUB SWAP1 REVERT JUMPDEST PUSH1 0x4 PUSH0 DUP3 DUP2 MSTORE PUSH1 0x20 ADD SWAP1 DUP2 MSTORE PUSH1 0x20 ADD PUSH0 KECCAK256 PUSH0 PUSH0 DUP3 ADD PUSH0 SWAP1 SSTORE PUSH1 0x1 DUP3 ADD PUSH0 PUSH2 0x150C SWAP2 SWAP1 PUSH2 0x37C2 JUMP JUMPDEST PUSH1 0x2 DUP3 ADD PUSH0 PUSH2 0x151B SWAP2 SWAP1 PUSH2 0x37C2 JUMP JUMPDEST PUSH1 0x3 DUP3 ADD PUSH0 PUSH2 0x152A SWAP2 SWAP1 PUSH2 0x37C2 JUMP JUMPDEST PUSH1 0x4 DUP3 ADD PUSH0 SWAP1 SSTORE PUSH1 0x5 DUP3 ADD PUSH0 SWAP1 SSTORE PUSH1 0x6 DUP3 ADD PUSH0 PUSH2 0x100 EXP DUP2 SLOAD SWAP1 PUSH1 0xFF MUL NOT AND SWAP1 SSTORE PUSH1 0x6 DUP3 ADD PUSH1 0x1 PUSH2 0x100 EXP DUP2 SLOAD SWAP1 PUSH1 0xFF MUL NOT AND SWAP1 SSTORE PUSH1 0x6 DUP3 ADD PUSH1 0x2 PUSH2 0x100 EXP DUP2 SLOAD SWAP1 PUSH1 0xFF MUL NOT AND SWAP1 SSTORE PUSH1 0x7 DUP3 ADD PUSH0 SWAP1 SSTORE PUSH1 0x8 DUP3 ADD PUSH0 SWAP1 SSTORE PUSH1 0x9 DUP3 ADD PUSH0 PUSH2 0x100 EXP DUP2 SLOAD SWAP1 PUSH20 0xFFFFFFFFFFFFFFFFFFFFFFFFFFFFFFFFFFFFFFFF MUL NOT AND SWAP1 SSTORE POP POP DUP1 PUSH32 0x5C4BD92909DB22CC3978AA8B39244161C4944F7ABFCD72CC33F87DAE997870AA PUSH1 0x40 MLOAD PUSH1 0x40 MLOAD DUP1 SWAP2 SUB SWAP1 LOG2 POP JUMP JUMPDEST PUSH1 0x3 PUSH0 SWAP1 SLOAD SWAP1 PUSH2 0x100 EXP SWAP1 DIV PUSH1 0xFF AND DUP2 JUMP JUMPDEST PUSH1 0x7 DUP2 DUP1 MLOAD PUSH1 0x20 DUP2 ADD DUP3 ADD DUP1 MLOAD DUP5 DUP3 MSTORE PUSH1 0x20 DUP4 ADD PUSH1 0x20 DUP6 ADD KECCAK256 DUP2 DUP4 MSTORE DUP1 SWAP6 POP POP POP POP POP POP PUSH0 SWAP2 POP SLOAD SWAP1 PUSH2 0x100 EXP SWAP1 DIV PUSH1 0xFF AND DUP2 JUMP JUMPDEST PUSH2 0x1628 PUSH2 0x37FF JUMP JUMPDEST PUSH0 DUP3 GT DUP1 ISZERO PUSH2 0x1639 JUMPI POP PUSH1 0x2 SLOAD DUP3 GT ISZERO JUMPDEST PUSH2 0x1678 JUMPI PUSH1 0x40 MLOAD PUSH32 0x8C379A000000000000000000000000000000000000000000000000000000000 DUP2 MSTORE PUSH1 0x4 ADD PUSH2 0x166F SWAP1 PUSH2 0x4CCC JUMP JUMPDEST PUSH1 0x40 MLOAD DUP1 SWAP2 SUB SWAP1 REVERT JUMPDEST PUSH1 0x5 PUSH0 DUP4 DUP2 MSTORE PUSH1 0x20 ADD SWAP1 DUP2 MSTORE PUSH1 0x20 ADD PUSH0 KECCAK256 PUSH1 0x40 MLOAD DUP1 PUSH2 0x100 ADD PUSH1 0x40 MSTORE SWAP1 DUP2 PUSH0 DUP3 ADD SLOAD DUP2 MSTORE PUSH1 0x20 ADD PUSH1 0x1 DUP3 ADD DUP1 SLOAD PUSH2 0x16AE SWAP1 PUSH2 0x47D5 JUMP JUMPDEST DUP1 PUSH1 0x1F ADD PUSH1 0x20 DUP1 SWAP2 DIV MUL PUSH1 0x20 ADD PUSH1 0x40 MLOAD SWAP1 DUP2 ADD PUSH1 0x40 MSTORE DUP1 SWAP3 SWAP2 SWAP1 DUP2 DUP2 MSTORE PUSH1 0x20 ADD DUP3 DUP1 SLOAD PUSH2 0x16DA SWAP1 PUSH2 0x47D5 JUMP JUMPDEST DUP1 ISZERO PUSH2 0x1725 JUMPI DUP1 PUSH1 0x1F LT PUSH2 0x16FC JUMPI PUSH2 0x100 DUP1 DUP4 SLOAD DIV MUL DUP4 MSTORE SWAP2 PUSH1 0x20 ADD SWAP2 PUSH2 0x1725 JUMP JUMPDEST DUP3 ADD SWAP2 SWAP1 PUSH0 MSTORE PUSH1 0x20 PUSH0 KECCAK256 SWAP1 JUMPDEST DUP2 SLOAD DUP2 MSTORE SWAP1 PUSH1 0x1 ADD SWAP1 PUSH1 0x20 ADD DUP1 DUP4 GT PUSH2 0x1708 JUMPI DUP3 SWAP1 SUB PUSH1 0x1F AND DUP3 ADD SWAP2 JUMPDEST POP POP POP POP POP DUP2 MSTORE PUSH1 0x20 ADD PUSH1 0x2 DUP3 ADD DUP1 SLOAD PUSH2 0x173E SWAP1 PUSH2 0x47D5 JUMP JUMPDEST DUP1 PUSH1 0x1F ADD PUSH1 0x20 DUP1 SWAP2 DIV MUL PUSH1 0x20 ADD PUSH1 0x40 MLOAD SWAP1 DUP2 ADD PUSH1 0x40 MSTORE DUP1 SWAP3 SWAP2 SWAP1 DUP2 DUP2 MSTORE PUSH1 0x20 ADD DUP3 DUP1 SLOAD PUSH2 0x176A SWAP1 PUSH2 0x47D5 JUMP JUMPDEST DUP1 ISZERO PUSH2 0x17B5 JUMPI DUP1 PUSH1 0x1F LT PUSH2 0x178C JUMPI PUSH2 0x100 DUP1 DUP4 SLOAD DIV MUL DUP4 MSTORE SWAP2 PUSH1 0x20 ADD SWAP2 PUSH2 0x17B5 JUMP JUMPDEST DUP3 ADD SWAP2 SWAP1 PUSH0 MSTORE PUSH1 0x20 PUSH0 KECCAK256 SWAP1 JUMPDEST DUP2 SLOAD DUP2 MSTORE SWAP1 PUSH1 0x1 ADD SWAP1 PUSH1 0x20 ADD DUP1 DUP4 GT PUSH2 0x1798 JUMPI DUP3 SWAP1 SUB PUSH1 0x1F AND DUP3 ADD SWAP2 JUMPDEST POP POP POP POP POP DUP2 MSTORE PUSH1 0x20 ADD PUSH1 0x3 DUP3 ADD PUSH0 SWAP1 SLOAD SWAP1 PUSH2 0x100 EXP SWAP1 DIV PUSH1 0xFF AND PUSH1 0x3 DUP2 GT ISZERO PUSH2 0x17E2 JUMPI PUSH2 0x17E1 PUSH2 0x3BCC JUMP JUMPDEST JUMPDEST PUSH1 0x3 DUP2 GT ISZERO PUSH2 0x17F4 JUMPI PUSH2 0x17F3 PUSH2 0x3BCC JUMP JUMPDEST JUMPDEST DUP2 MSTORE PUSH1 0x20 ADD PUSH1 0x4 DUP3 ADD SLOAD DUP2 MSTORE PUSH1 0x20 ADD PUSH1 0x5 DUP3 ADD DUP1 SLOAD PUSH2 0x1812 SWAP1 PUSH2 0x47D5 JUMP JUMPDEST DUP1 PUSH1 0x1F ADD PUSH1 0x20 DUP1 SWAP2 DIV MUL PUSH1 0x20 ADD PUSH1 0x40 MLOAD SWAP1 DUP2 ADD PUSH1 0x40 MSTORE DUP1 SWAP3 SWAP2 SWAP1 DUP2 DUP2 MSTORE PUSH1 0x20 ADD DUP3 DUP1 SLOAD PUSH2 0x183E SWAP1 PUSH2 0x47D5 JUMP JUMPDEST DUP1 ISZERO PUSH2 0x1889 JUMPI DUP1 PUSH1 0x1F LT PUSH2 0x1860 JUMPI PUSH2 0x100 DUP1 DUP4 SLOAD DIV MUL DUP4 MSTORE SWAP2 PUSH1 0x20 ADD SWAP2 PUSH2 0x1889 JUMP JUMPDEST DUP3 ADD SWAP2 SWAP1 PUSH0 MSTORE PUSH1 0x20 PUSH0 KECCAK256 SWAP1 JUMPDEST DUP2 SLOAD DUP2 MSTORE SWAP1 PUSH1 0x1 ADD SWAP1 PUSH1 0x20 ADD DUP1 DUP4 GT PUSH2 0x186C JUMPI DUP3 SWAP1 SUB PUSH1 0x1F AND DUP3 ADD SWAP2 JUMPDEST POP POP POP POP POP DUP2 MSTORE PUSH1 0x20 ADD PUSH1 0x6 DUP3 ADD PUSH0 SWAP1 SLOAD SWAP1 PUSH2 0x100 EXP SWAP1 DIV PUSH1 0xFF AND ISZERO ISZERO ISZERO ISZERO DUP2 MSTORE PUSH1 0x20 ADD PUSH1 0x7 DUP3 ADD SLOAD DUP2 MSTORE POP POP SWAP1 POP SWAP2 SWAP1 POP JUMP JUMPDEST PUSH2 0x18C5 PUSH2 0x3853 JUMP JUMPDEST PUSH0 DUP3 GT DUP1 ISZERO PUSH2 0x18D6 JUMPI POP PUSH1 0x1 SLOAD DUP3 GT ISZERO JUMPDEST PUSH2 0x1915 JUMPI PUSH1 0x40 MLOAD PUSH32 0x8C379A000000000000000000000000000000000000000000000000000000000 DUP2 MSTORE PUSH1 0x4 ADD PUSH2 0x190C SWAP1 PUSH2 0x4C64 JUMP JUMPDEST PUSH1 0x40 MLOAD DUP1 SWAP2 SUB SWAP1 REVERT JUMPDEST PUSH1 0x4 PUSH0 DUP4 DUP2 MSTORE PUSH1 0x20 ADD SWAP1 DUP2 MSTORE PUSH1 0x20 ADD PUSH0 KECCAK256 PUSH1 0x40 MLOAD DUP1 PUSH2 0x180 ADD PUSH1 0x40 MSTORE SWAP1 DUP2 PUSH0 DUP3 ADD SLOAD DUP2 MSTORE PUSH1 0x20 ADD PUSH1 0x1 DUP3 ADD DUP1 SLOAD PUSH2 0x194B SWAP1 PUSH2 0x47D5 JUMP JUMPDEST DUP1 PUSH1 0x1F ADD PUSH1 0x20 DUP1 SWAP2 DIV MUL PUSH1 0x20 ADD PUSH1 0x40 MLOAD SWAP1 DUP2 ADD PUSH1 0x40 MSTORE DUP1 SWAP3 SWAP2 SWAP1 DUP2 DUP2 MSTORE PUSH1 0x20 ADD DUP3 DUP1 SLOAD PUSH2 0x1977 SWAP1 PUSH2 0x47D5 JUMP JUMPDEST DUP1 ISZERO PUSH2 0x19C2 JUMPI DUP1 PUSH1 0x1F LT PUSH2 0x1999 JUMPI PUSH2 0x100 DUP1 DUP4 SLOAD DIV MUL DUP4 MSTORE SWAP2 PUSH1 0x20 ADD SWAP2 PUSH2 0x19C2 JUMP JUMPDEST DUP3 ADD SWAP2 SWAP1 PUSH0 MSTORE PUSH1 0x20 PUSH0 KECCAK256 SWAP1 JUMPDEST DUP2 SLOAD DUP2 MSTORE SWAP1 PUSH1 0x1 ADD SWAP1 PUSH1 0x20 ADD DUP1 DUP4 GT PUSH2 0x19A5 JUMPI DUP3 SWAP1 SUB PUSH1 0x1F AND DUP3 ADD SWAP2 JUMPDEST POP POP POP POP POP DUP2 MSTORE PUSH1 0x20 ADD PUSH1 0x2 DUP3 ADD DUP1 SLOAD PUSH2 0x19DB SWAP1 PUSH2 0x47D5 JUMP JUMPDEST DUP1 PUSH1 0x1F ADD PUSH1 0x20 DUP1 SWAP2 DIV MUL PUSH1 0x20 ADD PUSH1 0x40 MLOAD SWAP1 DUP2 ADD PUSH1 0x40 MSTORE DUP1 SWAP3 SWAP2 SWAP1 DUP2 DUP2 MSTORE PUSH1 0x20 ADD DUP3 DUP1 SLOAD PUSH2 0x1A07 SWAP1 PUSH2 0x47D5 JUMP JUMPDEST DUP1 ISZERO PUSH2 0x1A52 JUMPI DUP1 PUSH1 0x1F LT PUSH2 0x1A29 JUMPI PUSH2 0x100 DUP1 DUP4 SLOAD DIV MUL DUP4 MSTORE SWAP2 PUSH1 0x20 ADD SWAP2 PUSH2 0x1A52 JUMP JUMPDEST DUP3 ADD SWAP2 SWAP1 PUSH0 MSTORE PUSH1 0x20 PUSH0 KECCAK256 SWAP1 JUMPDEST DUP2 SLOAD DUP2 MSTORE SWAP1 PUSH1 0x1 ADD SWAP1 PUSH1 0x20 ADD DUP1 DUP4 GT PUSH2 0x1A35 JUMPI DUP3 SWAP1 SUB PUSH1 0x1F AND DUP3 ADD SWAP2 JUMPDEST POP POP POP POP POP DUP2 MSTORE PUSH1 0x20 ADD PUSH1 0x3 DUP3 ADD DUP1 SLOAD PUSH2 0x1A6B SWAP1 PUSH2 0x47D5 JUMP JUMPDEST DUP1 PUSH1 0x1F ADD PUSH1 0x20 DUP1 SWAP2 DIV MUL PUSH1 0x20 ADD PUSH1 0x40 MLOAD SWAP1 DUP2 ADD PUSH1 0x40 MSTORE DUP1 SWAP3 SWAP2 SWAP1 DUP2 DUP2 MSTORE PUSH1 0x20 ADD DUP3 DUP1 SLOAD PUSH2 0x1A97 SWAP1 PUSH2 0x47D5 JUMP JUMPDEST DUP1 ISZERO PUSH2 0x1AE2 JUMPI DUP1 PUSH1 0x1F LT PUSH2 0x1AB9 JUMPI PUSH2 0x100 DUP1 DUP4 SLOAD DIV MUL DUP4 MSTORE SWAP2 PUSH1 0x20 ADD SWAP2 PUSH2 0x1AE2 JUMP JUMPDEST DUP3 ADD SWAP2 SWAP1 PUSH0 MSTORE PUSH1 0x20 PUSH0 KECCAK256 SWAP1 JUMPDEST DUP2 SLOAD DUP2 MSTORE SWAP1 PUSH1 0x1 ADD SWAP1 PUSH1 0x20 ADD DUP1 DUP4 GT PUSH2 0x1AC5 JUMPI DUP3 SWAP1 SUB PUSH1 0x1F AND DUP3 ADD SWAP2 JUMPDEST POP POP POP POP POP DUP2 MSTORE PUSH1 0x20 ADD PUSH1 0x4 DUP3 ADD SLOAD DUP2 MSTORE PUSH1 0x20 ADD PUSH1 0x5 DUP3 ADD SLOAD DUP2 MSTORE PUSH1 0x20 ADD PUSH1 0x6 DUP3 ADD PUSH0 SWAP1 SLOAD SWAP1 PUSH2 0x100 EXP SWAP1 DIV PUSH1 0xFF AND PUSH1 0x5 DUP2 GT ISZERO PUSH2 0x1B23 JUMPI PUSH2 0x1B22 PUSH2 0x3BCC JUMP JUMPDEST JUMPDEST PUSH1 0x5 DUP2 GT ISZERO PUSH2 0x1B35 JUMPI PUSH2 0x1B34 PUSH2 0x3BCC JUMP JUMPDEST JUMPDEST DUP2 MSTORE PUSH1 0x20 ADD PUSH1 0x6 DUP3 ADD PUSH1 0x1 SWAP1 SLOAD SWAP1 PUSH2 0x100 EXP SWAP1 DIV PUSH1 0xFF AND PUSH1 0x2 DUP2 GT ISZERO PUSH2 0x1B5E JUMPI PUSH2 0x1B5D PUSH2 0x3BCC JUMP JUMPDEST JUMPDEST PUSH1 0x2 DUP2 GT ISZERO PUSH2 0x1B70 JUMPI PUSH2 0x1B6F PUSH2 0x3BCC JUMP JUMPDEST JUMPDEST DUP2 MSTORE PUSH1 0x20 ADD PUSH1 0x6 DUP3 ADD PUSH1 0x2 SWAP1 SLOAD SWAP1 PUSH2 0x100 EXP SWAP1 DIV PUSH1 0xFF AND ISZERO ISZERO ISZERO ISZERO DUP2 MSTORE PUSH1 0x20 ADD PUSH1 0x7 DUP3 ADD SLOAD DUP2 MSTORE PUSH1 0x20 ADD PUSH1 0x8 DUP3 ADD SLOAD DUP2 MSTORE PUSH1 0x20 ADD PUSH1 0x9 DUP3 ADD PUSH0 SWAP1 SLOAD SWAP1 PUSH2 0x100 EXP SWAP1 DIV PUSH20 0xFFFFFFFFFFFFFFFFFFFFFFFFFFFFFFFFFFFFFFFF AND PUSH20 0xFFFFFFFFFFFFFFFFFFFFFFFFFFFFFFFFFFFFFFFF AND PUSH20 0xFFFFFFFFFFFFFFFFFFFFFFFFFFFFFFFFFFFFFFFF AND DUP2 MSTORE POP POP SWAP1 POP SWAP2 SWAP1 POP JUMP JUMPDEST PUSH2 0x1C07 PUSH2 0x38E7 JUMP JUMPDEST PUSH1 0xA PUSH1 0x40 MLOAD DUP1 PUSH1 0xA0 ADD PUSH1 0x40 MSTORE SWAP1 DUP2 PUSH0 DUP3 ADD SLOAD DUP2 MSTORE PUSH1 0x20 ADD PUSH1 0x1 DUP3 ADD SLOAD DUP2 MSTORE PUSH1 0x20 ADD PUSH1 0x2 DUP3 ADD SLOAD DUP2 MSTORE PUSH1 0x20 ADD PUSH1 0x3 DUP3 ADD SLOAD DUP2 MSTORE PUSH1 0x20 ADD PUSH1 0x4 DUP3 ADD SLOAD DUP2 MSTORE POP POP SWAP1 POP SWAP1 JUMP JUMPDEST PUSH0 PUSH0 PUSH0 PUSH0 PUSH0 PUSH1 0x3 PUSH0 SWAP1 SLOAD SWAP1 PUSH2 0x100 EXP SWAP1 DIV PUSH1 0xFF AND PUSH1 0x3 PUSH1 0x1 SWAP1 SLOAD SWAP1 PUSH2 0x100 EXP SWAP1 DIV PUSH1 0xFF AND PUSH1 0x2 SLOAD PUSH1 0xA PUSH1 0x1 ADD SLOAD PUSH1 0x1 SLOAD SWAP5 POP SWAP5 POP SWAP5 POP SWAP5 POP SWAP5 POP SWAP1 SWAP2 SWAP3 SWAP4 SWAP5 JUMP JUMPDEST PUSH0 PUSH1 0x1 SLOAD SWAP1 POP SWAP1 JUMP JUMPDEST PUSH2 0x1C9C PUSH2 0x3911 JUMP JUMPDEST PUSH1 0x9 DUP3 PUSH1 0x40 MLOAD PUSH2 0x1CAC SWAP2 SWAP1 PUSH2 0x4764 JUMP JUMPDEST SWAP1 DUP2 MSTORE PUSH1 0x20 ADD PUSH1 0x40 MLOAD DUP1 SWAP2 SUB SWAP1 KECCAK256 PUSH1 0x40 MLOAD DUP1 PUSH1 0x80 ADD PUSH1 0x40 MSTORE SWAP1 DUP2 PUSH0 DUP3 ADD SLOAD DUP2 MSTORE PUSH1 0x20 ADD PUSH1 0x1 DUP3 ADD SLOAD DUP2 MSTORE PUSH1 0x20 ADD PUSH1 0x2 DUP3 ADD SLOAD DUP2 MSTORE PUSH1 0x20 ADD PUSH1 0x3 DUP3 ADD PUSH0 SWAP1 SLOAD SWAP1 PUSH2 0x100 EXP SWAP1 DIV PUSH1 0xFF AND ISZERO ISZERO ISZERO ISZERO DUP2 MSTORE POP POP SWAP1 POP SWAP2 SWAP1 POP JUMP JUMPDEST PUSH0 PUSH1 0x2 SLOAD SWAP1 POP SWAP1 JUMP JUMPDEST PUSH0 PUSH1 0x6 PUSH0 CALLER PUSH20 0xFFFFFFFFFFFFFFFFFFFFFFFFFFFFFFFFFFFFFFFF AND PUSH20 0xFFFFFFFFFFFFFFFFFFFFFFFFFFFFFFFFFFFFFFFF AND DUP2 MSTORE PUSH1 0x20 ADD SWAP1 DUP2 MSTORE PUSH1 0x20 ADD PUSH0 KECCAK256 PUSH0 SWAP1 SLOAD SWAP1 PUSH2 0x100 EXP SWAP1 DIV PUSH1 0xFF AND DUP1 PUSH2 0x1DAD JUMPI POP PUSH0 PUSH0 SWAP1 SLOAD SWAP1 PUSH2 0x100 EXP SWAP1 DIV PUSH20 0xFFFFFFFFFFFFFFFFFFFFFFFFFFFFFFFFFFFFFFFF AND PUSH20 0xFFFFFFFFFFFFFFFFFFFFFFFFFFFFFFFFFFFFFFFF AND CALLER PUSH20 0xFFFFFFFFFFFFFFFFFFFFFFFFFFFFFFFFFFFFFFFF AND EQ JUMPDEST PUSH2 0x1DEC JUMPI PUSH1 0x40 MLOAD PUSH32 0x8C379A000000000000000000000000000000000000000000000000000000000 DUP2 MSTORE PUSH1 0x4 ADD PUSH2 0x1DE3 SWAP1 PUSH2 0x470C JUMP JUMPDEST PUSH1 0x40 MLOAD DUP1 SWAP2 SUB SWAP1 REVERT JUMPDEST PUSH1 0x1 PUSH0 DUP2 SLOAD DUP1 SWAP3 SWAP2 SWAP1 PUSH2 0x1DFE SWAP1 PUSH2 0x4928 JUMP JUMPDEST SWAP2 SWAP1 POP SSTORE POP PUSH1 0x40 MLOAD DUP1 PUSH2 0x180 ADD PUSH1 0x40 MSTORE DUP1 PUSH1 0x1 SLOAD DUP2 MSTORE PUSH1 0x20 ADD DUP11 DUP2 MSTORE PUSH1 0x20 ADD DUP10 DUP2 MSTORE PUSH1 0x20 ADD DUP9 DUP2 MSTORE PUSH1 0x20 ADD DUP8 DUP2 MSTORE PUSH1 0x20 ADD DUP7 DUP2 MSTORE PUSH1 0x20 ADD DUP6 PUSH1 0x5 DUP2 GT ISZERO PUSH2 0x1E48 JUMPI PUSH2 0x1E47 PUSH2 0x3BCC JUMP JUMPDEST JUMPDEST DUP2 MSTORE PUSH1 0x20 ADD DUP5 PUSH1 0x2 DUP2 GT ISZERO PUSH2 0x1E60 JUMPI PUSH2 0x1E5F PUSH2 0x3BCC JUMP JUMPDEST JUMPDEST DUP2 MSTORE PUSH1 0x20 ADD PUSH1 0x1 ISZERO ISZERO DUP2 MSTORE PUSH1 0x20 ADD DUP4 DUP2 MSTORE PUSH1 0x20 ADD TIMESTAMP DUP2 MSTORE PUSH1 0x20 ADD CALLER PUSH20 0xFFFFFFFFFFFFFFFFFFFFFFFFFFFFFFFFFFFFFFFF AND DUP2 MSTORE POP PUSH1 0x4 PUSH0 PUSH1 0x1 SLOAD DUP2 MSTORE PUSH1 0x20 ADD SWAP1 DUP2 MSTORE PUSH1 0x20 ADD PUSH0 KECCAK256 PUSH0 DUP3 ADD MLOAD DUP2 PUSH0 ADD SSTORE PUSH1 0x20 DUP3 ADD MLOAD DUP2 PUSH1 0x1 ADD SWAP1 DUP2 PUSH2 0x1EC4 SWAP2 SWAP1 PUSH2 0x4B0F JUMP JUMPDEST POP PUSH1 0x40 DUP3 ADD MLOAD DUP2 PUSH1 0x2 ADD SWAP1 DUP2 PUSH2 0x1EDA SWAP2 SWAP1 PUSH2 0x4B0F JUMP JUMPDEST POP PUSH1 0x60 DUP3 ADD MLOAD DUP2 PUSH1 0x3 ADD SWAP1 DUP2 PUSH2 0x1EF0 SWAP2 SWAP1 PUSH2 0x4B0F JUMP JUMPDEST POP PUSH1 0x80 DUP3 ADD MLOAD DUP2 PUSH1 0x4 ADD SSTORE PUSH1 0xA0 DUP3 ADD MLOAD DUP2 PUSH1 0x5 ADD SSTORE PUSH1 0xC0 DUP3 ADD MLOAD DUP2 PUSH1 0x6 ADD PUSH0 PUSH2 0x100 EXP DUP2 SLOAD DUP2 PUSH1 0xFF MUL NOT AND SWAP1 DUP4 PUSH1 0x5 DUP2 GT ISZERO PUSH2 0x1F2F JUMPI PUSH2 0x1F2E PUSH2 0x3BCC JUMP JUMPDEST JUMPDEST MUL OR SWAP1 SSTORE POP PUSH1 0xE0 DUP3 ADD MLOAD DUP2 PUSH1 0x6 ADD PUSH1 0x1 PUSH2 0x100 EXP DUP2 SLOAD DUP2 PUSH1 0xFF MUL NOT AND SWAP1 DUP4 PUSH1 0x2 DUP2 GT ISZERO PUSH2 0x1F5F JUMPI PUSH2 0x1F5E PUSH2 0x3BCC JUMP JUMPDEST JUMPDEST MUL OR SWAP1 SSTORE POP PUSH2 0x100 DUP3 ADD MLOAD DUP2 PUSH1 0x6 ADD PUSH1 0x2 PUSH2 0x100 EXP DUP2 SLOAD DUP2 PUSH1 0xFF MUL NOT AND SWAP1 DUP4 ISZERO ISZERO MUL OR SWAP1 SSTORE POP PUSH2 0x120 DUP3 ADD MLOAD DUP2 PUSH1 0x7 ADD SSTORE PUSH2 0x140 DUP3 ADD MLOAD DUP2 PUSH1 0x8 ADD SSTORE PUSH2 0x160 DUP3 ADD MLOAD DUP2 PUSH1 0x9 ADD PUSH0 PUSH2 0x100 EXP DUP2 SLOAD DUP2 PUSH20 0xFFFFFFFFFFFFFFFFFFFFFFFFFFFFFFFFFFFFFFFF MUL NOT AND SWAP1 DUP4 PUSH20 0xFFFFFFFFFFFFFFFFFFFFFFFFFFFFFFFFFFFFFFFF AND MUL OR SWAP1 SSTORE POP SWAP1 POP POP PUSH1 0x1 SLOAD PUSH32 0xEEF4AB80BE438BD786E0D340D5494930B9916B35DE336E115E328076F2EA6DC4 DUP11 DUP6 PUSH1 0x40 MLOAD PUSH2 0x2019 SWAP3 SWAP2 SWAP1 PUSH2 0x4CEA JUMP JUMPDEST PUSH1 0x40 MLOAD DUP1 SWAP2 SUB SWAP1 LOG2 PUSH1 0x1 SLOAD SWAP1 POP SWAP9 SWAP8 POP POP POP POP POP POP POP POP JUMP JUMPDEST PUSH1 0x2 SLOAD DUP2 JUMP JUMPDEST PUSH1 0x6 PUSH0 CALLER PUSH20 0xFFFFFFFFFFFFFFFFFFFFFFFFFFFFFFFFFFFFFFFF AND PUSH20 0xFFFFFFFFFFFFFFFFFFFFFFFFFFFFFFFFFFFFFFFF AND DUP2 MSTORE PUSH1 0x20 ADD SWAP1 DUP2 MSTORE PUSH1 0x20 ADD PUSH0 KECCAK256 PUSH0 SWAP1 SLOAD SWAP1 PUSH2 0x100 EXP SWAP1 DIV PUSH1 0xFF AND DUP1 PUSH2 0x20D8 JUMPI POP PUSH0 PUSH0 SWAP1 SLOAD SWAP1 PUSH2 0x100 EXP SWAP1 DIV PUSH20 0xFFFFFFFFFFFFFFFFFFFFFFFFFFFFFFFFFFFFFFFF AND PUSH20 0xFFFFFFFFFFFFFFFFFFFFFFFFFFFFFFFFFFFFFFFF AND CALLER PUSH20 0xFFFFFFFFFFFFFFFFFFFFFFFFFFFFFFFFFFFFFFFF AND EQ JUMPDEST PUSH2 0x2117 JUMPI PUSH1 0x40 MLOAD PUSH32 0x8C379A000000000000000000000000000000000000000000000000000000000 DUP2 MSTORE PUSH1 0x4 ADD PUSH2 0x210E SWAP1 PUSH2 0x470C JUMP JUMPDEST PUSH1 0x40 MLOAD DUP1 SWAP2 SUB SWAP1 REVERT JUMPDEST PUSH0 PUSH1 0x3 PUSH1 0x1 PUSH2 0x100 EXP DUP2 SLOAD DUP2 PUSH1 0xFF MUL NOT AND SWAP1 DUP4 ISZERO ISZERO MUL OR SWAP1 SSTORE POP PUSH32 0x6E7AD8B07133CE5A518B1001DD033DC8403C768F691A1F8E81140FA664DEB690 PUSH0 PUSH1 0x40 MLOAD PUSH2 0x2160 SWAP2 SWAP1 PUSH2 0x3CEA JUMP JUMPDEST PUSH1 0x40 MLOAD DUP1 SWAP2 SUB SWAP1 LOG1 JUMP JUMPDEST PUSH0 PUSH0 SWAP1 SLOAD SWAP1 PUSH2 0x100 EXP SWAP1 DIV PUSH20 0xFFFFFFFFFFFFFFFFFFFFFFFFFFFFFFFFFFFFFFFF AND PUSH20 0xFFFFFFFFFFFFFFFFFFFFFFFFFFFFFFFFFFFFFFFF AND CALLER PUSH20 0xFFFFFFFFFFFFFFFFFFFFFFFFFFFFFFFFFFFFFFFF AND EQ PUSH2 0x21F8 JUMPI PUSH1 0x40 MLOAD PUSH32 0x8C379A000000000000000000000000000000000000000000000000000000000 DUP2 MSTORE PUSH1 0x4 ADD PUSH2 0x21EF SWAP1 PUSH2 0x4875 JUMP JUMPDEST PUSH1 0x40 MLOAD DUP1 SWAP2 SUB SWAP1 REVERT JUMPDEST PUSH0 PUSH20 0xFFFFFFFFFFFFFFFFFFFFFFFFFFFFFFFFFFFFFFFF AND DUP2 PUSH20 0xFFFFFFFFFFFFFFFFFFFFFFFFFFFFFFFFFFFFFFFF AND SUB PUSH2 0x2266 JUMPI PUSH1 0x40 MLOAD PUSH32 0x8C379A000000000000000000000000000000000000000000000000000000000 DUP2 MSTORE PUSH1 0x4 ADD PUSH2 0x225D SWAP1 PUSH2 0x4D62 JUMP JUMPDEST PUSH1 0x40 MLOAD DUP1 SWAP2 SUB SWAP1 REVERT JUMPDEST PUSH1 0x1 PUSH1 0x6 PUSH0 DUP4 PUSH20 0xFFFFFFFFFFFFFFFFFFFFFFFFFFFFFFFFFFFFFFFF AND PUSH20 0xFFFFFFFFFFFFFFFFFFFFFFFFFFFFFFFFFFFFFFFF AND DUP2 MSTORE PUSH1 0x20 ADD SWAP1 DUP2 MSTORE PUSH1 0x20 ADD PUSH0 KECCAK256 PUSH0 PUSH2 0x100 EXP DUP2 SLOAD DUP2 PUSH1 0xFF MUL NOT AND SWAP1 DUP4 ISZERO ISZERO MUL OR SWAP1 SSTORE POP DUP1 PUSH20 0xFFFFFFFFFFFFFFFFFFFFFFFFFFFFFFFFFFFFFFFF AND PUSH32 0x44D6D25963F097AD14F29F06854A01F575648A1EF82F30E562CCD3889717E339 PUSH1 0x40 MLOAD PUSH1 0x40 MLOAD DUP1 SWAP2 SUB SWAP1 LOG2 POP JUMP JUMPDEST PUSH1 0x3 PUSH1 0x1 SWAP1 SLOAD SWAP1 PUSH2 0x100 EXP SWAP1 DIV PUSH1 0xFF AND DUP2 JUMP JUMPDEST PUSH1 0x6 PUSH0 CALLER PUSH20 0xFFFFFFFFFFFFFFFFFFFFFFFFFFFFFFFFFFFFFFFF AND PUSH20 0xFFFFFFFFFFFFFFFFFFFFFFFFFFFFFFFFFFFFFFFF AND DUP2 MSTORE PUSH1 0x20 ADD SWAP1 DUP2 MSTORE PUSH1 0x20 ADD PUSH0 KECCAK256 PUSH0 SWAP1 SLOAD SWAP1 PUSH2 0x100 EXP SWAP1 DIV PUSH1 0xFF AND DUP1 PUSH2 0x23B4 JUMPI POP PUSH0 PUSH0 SWAP1 SLOAD SWAP1 PUSH2 0x100 EXP SWAP1 DIV PUSH20 0xFFFFFFFFFFFFFFFFFFFFFFFFFFFFFFFFFFFFFFFF AND PUSH20 0xFFFFFFFFFFFFFFFFFFFFFFFFFFFFFFFFFFFFFFFF AND CALLER PUSH20 0xFFFFFFFFFFFFFFFFFFFFFFFFFFFFFFFFFFFFFFFF AND EQ JUMPDEST PUSH2 0x23F3 JUMPI PUSH1 0x40 MLOAD PUSH32 0x8C379A000000000000000000000000000000000000000000000000000000000 DUP2 MSTORE PUSH1 0x4 ADD PUSH2 0x23EA SWAP1 PUSH2 0x470C JUMP JUMPDEST PUSH1 0x40 MLOAD DUP1 SWAP2 SUB SWAP1 REVERT JUMPDEST DUP1 PUSH1 0x11 DUP2 SWAP1 SSTORE POP PUSH32 0xBC563DE8C41AC66A7038E5CDCC313D786622BB5A46F1F62D154E52C7FD363D68 DUP2 PUSH1 0x40 MLOAD PUSH2 0x2429 SWAP2 SWAP1 PUSH2 0x4DCA JUMP JUMPDEST PUSH1 0x40 MLOAD DUP1 SWAP2 SUB SWAP1 LOG1 POP JUMP JUMPDEST PUSH1 0x8 DUP2 DUP1 MLOAD PUSH1 0x20 DUP2 ADD DUP3 ADD DUP1 MLOAD DUP5 DUP3 MSTORE PUSH1 0x20 DUP4 ADD PUSH1 0x20 DUP6 ADD KECCAK256 DUP2 DUP4 MSTORE DUP1 SWAP6 POP POP POP POP POP POP PUSH0 SWAP2 POP SLOAD SWAP1 PUSH2 0x100 EXP SWAP1 DIV PUSH1 0xFF AND DUP2 JUMP JUMPDEST PUSH1 0x6 PUSH0 CALLER PUSH20 0xFFFFFFFFFFFFFFFFFFFFFFFFFFFFFFFFFFFFFFFF AND PUSH20 0xFFFFFFFFFFFFFFFFFFFFFFFFFFFFFFFFFFFFFFFF AND DUP2 MSTORE PUSH1 0x20 ADD SWAP1 DUP2 MSTORE PUSH1 0x20 ADD PUSH0 KECCAK256 PUSH0 SWAP1 SLOAD SWAP1 PUSH2 0x100 EXP SWAP1 DIV PUSH1 0xFF AND DUP1 PUSH2 0x2509 JUMPI POP PUSH0 PUSH0 SWAP1 SLOAD SWAP1 PUSH2 0x100 EXP SWAP1 DIV PUSH20 0xFFFFFFFFFFFFFFFFFFFFFFFFFFFFFFFFFFFFFFFF AND PUSH20 0xFFFFFFFFFFFFFFFFFFFFFFFFFFFFFFFFFFFFFFFF AND CALLER PUSH20 0xFFFFFFFFFFFFFFFFFFFFFFFFFFFFFFFFFFFFFFFF AND EQ JUMPDEST PUSH2 0x2548 JUMPI PUSH1 0x40 MLOAD PUSH32 0x8C379A000000000000000000000000000000000000000000000000000000000 DUP2 MSTORE PUSH1 0x4 ADD PUSH2 0x253F SWAP1 PUSH2 0x470C JUMP JUMPDEST PUSH1 0x40 MLOAD DUP1 SWAP2 SUB SWAP1 REVERT JUMPDEST PUSH0 PUSH1 0x8 DUP3 PUSH1 0x40 MLOAD PUSH2 0x2559 SWAP2 SWAP1 PUSH2 0x4764 JUMP JUMPDEST SWAP1 DUP2 MSTORE PUSH1 0x20 ADD PUSH1 0x40 MLOAD DUP1 SWAP2 SUB SWAP1 KECCAK256 PUSH0 PUSH2 0x100 EXP DUP2 SLOAD DUP2 PUSH1 0xFF MUL NOT AND SWAP1 DUP4 ISZERO ISZERO MUL OR SWAP1 SSTORE POP POP JUMP JUMPDEST PUSH0 PUSH0 SWAP1 SLOAD SWAP1 PUSH2 0x100 EXP SWAP1 DIV PUSH20 0xFFFFFFFFFFFFFFFFFFFFFFFFFFFFFFFFFFFFFFFF AND DUP2 JUMP JUMPDEST PUSH1 0x6 PUSH0 CALLER PUSH20 0xFFFFFFFFFFFFFFFFFFFFFFFFFFFFFFFFFFFFFFFF AND PUSH20 0xFFFFFFFFFFFFFFFFFFFFFFFFFFFFFFFFFFFFFFFF AND DUP2 MSTORE PUSH1 0x20 ADD SWAP1 DUP2 MSTORE PUSH1 0x20 ADD PUSH0 KECCAK256 PUSH0 SWAP1 SLOAD SWAP1 PUSH2 0x100 EXP SWAP1 DIV PUSH1 0xFF AND DUP1 PUSH2 0x2644 JUMPI POP PUSH0 PUSH0 SWAP1 SLOAD SWAP1 PUSH2 0x100 EXP SWAP1 DIV PUSH20 0xFFFFFFFFFFFFFFFFFFFFFFFFFFFFFFFFFFFFFFFF AND PUSH20 0xFFFFFFFFFFFFFFFFFFFFFFFFFFFFFFFFFFFFFFFF AND CALLER PUSH20 0xFFFFFFFFFFFFFFFFFFFFFFFFFFFFFFFFFFFFFFFF AND EQ JUMPDEST PUSH2 0x2683 JUMPI PUSH1 0x40 MLOAD PUSH32 0x8C379A000000000000000000000000000000000000000000000000000000000 DUP2 MSTORE PUSH1 0x4 ADD PUSH2 0x267A SWAP1 PUSH2 0x470C JUMP JUMPDEST PUSH1 0x40 MLOAD DUP1 SWAP2 SUB SWAP1 REVERT JUMPDEST PUSH1 0x3 PUSH0 SWAP1 SLOAD SWAP1 PUSH2 0x100 EXP SWAP1 DIV PUSH1 0xFF AND PUSH2 0x26D1 JUMPI PUSH1 0x40 MLOAD PUSH32 0x8C379A000000000000000000000000000000000000000000000000000000000 DUP2 MSTORE PUSH1 0x4 ADD PUSH2 0x26C8 SWAP1 PUSH2 0x4E40 JUMP JUMPDEST PUSH1 0x40 MLOAD DUP1 SWAP2 SUB SWAP1 REVERT JUMPDEST PUSH0 PUSH1 0x3 PUSH0 PUSH2 0x100 EXP DUP2 SLOAD DUP2 PUSH1 0xFF MUL NOT AND SWAP1 DUP4 ISZERO ISZERO MUL OR SWAP1 SSTORE POP CALLER PUSH20 0xFFFFFFFFFFFFFFFFFFFFFFFFFFFFFFFFFFFFFFFF AND PUSH32 0x165CC0A9D21D213451D7358030906940C0873BA0F45DADFA286D12F957A91177 TIMESTAMP PUSH1 0x40 MLOAD PUSH2 0x2730 SWAP2 SWAP1 PUSH2 0x3AFE JUMP JUMPDEST PUSH1 0x40 MLOAD DUP1 SWAP2 SUB SWAP1 LOG2 JUMP JUMPDEST PUSH0 PUSH1 0x6 PUSH0 CALLER PUSH20 0xFFFFFFFFFFFFFFFFFFFFFFFFFFFFFFFFFFFFFFFF AND PUSH20 0xFFFFFFFFFFFFFFFFFFFFFFFFFFFFFFFFFFFFFFFF AND DUP2 MSTORE PUSH1 0x20 ADD SWAP1 DUP2 MSTORE PUSH1 0x20 ADD PUSH0 KECCAK256 PUSH0 SWAP1 SLOAD SWAP1 PUSH2 0x100 EXP SWAP1 DIV PUSH1 0xFF AND DUP1 PUSH2 0x27DB JUMPI POP PUSH0 PUSH0 SWAP1 SLOAD SWAP1 PUSH2 0x100 EXP SWAP1 DIV PUSH20 0xFFFFFFFFFFFFFFFFFFFFFFFFFFFFFFFFFFFFFFFF AND PUSH20 0xFFFFFFFFFFFFFFFFFFFFFFFFFFFFFFFFFFFFFFFF AND CALLER PUSH20 0xFFFFFFFFFFFFFFFFFFFFFFFFFFFFFFFFFFFFFFFF AND EQ JUMPDEST PUSH2 0x281A JUMPI PUSH1 0x40 MLOAD PUSH32 0x8C379A000000000000000000000000000000000000000000000000000000000 DUP2 MSTORE PUSH1 0x4 ADD PUSH2 0x2811 SWAP1 PUSH2 0x470C JUMP JUMPDEST PUSH1 0x40 MLOAD DUP1 SWAP2 SUB SWAP1 REVERT JUMPDEST PUSH1 0x3 PUSH0 SWAP1 SLOAD SWAP1 PUSH2 0x100 EXP SWAP1 DIV PUSH1 0xFF AND PUSH2 0x2868 JUMPI PUSH1 0x40 MLOAD PUSH32 0x8C379A000000000000000000000000000000000000000000000000000000000 DUP2 MSTORE PUSH1 0x4 ADD PUSH2 0x285F SWAP1 PUSH2 0x4EA8 JUMP JUMPDEST PUSH1 0x40 MLOAD DUP1 SWAP2 SUB SWAP1 REVERT JUMPDEST PUSH1 0xA PUSH0 ADD PUSH0 DUP2 SLOAD DUP1 SWAP3 SWAP2 SWAP1 PUSH2 0x287C SWAP1 PUSH2 0x4928 JUMP JUMPDEST SWAP2 SWAP1 POP SSTORE POP PUSH1 0x8 DUP6 PUSH1 0x40 MLOAD PUSH2 0x2891 SWAP2 SWAP1 PUSH2 0x4764 JUMP JUMPDEST SWAP1 DUP2 MSTORE PUSH1 0x20 ADD PUSH1 0x40 MLOAD DUP1 SWAP2 SUB SWAP1 KECCAK256 PUSH0 SWAP1 SLOAD SWAP1 PUSH2 0x100 EXP SWAP1 DIV PUSH1 0xFF AND ISZERO PUSH2 0x28BA JUMPI PUSH1 0x1 SWAP1 POP PUSH2 0x2A65 JUMP JUMPDEST PUSH1 0x7 DUP6 PUSH1 0x40 MLOAD PUSH2 0x28CA SWAP2 SWAP1 PUSH2 0x4764 JUMP JUMPDEST SWAP1 DUP2 MSTORE PUSH1 0x20 ADD PUSH1 0x40 MLOAD DUP1 SWAP2 SUB SWAP1 KECCAK256 PUSH0 SWAP1 SLOAD SWAP1 PUSH2 0x100 EXP SWAP1 DIV PUSH1 0xFF AND ISZERO PUSH2 0x290C JUMPI PUSH1 0xA PUSH1 0x1 ADD PUSH0 DUP2 SLOAD DUP1 SWAP3 SWAP2 SWAP1 PUSH2 0x28FF SWAP1 PUSH2 0x4928 JUMP JUMPDEST SWAP2 SWAP1 POP SSTORE POP PUSH0 SWAP1 POP PUSH2 0x2A65 JUMP JUMPDEST PUSH0 PUSH1 0x9 DUP7 PUSH1 0x40 MLOAD PUSH2 0x291D SWAP2 SWAP1 PUSH2 0x4764 JUMP JUMPDEST SWAP1 DUP2 MSTORE PUSH1 0x20 ADD PUSH1 0x40 MLOAD DUP1 SWAP2 SUB SWAP1 KECCAK256 SWAP1 POP DUP1 PUSH0 ADD PUSH0 DUP2 SLOAD DUP1 SWAP3 SWAP2 SWAP1 PUSH2 0x2940 SWAP1 PUSH2 0x4928 JUMP JUMPDEST SWAP2 SWAP1 POP SSTORE POP TIMESTAMP DUP2 PUSH1 0x1 ADD DUP2 SWAP1 SSTORE POP PUSH1 0x1 DUP2 PUSH1 0x3 ADD PUSH0 PUSH2 0x100 EXP DUP2 SLOAD DUP2 PUSH1 0xFF MUL NOT AND SWAP1 DUP4 ISZERO ISZERO MUL OR SWAP1 SSTORE POP PUSH1 0x3 PUSH1 0x1 SWAP1 SLOAD SWAP1 PUSH2 0x100 EXP SWAP1 DIV PUSH1 0xFF AND ISZERO PUSH2 0x2A5F JUMPI PUSH1 0xF SLOAD DUP2 PUSH0 ADD SLOAD GT ISZERO PUSH2 0x29A8 JUMPI PUSH1 0x64 DUP2 PUSH1 0x2 ADD PUSH0 DUP3 DUP3 SLOAD PUSH2 0x29A0 SWAP2 SWAP1 PUSH2 0x4EC6 JUMP JUMPDEST SWAP3 POP POP DUP2 SWAP1 SSTORE POP JUMPDEST PUSH1 0x1 DUP2 PUSH1 0x1 ADD SLOAD TIMESTAMP PUSH2 0x29BA SWAP2 SWAP1 PUSH2 0x4EF9 JUMP JUMPDEST LT ISZERO PUSH2 0x29DC JUMPI PUSH1 0x32 DUP2 PUSH1 0x2 ADD PUSH0 DUP3 DUP3 SLOAD PUSH2 0x29D4 SWAP2 SWAP1 PUSH2 0x4EC6 JUMP JUMPDEST SWAP3 POP POP DUP2 SWAP1 SSTORE POP JUMPDEST PUSH32 0x897B3330D7532B2D19E68C076324C22552B47BA90B511669BC2A0C8B58A7E310 DUP7 DUP3 PUSH0 ADD SLOAD DUP4 PUSH1 0x2 ADD SLOAD PUSH1 0x40 MLOAD PUSH2 0x2A16 SWAP4 SWAP3 SWAP2 SWAP1 PUSH2 0x4F2C JUMP JUMPDEST PUSH1 0x40 MLOAD DUP1 SWAP2 SUB SWAP1 LOG1 PUSH1 0x11 SLOAD DUP2 PUSH1 0x2 ADD SLOAD LT PUSH2 0x2A42 JUMPI PUSH2 0x2A39 DUP7 DUP3 PUSH1 0x2 ADD SLOAD PUSH2 0x3395 JUMP JUMPDEST PUSH0 SWAP2 POP POP PUSH2 0x2A65 JUMP JUMPDEST PUSH1 0x10 SLOAD DUP2 PUSH1 0x2 ADD SLOAD LT PUSH2 0x2A5E JUMPI PUSH2 0x2A5D DUP7 DUP3 PUSH1 0x2 ADD SLOAD PUSH2 0x35B1 JUMP JUMPDEST JUMPDEST JUMPDEST PUSH1 0x1 SWAP2 POP POP JUMPDEST SWAP5 SWAP4 POP POP POP POP JUMP JUMPDEST PUSH1 0x6 PUSH0 CALLER PUSH20 0xFFFFFFFFFFFFFFFFFFFFFFFFFFFFFFFFFFFFFFFF AND PUSH20 0xFFFFFFFFFFFFFFFFFFFFFFFFFFFFFFFFFFFFFFFF AND DUP2 MSTORE PUSH1 0x20 ADD SWAP1 DUP2 MSTORE PUSH1 0x20 ADD PUSH0 KECCAK256 PUSH0 SWAP1 SLOAD SWAP1 PUSH2 0x100 EXP SWAP1 DIV PUSH1 0xFF AND DUP1 PUSH2 0x2B0D JUMPI POP PUSH0 PUSH0 SWAP1 SLOAD SWAP1 PUSH2 0x100 EXP SWAP1 DIV PUSH20 0xFFFFFFFFFFFFFFFFFFFFFFFFFFFFFFFFFFFFFFFF AND PUSH20 0xFFFFFFFFFFFFFFFFFFFFFFFFFFFFFFFFFFFFFFFF AND CALLER PUSH20 0xFFFFFFFFFFFFFFFFFFFFFFFFFFFFFFFFFFFFFFFF AND EQ JUMPDEST PUSH2 0x2B4C JUMPI PUSH1 0x40 MLOAD PUSH32 0x8C379A000000000000000000000000000000000000000000000000000000000 DUP2 MSTORE PUSH1 0x4 ADD PUSH2 0x2B43 SWAP1 PUSH2 0x470C JUMP JUMPDEST PUSH1 0x40 MLOAD DUP1 SWAP2 SUB SWAP1 REVERT JUMPDEST DUP1 PUSH1 0x10 DUP2 SWAP1 SSTORE POP PUSH32 0xBC563DE8C41AC66A7038E5CDCC313D786622BB5A46F1F62D154E52C7FD363D68 DUP2 PUSH1 0x40 MLOAD PUSH2 0x2B82 SWAP2 SWAP1 PUSH2 0x4FB2 JUMP JUMPDEST PUSH1 0x40 MLOAD DUP1 SWAP2 SUB SWAP1 LOG1 POP JUMP JUMPDEST PUSH1 0x6 PUSH0 CALLER PUSH20 0xFFFFFFFFFFFFFFFFFFFFFFFFFFFFFFFFFFFFFFFF AND PUSH20 0xFFFFFFFFFFFFFFFFFFFFFFFFFFFFFFFFFFFFFFFF AND DUP2 MSTORE PUSH1 0x20 ADD SWAP1 DUP2 MSTORE PUSH1 0x20 ADD PUSH0 KECCAK256 PUSH0 SWAP1 SLOAD SWAP1 PUSH2 0x100 EXP SWAP1 DIV PUSH1 0xFF AND DUP1 PUSH2 0x2C2D JUMPI POP PUSH0 PUSH0 SWAP1 SLOAD SWAP1 PUSH2 0x100 EXP SWAP1 DIV PUSH20 0xFFFFFFFFFFFFFFFFFFFFFFFFFFFFFFFFFFFFFFFF AND PUSH20 0xFFFFFFFFFFFFFFFFFFFFFFFFFFFFFFFFFFFFFFFF AND CALLER PUSH20 0xFFFFFFFFFFFFFFFFFFFFFFFFFFFFFFFFFFFFFFFF AND EQ JUMPDEST PUSH2 0x2C6C JUMPI PUSH1 0x40 MLOAD PUSH32 0x8C379A000000000000000000000000000000000000000000000000000000000 DUP2 MSTORE PUSH1 0x4 ADD PUSH2 0x2C63 SWAP1 PUSH2 0x470C JUMP JUMPDEST PUSH1 0x40 MLOAD DUP1 SWAP2 SUB SWAP1 REVERT JUMPDEST PUSH1 0x3 PUSH0 SWAP1 SLOAD SWAP1 PUSH2 0x100 EXP SWAP1 DIV PUSH1 0xFF AND ISZERO PUSH2 0x2CBB JUMPI PUSH1 0x40 MLOAD PUSH32 0x8C379A000000000000000000000000000000000000000000000000000000000 DUP2 MSTORE PUSH1 0x4 ADD PUSH2 0x2CB2 SWAP1 PUSH2 0x5028 JUMP JUMPDEST PUSH1 0x40 MLOAD DUP1 SWAP2 SUB SWAP1 REVERT JUMPDEST PUSH1 0x1 PUSH1 0x3 PUSH0 PUSH2 0x100 EXP DUP2 SLOAD DUP2 PUSH1 0xFF MUL NOT AND SWAP1 DUP4 ISZERO ISZERO MUL OR SWAP1 SSTORE POP CALLER PUSH20 0xFFFFFFFFFFFFFFFFFFFFFFFFFFFFFFFFFFFFFFFF AND PUSH32 0x1ED67830EB62A203A43AC29178D7FCB7996CD3B36190838D8DE3F63AC1312F8F TIMESTAMP PUSH1 0x40 MLOAD PUSH2 0x2D1B SWAP2 SWAP1 PUSH2 0x3AFE JUMP JUMPDEST PUSH1 0x40 MLOAD DUP1 SWAP2 SUB SWAP1 LOG2 JUMP JUMPDEST PUSH0 PUSH1 0x8 DUP3 PUSH1 0x40 MLOAD PUSH2 0x2D36 SWAP2 SWAP1 PUSH2 0x4764 JUMP JUMPDEST SWAP1 DUP2 MSTORE PUSH1 0x20 ADD PUSH1 0x40 MLOAD DUP1 SWAP2 SUB SWAP1 KECCAK256 PUSH0 SWAP1 SLOAD SWAP1 PUSH2 0x100 EXP SWAP1 DIV PUSH1 0xFF AND SWAP1 POP SWAP2 SWAP1 POP JUMP JUMPDEST PUSH1 0x4 PUSH1 0x20 MSTORE DUP1 PUSH0 MSTORE PUSH1 0x40 PUSH0 KECCAK256 PUSH0 SWAP2 POP SWAP1 POP DUP1 PUSH0 ADD SLOAD SWAP1 DUP1 PUSH1 0x1 ADD DUP1 SLOAD PUSH2 0x2D7D SWAP1 PUSH2 0x47D5 JUMP JUMPDEST DUP1 PUSH1 0x1F ADD PUSH1 0x20 DUP1 SWAP2 DIV MUL PUSH1 0x20 ADD PUSH1 0x40 MLOAD SWAP1 DUP2 ADD PUSH1 0x40 MSTORE DUP1 SWAP3 SWAP2 SWAP1 DUP2 DUP2 MSTORE PUSH1 0x20 ADD DUP3 DUP1 SLOAD PUSH2 0x2DA9 SWAP1 PUSH2 0x47D5 JUMP JUMPDEST DUP1 ISZERO PUSH2 0x2DF4 JUMPI DUP1 PUSH1 0x1F LT PUSH2 0x2DCB JUMPI PUSH2 0x100 DUP1 DUP4 SLOAD DIV MUL DUP4 MSTORE SWAP2 PUSH1 0x20 ADD SWAP2 PUSH2 0x2DF4 JUMP JUMPDEST DUP3 ADD SWAP2 SWAP1 PUSH0 MSTORE PUSH1 0x20 PUSH0 KECCAK256 SWAP1 JUMPDEST DUP2 SLOAD DUP2 MSTORE SWAP1 PUSH1 0x1 ADD SWAP1 PUSH1 0x20 ADD DUP1 DUP4 GT PUSH2 0x2DD7 JUMPI DUP3 SWAP1 SUB PUSH1 0x1F AND DUP3 ADD SWAP2 JUMPDEST POP POP POP POP POP SWAP1 DUP1 PUSH1 0x2 ADD DUP1 SLOAD PUSH2 0x2E09 SWAP1 PUSH2 0x47D5 JUMP JUMPDEST DUP1 PUSH1 0x1F ADD PUSH1 0x20 DUP1 SWAP2 DIV MUL PUSH1 0x20 ADD PUSH1 0x40 MLOAD SWAP1 DUP2 ADD PUSH1 0x40 MSTORE DUP1 SWAP3 SWAP2 SWAP1 DUP2 DUP2 MSTORE PUSH1 0x20 ADD DUP3 DUP1 SLOAD PUSH2 0x2E35 SWAP1 PUSH2 0x47D5 JUMP JUMPDEST DUP1 ISZERO PUSH2 0x2E80 JUMPI DUP1 PUSH1 0x1F LT PUSH2 0x2E57 JUMPI PUSH2 0x100 DUP1 DUP4 SLOAD DIV MUL DUP4 MSTORE SWAP2 PUSH1 0x20 ADD SWAP2 PUSH2 0x2E80 JUMP JUMPDEST DUP3 ADD SWAP2 SWAP1 PUSH0 MSTORE PUSH1 0x20 PUSH0 KECCAK256 SWAP1 JUMPDEST DUP2 SLOAD DUP2 MSTORE SWAP1 PUSH1 0x1 ADD SWAP1 PUSH1 0x20 ADD DUP1 DUP4 GT PUSH2 0x2E63 JUMPI DUP3 SWAP1 SUB PUSH1 0x1F AND DUP3 ADD SWAP2 JUMPDEST POP POP POP POP POP SWAP1 DUP1 PUSH1 0x3 ADD DUP1 SLOAD PUSH2 0x2E95 SWAP1 PUSH2 0x47D5 JUMP JUMPDEST DUP1 PUSH1 0x1F ADD PUSH1 0x20 DUP1 SWAP2 DIV MUL PUSH1 0x20 ADD PUSH1 0x40 MLOAD SWAP1 DUP2 ADD PUSH1 0x40 MSTORE DUP1 SWAP3 SWAP2 SWAP1 DUP2 DUP2 MSTORE PUSH1 0x20 ADD DUP3 DUP1 SLOAD PUSH2 0x2EC1 SWAP1 PUSH2 0x47D5 JUMP JUMPDEST DUP1 ISZERO PUSH2 0x2F0C JUMPI DUP1 PUSH1 0x1F LT PUSH2 0x2EE3 JUMPI PUSH2 0x100 DUP1 DUP4 SLOAD DIV MUL DUP4 MSTORE SWAP2 PUSH1 0x20 ADD SWAP2 PUSH2 0x2F0C JUMP JUMPDEST DUP3 ADD SWAP2 SWAP1 PUSH0 MSTORE PUSH1 0x20 PUSH0 KECCAK256 SWAP1 JUMPDEST DUP2 SLOAD DUP2 MSTORE SWAP1 PUSH1 0x1 ADD SWAP1 PUSH1 0x20 ADD DUP1 DUP4 GT PUSH2 0x2EEF JUMPI DUP3 SWAP1 SUB PUSH1 0x1F AND DUP3 ADD SWAP2 JUMPDEST POP POP POP POP POP SWAP1 DUP1 PUSH1 0x4 ADD SLOAD SWAP1 DUP1 PUSH1 0x5 ADD SLOAD SWAP1 DUP1 PUSH1 0x6 ADD PUSH0 SWAP1 SLOAD SWAP1 PUSH2 0x100 EXP SWAP1 DIV PUSH1 0xFF AND SWAP1 DUP1 PUSH1 0x6 ADD PUSH1 0x1 SWAP1 SLOAD SWAP1 PUSH2 0x100 EXP SWAP1 DIV PUSH1 0xFF AND SWAP1 DUP1 PUSH1 0x6 ADD PUSH1 0x2 SWAP1 SLOAD SWAP1 PUSH2 0x100 EXP SWAP1 DIV PUSH1 0xFF AND SWAP1 DUP1 PUSH1 0x7 ADD SLOAD SWAP1 DUP1 PUSH1 0x8 ADD SLOAD SWAP1 DUP1 PUSH1 0x9 ADD PUSH0 SWAP1 SLOAD SWAP1 PUSH2 0x100 EXP SWAP1 DIV PUSH20 0xFFFFFFFFFFFFFFFFFFFFFFFFFFFFFFFFFFFFFFFF AND SWAP1 POP DUP13 JUMP JUMPDEST PUSH1 0x1 SLOAD DUP2 JUMP JUMPDEST PUSH1 0x6 PUSH0 CALLER PUSH20 0xFFFFFFFFFFFFFFFFFFFFFFFFFFFFFFFFFFFFFFFF AND PUSH20 0xFFFFFFFFFFFFFFFFFFFFFFFFFFFFFFFFFFFFFFFF AND DUP2 MSTORE PUSH1 0x20 ADD SWAP1 DUP2 MSTORE PUSH1 0x20 ADD PUSH0 KECCAK256 PUSH0 SWAP1 SLOAD SWAP1 PUSH2 0x100 EXP SWAP1 DIV PUSH1 0xFF AND DUP1 PUSH2 0x3031 JUMPI POP PUSH0 PUSH0 SWAP1 SLOAD SWAP1 PUSH2 0x100 EXP SWAP1 DIV PUSH20 0xFFFFFFFFFFFFFFFFFFFFFFFFFFFFFFFFFFFFFFFF AND PUSH20 0xFFFFFFFFFFFFFFFFFFFFFFFFFFFFFFFFFFFFFFFF AND CALLER PUSH20 0xFFFFFFFFFFFFFFFFFFFFFFFFFFFFFFFFFFFFFFFF AND EQ JUMPDEST PUSH2 0x3070 JUMPI PUSH1 0x40 MLOAD PUSH32 0x8C379A000000000000000000000000000000000000000000000000000000000 DUP2 MSTORE PUSH1 0x4 ADD PUSH2 0x3067 SWAP1 PUSH2 0x470C JUMP JUMPDEST PUSH1 0x40 MLOAD DUP1 SWAP2 SUB SWAP1 REVERT JUMPDEST PUSH1 0x1 PUSH1 0x3 PUSH1 0x1 PUSH2 0x100 EXP DUP2 SLOAD DUP2 PUSH1 0xFF MUL NOT AND SWAP1 DUP4 ISZERO ISZERO MUL OR SWAP1 SSTORE POP PUSH32 0x6E7AD8B07133CE5A518B1001DD033DC8403C768F691A1F8E81140FA664DEB690 PUSH1 0x1 PUSH1 0x40 MLOAD PUSH2 0x30BB SWAP2 SWAP1 PUSH2 0x3CEA JUMP JUMPDEST PUSH1 0x40 MLOAD DUP1 SWAP2 SUB SWAP1 LOG1 JUMP JUMPDEST PUSH1 0x11 SLOAD DUP2 JUMP JUMPDEST PUSH1 0xA DUP1 PUSH0 ADD SLOAD SWAP1 DUP1 PUSH1 0x1 ADD SLOAD SWAP1 DUP1 PUSH1 0x2 ADD SLOAD SWAP1 DUP1 PUSH1 0x3 ADD SLOAD SWAP1 DUP1 PUSH1 0x4 ADD SLOAD SWAP1 POP DUP6 JUMP JUMPDEST PUSH1 0x6 PUSH1 0x20 MSTORE DUP1 PUSH0 MSTORE PUSH1 0x40 PUSH0 KECCAK256 PUSH0 SWAP2 POP SLOAD SWAP1 PUSH2 0x100 EXP SWAP1 DIV PUSH1 0xFF AND DUP2 JUMP JUMPDEST PUSH1 0x6 PUSH0 CALLER PUSH20 0xFFFFFFFFFFFFFFFFFFFFFFFFFFFFFFFFFFFFFFFF AND PUSH20 0xFFFFFFFFFFFFFFFFFFFFFFFFFFFFFFFFFFFFFFFF AND DUP2 MSTORE PUSH1 0x20 ADD SWAP1 DUP2 MSTORE PUSH1 0x20 ADD PUSH0 KECCAK256 PUSH0 SWAP1 SLOAD SWAP1 PUSH2 0x100 EXP SWAP1 DIV PUSH1 0xFF AND DUP1 PUSH2 0x31AB JUMPI POP PUSH0 PUSH0 SWAP1 SLOAD SWAP1 PUSH2 0x100 EXP SWAP1 DIV PUSH20 0xFFFFFFFFFFFFFFFFFFFFFFFFFFFFFFFFFFFFFFFF AND PUSH20 0xFFFFFFFFFFFFFFFFFFFFFFFFFFFFFFFFFFFFFFFF AND CALLER PUSH20 0xFFFFFFFFFFFFFFFFFFFFFFFFFFFFFFFFFFFFFFFF AND EQ JUMPDEST PUSH2 0x31EA JUMPI PUSH1 0x40 MLOAD PUSH32 0x8C379A000000000000000000000000000000000000000000000000000000000 DUP2 MSTORE PUSH1 0x4 ADD PUSH2 0x31E1 SWAP1 PUSH2 0x470C JUMP JUMPDEST PUSH1 0x40 MLOAD DUP1 SWAP2 SUB SWAP1 REVERT JUMPDEST DUP1 PUSH1 0xF DUP2 SWAP1 SSTORE POP PUSH32 0xBC563DE8C41AC66A7038E5CDCC313D786622BB5A46F1F62D154E52C7FD363D68 DUP2 PUSH1 0x40 MLOAD PUSH2 0x3220 SWAP2 SWAP1 PUSH2 0x5090 JUMP JUMPDEST PUSH1 0x40 MLOAD DUP1 SWAP2 SUB SWAP1 LOG1 POP JUMP JUMPDEST PUSH1 0x6 PUSH0 CALLER PUSH20 0xFFFFFFFFFFFFFFFFFFFFFFFFFFFFFFFFFFFFFFFF AND PUSH20 0xFFFFFFFFFFFFFFFFFFFFFFFFFFFFFFFFFFFFFFFF AND DUP2 MSTORE PUSH1 0x20 ADD SWAP1 DUP2 MSTORE PUSH1 0x20 ADD PUSH0 KECCAK256 PUSH0 SWAP1 SLOAD SWAP1 PUSH2 0x100 EXP SWAP1 DIV PUSH1 0xFF AND DUP1 PUSH2 0x32CB JUMPI POP PUSH0 PUSH0 SWAP1 SLOAD SWAP1 PUSH2 0x100 EXP SWAP1 DIV PUSH20 0xFFFFFFFFFFFFFFFFFFFFFFFFFFFFFFFFFFFFFFFF AND PUSH20 0xFFFFFFFFFFFFFFFFFFFFFFFFFFFFFFFFFFFFFFFF AND CALLER PUSH20 0xFFFFFFFFFFFFFFFFFFFFFFFFFFFFFFFFFFFFFFFF AND EQ JUMPDEST PUSH2 0x330A JUMPI PUSH1 0x40 MLOAD PUSH32 0x8C379A000000000000000000000000000000000000000000000000000000000 DUP2 MSTORE PUSH1 0x4 ADD PUSH2 0x3301 SWAP1 PUSH2 0x470C JUMP JUMPDEST PUSH1 0x40 MLOAD DUP1 SWAP2 SUB SWAP1 REVERT JUMPDEST PUSH0 PUSH1 0x7 DUP3 PUSH1 0x40 MLOAD PUSH2 0x331B SWAP2 SWAP1 PUSH2 0x4764 JUMP JUMPDEST SWAP1 DUP2 MSTORE PUSH1 0x20 ADD PUSH1 0x40 MLOAD DUP1 SWAP2 SUB SWAP1 KECCAK256 PUSH0 PUSH2 0x100 EXP DUP2 SLOAD DUP2 PUSH1 0xFF MUL NOT AND SWAP1 DUP4 ISZERO ISZERO MUL OR SWAP1 SSTORE POP POP JUMP JUMPDEST PUSH1 0x1 PUSH1 0x7 DUP3 PUSH1 0x40 MLOAD PUSH2 0x3354 SWAP2 SWAP1 PUSH2 0x4764 JUMP JUMPDEST SWAP1 DUP2 MSTORE PUSH1 0x20 ADD PUSH1 0x40 MLOAD DUP1 SWAP2 SUB SWAP1 KECCAK256 PUSH0 PUSH2 0x100 EXP DUP2 SLOAD DUP2 PUSH1 0xFF MUL NOT AND SWAP1 DUP4 ISZERO ISZERO MUL OR SWAP1 SSTORE POP PUSH1 0xA PUSH1 0x3 ADD PUSH0 DUP2 SLOAD DUP1 SWAP3 SWAP2 SWAP1 PUSH2 0x338D SWAP1 PUSH2 0x4928 JUMP JUMPDEST SWAP2 SWAP1 POP SSTORE POP POP JUMP JUMPDEST PUSH2 0x339E DUP3 PUSH2 0x3342 JUMP JUMPDEST PUSH1 0x2 PUSH0 DUP2 SLOAD DUP1 SWAP3 SWAP2 SWAP1 PUSH2 0x33B0 SWAP1 PUSH2 0x4928 JUMP JUMPDEST SWAP2 SWAP1 POP SSTORE POP PUSH1 0x40 MLOAD DUP1 PUSH2 0x100 ADD PUSH1 0x40 MSTORE DUP1 PUSH1 0x2 SLOAD DUP2 MSTORE PUSH1 0x20 ADD DUP4 DUP2 MSTORE PUSH1 0x20 ADD PUSH1 0x40 MLOAD DUP1 PUSH1 0x60 ADD PUSH1 0x40 MSTORE DUP1 PUSH1 0x21 DUP2 MSTORE PUSH1 0x20 ADD PUSH2 0x50BD PUSH1 0x21 SWAP2 CODECOPY DUP2 MSTORE PUSH1 0x20 ADD PUSH1 0x2 PUSH1 0x3 DUP2 GT ISZERO PUSH2 0x3401 JUMPI PUSH2 0x3400 PUSH2 0x3BCC JUMP JUMPDEST JUMPDEST DUP2 MSTORE PUSH1 0x20 ADD TIMESTAMP DUP2 MSTORE PUSH1 0x20 ADD PUSH1 0x40 MLOAD DUP1 PUSH1 0x60 ADD PUSH1 0x40 MSTORE DUP1 PUSH1 0x31 DUP2 MSTORE PUSH1 0x20 ADD PUSH2 0x50DE PUSH1 0x31 SWAP2 CODECOPY DUP2 MSTORE PUSH1 0x20 ADD PUSH1 0x1 ISZERO ISZERO DUP2 MSTORE PUSH1 0x20 ADD PUSH1 0x9 DUP5 PUSH1 0x40 MLOAD PUSH2 0x3443 SWAP2 SWAP1 PUSH2 0x4764 JUMP JUMPDEST SWAP1 DUP2 MSTORE PUSH1 0x20 ADD PUSH1 0x40 MLOAD DUP1 SWAP2 SUB SWAP1 KECCAK256 PUSH0 ADD SLOAD DUP2 MSTORE POP PUSH1 0x5 PUSH0 PUSH1 0x2 SLOAD DUP2 MSTORE PUSH1 0x20 ADD SWAP1 DUP2 MSTORE PUSH1 0x20 ADD PUSH0 KECCAK256 PUSH0 DUP3 ADD MLOAD DUP2 PUSH0 ADD SSTORE PUSH1 0x20 DUP3 ADD MLOAD DUP2 PUSH1 0x1 ADD SWAP1 DUP2 PUSH2 0x3487 SWAP2 SWAP1 PUSH2 0x4B0F JUMP JUMPDEST POP PUSH1 0x40 DUP3 ADD MLOAD DUP2 PUSH1 0x2 ADD SWAP1 DUP2 PUSH2 0x349D SWAP2 SWAP1 PUSH2 0x4B0F JUMP JUMPDEST POP PUSH1 0x60 DUP3 ADD MLOAD DUP2 PUSH1 0x3 ADD PUSH0 PUSH2 0x100 EXP DUP2 SLOAD DUP2 PUSH1 0xFF MUL NOT AND SWAP1 DUP4 PUSH1 0x3 DUP2 GT ISZERO PUSH2 0x34C8 JUMPI PUSH2 0x34C7 PUSH2 0x3BCC JUMP JUMPDEST JUMPDEST MUL OR SWAP1 SSTORE POP PUSH1 0x80 DUP3 ADD MLOAD DUP2 PUSH1 0x4 ADD SSTORE PUSH1 0xA0 DUP3 ADD MLOAD DUP2 PUSH1 0x5 ADD SWAP1 DUP2 PUSH2 0x34EC SWAP2 SWAP1 PUSH2 0x4B0F JUMP JUMPDEST POP PUSH1 0xC0 DUP3 ADD MLOAD DUP2 PUSH1 0x6 ADD PUSH0 PUSH2 0x100 EXP DUP2 SLOAD DUP2 PUSH1 0xFF MUL NOT AND SWAP1 DUP4 ISZERO ISZERO MUL OR SWAP1 SSTORE POP PUSH1 0xE0 DUP3 ADD MLOAD DUP2 PUSH1 0x7 ADD SSTORE SWAP1 POP POP PUSH1 0xA PUSH1 0x1 ADD PUSH0 DUP2 SLOAD DUP1 SWAP3 SWAP2 SWAP1 PUSH2 0x352E SWAP1 PUSH2 0x4928 JUMP JUMPDEST SWAP2 SWAP1 POP SSTORE POP PUSH32 0xCC1D5B324E70231335C276EF854240CF68E363AE188F5C3C1F4F225E5982B284 DUP3 DUP3 TIMESTAMP PUSH1 0x40 MLOAD PUSH2 0x3566 SWAP4 SWAP3 SWAP2 SWAP1 PUSH2 0x4F2C JUMP JUMPDEST PUSH1 0x40 MLOAD DUP1 SWAP2 SUB SWAP1 LOG1 PUSH1 0x2 SLOAD PUSH32 0x660E83DCE644F7BE3FB68C939C1D49BB83394F37683CAFDB498DC4C109803E6F DUP4 PUSH1 0x2 TIMESTAMP PUSH1 0x40 MLOAD PUSH2 0x35A5 SWAP4 SWAP3 SWAP2 SWAP1 PUSH2 0x4BDE JUMP JUMPDEST PUSH1 0x40 MLOAD DUP1 SWAP2 SUB SWAP1 LOG2 POP POP JUMP JUMPDEST PUSH1 0x2 PUSH0 DUP2 SLOAD DUP1 SWAP3 SWAP2 SWAP1 PUSH2 0x35C3 SWAP1 PUSH2 0x4928 JUMP JUMPDEST SWAP2 SWAP1 POP SSTORE POP PUSH1 0x40 MLOAD DUP1 PUSH2 0x100 ADD PUSH1 0x40 MSTORE DUP1 PUSH1 0x2 SLOAD DUP2 MSTORE PUSH1 0x20 ADD DUP4 DUP2 MSTORE PUSH1 0x20 ADD PUSH1 0x40 MLOAD DUP1 PUSH1 0x40 ADD PUSH1 0x40 MSTORE DUP1 PUSH1 0x1C DUP2 MSTORE PUSH1 0x20 ADD PUSH32 0x537573706963696F757320416374697669747920446574656374656400000000 DUP2 MSTORE POP DUP2 MSTORE PUSH1 0x20 ADD PUSH1 0x1 PUSH1 0x3 DUP2 GT ISZERO PUSH2 0x3631 JUMPI PUSH2 0x3630 PUSH2 0x3BCC JUMP JUMPDEST JUMPDEST DUP2 MSTORE PUSH1 0x20 ADD TIMESTAMP DUP2 MSTORE PUSH1 0x20 ADD PUSH1 0x40 MLOAD DUP1 PUSH1 0x40 ADD PUSH1 0x40 MSTORE DUP1 PUSH1 0x1D DUP2 MSTORE PUSH1 0x20 ADD PUSH32 0x4869676820636F6E6E656374696F6E2072617465206465746563746564000000 DUP2 MSTORE POP DUP2 MSTORE PUSH1 0x20 ADD PUSH0 ISZERO ISZERO DUP2 MSTORE PUSH1 0x20 ADD PUSH1 0x9 DUP5 PUSH1 0x40 MLOAD PUSH2 0x368F SWAP2 SWAP1 PUSH2 0x4764 JUMP JUMPDEST SWAP1 DUP2 MSTORE PUSH1 0x20 ADD PUSH1 0x40 MLOAD DUP1 SWAP2 SUB SWAP1 KECCAK256 PUSH0 ADD SLOAD DUP2 MSTORE POP PUSH1 0x5 PUSH0 PUSH1 0x2 SLOAD DUP2 MSTORE PUSH1 0x20 ADD SWAP1 DUP2 MSTORE PUSH1 0x20 ADD PUSH0 KECCAK256 PUSH0 DUP3 ADD MLOAD DUP2 PUSH0 ADD SSTORE PUSH1 0x20 DUP3 ADD MLOAD DUP2 PUSH1 0x1 ADD SWAP1 DUP2 PUSH2 0x36D3 SWAP2 SWAP1 PUSH2 0x4B0F JUMP JUMPDEST POP PUSH1 0x40 DUP3 ADD MLOAD DUP2 PUSH1 0x2 ADD SWAP1 DUP2 PUSH2 0x36E9 SWAP2 SWAP1 PUSH2 0x4B0F JUMP JUMPDEST POP PUSH1 0x60 DUP3 ADD MLOAD DUP2 PUSH1 0x3 ADD PUSH0 PUSH2 0x100 EXP DUP2 SLOAD DUP2 PUSH1 0xFF MUL NOT AND SWAP1 DUP4 PUSH1 0x3 DUP2 GT ISZERO PUSH2 0x3714 JUMPI PUSH2 0x3713 PUSH2 0x3BCC JUMP JUMPDEST JUMPDEST MUL OR SWAP1 SSTORE POP PUSH1 0x80 DUP3 ADD MLOAD DUP2 PUSH1 0x4 ADD SSTORE PUSH1 0xA0 DUP3 ADD MLOAD DUP2 PUSH1 0x5 ADD SWAP1 DUP2 PUSH2 0x3738 SWAP2 SWAP1 PUSH2 0x4B0F JUMP JUMPDEST POP PUSH1 0xC0 DUP3 ADD MLOAD DUP2 PUSH1 0x6 ADD PUSH0 PUSH2 0x100 EXP DUP2 SLOAD DUP2 PUSH1 0xFF MUL NOT AND SWAP1 DUP4 ISZERO ISZERO MUL OR SWAP1 SSTORE POP PUSH1 0xE0 DUP3 ADD MLOAD DUP2 PUSH1 0x7 ADD SSTORE SWAP1 POP POP PUSH1 0xA PUSH1 0x2 ADD PUSH0 DUP2 SLOAD DUP1 SWAP3 SWAP2 SWAP1 PUSH2 0x377A SWAP1 PUSH2 0x4928 JUMP JUMPDEST SWAP2 SWAP1 POP SSTORE POP PUSH1 0x2 SLOAD PUSH32 0x660E83DCE644F7BE3FB68C939C1D49BB83394F37683CAFDB498DC4C109803E6F DUP4 PUSH1 0x1 TIMESTAMP PUSH1 0x40 MLOAD PUSH2 0x37B6 SWAP4 SWAP3 SWAP2 SWAP1 PUSH2 0x4BDE JUMP JUMPDEST PUSH1 0x40 MLOAD DUP1 SWAP2 SUB SWAP1 LOG2 POP POP JUMP JUMPDEST POP DUP1 SLOAD PUSH2 0x37CE SWAP1 PUSH2 0x47D5 JUMP JUMPDEST PUSH0 DUP3 SSTORE DUP1 PUSH1 0x1F LT PUSH2 0x37DF JUMPI POP PUSH2 0x37FC JUMP JUMPDEST PUSH1 0x1F ADD PUSH1 0x20 SWAP1 DIV SWAP1 PUSH0 MSTORE PUSH1 0x20 PUSH0 KECCAK256 SWAP1 DUP2 ADD SWAP1 PUSH2 0x37FB SWAP2 SWAP1 PUSH2 0x3937 JUMP JUMPDEST JUMPDEST POP JUMP JUMPDEST PUSH1 0x40 MLOAD DUP1 PUSH2 0x100 ADD PUSH1 0x40 MSTORE DUP1 PUSH0 DUP2 MSTORE PUSH1 0x20 ADD PUSH1 0x60 DUP2 MSTORE PUSH1 0x20 ADD PUSH1 0x60 DUP2 MSTORE PUSH1 0x20 ADD PUSH0 PUSH1 0x3 DUP2 GT ISZERO PUSH2 0x3832 JUMPI PUSH2 0x3831 PUSH2 0x3BCC JUMP JUMPDEST JUMPDEST DUP2 MSTORE PUSH1 0x20 ADD PUSH0 DUP2 MSTORE PUSH1 0x20 ADD PUSH1 0x60 DUP2 MSTORE PUSH1 0x20 ADD PUSH0 ISZERO ISZERO DUP2 MSTORE PUSH1 0x20 ADD PUSH0 DUP2 MSTORE POP SWAP1 JUMP JUMPDEST PUSH1 0x40 MLOAD DUP1 PUSH2 0x180 ADD PUSH1 0x40 MSTORE DUP1 PUSH0 DUP2 MSTORE PUSH1 0x20 ADD PUSH1 0x60 DUP2 MSTORE PUSH1 0x20 ADD PUSH1 0x60 DUP2 MSTORE PUSH1 0x20 ADD PUSH1 0x60 DUP2 MSTORE PUSH1 0x20 ADD PUSH0 DUP2 MSTORE PUSH1 0x20 ADD PUSH0 DUP2 MSTORE PUSH1 0x20 ADD PUSH0 PUSH1 0x5 DUP2 GT ISZERO PUSH2 0x3899 JUMPI PUSH2 0x3898 PUSH2 0x3BCC JUMP JUMPDEST JUMPDEST DUP2 MSTORE PUSH1 0x20 ADD PUSH0 PUSH1 0x2 DUP2 GT ISZERO PUSH2 0x38B1 JUMPI PUSH2 0x38B0 PUSH2 0x3BCC JUMP JUMPDEST JUMPDEST DUP2 MSTORE PUSH1 0x20 ADD PUSH0 ISZERO ISZERO DUP2 MSTORE PUSH1 0x20 ADD PUSH0 DUP2 MSTORE PUSH1 0x20 ADD PUSH0 DUP2 MSTORE PUSH1 0x20 ADD PUSH0 PUSH20 0xFFFFFFFFFFFFFFFFFFFFFFFFFFFFFFFFFFFFFFFF AND DUP2 MSTORE POP SWAP1 JUMP JUMPDEST PUSH1 0x40 MLOAD DUP1 PUSH1 0xA0 ADD PUSH1 0x40 MSTORE DUP1 PUSH0 DUP2 MSTORE PUSH1 0x20 ADD PUSH0 DUP2 MSTORE PUSH1 0x20 ADD PUSH0 DUP2 MSTORE PUSH1 0x20 ADD PUSH0 DUP2 MSTORE PUSH1 0x20 ADD PUSH0 DUP2 MSTORE POP SWAP1 JUMP JUMPDEST PUSH1 0x40 MLOAD DUP1 PUSH1 0x80 ADD PUSH1 0x40 MSTORE DUP1 PUSH0 DUP2 MSTORE PUSH1 0x20 ADD PUSH0 DUP2 MSTORE PUSH1 0x20 ADD PUSH0 DUP2 MSTORE PUSH1 0x20 ADD PUSH0 ISZERO ISZERO DUP2 MSTORE POP SWAP1 JUMP JUMPDEST JUMPDEST DUP1 DUP3 GT ISZERO PUSH2 0x394E JUMPI PUSH0 DUP2 PUSH0 SWAP1 SSTORE POP PUSH1 0x1 ADD PUSH2 0x3938 JUMP JUMPDEST POP SWAP1 JUMP JUMPDEST PUSH0 PUSH1 0x40 MLOAD SWAP1 POP SWAP1 JUMP JUMPDEST PUSH0 PUSH0 REVERT JUMPDEST PUSH0 PUSH0 REVERT JUMPDEST PUSH0 PUSH0 REVERT JUMPDEST PUSH0 PUSH0 REVERT JUMPDEST PUSH0 PUSH1 0x1F NOT PUSH1 0x1F DUP4 ADD AND SWAP1 POP SWAP2 SWAP1 POP JUMP JUMPDEST PUSH32 0x4E487B7100000000000000000000000000000000000000000000000000000000 PUSH0 MSTORE PUSH1 0x41 PUSH1 0x4 MSTORE PUSH1 0x24 PUSH0 REVERT JUMPDEST PUSH2 0x39B1 DUP3 PUSH2 0x396B JUMP JUMPDEST DUP2 ADD DUP2 DUP2 LT PUSH8 0xFFFFFFFFFFFFFFFF DUP3 GT OR ISZERO PUSH2 0x39D0 JUMPI PUSH2 0x39CF PUSH2 0x397B JUMP JUMPDEST JUMPDEST DUP1 PUSH1 0x40 MSTORE POP POP POP JUMP JUMPDEST PUSH0 PUSH2 0x39E2 PUSH2 0x3952 JUMP JUMPDEST SWAP1 POP PUSH2 0x39EE DUP3 DUP3 PUSH2 0x39A8 JUMP JUMPDEST SWAP2 SWAP1 POP JUMP JUMPDEST PUSH0 PUSH8 0xFFFFFFFFFFFFFFFF DUP3 GT ISZERO PUSH2 0x3A0D JUMPI PUSH2 0x3A0C PUSH2 0x397B JUMP JUMPDEST JUMPDEST PUSH2 0x3A16 DUP3 PUSH2 0x396B JUMP JUMPDEST SWAP1 POP PUSH1 0x20 DUP2 ADD SWAP1 POP SWAP2 SWAP1 POP JUMP JUMPDEST DUP3 DUP2 DUP4 CALLDATACOPY PUSH0 DUP4 DUP4 ADD MSTORE POP POP POP JUMP JUMPDEST PUSH0 PUSH2 0x3A43 PUSH2 0x3A3E DUP5 PUSH2 0x39F3 JUMP JUMPDEST PUSH2 0x39D9 JUMP JUMPDEST SWAP1 POP DUP3 DUP2 MSTORE PUSH1 0x20 DUP2 ADD DUP5 DUP5 DUP5 ADD GT ISZERO PUSH2 0x3A5F JUMPI PUSH2 0x3A5E PUSH2 0x3967 JUMP JUMPDEST JUMPDEST PUSH2 0x3A6A DUP5 DUP3 DUP6 PUSH2 0x3A23 JUMP JUMPDEST POP SWAP4 SWAP3 POP POP POP JUMP JUMPDEST PUSH0 DUP3 PUSH1 0x1F DUP4 ADD SLT PUSH2 0x3A86 JUMPI PUSH2 0x3A85 PUSH2 0x3963 JUMP JUMPDEST JUMPDEST DUP2 CALLDATALOAD PUSH2 0x3A96 DUP5 DUP3 PUSH1 0x20 DUP7 ADD PUSH2 0x3A31 JUMP JUMPDEST SWAP2 POP POP SWAP3 SWAP2 POP POP JUMP JUMPDEST PUSH0 PUSH1 0x20 DUP3 DUP5 SUB SLT ISZERO PUSH2 0x3AB4 JUMPI PUSH2 0x3AB3 PUSH2 0x395B JUMP JUMPDEST JUMPDEST PUSH0 DUP3 ADD CALLDATALOAD PUSH8 0xFFFFFFFFFFFFFFFF DUP2 GT ISZERO PUSH2 0x3AD1 JUMPI PUSH2 0x3AD0 PUSH2 0x395F JUMP JUMPDEST JUMPDEST PUSH2 0x3ADD DUP5 DUP3 DUP6 ADD PUSH2 0x3A72 JUMP JUMPDEST SWAP2 POP POP SWAP3 SWAP2 POP POP JUMP JUMPDEST PUSH0 DUP2 SWAP1 POP SWAP2 SWAP1 POP JUMP JUMPDEST PUSH2 0x3AF8 DUP2 PUSH2 0x3AE6 JUMP JUMPDEST DUP3 MSTORE POP POP JUMP JUMPDEST PUSH0 PUSH1 0x20 DUP3 ADD SWAP1 POP PUSH2 0x3B11 PUSH0 DUP4 ADD DUP5 PUSH2 0x3AEF JUMP JUMPDEST SWAP3 SWAP2 POP POP JUMP JUMPDEST PUSH2 0x3B20 DUP2 PUSH2 0x3AE6 JUMP JUMPDEST DUP2 EQ PUSH2 0x3B2A JUMPI PUSH0 PUSH0 REVERT JUMPDEST POP JUMP JUMPDEST PUSH0 DUP2 CALLDATALOAD SWAP1 POP PUSH2 0x3B3B DUP2 PUSH2 0x3B17 JUMP JUMPDEST SWAP3 SWAP2 POP POP JUMP JUMPDEST PUSH0 PUSH1 0x20 DUP3 DUP5 SUB SLT ISZERO PUSH2 0x3B56 JUMPI PUSH2 0x3B55 PUSH2 0x395B JUMP JUMPDEST JUMPDEST PUSH0 PUSH2 0x3B63 DUP5 DUP3 DUP6 ADD PUSH2 0x3B2D JUMP JUMPDEST SWAP2 POP POP SWAP3 SWAP2 POP POP JUMP JUMPDEST PUSH0 DUP2 MLOAD SWAP1 POP SWAP2 SWAP1 POP JUMP JUMPDEST PUSH0 DUP3 DUP3 MSTORE PUSH1 0x20 DUP3 ADD SWAP1 POP SWAP3 SWAP2 POP POP JUMP JUMPDEST DUP3 DUP2 DUP4 MCOPY PUSH0 DUP4 DUP4 ADD MSTORE POP POP POP JUMP JUMPDEST PUSH0 PUSH2 0x3B9E DUP3 PUSH2 0x3B6C JUMP JUMPDEST PUSH2 0x3BA8 DUP2 DUP6 PUSH2 0x3B76 JUMP JUMPDEST SWAP4 POP PUSH2 0x3BB8 DUP2 DUP6 PUSH1 0x20 DUP7 ADD PUSH2 0x3B86 JUMP JUMPDEST PUSH2 0x3BC1 DUP2 PUSH2 0x396B JUMP JUMPDEST DUP5 ADD SWAP2 POP POP SWAP3 SWAP2 POP POP JUMP JUMPDEST PUSH32 0x4E487B7100000000000000000000000000000000000000000000000000000000 PUSH0 MSTORE PUSH1 0x21 PUSH1 0x4 MSTORE PUSH1 0x24 PUSH0 REVERT JUMPDEST PUSH1 0x4 DUP2 LT PUSH2 0x3C0A JUMPI PUSH2 0x3C09 PUSH2 0x3BCC JUMP JUMPDEST JUMPDEST POP JUMP JUMPDEST PUSH0 DUP2 SWAP1 POP PUSH2 0x3C1A DUP3 PUSH2 0x3BF9 JUMP JUMPDEST SWAP2 SWAP1 POP JUMP JUMPDEST PUSH0 PUSH2 0x3C29 DUP3 PUSH2 0x3C0D JUMP JUMPDEST SWAP1 POP SWAP2 SWAP1 POP JUMP JUMPDEST PUSH2 0x3C39 DUP2 PUSH2 0x3C1F JUMP JUMPDEST DUP3 MSTORE POP POP JUMP JUMPDEST PUSH0 DUP2 ISZERO ISZERO SWAP1 POP SWAP2 SWAP1 POP JUMP JUMPDEST PUSH2 0x3C53 DUP2 PUSH2 0x3C3F JUMP JUMPDEST DUP3 MSTORE POP POP JUMP JUMPDEST PUSH0 PUSH2 0x100 DUP3 ADD SWAP1 POP PUSH2 0x3C6D PUSH0 DUP4 ADD DUP12 PUSH2 0x3AEF JUMP JUMPDEST DUP2 DUP2 SUB PUSH1 0x20 DUP4 ADD MSTORE PUSH2 0x3C7F DUP2 DUP11 PUSH2 0x3B94 JUMP JUMPDEST SWAP1 POP DUP2 DUP2 SUB PUSH1 0x40 DUP4 ADD MSTORE PUSH2 0x3C93 DUP2 DUP10 PUSH2 0x3B94 JUMP JUMPDEST SWAP1 POP PUSH2 0x3CA2 PUSH1 0x60 DUP4 ADD DUP9 PUSH2 0x3C30 JUMP JUMPDEST PUSH2 0x3CAF PUSH1 0x80 DUP4 ADD DUP8 PUSH2 0x3AEF JUMP JUMPDEST DUP2 DUP2 SUB PUSH1 0xA0 DUP4 ADD MSTORE PUSH2 0x3CC1 DUP2 DUP7 PUSH2 0x3B94 JUMP JUMPDEST SWAP1 POP PUSH2 0x3CD0 PUSH1 0xC0 DUP4 ADD DUP6 PUSH2 0x3C4A JUMP JUMPDEST PUSH2 0x3CDD PUSH1 0xE0 DUP4 ADD DUP5 PUSH2 0x3AEF JUMP JUMPDEST SWAP10 SWAP9 POP POP POP POP POP POP POP POP POP JUMP JUMPDEST PUSH0 PUSH1 0x20 DUP3 ADD SWAP1 POP PUSH2 0x3CFD PUSH0 DUP4 ADD DUP5 PUSH2 0x3C4A JUMP JUMPDEST SWAP3 SWAP2 POP POP JUMP JUMPDEST PUSH0 PUSH20 0xFFFFFFFFFFFFFFFFFFFFFFFFFFFFFFFFFFFFFFFF DUP3 AND SWAP1 POP SWAP2 SWAP1 POP JUMP JUMPDEST PUSH0 PUSH2 0x3D2C DUP3 PUSH2 0x3D03 JUMP JUMPDEST SWAP1 POP SWAP2 SWAP1 POP JUMP JUMPDEST PUSH2 0x3D3C DUP2 PUSH2 0x3D22 JUMP JUMPDEST DUP2 EQ PUSH2 0x3D46 JUMPI PUSH0 PUSH0 REVERT JUMPDEST POP JUMP JUMPDEST PUSH0 DUP2 CALLDATALOAD SWAP1 POP PUSH2 0x3D57 DUP2 PUSH2 0x3D33 JUMP JUMPDEST SWAP3 SWAP2 POP POP JUMP JUMPDEST PUSH0 PUSH1 0x20 DUP3 DUP5 SUB SLT ISZERO PUSH2 0x3D72 JUMPI PUSH2 0x3D71 PUSH2 0x395B JUMP JUMPDEST JUMPDEST PUSH0 PUSH2 0x3D7F DUP5 DUP3 DUP6 ADD PUSH2 0x3D49 JUMP JUMPDEST SWAP2 POP POP SWAP3 SWAP2 POP POP JUMP JUMPDEST PUSH1 0x4 DUP2 LT PUSH2 0x3D94 JUMPI PUSH0 PUSH0 REVERT JUMPDEST POP JUMP JUMPDEST PUSH0 DUP2 CALLDATALOAD SWAP1 POP PUSH2 0x3DA5 DUP2 PUSH2 0x3D88 JUMP JUMPDEST SWAP3 SWAP2 POP POP JUMP JUMPDEST PUSH2 0x3DB4 DUP2 PUSH2 0x3C3F JUMP JUMPDEST DUP2 EQ PUSH2 0x3DBE JUMPI PUSH0 PUSH0 REVERT JUMPDEST POP JUMP JUMPDEST PUSH0 DUP2 CALLDATALOAD SWAP1 POP PUSH2 0x3DCF DUP2 PUSH2 0x3DAB JUMP JUMPDEST SWAP3 SWAP2 POP POP JUMP JUMPDEST PUSH0 PUSH0 PUSH0 PUSH0 PUSH0 PUSH1 0xA0 DUP7 DUP9 SUB SLT ISZERO PUSH2 0x3DEE JUMPI PUSH2 0x3DED PUSH2 0x395B JUMP JUMPDEST JUMPDEST PUSH0 DUP7 ADD CALLDATALOAD PUSH8 0xFFFFFFFFFFFFFFFF DUP2 GT ISZERO PUSH2 0x3E0B JUMPI PUSH2 0x3E0A PUSH2 0x395F JUMP JUMPDEST JUMPDEST PUSH2 0x3E17 DUP9 DUP3 DUP10 ADD PUSH2 0x3A72 JUMP JUMPDEST SWAP6 POP POP PUSH1 0x20 DUP7 ADD CALLDATALOAD PUSH8 0xFFFFFFFFFFFFFFFF DUP2 GT ISZERO PUSH2 0x3E38 JUMPI PUSH2 0x3E37 PUSH2 0x395F JUMP JUMPDEST JUMPDEST PUSH2 0x3E44 DUP9 DUP3 DUP10 ADD PUSH2 0x3A72 JUMP JUMPDEST SWAP5 POP POP PUSH1 0x40 PUSH2 0x3E55 DUP9 DUP3 DUP10 ADD PUSH2 0x3D97 JUMP JUMPDEST SWAP4 POP POP PUSH1 0x60 DUP7 ADD CALLDATALOAD PUSH8 0xFFFFFFFFFFFFFFFF DUP2 GT ISZERO PUSH2 0x3E76 JUMPI PUSH2 0x3E75 PUSH2 0x395F JUMP JUMPDEST JUMPDEST PUSH2 0x3E82 DUP9 DUP3 DUP10 ADD PUSH2 0x3A72 JUMP JUMPDEST SWAP3 POP POP PUSH1 0x80 PUSH2 0x3E93 DUP9 DUP3 DUP10 ADD PUSH2 0x3DC1 JUMP JUMPDEST SWAP2 POP POP SWAP3 SWAP6 POP SWAP3 SWAP6 SWAP1 SWAP4 POP JUMP JUMPDEST PUSH0 PUSH0 PUSH1 0x40 DUP4 DUP6 SUB SLT ISZERO PUSH2 0x3EB6 JUMPI PUSH2 0x3EB5 PUSH2 0x395B JUMP JUMPDEST JUMPDEST PUSH0 PUSH2 0x3EC3 DUP6 DUP3 DUP7 ADD PUSH2 0x3B2D JUMP JUMPDEST SWAP3 POP POP PUSH1 0x20 PUSH2 0x3ED4 DUP6 DUP3 DUP7 ADD PUSH2 0x3DC1 JUMP JUMPDEST SWAP2 POP POP SWAP3 POP SWAP3 SWAP1 POP JUMP JUMPDEST PUSH0 PUSH1 0x80 DUP3 ADD SWAP1 POP PUSH2 0x3EF1 PUSH0 DUP4 ADD DUP8 PUSH2 0x3AEF JUMP JUMPDEST PUSH2 0x3EFE PUSH1 0x20 DUP4 ADD DUP7 PUSH2 0x3AEF JUMP JUMPDEST PUSH2 0x3F0B PUSH1 0x40 DUP4 ADD DUP6 PUSH2 0x3AEF JUMP JUMPDEST PUSH2 0x3F18 PUSH1 0x60 DUP4 ADD DUP5 PUSH2 0x3C4A JUMP JUMPDEST SWAP6 SWAP5 POP POP POP POP POP JUMP JUMPDEST PUSH2 0x3F2A DUP2 PUSH2 0x3AE6 JUMP JUMPDEST DUP3 MSTORE POP POP JUMP JUMPDEST PUSH0 DUP3 DUP3 MSTORE PUSH1 0x20 DUP3 ADD SWAP1 POP SWAP3 SWAP2 POP POP JUMP JUMPDEST PUSH0 PUSH2 0x3F4A DUP3 PUSH2 0x3B6C JUMP JUMPDEST PUSH2 0x3F54 DUP2 DUP6 PUSH2 0x3F30 JUMP JUMPDEST SWAP4 POP PUSH2 0x3F64 DUP2 DUP6 PUSH1 0x20 DUP7 ADD PUSH2 0x3B86 JUMP JUMPDEST PUSH2 0x3F6D DUP2 PUSH2 0x396B JUMP JUMPDEST DUP5 ADD SWAP2 POP POP SWAP3 SWAP2 POP POP JUMP JUMPDEST PUSH2 0x3F81 DUP2 PUSH2 0x3C1F JUMP JUMPDEST DUP3 MSTORE POP POP JUMP JUMPDEST PUSH2 0x3F90 DUP2 PUSH2 0x3C3F JUMP JUMPDEST DUP3 MSTORE POP POP JUMP JUMPDEST PUSH0 PUSH2 0x100 DUP4 ADD PUSH0 DUP4 ADD MLOAD PUSH2 0x3FAC PUSH0 DUP7 ADD DUP3 PUSH2 0x3F21 JUMP JUMPDEST POP PUSH1 0x20 DUP4 ADD MLOAD DUP5 DUP3 SUB PUSH1 0x20 DUP7 ADD MSTORE PUSH2 0x3FC4 DUP3 DUP3 PUSH2 0x3F40 JUMP JUMPDEST SWAP2 POP POP PUSH1 0x40 DUP4 ADD MLOAD DUP5 DUP3 SUB PUSH1 0x40 DUP7 ADD MSTORE PUSH2 0x3FDE DUP3 DUP3 PUSH2 0x3F40 JUMP JUMPDEST SWAP2 POP POP PUSH1 0x60 DUP4 ADD MLOAD PUSH2 0x3FF3 PUSH1 0x60 DUP7 ADD DUP3 PUSH2 0x3F78 JUMP JUMPDEST POP PUSH1 0x80 DUP4 ADD MLOAD PUSH2 0x4006 PUSH1 0x80 DUP7 ADD DUP3 PUSH2 0x3F21 JUMP JUMPDEST POP PUSH1 0xA0 DUP4 ADD MLOAD DUP5 DUP3 SUB PUSH1 0xA0 DUP7 ADD MSTORE PUSH2 0x401E DUP3 DUP3 PUSH2 0x3F40 JUMP JUMPDEST SWAP2 POP POP PUSH1 0xC0 DUP4 ADD MLOAD PUSH2 0x4033 PUSH1 0xC0 DUP7 ADD DUP3 PUSH2 0x3F87 JUMP JUMPDEST POP PUSH1 0xE0 DUP4 ADD MLOAD PUSH2 0x4046 PUSH1 0xE0 DUP7 ADD DUP3 PUSH2 0x3F21 JUMP JUMPDEST POP DUP1 SWAP2 POP POP SWAP3 SWAP2 POP POP JUMP JUMPDEST PUSH0 PUSH1 0x20 DUP3 ADD SWAP1 POP DUP2 DUP2 SUB PUSH0 DUP4 ADD MSTORE PUSH2 0x4069 DUP2 DUP5 PUSH2 0x3F96 JUMP JUMPDEST SWAP1 POP SWAP3 SWAP2 POP POP JUMP JUMPDEST PUSH1 0x6 DUP2 LT PUSH2 0x4082 JUMPI PUSH2 0x4081 PUSH2 0x3BCC JUMP JUMPDEST JUMPDEST POP JUMP JUMPDEST PUSH0 DUP2 SWAP1 POP PUSH2 0x4092 DUP3 PUSH2 0x4071 JUMP JUMPDEST SWAP2 SWAP1 POP JUMP JUMPDEST PUSH0 PUSH2 0x40A1 DUP3 PUSH2 0x4085 JUMP JUMPDEST SWAP1 POP SWAP2 SWAP1 POP JUMP JUMPDEST PUSH2 0x40B1 DUP2 PUSH2 0x4097 JUMP JUMPDEST DUP3 MSTORE POP POP JUMP JUMPDEST PUSH1 0x3 DUP2 LT PUSH2 0x40C8 JUMPI PUSH2 0x40C7 PUSH2 0x3BCC JUMP JUMPDEST JUMPDEST POP JUMP JUMPDEST PUSH0 DUP2 SWAP1 POP PUSH2 0x40D8 DUP3 PUSH2 0x40B7 JUMP JUMPDEST SWAP2 SWAP1 POP JUMP JUMPDEST PUSH0 PUSH2 0x40E7 DUP3 PUSH2 0x40CB JUMP JUMPDEST SWAP1 POP SWAP2 SWAP1 POP JUMP JUMPDEST PUSH2 0x40F7 DUP2 PUSH2 0x40DD JUMP JUMPDEST DUP3 MSTORE POP POP JUMP JUMPDEST PUSH2 0x4106 DUP2 PUSH2 0x3D22 JUMP JUMPDEST DUP3 MSTORE POP POP JUMP JUMPDEST PUSH0 PUSH2 0x180 DUP4 ADD PUSH0 DUP4 ADD MLOAD PUSH2 0x4122 PUSH0 DUP7 ADD DUP3 PUSH2 0x3F21 JUMP JUMPDEST POP PUSH1 0x20 DUP4 ADD MLOAD DUP5 DUP3 SUB PUSH1 0x20 DUP7 ADD MSTORE PUSH2 0x413A DUP3 DUP3 PUSH2 0x3F40 JUMP JUMPDEST SWAP2 POP POP PUSH1 0x40 DUP4 ADD MLOAD DUP5 DUP3 SUB PUSH1 0x40 DUP7 ADD MSTORE PUSH2 0x4154 DUP3 DUP3 PUSH2 0x3F40 JUMP JUMPDEST SWAP2 POP POP PUSH1 0x60 DUP4 ADD MLOAD DUP5 DUP3 SUB PUSH1 0x60 DUP7 ADD MSTORE PUSH2 0x416E DUP3 DUP3 PUSH2 0x3F40 JUMP JUMPDEST SWAP2 POP POP PUSH1 0x80 DUP4 ADD MLOAD PUSH2 0x4183 PUSH1 0x80 DUP7 ADD DUP3 PUSH2 0x3F21 JUMP JUMPDEST POP PUSH1 0xA0 DUP4 ADD MLOAD PUSH2 0x4196 PUSH1 0xA0 DUP7 ADD DUP3 PUSH2 0x3F21 JUMP JUMPDEST POP PUSH1 0xC0 DUP4 ADD MLOAD PUSH2 0x41A9 PUSH1 0xC0 DUP7 ADD DUP3 PUSH2 0x40A8 JUMP JUMPDEST POP PUSH1 0xE0 DUP4 ADD MLOAD PUSH2 0x41BC PUSH1 0xE0 DUP7 ADD DUP3 PUSH2 0x40EE JUMP JUMPDEST POP PUSH2 0x100 DUP4 ADD MLOAD PUSH2 0x41D1 PUSH2 0x100 DUP7 ADD DUP3 PUSH2 0x3F87 JUMP JUMPDEST POP PUSH2 0x120 DUP4 ADD MLOAD PUSH2 0x41E6 PUSH2 0x120 DUP7 ADD DUP3 PUSH2 0x3F21 JUMP JUMPDEST POP PUSH2 0x140 DUP4 ADD MLOAD PUSH2 0x41FB PUSH2 0x140 DUP7 ADD DUP3 PUSH2 0x3F21 JUMP JUMPDEST POP PUSH2 0x160 DUP4 ADD MLOAD PUSH2 0x4210 PUSH2 0x160 DUP7 ADD DUP3 PUSH2 0x40FD JUMP JUMPDEST POP DUP1 SWAP2 POP POP SWAP3 SWAP2 POP POP JUMP JUMPDEST PUSH0 PUSH1 0x20 DUP3 ADD SWAP1 POP DUP2 DUP2 SUB PUSH0 DUP4 ADD MSTORE PUSH2 0x4233 DUP2 DUP5 PUSH2 0x410C JUMP JUMPDEST SWAP1 POP SWAP3 SWAP2 POP POP JUMP JUMPDEST PUSH1 0xA0 DUP3 ADD PUSH0 DUP3 ADD MLOAD PUSH2 0x424F PUSH0 DUP6 ADD DUP3 PUSH2 0x3F21 JUMP JUMPDEST POP PUSH1 0x20 DUP3 ADD MLOAD PUSH2 0x4262 PUSH1 0x20 DUP6 ADD DUP3 PUSH2 0x3F21 JUMP JUMPDEST POP PUSH1 0x40 DUP3 ADD MLOAD PUSH2 0x4275 PUSH1 0x40 DUP6 ADD DUP3 PUSH2 0x3F21 JUMP JUMPDEST POP PUSH1 0x60 DUP3 ADD MLOAD PUSH2 0x4288 PUSH1 0x60 DUP6 ADD DUP3 PUSH2 0x3F21 JUMP JUMPDEST POP PUSH1 0x80 DUP3 ADD MLOAD PUSH2 0x429B PUSH1 0x80 DUP6 ADD DUP3 PUSH2 0x3F21 JUMP JUMPDEST POP POP POP POP JUMP JUMPDEST PUSH0 PUSH1 0xA0 DUP3 ADD SWAP1 POP PUSH2 0x42B4 PUSH0 DUP4 ADD DUP5 PUSH2 0x423B JUMP JUMPDEST SWAP3 SWAP2 POP POP JUMP JUMPDEST PUSH0 PUSH1 0xA0 DUP3 ADD SWAP1 POP PUSH2 0x42CD PUSH0 DUP4 ADD DUP9 PUSH2 0x3C4A JUMP JUMPDEST PUSH2 0x42DA PUSH1 0x20 DUP4 ADD DUP8 PUSH2 0x3C4A JUMP JUMPDEST PUSH2 0x42E7 PUSH1 0x40 DUP4 ADD DUP7 PUSH2 0x3AEF JUMP JUMPDEST PUSH2 0x42F4 PUSH1 0x60 DUP4 ADD DUP6 PUSH2 0x3AEF JUMP JUMPDEST PUSH2 0x4301 PUSH1 0x80 DUP4 ADD DUP5 PUSH2 0x3AEF JUMP JUMPDEST SWAP7 SWAP6 POP POP POP POP POP POP JUMP JUMPDEST PUSH1 0x80 DUP3 ADD PUSH0 DUP3 ADD MLOAD PUSH2 0x431F PUSH0 DUP6 ADD DUP3 PUSH2 0x3F21 JUMP JUMPDEST POP PUSH1 0x20 DUP3 ADD MLOAD PUSH2 0x4332 PUSH1 0x20 DUP6 ADD DUP3 PUSH2 0x3F21 JUMP JUMPDEST POP PUSH1 0x40 DUP3 ADD MLOAD PUSH2 0x4345 PUSH1 0x40 DUP6 ADD DUP3 PUSH2 0x3F21 JUMP JUMPDEST POP PUSH1 0x60 DUP3 ADD MLOAD PUSH2 0x4358 PUSH1 0x60 DUP6 ADD DUP3 PUSH2 0x3F87 JUMP JUMPDEST POP POP POP POP JUMP JUMPDEST PUSH0 PUSH1 0x80 DUP3 ADD SWAP1 POP PUSH2 0x4371 PUSH0 DUP4 ADD DUP5 PUSH2 0x430B JUMP JUMPDEST SWAP3 SWAP2 POP POP JUMP JUMPDEST PUSH1 0x6 DUP2 LT PUSH2 0x4383 JUMPI PUSH0 PUSH0 REVERT JUMPDEST POP JUMP JUMPDEST PUSH0 DUP2 CALLDATALOAD SWAP1 POP PUSH2 0x4394 DUP2 PUSH2 0x4377 JUMP JUMPDEST SWAP3 SWAP2 POP POP JUMP JUMPDEST PUSH1 0x3 DUP2 LT PUSH2 0x43A6 JUMPI PUSH0 PUSH0 REVERT JUMPDEST POP JUMP JUMPDEST PUSH0 DUP2 CALLDATALOAD SWAP1 POP PUSH2 0x43B7 DUP2 PUSH2 0x439A JUMP JUMPDEST SWAP3 SWAP2 POP POP JUMP JUMPDEST PUSH0 PUSH0 PUSH0 PUSH0 PUSH0 PUSH0 PUSH0 PUSH0 PUSH2 0x100 DUP10 DUP12 SUB SLT ISZERO PUSH2 0x43DA JUMPI PUSH2 0x43D9 PUSH2 0x395B JUMP JUMPDEST JUMPDEST PUSH0 DUP10 ADD CALLDATALOAD PUSH8 0xFFFFFFFFFFFFFFFF DUP2 GT ISZERO PUSH2 0x43F7 JUMPI PUSH2 0x43F6 PUSH2 0x395F JUMP JUMPDEST JUMPDEST PUSH2 0x4403 DUP12 DUP3 DUP13 ADD PUSH2 0x3A72 JUMP JUMPDEST SWAP9 POP POP PUSH1 0x20 DUP10 ADD CALLDATALOAD PUSH8 0xFFFFFFFFFFFFFFFF DUP2 GT ISZERO PUSH2 0x4424 JUMPI PUSH2 0x4423 PUSH2 0x395F JUMP JUMPDEST JUMPDEST PUSH2 0x4430 DUP12 DUP3 DUP13 ADD PUSH2 0x3A72 JUMP JUMPDEST SWAP8 POP POP PUSH1 0x40 DUP10 ADD CALLDATALOAD PUSH8 0xFFFFFFFFFFFFFFFF DUP2 GT ISZERO PUSH2 0x4451 JUMPI PUSH2 0x4450 PUSH2 0x395F JUMP JUMPDEST JUMPDEST PUSH2 0x445D DUP12 DUP3 DUP13 ADD PUSH2 0x3A72 JUMP JUMPDEST SWAP7 POP POP PUSH1 0x60 PUSH2 0x446E DUP12 DUP3 DUP13 ADD PUSH2 0x3B2D JUMP JUMPDEST SWAP6 POP POP PUSH1 0x80 PUSH2 0x447F DUP12 DUP3 DUP13 ADD PUSH2 0x3B2D JUMP JUMPDEST SWAP5 POP POP PUSH1 0xA0 PUSH2 0x4490 DUP12 DUP3 DUP13 ADD PUSH2 0x4386 JUMP JUMPDEST SWAP4 POP POP PUSH1 0xC0 PUSH2 0x44A1 DUP12 DUP3 DUP13 ADD PUSH2 0x43A9 JUMP JUMPDEST SWAP3 POP POP PUSH1 0xE0 PUSH2 0x44B2 DUP12 DUP3 DUP13 ADD PUSH2 0x3B2D JUMP JUMPDEST SWAP2 POP POP SWAP3 SWAP6 SWAP9 POP SWAP3 SWAP6 SWAP9 SWAP1 SWAP4 SWAP7 POP JUMP JUMPDEST PUSH2 0x44CB DUP2 PUSH2 0x3D22 JUMP JUMPDEST DUP3 MSTORE POP POP JUMP JUMPDEST PUSH0 PUSH1 0x20 DUP3 ADD SWAP1 POP PUSH2 0x44E4 PUSH0 DUP4 ADD DUP5 PUSH2 0x44C2 JUMP JUMPDEST SWAP3 SWAP2 POP POP JUMP JUMPDEST PUSH0 PUSH0 PUSH0 PUSH0 PUSH1 0x80 DUP6 DUP8 SUB SLT ISZERO PUSH2 0x4502 JUMPI PUSH2 0x4501 PUSH2 0x395B JUMP JUMPDEST JUMPDEST PUSH0 DUP6 ADD CALLDATALOAD PUSH8 0xFFFFFFFFFFFFFFFF DUP2 GT ISZERO PUSH2 0x451F JUMPI PUSH2 0x451E PUSH2 0x395F JUMP JUMPDEST JUMPDEST PUSH2 0x452B DUP8 DUP3 DUP9 ADD PUSH2 0x3A72 JUMP JUMPDEST SWAP5 POP POP PUSH1 0x20 DUP6 ADD CALLDATALOAD PUSH8 0xFFFFFFFFFFFFFFFF DUP2 GT ISZERO PUSH2 0x454C JUMPI PUSH2 0x454B PUSH2 0x395F JUMP JUMPDEST JUMPDEST PUSH2 0x4558 DUP8 DUP3 DUP9 ADD PUSH2 0x3A72 JUMP JUMPDEST SWAP4 POP POP PUSH1 0x40 PUSH2 0x4569 DUP8 DUP3 DUP9 ADD PUSH2 0x3B2D JUMP JUMPDEST SWAP3 POP POP PUSH1 0x60 PUSH2 0x457A DUP8 DUP3 DUP9 ADD PUSH2 0x4386 JUMP JUMPDEST SWAP2 POP POP SWAP3 SWAP6 SWAP2 SWAP5 POP SWAP3 POP JUMP JUMPDEST PUSH2 0x458F DUP2 PUSH2 0x4097 JUMP JUMPDEST DUP3 MSTORE POP POP JUMP JUMPDEST PUSH2 0x459E DUP2 PUSH2 0x40DD JUMP JUMPDEST DUP3 MSTORE POP POP JUMP JUMPDEST PUSH0 PUSH2 0x180 DUP3 ADD SWAP1 POP PUSH2 0x45B8 PUSH0 DUP4 ADD DUP16 PUSH2 0x3AEF JUMP JUMPDEST DUP2 DUP2 SUB PUSH1 0x20 DUP4 ADD MSTORE PUSH2 0x45CA DUP2 DUP15 PUSH2 0x3B94 JUMP JUMPDEST SWAP1 POP DUP2 DUP2 SUB PUSH1 0x40 DUP4 ADD MSTORE PUSH2 0x45DE DUP2 DUP14 PUSH2 0x3B94 JUMP JUMPDEST SWAP1 POP DUP2 DUP2 SUB PUSH1 0x60 DUP4 ADD MSTORE PUSH2 0x45F2 DUP2 DUP13 PUSH2 0x3B94 JUMP JUMPDEST SWAP1 POP PUSH2 0x4601 PUSH1 0x80 DUP4 ADD DUP12 PUSH2 0x3AEF JUMP JUMPDEST PUSH2 0x460E PUSH1 0xA0 DUP4 ADD DUP11 PUSH2 0x3AEF JUMP JUMPDEST PUSH2 0x461B PUSH1 0xC0 DUP4 ADD DUP10 PUSH2 0x4586 JUMP JUMPDEST PUSH2 0x4628 PUSH1 0xE0 DUP4 ADD DUP9 PUSH2 0x4595 JUMP JUMPDEST PUSH2 0x4636 PUSH2 0x100 DUP4 ADD DUP8 PUSH2 0x3C4A JUMP JUMPDEST PUSH2 0x4644 PUSH2 0x120 DUP4 ADD DUP7 PUSH2 0x3AEF JUMP JUMPDEST PUSH2 0x4652 PUSH2 0x140 DUP4 ADD DUP6 PUSH2 0x3AEF JUMP JUMPDEST PUSH2 0x4660 PUSH2 0x160 DUP4 ADD DUP5 PUSH2 0x44C2 JUMP JUMPDEST SWAP14 SWAP13 POP POP POP POP POP POP POP POP POP POP POP POP POP JUMP JUMPDEST PUSH0 PUSH1 0xA0 DUP3 ADD SWAP1 POP PUSH2 0x4684 PUSH0 DUP4 ADD DUP9 PUSH2 0x3AEF JUMP JUMPDEST PUSH2 0x4691 PUSH1 0x20 DUP4 ADD DUP8 PUSH2 0x3AEF JUMP JUMPDEST PUSH2 0x469E PUSH1 0x40 DUP4 ADD DUP7 PUSH2 0x3AEF JUMP JUMPDEST PUSH2 0x46AB PUSH1 0x60 DUP4 ADD DUP6 PUSH2 0x3AEF JUMP JUMPDEST PUSH2 0x46B8 PUSH1 0x80 DUP4 ADD DUP5 PUSH2 0x3AEF JUMP JUMPDEST SWAP7 SWAP6 POP POP POP POP POP POP JUMP JUMPDEST PUSH32 0x4E6F7420617574686F72697A6564000000000000000000000000000000000000 PUSH0 DUP3 ADD MSTORE POP JUMP JUMPDEST PUSH0 PUSH2 0x46F6 PUSH1 0xE DUP4 PUSH2 0x3B76 JUMP JUMPDEST SWAP2 POP PUSH2 0x4701 DUP3 PUSH2 0x46C2 JUMP JUMPDEST PUSH1 0x20 DUP3 ADD SWAP1 POP SWAP2 SWAP1 POP JUMP JUMPDEST PUSH0 PUSH1 0x20 DUP3 ADD SWAP1 POP DUP2 DUP2 SUB PUSH0 DUP4 ADD MSTORE PUSH2 0x4723 DUP2 PUSH2 0x46EA JUMP JUMPDEST SWAP1 POP SWAP2 SWAP1 POP JUMP JUMPDEST PUSH0 DUP2 SWAP1 POP SWAP3 SWAP2 POP POP JUMP JUMPDEST PUSH0 PUSH2 0x473E DUP3 PUSH2 0x3B6C JUMP JUMPDEST PUSH2 0x4748 DUP2 DUP6 PUSH2 0x472A JUMP JUMPDEST SWAP4 POP PUSH2 0x4758 DUP2 DUP6 PUSH1 0x20 DUP7 ADD PUSH2 0x3B86 JUMP JUMPDEST DUP1 DUP5 ADD SWAP2 POP POP SWAP3 SWAP2 POP POP JUMP JUMPDEST PUSH0 PUSH2 0x476F DUP3 DUP5 PUSH2 0x4734 JUMP JUMPDEST SWAP2 POP DUP2 SWAP1 POP SWAP3 SWAP2 POP POP JUMP JUMPDEST PUSH0 PUSH1 0x40 DUP3 ADD SWAP1 POP DUP2 DUP2 SUB PUSH0 DUP4 ADD MSTORE PUSH2 0x4792 DUP2 DUP6 PUSH2 0x3B94 JUMP JUMPDEST SWAP1 POP PUSH2 0x47A1 PUSH1 0x20 DUP4 ADD DUP5 PUSH2 0x44C2 JUMP JUMPDEST SWAP4 SWAP3 POP POP POP JUMP JUMPDEST PUSH32 0x4E487B7100000000000000000000000000000000000000000000000000000000 PUSH0 MSTORE PUSH1 0x22 PUSH1 0x4 MSTORE PUSH1 0x24 PUSH0 REVERT JUMPDEST PUSH0 PUSH1 0x2 DUP3 DIV SWAP1 POP PUSH1 0x1 DUP3 AND DUP1 PUSH2 0x47EC JUMPI PUSH1 0x7F DUP3 AND SWAP2 POP JUMPDEST PUSH1 0x20 DUP3 LT DUP2 SUB PUSH2 0x47FF JUMPI PUSH2 0x47FE PUSH2 0x47A8 JUMP JUMPDEST JUMPDEST POP SWAP2 SWAP1 POP JUMP JUMPDEST PUSH32 0x4F6E6C79206F776E65722063616E20706572666F726D20746869732061637469 PUSH0 DUP3 ADD MSTORE PUSH32 0x6F6E000000000000000000000000000000000000000000000000000000000000 PUSH1 0x20 DUP3 ADD MSTORE POP JUMP JUMPDEST PUSH0 PUSH2 0x485F PUSH1 0x22 DUP4 PUSH2 0x3B76 JUMP JUMPDEST SWAP2 POP PUSH2 0x486A DUP3 PUSH2 0x4805 JUMP JUMPDEST PUSH1 0x40 DUP3 ADD SWAP1 POP SWAP2 SWAP1 POP JUMP JUMPDEST PUSH0 PUSH1 0x20 DUP3 ADD SWAP1 POP DUP2 DUP2 SUB PUSH0 DUP4 ADD MSTORE PUSH2 0x488C DUP2 PUSH2 0x4853 JUMP JUMPDEST SWAP1 POP SWAP2 SWAP1 POP JUMP JUMPDEST PUSH32 0x43616E6E6F742072656D6F7665206F776E657200000000000000000000000000 PUSH0 DUP3 ADD MSTORE POP JUMP JUMPDEST PUSH0 PUSH2 0x48C7 PUSH1 0x13 DUP4 PUSH2 0x3B76 JUMP JUMPDEST SWAP2 POP PUSH2 0x48D2 DUP3 PUSH2 0x4893 JUMP JUMPDEST PUSH1 0x20 DUP3 ADD SWAP1 POP SWAP2 SWAP1 POP JUMP JUMPDEST PUSH0 PUSH1 0x20 DUP3 ADD SWAP1 POP DUP2 DUP2 SUB PUSH0 DUP4 ADD MSTORE PUSH2 0x48F4 DUP2 PUSH2 0x48BB JUMP JUMPDEST SWAP1 POP SWAP2 SWAP1 POP JUMP JUMPDEST PUSH32 0x4E487B7100000000000000000000000000000000000000000000000000000000 PUSH0 MSTORE PUSH1 0x11 PUSH1 0x4 MSTORE PUSH1 0x24 PUSH0 REVERT JUMPDEST PUSH0 PUSH2 0x4932 DUP3 PUSH2 0x3AE6 JUMP JUMPDEST SWAP2 POP PUSH32 0xFFFFFFFFFFFFFFFFFFFFFFFFFFFFFFFFFFFFFFFFFFFFFFFFFFFFFFFFFFFFFFFF DUP3 SUB PUSH2 0x4964 JUMPI PUSH2 0x4963 PUSH2 0x48FB JUMP JUMPDEST JUMPDEST PUSH1 0x1 DUP3 ADD SWAP1 POP SWAP2 SWAP1 POP JUMP JUMPDEST PUSH0 DUP2 SWAP1 POP DUP2 PUSH0 MSTORE PUSH1 0x20 PUSH0 KECCAK256 SWAP1 POP SWAP2 SWAP1 POP JUMP JUMPDEST PUSH0 PUSH1 0x20 PUSH1 0x1F DUP4 ADD DIV SWAP1 POP SWAP2 SWAP1 POP JUMP JUMPDEST PUSH0 DUP3 DUP3 SHL SWAP1 POP SWAP3 SWAP2 POP POP JUMP JUMPDEST PUSH0 PUSH1 0x8 DUP4 MUL PUSH2 0x49CB PUSH32 0xFFFFFFFFFFFFFFFFFFFFFFFFFFFFFFFFFFFFFFFFFFFFFFFFFFFFFFFFFFFFFFFF DUP3 PUSH2 0x4990 JUMP JUMPDEST PUSH2 0x49D5 DUP7 DUP4 PUSH2 0x4990 JUMP JUMPDEST SWAP6 POP DUP1 NOT DUP5 AND SWAP4 POP DUP1 DUP7 AND DUP5 OR SWAP3 POP POP POP SWAP4 SWAP3 POP POP POP JUMP JUMPDEST PUSH0 DUP2 SWAP1 POP SWAP2 SWAP1 POP JUMP JUMPDEST PUSH0 PUSH2 0x4A10 PUSH2 0x4A0B PUSH2 0x4A06 DUP5 PUSH2 0x3AE6 JUMP JUMPDEST PUSH2 0x49ED JUMP JUMPDEST PUSH2 0x3AE6 JUMP JUMPDEST SWAP1 POP SWAP2 SWAP1 POP JUMP JUMPDEST PUSH0 DUP2 SWAP1 POP SWAP2 SWAP1 POP JUMP JUMPDEST PUSH2 0x4A29 DUP4 PUSH2 0x49F6 JUMP JUMPDEST PUSH2 0x4A3D PUSH2 0x4A35 DUP3 PUSH2 0x4A17 JUMP JUMPDEST DUP5 DUP5 SLOAD PUSH2 0x499C JUMP JUMPDEST DUP3 SSTORE POP POP POP POP JUMP JUMPDEST PUSH0 PUSH0 SWAP1 POP SWAP1 JUMP JUMPDEST PUSH2 0x4A54 PUSH2 0x4A45 JUMP JUMPDEST PUSH2 0x4A5F DUP2 DUP5 DUP5 PUSH2 0x4A20 JUMP JUMPDEST POP POP POP JUMP JUMPDEST JUMPDEST DUP2 DUP2 LT ISZERO PUSH2 0x4A82 JUMPI PUSH2 0x4A77 PUSH0 DUP3 PUSH2 0x4A4C JUMP JUMPDEST PUSH1 0x1 DUP2 ADD SWAP1 POP PUSH2 0x4A65 JUMP JUMPDEST POP POP JUMP JUMPDEST PUSH1 0x1F DUP3 GT ISZERO PUSH2 0x4AC7 JUMPI PUSH2 0x4A98 DUP2 PUSH2 0x496F JUMP JUMPDEST PUSH2 0x4AA1 DUP5 PUSH2 0x4981 JUMP JUMPDEST DUP2 ADD PUSH1 0x20 DUP6 LT ISZERO PUSH2 0x4AB0 JUMPI DUP2 SWAP1 POP JUMPDEST PUSH2 0x4AC4 PUSH2 0x4ABC DUP6 PUSH2 0x4981 JUMP JUMPDEST DUP4 ADD DUP3 PUSH2 0x4A64 JUMP JUMPDEST POP POP JUMPDEST POP POP POP JUMP JUMPDEST PUSH0 DUP3 DUP3 SHR SWAP1 POP SWAP3 SWAP2 POP POP JUMP JUMPDEST PUSH0 PUSH2 0x4AE7 PUSH0 NOT DUP5 PUSH1 0x8 MUL PUSH2 0x4ACC JUMP JUMPDEST NOT DUP1 DUP4 AND SWAP2 POP POP SWAP3 SWAP2 POP POP JUMP JUMPDEST PUSH0 PUSH2 0x4AFF DUP4 DUP4 PUSH2 0x4AD8 JUMP JUMPDEST SWAP2 POP DUP3 PUSH1 0x2 MUL DUP3 OR SWAP1 POP SWAP3 SWAP2 POP POP JUMP JUMPDEST PUSH2 0x4B18 DUP3 PUSH2 0x3B6C JUMP JUMPDEST PUSH8 0xFFFFFFFFFFFFFFFF DUP2 GT ISZERO PUSH2 0x4B31 JUMPI PUSH2 0x4B30 PUSH2 0x397B JUMP JUMPDEST JUMPDEST PUSH2 0x4B3B DUP3 SLOAD PUSH2 0x47D5 JUMP JUMPDEST PUSH2 0x4B46 DUP3 DUP3 DUP6 PUSH2 0x4A86 JUMP JUMPDEST PUSH0 PUSH1 0x20 SWAP1 POP PUSH1 0x1F DUP4 GT PUSH1 0x1 DUP2 EQ PUSH2 0x4B77 JUMPI PUSH0 DUP5 ISZERO PUSH2 0x4B65 JUMPI DUP3 DUP8 ADD MLOAD SWAP1 POP JUMPDEST PUSH2 0x4B6F DUP6 DUP3 PUSH2 0x4AF4 JUMP JUMPDEST DUP7 SSTORE POP PUSH2 0x4BD6 JUMP JUMPDEST PUSH1 0x1F NOT DUP5 AND PUSH2 0x4B85 DUP7 PUSH2 0x496F JUMP JUMPDEST PUSH0 JUMPDEST DUP3 DUP2 LT ISZERO PUSH2 0x4BAC JUMPI DUP5 DUP10 ADD MLOAD DUP3 SSTORE PUSH1 0x1 DUP3 ADD SWAP2 POP PUSH1 0x20 DUP6 ADD SWAP5 POP PUSH1 0x20 DUP2 ADD SWAP1 POP PUSH2 0x4B87 JUMP JUMPDEST DUP7 DUP4 LT ISZERO PUSH2 0x4BC9 JUMPI DUP5 DUP10 ADD MLOAD PUSH2 0x4BC5 PUSH1 0x1F DUP10 AND DUP3 PUSH2 0x4AD8 JUMP JUMPDEST DUP4 SSTORE POP JUMPDEST PUSH1 0x1 PUSH1 0x2 DUP9 MUL ADD DUP9 SSTORE POP POP POP JUMPDEST POP POP POP POP POP POP JUMP JUMPDEST PUSH0 PUSH1 0x60 DUP3 ADD SWAP1 POP DUP2 DUP2 SUB PUSH0 DUP4 ADD MSTORE PUSH2 0x4BF6 DUP2 DUP7 PUSH2 0x3B94 JUMP JUMPDEST SWAP1 POP PUSH2 0x4C05 PUSH1 0x20 DUP4 ADD DUP6 PUSH2 0x3C30 JUMP JUMPDEST PUSH2 0x4C12 PUSH1 0x40 DUP4 ADD DUP5 PUSH2 0x3AEF JUMP JUMPDEST SWAP5 SWAP4 POP POP POP POP JUMP JUMPDEST PUSH32 0x496E76616C69642072756C652049440000000000000000000000000000000000 PUSH0 DUP3 ADD MSTORE POP JUMP JUMPDEST PUSH0 PUSH2 0x4C4E PUSH1 0xF DUP4 PUSH2 0x3B76 JUMP JUMPDEST SWAP2 POP PUSH2 0x4C59 DUP3 PUSH2 0x4C1A JUMP JUMPDEST PUSH1 0x20 DUP3 ADD SWAP1 POP SWAP2 SWAP1 POP JUMP JUMPDEST PUSH0 PUSH1 0x20 DUP3 ADD SWAP1 POP DUP2 DUP2 SUB PUSH0 DUP4 ADD MSTORE PUSH2 0x4C7B DUP2 PUSH2 0x4C42 JUMP JUMPDEST SWAP1 POP SWAP2 SWAP1 POP JUMP JUMPDEST PUSH32 0x496E76616C696420746872656174204944000000000000000000000000000000 PUSH0 DUP3 ADD MSTORE POP JUMP JUMPDEST PUSH0 PUSH2 0x4CB6 PUSH1 0x11 DUP4 PUSH2 0x3B76 JUMP JUMPDEST SWAP2 POP PUSH2 0x4CC1 DUP3 PUSH2 0x4C82 JUMP JUMPDEST PUSH1 0x20 DUP3 ADD SWAP1 POP SWAP2 SWAP1 POP JUMP JUMPDEST PUSH0 PUSH1 0x20 DUP3 ADD SWAP1 POP DUP2 DUP2 SUB PUSH0 DUP4 ADD MSTORE PUSH2 0x4CE3 DUP2 PUSH2 0x4CAA JUMP JUMPDEST SWAP1 POP SWAP2 SWAP1 POP JUMP JUMPDEST PUSH0 PUSH1 0x40 DUP3 ADD SWAP1 POP DUP2 DUP2 SUB PUSH0 DUP4 ADD MSTORE PUSH2 0x4D02 DUP2 DUP6 PUSH2 0x3B94 JUMP JUMPDEST SWAP1 POP PUSH2 0x4D11 PUSH1 0x20 DUP4 ADD DUP5 PUSH2 0x4595 JUMP JUMPDEST SWAP4 SWAP3 POP POP POP JUMP JUMPDEST PUSH32 0x496E76616C696420616464726573730000000000000000000000000000000000 PUSH0 DUP3 ADD MSTORE POP JUMP JUMPDEST PUSH0 PUSH2 0x4D4C PUSH1 0xF DUP4 PUSH2 0x3B76 JUMP JUMPDEST SWAP2 POP PUSH2 0x4D57 DUP3 PUSH2 0x4D18 JUMP JUMPDEST PUSH1 0x20 DUP3 ADD SWAP1 POP SWAP2 SWAP1 POP JUMP JUMPDEST PUSH0 PUSH1 0x20 DUP3 ADD SWAP1 POP DUP2 DUP2 SUB PUSH0 DUP4 ADD MSTORE PUSH2 0x4D79 DUP2 PUSH2 0x4D40 JUMP JUMPDEST SWAP1 POP SWAP2 SWAP1 POP JUMP JUMPDEST PUSH32 0x6175746F426C6F636B5468726573686F6C640000000000000000000000000000 PUSH0 DUP3 ADD MSTORE POP JUMP JUMPDEST PUSH0 PUSH2 0x4DB4 PUSH1 0x12 DUP4 PUSH2 0x3B76 JUMP JUMPDEST SWAP2 POP PUSH2 0x4DBF DUP3 PUSH2 0x4D80 JUMP JUMPDEST PUSH1 0x20 DUP3 ADD SWAP1 POP SWAP2 SWAP1 POP JUMP JUMPDEST PUSH0 PUSH1 0x40 DUP3 ADD SWAP1 POP DUP2 DUP2 SUB PUSH0 DUP4 ADD MSTORE PUSH2 0x4DE1 DUP2 PUSH2 0x4DA8 JUMP JUMPDEST SWAP1 POP PUSH2 0x4DF0 PUSH1 0x20 DUP4 ADD DUP5 PUSH2 0x3AEF JUMP JUMPDEST SWAP3 SWAP2 POP POP JUMP JUMPDEST PUSH32 0x53797374656D20616C72656164792073746F7070656400000000000000000000 PUSH0 DUP3 ADD MSTORE POP JUMP JUMPDEST PUSH0 PUSH2 0x4E2A PUSH1 0x16 DUP4 PUSH2 0x3B76 JUMP JUMPDEST SWAP2 POP PUSH2 0x4E35 DUP3 PUSH2 0x4DF6 JUMP JUMPDEST PUSH1 0x20 DUP3 ADD SWAP1 POP SWAP2 SWAP1 POP JUMP JUMPDEST PUSH0 PUSH1 0x20 DUP3 ADD SWAP1 POP DUP2 DUP2 SUB PUSH0 DUP4 ADD MSTORE PUSH2 0x4E57 DUP2 PUSH2 0x4E1E JUMP JUMPDEST SWAP1 POP SWAP2 SWAP1 POP JUMP JUMPDEST PUSH32 0x53797374656D206973206E6F7420616374697665000000000000000000000000 PUSH0 DUP3 ADD MSTORE POP JUMP JUMPDEST PUSH0 PUSH2 0x4E92 PUSH1 0x14 DUP4 PUSH2 0x3B76 JUMP JUMPDEST SWAP2 POP PUSH2 0x4E9D DUP3 PUSH2 0x4E5E JUMP JUMPDEST PUSH1 0x20 DUP3 ADD SWAP1 POP SWAP2 SWAP1 POP JUMP JUMPDEST PUSH0 PUSH1 0x20 DUP3 ADD SWAP1 POP DUP2 DUP2 SUB PUSH0 DUP4 ADD MSTORE PUSH2 0x4EBF DUP2 PUSH2 0x4E86 JUMP JUMPDEST SWAP1 POP SWAP2 SWAP1 POP JUMP JUMPDEST PUSH0 PUSH2 0x4ED0 DUP3 PUSH2 0x3AE6 JUMP JUMPDEST SWAP2 POP PUSH2 0x4EDB DUP4 PUSH2 0x3AE6 JUMP JUMPDEST SWAP3 POP DUP3 DUP3 ADD SWAP1 POP DUP1 DUP3 GT ISZERO PUSH2 0x4EF3 JUMPI PUSH2 0x4EF2 PUSH2 0x48FB JUMP JUMPDEST JUMPDEST SWAP3 SWAP2 POP POP JUMP JUMPDEST PUSH0 PUSH2 0x4F03 DUP3 PUSH2 0x3AE6 JUMP JUMPDEST SWAP2 POP PUSH2 0x4F0E DUP4 PUSH2 0x3AE6 JUMP JUMPDEST SWAP3 POP DUP3 DUP3 SUB SWAP1 POP DUP2 DUP2 GT ISZERO PUSH2 0x4F26 JUMPI PUSH2 0x4F25 PUSH2 0x48FB JUMP JUMPDEST JUMPDEST SWAP3 SWAP2 POP POP JUMP JUMPDEST PUSH0 PUSH1 0x60 DUP3 ADD SWAP1 POP DUP2 DUP2 SUB PUSH0 DUP4 ADD MSTORE PUSH2 0x4F44 DUP2 DUP7 PUSH2 0x3B94 JUMP JUMPDEST SWAP1 POP PUSH2 0x4F53 PUSH1 0x20 DUP4 ADD DUP6 PUSH2 0x3AEF JUMP JUMPDEST PUSH2 0x4F60 PUSH1 0x40 DUP4 ADD DUP5 PUSH2 0x3AEF JUMP JUMPDEST SWAP5 SWAP4 POP POP POP POP JUMP JUMPDEST PUSH32 0x737573706963696F6E5468726573686F6C640000000000000000000000000000 PUSH0 DUP3 ADD MSTORE POP JUMP JUMPDEST PUSH0 PUSH2 0x4F9C PUSH1 0x12 DUP4 PUSH2 0x3B76 JUMP JUMPDEST SWAP2 POP PUSH2 0x4FA7 DUP3 PUSH2 0x4F68 JUMP JUMPDEST PUSH1 0x20 DUP3 ADD SWAP1 POP SWAP2 SWAP1 POP JUMP JUMPDEST PUSH0 PUSH1 0x40 DUP3 ADD SWAP1 POP DUP2 DUP2 SUB PUSH0 DUP4 ADD MSTORE PUSH2 0x4FC9 DUP2 PUSH2 0x4F90 JUMP JUMPDEST SWAP1 POP PUSH2 0x4FD8 PUSH1 0x20 DUP4 ADD DUP5 PUSH2 0x3AEF JUMP JUMPDEST SWAP3 SWAP2 POP POP JUMP JUMPDEST PUSH32 0x53797374656D20616C72656164792072756E6E696E6700000000000000000000 PUSH0 DUP3 ADD MSTORE POP JUMP JUMPDEST PUSH0 PUSH2 0x5012 PUSH1 0x16 DUP4 PUSH2 0x3B76 JUMP JUMPDEST SWAP2 POP PUSH2 0x501D DUP3 PUSH2 0x4FDE JUMP JUMPDEST PUSH1 0x20 DUP3 ADD SWAP1 POP SWAP2 SWAP1 POP JUMP JUMPDEST PUSH0 PUSH1 0x20 DUP3 ADD SWAP1 POP DUP2 DUP2 SUB PUSH0 DUP4 ADD MSTORE PUSH2 0x503F DUP2 PUSH2 0x5006 JUMP JUMPDEST SWAP1 POP SWAP2 SWAP1 POP JUMP JUMPDEST PUSH32 0x6D6178436F6E6E656374696F6E735065724D696E757465000000000000000000 PUSH0 DUP3 ADD MSTORE POP JUMP JUMPDEST PUSH0 PUSH2 0x507A PUSH1 0x17 DUP4 PUSH2 0x3B76 JUMP JUMPDEST SWAP2 POP PUSH2 0x5085 DUP3 PUSH2 0x5046 JUMP JUMPDEST PUSH1 0x20 DUP3 ADD SWAP1 POP SWAP2 SWAP1 POP JUMP JUMPDEST PUSH0 PUSH1 0x40 DUP3 ADD SWAP1 POP DUP2 DUP2 SUB PUSH0 DUP4 ADD MSTORE PUSH2 0x50A7 DUP2 PUSH2 0x506E JUMP JUMPDEST SWAP1 POP PUSH2 0x50B6 PUSH1 0x20 DUP4 ADD DUP5 PUSH2 0x3AEF JUMP JUMPDEST SWAP3 SWAP2 POP POP JUMP INVALID COINBASE PUSH22 0x746F2D446574656374656420537573706963696F7573 KECCAK256 COINBASE PUSH4 0x74697669 PUSH21 0x794175746F6D61746963616C6C7920626C6F636B65 PUSH5 0x2064756520 PUSH21 0x6F206869676820737573706963696F6E2073636F72 PUSH6 0xA26469706673 PC 0x22 SLT KECCAK256 SWAP13 MUL 0xC8 SWAP9 LOG2 NOT SLT 0xCF PUSH0 PUSH23 0xC107118F1C67F251E046D3F0518B7BE6C3347CD06FC364 PUSH20 0x6F6C634300081E00330000000000000000000000 "
				},
				"gasEstimates": {
					"creation": {
						"codeDepositCost": "4160800",
						"executionCost": "220628",
						"totalCost": "4381428"
					},
					"external": {
						"addAdmin(address)": "28278",
						"authorizedAdmins(address)": "2943",
						"autoBlockThreshold()": "2491",
						"autoDetectionEnabled()": "2651",
						"blacklistedIPs(string)": "infinite",
						"createRule(string,string,string,uint256,uint256,uint8,uint8,uint256)": "infinite",
						"deleteRule(uint256)": "infinite",
						"disableAutoDetection()": "30154",
						"enableAutoDetection()": "30110",
						"firewallRules(uint256)": "infinite",
						"getIPTraffic(string)": "infinite",
						"getNetworkStats()": "infinite",
						"getRule(uint256)": "infinite",
						"getRuleCount()": "2543",
						"getSystemStatus()": "infinite",
						"getThreatCount()": "2587",
						"getThreatLog(uint256)": "infinite",
						"ipTrafficData(string)": "infinite",
						"isAdmin(address)": "2960",
						"isIPBlacklisted(string)": "infinite",
						"isIPWhitelisted(string)": "infinite",
						"isSystemActive()": "2556",
						"logManualThreat(string,string,uint8,string,bool)": "infinite",
						"manualBlacklist(string)": "infinite",
						"manualWhitelist(string)": "infinite",
						"maxConnectionsPerMinute()": "2494",
						"networkStats()": "infinite",
						"owner()": "2618",
						"removeAdmin(address)": "30435",
						"removeFromBlacklist(string)": "infinite",
						"removeFromWhitelist(string)": "infinite",
						"ruleCounter()": "2558",
						"scanPacket(string,string,uint256,uint8)": "infinite",
						"startSystem()": "32613",
						"stopSystem()": "32675",
						"suspicionThreshold()": "2471",
						"threatCounter()": "2493",
						"threatLogs(uint256)": "infinite",
						"updateAutoBlockThreshold(uint256)": "infinite",
						"updateMaxConnections(uint256)": "infinite",
						"updateRuleStatus(uint256,bool)": "infinite",
						"updateSuspicionThreshold(uint256)": "infinite",
						"whitelistedIPs(string)": "infinite"
					},
					"internal": {
						"_addToBlacklist(string memory)": "infinite",
						"_autoBlockIP(string memory,uint256)": "infinite",
						"_generateAlert(string memory,uint256)": "infinite"
					}
				},
				"methodIdentifiers": {
					"addAdmin(address)": "70480275",
					"authorizedAdmins(address)": "c10460d8",
					"autoBlockThreshold()": "be7c4091",
					"autoDetectionEnabled()": "7a26b08f",
					"blacklistedIPs(string)": "3df907c3",
					"createRule(string,string,string,uint256,uint256,uint8,uint8,uint256)": "6dd3e61a",
					"deleteRule(uint256)": "30626b5c",
					"disableAutoDetection()": "6eed7e43",
					"enableAutoDetection()": "b3d9bffc",
					"firewallRules(uint256)": "b11b267b",
					"getIPTraffic(string)": "5db2e212",
					"getNetworkStats()": "4a662f48",
					"getRule(uint256)": "48462037",
					"getRuleCount()": "5c3ca910",
					"getSystemStatus()": "50c1d19d",
					"getThreatCount()": "6096954f",
					"getThreatLog(uint256)": "444927ac",
					"ipTrafficData(string)": "2f0ee67f",
					"isAdmin(address)": "24d7806c",
					"isIPBlacklisted(string)": "175a292d",
					"isIPWhitelisted(string)": "ad91cb94",
					"isSystemActive()": "35166226",
					"logManualThreat(string,string,uint8,string,bool)": "22347c31",
					"manualBlacklist(string)": "225b623a",
					"manualWhitelist(string)": "0e7310f8",
					"maxConnectionsPerMinute()": "0ecc9b24",
					"networkStats()": "c021e0f6",
					"owner()": "8da5cb5b",
					"removeAdmin(address)": "1785f53c",
					"removeFromBlacklist(string)": "ed6229b2",
					"removeFromWhitelist(string)": "8cbab21f",
					"ruleCounter()": "b2df4696",
					"scanPacket(string,string,uint256,uint8)": "9fdb4729",
					"startSystem()": "ac584166",
					"stopSystem()": "9a4d6f73",
					"suspicionThreshold()": "2fe37089",
					"threatCounter()": "6eb143ba",
					"threatLogs(uint256)": "11454c16",
					"updateAutoBlockThreshold(uint256)": "7b064412",
					"updateMaxConnections(uint256)": "d54e398b",
					"updateRuleStatus(uint256,bool)": "2e7389f4",
					"updateSuspicionThreshold(uint256)": "a0e362f9",
					"whitelistedIPs(string)": "81544029"
				}
			},
			"storageLayout": {
				"storage": [
					{
						"astId": 4,
						"contract": "AdvancedBlockchainFirewall.sol:AdvancedAutoBlockchainFirewall",
						"label": "owner",
						"offset": 0,
						"slot": "0",
						"type": "t_address"
					},
					{
						"astId": 6,
						"contract": "AdvancedBlockchainFirewall.sol:AdvancedAutoBlockchainFirewall",
						"label": "ruleCounter",
						"offset": 0,
						"slot": "1",
						"type": "t_uint256"
					},
					{
						"astId": 8,
						"contract": "AdvancedBlockchainFirewall.sol:AdvancedAutoBlockchainFirewall",
						"label": "threatCounter",
						"offset": 0,
						"slot": "2",
						"type": "t_uint256"
					},
					{
						"astId": 10,
						"contract": "AdvancedBlockchainFirewall.sol:AdvancedAutoBlockchainFirewall",
						"label": "isSystemActive",
						"offset": 0,
						"slot": "3",
						"type": "t_bool"
					},
					{
						"astId": 12,
						"contract": "AdvancedBlockchainFirewall.sol:AdvancedAutoBlockchainFirewall",
						"label": "autoDetectionEnabled",
						"offset": 1,
						"slot": "3",
						"type": "t_bool"
					},
					{
						"astId": 98,
						"contract": "AdvancedBlockchainFirewall.sol:AdvancedAutoBlockchainFirewall",
						"label": "firewallRules",
						"offset": 0,
						"slot": "4",
						"type": "t_mapping(t_uint256,t_struct(FirewallRule)55_storage)"
					},
					{
						"astId": 103,
						"contract": "AdvancedBlockchainFirewall.sol:AdvancedAutoBlockchainFirewall",
						"label": "threatLogs",
						"offset": 0,
						"slot": "5",
						"type": "t_mapping(t_uint256,t_struct(ThreatLog)73_storage)"
					},
					{
						"astId": 107,
						"contract": "AdvancedBlockchainFirewall.sol:AdvancedAutoBlockchainFirewall",
						"label": "authorizedAdmins",
						"offset": 0,
						"slot": "6",
						"type": "t_mapping(t_address,t_bool)"
					},
					{
						"astId": 111,
						"contract": "AdvancedBlockchainFirewall.sol:AdvancedAutoBlockchainFirewall",
						"label": "blacklistedIPs",
						"offset": 0,
						"slot": "7",
						"type": "t_mapping(t_string_memory_ptr,t_bool)"
					},
					{
						"astId": 115,
						"contract": "AdvancedBlockchainFirewall.sol:AdvancedAutoBlockchainFirewall",
						"label": "whitelistedIPs",
						"offset": 0,
						"slot": "8",
						"type": "t_mapping(t_string_memory_ptr,t_bool)"
					},
					{
						"astId": 120,
						"contract": "AdvancedBlockchainFirewall.sol:AdvancedAutoBlockchainFirewall",
						"label": "ipTrafficData",
						"offset": 0,
						"slot": "9",
						"type": "t_mapping(t_string_memory_ptr,t_struct(IPTraffic)93_storage)"
					},
					{
						"astId": 123,
						"contract": "AdvancedBlockchainFirewall.sol:AdvancedAutoBlockchainFirewall",
						"label": "networkStats",
						"offset": 0,
						"slot": "10",
						"type": "t_struct(NetworkStats)84_storage"
					},
					{
						"astId": 126,
						"contract": "AdvancedBlockchainFirewall.sol:AdvancedAutoBlockchainFirewall",
						"label": "maxConnectionsPerMinute",
						"offset": 0,
						"slot": "15",
						"type": "t_uint256"
					},
					{
						"astId": 129,
						"contract": "AdvancedBlockchainFirewall.sol:AdvancedAutoBlockchainFirewall",
						"label": "suspicionThreshold",
						"offset": 0,
						"slot": "16",
						"type": "t_uint256"
					},
					{
						"astId": 132,
						"contract": "AdvancedBlockchainFirewall.sol:AdvancedAutoBlockchainFirewall",
						"label": "autoBlockThreshold",
						"offset": 0,
						"slot": "17",
						"type": "t_uint256"
					}
				],
				"types": {
					"t_address": {
						"encoding": "inplace",
						"label": "address",
						"numberOfBytes": "20"
					},
					"t_bool": {
						"encoding": "inplace",
						"label": "bool",
						"numberOfBytes": "1"
					},
					"t_enum(Protocol)23": {
						"encoding": "inplace",
						"label": "enum AdvancedAutoBlockchainFirewall.Protocol",
						"numberOfBytes": "1"
					},
					"t_enum(RuleAction)16": {
						"encoding": "inplace",
						"label": "enum AdvancedAutoBlockchainFirewall.RuleAction",
						"numberOfBytes": "1"
					},
					"t_enum(ThreatLevel)28": {
						"encoding": "inplace",
						"label": "enum AdvancedAutoBlockchainFirewall.ThreatLevel",
						"numberOfBytes": "1"
					},
					"t_mapping(t_address,t_bool)": {
						"encoding": "mapping",
						"key": "t_address",
						"label": "mapping(address => bool)",
						"numberOfBytes": "32",
						"value": "t_bool"
					},
					"t_mapping(t_string_memory_ptr,t_bool)": {
						"encoding": "mapping",
						"key": "t_string_memory_ptr",
						"label": "mapping(string => bool)",
						"numberOfBytes": "32",
						"value": "t_bool"
					},
					"t_mapping(t_string_memory_ptr,t_struct(IPTraffic)93_storage)": {
						"encoding": "mapping",
						"key": "t_string_memory_ptr",
						"label": "mapping(string => struct AdvancedAutoBlockchainFirewall.IPTraffic)",
						"numberOfBytes": "32",
						"value": "t_struct(IPTraffic)93_storage"
					},
					"t_mapping(t_uint256,t_struct(FirewallRule)55_storage)": {
						"encoding": "mapping",
						"key": "t_uint256",
						"label": "mapping(uint256 => struct AdvancedAutoBlockchainFirewall.FirewallRule)",
						"numberOfBytes": "32",
						"value": "t_struct(FirewallRule)55_storage"
					},
					"t_mapping(t_uint256,t_struct(ThreatLog)73_storage)": {
						"encoding": "mapping",
						"key": "t_uint256",
						"label": "mapping(uint256 => struct AdvancedAutoBlockchainFirewall.ThreatLog)",
						"numberOfBytes": "32",
						"value": "t_struct(ThreatLog)73_storage"
					},
					"t_string_memory_ptr": {
						"encoding": "bytes",
						"label": "string",
						"numberOfBytes": "32"
					},
					"t_string_storage": {
						"encoding": "bytes",
						"label": "string",
						"numberOfBytes": "32"
					},
					"t_struct(FirewallRule)55_storage": {
						"encoding": "inplace",
						"label": "struct AdvancedAutoBlockchainFirewall.FirewallRule",
						"members": [
							{
								"astId": 30,
								"contract": "AdvancedBlockchainFirewall.sol:AdvancedAutoBlockchainFirewall",
								"label": "id",
								"offset": 0,
								"slot": "0",
								"type": "t_uint256"
							},
							{
								"astId": 32,
								"contract": "AdvancedBlockchainFirewall.sol:AdvancedAutoBlockchainFirewall",
								"label": "name",
								"offset": 0,
								"slot": "1",
								"type": "t_string_storage"
							},
							{
								"astId": 34,
								"contract": "AdvancedBlockchainFirewall.sol:AdvancedAutoBlockchainFirewall",
								"label": "sourceIP",
								"offset": 0,
								"slot": "2",
								"type": "t_string_storage"
							},
							{
								"astId": 36,
								"contract": "AdvancedBlockchainFirewall.sol:AdvancedAutoBlockchainFirewall",
								"label": "destinationIP",
								"offset": 0,
								"slot": "3",
								"type": "t_string_storage"
							},
							{
								"astId": 38,
								"contract": "AdvancedBlockchainFirewall.sol:AdvancedAutoBlockchainFirewall",
								"label": "sourcePort",
								"offset": 0,
								"slot": "4",
								"type": "t_uint256"
							},
							{
								"astId": 40,
								"contract": "AdvancedBlockchainFirewall.sol:AdvancedAutoBlockchainFirewall",
								"label": "destinationPort",
								"offset": 0,
								"slot": "5",
								"type": "t_uint256"
							},
							{
								"astId": 43,
								"contract": "AdvancedBlockchainFirewall.sol:AdvancedAutoBlockchainFirewall",
								"label": "protocol",
								"offset": 0,
								"slot": "6",
								"type": "t_enum(Protocol)23"
							},
							{
								"astId": 46,
								"contract": "AdvancedBlockchainFirewall.sol:AdvancedAutoBlockchainFirewall",
								"label": "action",
								"offset": 1,
								"slot": "6",
								"type": "t_enum(RuleAction)16"
							},
							{
								"astId": 48,
								"contract": "AdvancedBlockchainFirewall.sol:AdvancedAutoBlockchainFirewall",
								"label": "isActive",
								"offset": 2,
								"slot": "6",
								"type": "t_bool"
							},
							{
								"astId": 50,
								"contract": "AdvancedBlockchainFirewall.sol:AdvancedAutoBlockchainFirewall",
								"label": "priority",
								"offset": 0,
								"slot": "7",
								"type": "t_uint256"
							},
							{
								"astId": 52,
								"contract": "AdvancedBlockchainFirewall.sol:AdvancedAutoBlockchainFirewall",
								"label": "createdAt",
								"offset": 0,
								"slot": "8",
								"type": "t_uint256"
							},
							{
								"astId": 54,
								"contract": "AdvancedBlockchainFirewall.sol:AdvancedAutoBlockchainFirewall",
								"label": "createdBy",
								"offset": 0,
								"slot": "9",
								"type": "t_address"
							}
						],
						"numberOfBytes": "320"
					},
					"t_struct(IPTraffic)93_storage": {
						"encoding": "inplace",
						"label": "struct AdvancedAutoBlockchainFirewall.IPTraffic",
						"members": [
							{
								"astId": 86,
								"contract": "AdvancedBlockchainFirewall.sol:AdvancedAutoBlockchainFirewall",
								"label": "connectionCount",
								"offset": 0,
								"slot": "0",
								"type": "t_uint256"
							},
							{
								"astId": 88,
								"contract": "AdvancedBlockchainFirewall.sol:AdvancedAutoBlockchainFirewall",
								"label": "lastAccessTime",
								"offset": 0,
								"slot": "1",
								"type": "t_uint256"
							},
							{
								"astId": 90,
								"contract": "AdvancedBlockchainFirewall.sol:AdvancedAutoBlockchainFirewall",
								"label": "suspicionScore",
								"offset": 0,
								"slot": "2",
								"type": "t_uint256"
							},
							{
								"astId": 92,
								"contract": "AdvancedBlockchainFirewall.sol:AdvancedAutoBlockchainFirewall",
								"label": "isMonitored",
								"offset": 0,
								"slot": "3",
								"type": "t_bool"
							}
						],
						"numberOfBytes": "128"
					},
					"t_struct(NetworkStats)84_storage": {
						"encoding": "inplace",
						"label": "struct AdvancedAutoBlockchainFirewall.NetworkStats",
						"members": [
							{
								"astId": 75,
								"contract": "AdvancedBlockchainFirewall.sol:AdvancedAutoBlockchainFirewall",
								"label": "totalPacketsScanned",
								"offset": 0,
								"slot": "0",
								"type": "t_uint256"
							},
							{
								"astId": 77,
								"contract": "AdvancedBlockchainFirewall.sol:AdvancedAutoBlockchainFirewall",
								"label": "threatsBlocked",
								"offset": 0,
								"slot": "1",
								"type": "t_uint256"
							},
							{
								"astId": 79,
								"contract": "AdvancedBlockchainFirewall.sol:AdvancedAutoBlockchainFirewall",
								"label": "alertsTriggered",
								"offset": 0,
								"slot": "2",
								"type": "t_uint256"
							},
							{
								"astId": 81,
								"contract": "AdvancedBlockchainFirewall.sol:AdvancedAutoBlockchainFirewall",
								"label": "autoBlockedIPs",
								"offset": 0,
								"slot": "3",
								"type": "t_uint256"
							},
							{
								"astId": 83,
								"contract": "AdvancedBlockchainFirewall.sol:AdvancedAutoBlockchainFirewall",
								"label": "lastUpdateTime",
								"offset": 0,
								"slot": "4",
								"type": "t_uint256"
							}
						],
						"numberOfBytes": "160"
					},
					"t_struct(ThreatLog)73_storage": {
						"encoding": "inplace",
						"label": "struct AdvancedAutoBlockchainFirewall.ThreatLog",
						"members": [
							{
								"astId": 57,
								"contract": "AdvancedBlockchainFirewall.sol:AdvancedAutoBlockchainFirewall",
								"label": "id",
								"offset": 0,
								"slot": "0",
								"type": "t_uint256"
							},
							{
								"astId": 59,
								"contract": "AdvancedBlockchainFirewall.sol:AdvancedAutoBlockchainFirewall",
								"label": "sourceIP",
								"offset": 0,
								"slot": "1",
								"type": "t_string_storage"
							},
							{
								"astId": 61,
								"contract": "AdvancedBlockchainFirewall.sol:AdvancedAutoBlockchainFirewall",
								"label": "attackType",
								"offset": 0,
								"slot": "2",
								"type": "t_string_storage"
							},
							{
								"astId": 64,
								"contract": "AdvancedBlockchainFirewall.sol:AdvancedAutoBlockchainFirewall",
								"label": "level",
								"offset": 0,
								"slot": "3",
								"type": "t_enum(ThreatLevel)28"
							},
							{
								"astId": 66,
								"contract": "AdvancedBlockchainFirewall.sol:AdvancedAutoBlockchainFirewall",
								"label": "timestamp",
								"offset": 0,
								"slot": "4",
								"type": "t_uint256"
							},
							{
								"astId": 68,
								"contract": "AdvancedBlockchainFirewall.sol:AdvancedAutoBlockchainFirewall",
								"label": "description",
								"offset": 0,
								"slot": "5",
								"type": "t_string_storage"
							},
							{
								"astId": 70,
								"contract": "AdvancedBlockchainFirewall.sol:AdvancedAutoBlockchainFirewall",
								"label": "isBlocked",
								"offset": 0,
								"slot": "6",
								"type": "t_bool"
							},
							{
								"astId": 72,
								"contract": "AdvancedBlockchainFirewall.sol:AdvancedAutoBlockchainFirewall",
								"label": "connectionAttempts",
								"offset": 0,
								"slot": "7",
								"type": "t_uint256"
							}
						],
						"numberOfBytes": "256"
					},
					"t_uint256": {
						"encoding": "inplace",
						"label": "uint256",
						"numberOfBytes": "32"
					}
				}
			},
			"userdoc": {
				"kind": "user",
				"methods": {},
				"version": 1
			}
		}
	}
}